{
  "_format": "hh-sol-artifact-1",
  "contractName": "PriceOracle",
  "sourceName": "src/backend/contracts/PriceOracle.sol",
  "abi": [
    {
      "inputs": [
        {
          "internalType": "address",
          "name": "_router",
          "type": "address"
        },
        {
          "internalType": "address",
          "name": "_WETH",
          "type": "address"
        }
      ],
      "stateMutability": "nonpayable",
      "type": "constructor"
    },
    {
      "inputs": [],
      "name": "WETH",
      "outputs": [
        {
          "internalType": "address",
          "name": "",
          "type": "address"
        }
      ],
      "stateMutability": "view",
      "type": "function"
    },
    {
      "inputs": [
        {
          "internalType": "address",
          "name": "_token",
          "type": "address"
        }
      ],
      "name": "getPriceInWETH",
      "outputs": [
        {
          "internalType": "uint256",
          "name": "",
          "type": "uint256"
        }
      ],
      "stateMutability": "view",
      "type": "function"
    },
    {
      "inputs": [],
      "name": "router",
      "outputs": [
        {
          "internalType": "address",
          "name": "",
          "type": "address"
        }
      ],
      "stateMutability": "view",
      "type": "function"
    }
  ],
  "bytecode": "0x608060405234801561001057600080fd5b506040516104b63803806104b683398101604081905261002f9161007c565b600080546001600160a01b039384166001600160a01b031991821617909155600180549290931691161790556100af565b80516001600160a01b038116811461007757600080fd5b919050565b6000806040838503121561008f57600080fd5b61009883610060565b91506100a660208401610060565b90509250929050565b6103f8806100be6000396000f3fe608060405234801561001057600080fd5b50600436106100415760003560e01c806381cc7e5c14610046578063ad5c46481461006c578063f887ea4014610097575b600080fd5b610059610054366004610201565b6100aa565b6040519081526020015b60405180910390f35b60015461007f906001600160a01b031681565b6040516001600160a01b039091168152602001610063565b60005461007f906001600160a01b031681565b600080546001546040517fd52bb6f40000000000000000000000000000000000000000000000000000000081526001600160a01b038581166004830152918216602482015283928392169063d52bb6f490604401606060405180830381865afa15801561011b573d6000803e3d6000fd5b505050506040513d601f19601f8201168201806040525081019061013f9190610225565b509150915081600003610156575060009392505050565b6000846001600160a01b031663313ce5676040518163ffffffff1660e01b8152600401602060405180830381865afa158015610196573d6000803e3d6000fd5b505050506040513d601f19601f820116820180604052508101906101ba919061025e565b60ff16905082826101cc83600a61037d565b6101d69190610389565b6101e091906103a0565b95945050505050565b6001600160a01b03811681146101fe57600080fd5b50565b60006020828403121561021357600080fd5b813561021e816101e9565b9392505050565b60008060006060848603121561023a57600080fd5b83519250602084015191506040840151610253816101e9565b809150509250925092565b60006020828403121561027057600080fd5b815160ff8116811461021e57600080fd5b634e487b7160e01b600052601160045260246000fd5b600181815b808511156102d25781600019048211156102b8576102b8610281565b808516156102c557918102915b93841c939080029061029c565b509250929050565b6000826102e957506001610377565b816102f657506000610377565b816001811461030c576002811461031657610332565b6001915050610377565b60ff84111561032757610327610281565b50506001821b610377565b5060208310610133831016604e8410600b8410161715610355575081810a610377565b61035f8383610297565b806000190482111561037357610373610281565b0290505b92915050565b600061021e83836102da565b808202811582820484141761037757610377610281565b6000826103bd57634e487b7160e01b600052601260045260246000fd5b50049056fea2646970667358221220ea3a6621e0177fe63a41f83353a89dfb820e4ac94c545e8d6c88a0ed33afd82464736f6c63430008110033",
  "linkReferences": {},
  "deployedLinkReferences": {}
}