{
  "_format": "hh-sol-artifact-1",
  "contractName": "AssetPoolShareDeployer",
  "sourceName": "src/backend/contracts/AssetPoolShareDeployer.sol",
  "abi": [
    {
      "inputs": [
        {
          "internalType": "string",
          "name": "_name",
          "type": "string"
        },
        {
          "internalType": "string",
          "name": "_symbol",
          "type": "string"
        },
        {
          "internalType": "contract ERC20",
          "name": "_underlyingAsset",
          "type": "address"
        }
      ],
      "name": "createAssetPoolShare",
      "outputs": [
        {
          "internalType": "contract AssetPoolShare",
          "name": "",
          "type": "address"
        }
      ],
      "stateMutability": "nonpayable",
      "type": "function"
    }
  ],
  "bytecode": "0x6080604052348015600f57600080fd5b50612a7b8061001f6000396000f3fe608060405234801561001057600080fd5b506004361061002b5760003560e01c8063564cdcb114610030575b600080fd5b61004a600480360381019061004591906102ec565b610060565b60405161005791906103d6565b60405180910390f35b6000808484338560405161007390610115565b61008094939291906104b2565b604051809103906000f08015801561009c573d6000803e3d6000fd5b5090508073ffffffffffffffffffffffffffffffffffffffff1663f2fde38b336040518263ffffffff1660e01b81526004016100d89190610514565b600060405180830381600087803b1580156100f257600080fd5b505af1158015610106573d6000803e3d6000fd5b50505050809150509392505050565b6125168061053083390190565b6000604051905090565b600080fd5b600080fd5b600080fd5b600080fd5b6000601f19601f8301169050919050565b7f4e487b7100000000000000000000000000000000000000000000000000000000600052604160045260246000fd5b61018982610140565b810181811067ffffffffffffffff821117156101a8576101a7610151565b5b80604052505050565b60006101bb610122565b90506101c78282610180565b919050565b600067ffffffffffffffff8211156101e7576101e6610151565b5b6101f082610140565b9050602081019050919050565b82818337600083830152505050565b600061021f61021a846101cc565b6101b1565b90508281526020810184848401111561023b5761023a61013b565b5b6102468482856101fd565b509392505050565b600082601f83011261026357610262610136565b5b813561027384826020860161020c565b91505092915050565b600073ffffffffffffffffffffffffffffffffffffffff82169050919050565b60006102a78261027c565b9050919050565b60006102b98261029c565b9050919050565b6102c9816102ae565b81146102d457600080fd5b50565b6000813590506102e6816102c0565b92915050565b6000806000606084860312156103055761030461012c565b5b600084013567ffffffffffffffff81111561032357610322610131565b5b61032f8682870161024e565b935050602084013567ffffffffffffffff8111156103505761034f610131565b5b61035c8682870161024e565b925050604061036d868287016102d7565b9150509250925092565b6000819050919050565b600061039c6103976103928461027c565b610377565b61027c565b9050919050565b60006103ae82610381565b9050919050565b60006103c0826103a3565b9050919050565b6103d0816103b5565b82525050565b60006020820190506103eb60008301846103c7565b92915050565b600081519050919050565b600082825260208201905092915050565b60005b8381101561042b578082015181840152602081019050610410565b60008484015250505050565b6000610442826103f1565b61044c81856103fc565b935061045c81856020860161040d565b61046581610140565b840191505092915050565b600061047b826103a3565b9050919050565b61048b81610470565b82525050565b600061049c826103a3565b9050919050565b6104ac81610491565b82525050565b600060808201905081810360008301526104cc8187610437565b905081810360208301526104e08186610437565b90506104ef6040830185610482565b6104fc60608301846104a3565b95945050505050565b61050e8161029c565b82525050565b60006020820190506105296000830184610505565b9291505056fe608060405234801561001057600080fd5b50604051612516380380612516833981810160405281019061003291906103ee565b8383816003908161004391906106ae565b50806004908161005391906106ae565b5050506100726100676100fd60201b60201c565b61010560201b60201c565b81600660006101000a81548173ffffffffffffffffffffffffffffffffffffffff021916908373ffffffffffffffffffffffffffffffffffffffff16021790555080600760006101000a81548173ffffffffffffffffffffffffffffffffffffffff021916908373ffffffffffffffffffffffffffffffffffffffff16021790555050505050610780565b600033905090565b6000600560009054906101000a900473ffffffffffffffffffffffffffffffffffffffff16905081600560006101000a81548173ffffffffffffffffffffffffffffffffffffffff021916908373ffffffffffffffffffffffffffffffffffffffff1602179055508173ffffffffffffffffffffffffffffffffffffffff168173ffffffffffffffffffffffffffffffffffffffff167f8be0079c531659141344cd1fd0a4f28419497f9722a3daafe3b4186f6b6457e060405160405180910390a35050565b6000604051905090565b600080fd5b600080fd5b600080fd5b600080fd5b6000601f19601f8301169050919050565b7f4e487b7100000000000000000000000000000000000000000000000000000000600052604160045260246000fd5b610232826101e9565b810181811067ffffffffffffffff82111715610251576102506101fa565b5b80604052505050565b60006102646101cb565b90506102708282610229565b919050565b600067ffffffffffffffff8211156102905761028f6101fa565b5b610299826101e9565b9050602081019050919050565b60005b838110156102c45780820151818401526020810190506102a9565b60008484015250505050565b60006102e36102de84610275565b61025a565b9050828152602081018484840111156102ff576102fe6101e4565b5b61030a8482856102a6565b509392505050565b600082601f830112610327576103266101df565b5b81516103378482602086016102d0565b91505092915050565b600073ffffffffffffffffffffffffffffffffffffffff82169050919050565b600061036b82610340565b9050919050565b600061037d82610360565b9050919050565b61038d81610372565b811461039857600080fd5b50565b6000815190506103aa81610384565b92915050565b60006103bb82610360565b9050919050565b6103cb816103b0565b81146103d657600080fd5b50565b6000815190506103e8816103c2565b92915050565b60008060008060808587031215610408576104076101d5565b5b600085015167ffffffffffffffff811115610426576104256101da565b5b61043287828801610312565b945050602085015167ffffffffffffffff811115610453576104526101da565b5b61045f87828801610312565b93505060406104708782880161039b565b9250506060610481878288016103d9565b91505092959194509250565b600081519050919050565b7f4e487b7100000000000000000000000000000000000000000000000000000000600052602260045260246000fd5b600060028204905060018216806104df57607f821691505b6020821081036104f2576104f1610498565b5b50919050565b60008190508160005260206000209050919050565b60006020601f8301049050919050565b600082821b905092915050565b60006008830261055a7fffffffffffffffffffffffffffffffffffffffffffffffffffffffffffffffff8261051d565b610564868361051d565b95508019841693508086168417925050509392505050565b6000819050919050565b6000819050919050565b60006105ab6105a66105a18461057c565b610586565b61057c565b9050919050565b6000819050919050565b6105c583610590565b6105d96105d1826105b2565b84845461052a565b825550505050565b600090565b6105ee6105e1565b6105f98184846105bc565b505050565b5b8181101561061d576106126000826105e6565b6001810190506105ff565b5050565b601f82111561066257610633816104f8565b61063c8461050d565b8101602085101561064b578190505b61065f6106578561050d565b8301826105fe565b50505b505050565b600082821c905092915050565b600061068560001984600802610667565b1980831691505092915050565b600061069e8383610674565b9150826002028217905092915050565b6106b78261048d565b67ffffffffffffffff8111156106d0576106cf6101fa565b5b6106da82546104c7565b6106e5828285610621565b600060209050601f8311600181146107185760008415610706578287015190505b6107108582610692565b865550610778565b601f198416610726866104f8565b60005b8281101561074e57848901518255600182019150602085019450602081019050610729565b8683101561076b5784890151610767601f891682610674565b8355505b6001600288020188555050505b505050505050565b611d878061078f6000396000f3fe608060405234801561001057600080fd5b506004361061010b5760003560e01c8063715018a6116100a25780639dc29fac116100715780639dc29fac146102aa578063a457c2d7146102c6578063a9059cbb146102f6578063dd62ed3e14610326578063f2fde38b146103565761010b565b8063715018a6146102465780637158da7c146102505780638da5cb5b1461026e57806395d89b411461028c5761010b565b8063313ce567116100de578063313ce567146101ac57806339509351146101ca57806340c10f19146101fa57806370a08231146102165761010b565b806306fdde0314610110578063095ea7b31461012e57806318160ddd1461015e57806323b872dd1461017c575b600080fd5b610118610372565b604051610125919061126d565b60405180910390f35b61014860048036038101906101439190611328565b610404565b6040516101559190611383565b60405180910390f35b610166610427565b60405161017391906113ad565b60405180910390f35b610196600480360381019061019191906113c8565b610431565b6040516101a39190611383565b60405180910390f35b6101b4610460565b6040516101c19190611437565b60405180910390f35b6101e460048036038101906101df9190611328565b610469565b6040516101f19190611383565b60405180910390f35b610214600480360381019061020f9190611328565b6104a0565b005b610230600480360381019061022b9190611452565b6104b6565b60405161023d91906113ad565b60405180910390f35b61024e6104fe565b005b610258610512565b60405161026591906114de565b60405180910390f35b610276610538565b6040516102839190611508565b60405180910390f35b610294610562565b6040516102a1919061126d565b60405180910390f35b6102c460048036038101906102bf9190611328565b6105f4565b005b6102e060048036038101906102db9190611328565b61060a565b6040516102ed9190611383565b60405180910390f35b610310600480360381019061030b9190611328565b610681565b60405161031d9190611383565b60405180910390f35b610340600480360381019061033b9190611523565b6106a4565b60405161034d91906113ad565b60405180910390f35b610370600480360381019061036b9190611452565b61072b565b005b60606003805461038190611592565b80601f01602080910402602001604051908101604052809291908181526020018280546103ad90611592565b80156103fa5780601f106103cf576101008083540402835291602001916103fa565b820191906000526020600020905b8154815290600101906020018083116103dd57829003601f168201915b5050505050905090565b60008061040f6107ae565b905061041c8185856107b6565b600191505092915050565b6000600254905090565b60008061043c6107ae565b905061044985828561097f565b610454858585610a0b565b60019150509392505050565b60006012905090565b6000806104746107ae565b905061049581858561048685896106a4565b61049091906115f2565b6107b6565b600191505092915050565b6104a8610af6565b6104b28282610b74565b5050565b60008060008373ffffffffffffffffffffffffffffffffffffffff1673ffffffffffffffffffffffffffffffffffffffff168152602001908152602001600020549050919050565b610506610af6565b6105106000610cca565b565b600760009054906101000a900473ffffffffffffffffffffffffffffffffffffffff1681565b6000600560009054906101000a900473ffffffffffffffffffffffffffffffffffffffff16905090565b60606004805461057190611592565b80601f016020809104026020016040519081016040528092919081815260200182805461059d90611592565b80156105ea5780601f106105bf576101008083540402835291602001916105ea565b820191906000526020600020905b8154815290600101906020018083116105cd57829003601f168201915b5050505050905090565b6105fc610af6565b6106068282610d90565b5050565b6000806106156107ae565b9050600061062382866106a4565b905083811015610668576040517f08c379a000000000000000000000000000000000000000000000000000000000815260040161065f90611698565b60405180910390fd5b61067582868684036107b6565b60019250505092915050565b60008061068c6107ae565b9050610699818585610a0b565b600191505092915050565b6000600160008473ffffffffffffffffffffffffffffffffffffffff1673ffffffffffffffffffffffffffffffffffffffff16815260200190815260200160002060008373ffffffffffffffffffffffffffffffffffffffff1673ffffffffffffffffffffffffffffffffffffffff16815260200190815260200160002054905092915050565b610733610af6565b600073ffffffffffffffffffffffffffffffffffffffff168173ffffffffffffffffffffffffffffffffffffffff16036107a2576040517f08c379a00000000000000000000000000000000000000000000000000000000081526004016107999061172a565b60405180910390fd5b6107ab81610cca565b50565b600033905090565b600073ffffffffffffffffffffffffffffffffffffffff168373ffffffffffffffffffffffffffffffffffffffff1603610825576040517f08c379a000000000000000000000000000000000000000000000000000000000815260040161081c906117bc565b60405180910390fd5b600073ffffffffffffffffffffffffffffffffffffffff168273ffffffffffffffffffffffffffffffffffffffff1603610894576040517f08c379a000000000000000000000000000000000000000000000000000000000815260040161088b9061184e565b60405180910390fd5b80600160008573ffffffffffffffffffffffffffffffffffffffff1673ffffffffffffffffffffffffffffffffffffffff16815260200190815260200160002060008473ffffffffffffffffffffffffffffffffffffffff1673ffffffffffffffffffffffffffffffffffffffff168152602001908152602001600020819055508173ffffffffffffffffffffffffffffffffffffffff168373ffffffffffffffffffffffffffffffffffffffff167f8c5be1e5ebec7d5bd14f71427d1e84f3dd0314c0f7b2291e5b200ac8c7c3b9258360405161097291906113ad565b60405180910390a3505050565b600061098b84846106a4565b90507fffffffffffffffffffffffffffffffffffffffffffffffffffffffffffffffff8114610a0557818110156109f7576040517f08c379a00000000000000000000000000000000000000000000000000000000081526004016109ee906118ba565b60405180910390fd5b610a0484848484036107b6565b5b50505050565b610a16838383610f5d565b600660009054906101000a900473ffffffffffffffffffffffffffffffffffffffff1673ffffffffffffffffffffffffffffffffffffffff166336481862846040518263ffffffff1660e01b8152600401610a719190611508565b602060405180830381865afa158015610a8e573d6000803e3d6000fd5b505050506040513d601f19601f82011682018060405250810190610ab29190611906565b610af1576040517f08c379a0000000000000000000000000000000000000000000000000000000008152600401610ae89061197f565b60405180910390fd5b505050565b610afe6107ae565b73ffffffffffffffffffffffffffffffffffffffff16610b1c610538565b73ffffffffffffffffffffffffffffffffffffffff1614610b72576040517f08c379a0000000000000000000000000000000000000000000000000000000008152600401610b69906119eb565b60405180910390fd5b565b600073ffffffffffffffffffffffffffffffffffffffff168273ffffffffffffffffffffffffffffffffffffffff1603610be3576040517f08c379a0000000000000000000000000000000000000000000000000000000008152600401610bda90611a57565b60405180910390fd5b610bef600083836111d3565b8060026000828254610c0191906115f2565b92505081905550806000808473ffffffffffffffffffffffffffffffffffffffff1673ffffffffffffffffffffffffffffffffffffffff168152602001908152602001600020600082825401925050819055508173ffffffffffffffffffffffffffffffffffffffff16600073ffffffffffffffffffffffffffffffffffffffff167fddf252ad1be2c89b69c2b068fc378daa952ba7f163c4a11628f55a4df523b3ef83604051610cb291906113ad565b60405180910390a3610cc6600083836111d8565b5050565b6000600560009054906101000a900473ffffffffffffffffffffffffffffffffffffffff16905081600560006101000a81548173ffffffffffffffffffffffffffffffffffffffff021916908373ffffffffffffffffffffffffffffffffffffffff1602179055508173ffffffffffffffffffffffffffffffffffffffff168173ffffffffffffffffffffffffffffffffffffffff167f8be0079c531659141344cd1fd0a4f28419497f9722a3daafe3b4186f6b6457e060405160405180910390a35050565b600073ffffffffffffffffffffffffffffffffffffffff168273ffffffffffffffffffffffffffffffffffffffff1603610dff576040517f08c379a0000000000000000000000000000000000000000000000000000000008152600401610df690611ae9565b60405180910390fd5b610e0b826000836111d3565b60008060008473ffffffffffffffffffffffffffffffffffffffff1673ffffffffffffffffffffffffffffffffffffffff16815260200190815260200160002054905081811015610e91576040517f08c379a0000000000000000000000000000000000000000000000000000000008152600401610e8890611b7b565b60405180910390fd5b8181036000808573ffffffffffffffffffffffffffffffffffffffff1673ffffffffffffffffffffffffffffffffffffffff1681526020019081526020016000208190555081600260008282540392505081905550600073ffffffffffffffffffffffffffffffffffffffff168373ffffffffffffffffffffffffffffffffffffffff167fddf252ad1be2c89b69c2b068fc378daa952ba7f163c4a11628f55a4df523b3ef84604051610f4491906113ad565b60405180910390a3610f58836000846111d8565b505050565b600073ffffffffffffffffffffffffffffffffffffffff168373ffffffffffffffffffffffffffffffffffffffff1603610fcc576040517f08c379a0000000000000000000000000000000000000000000000000000000008152600401610fc390611c0d565b60405180910390fd5b600073ffffffffffffffffffffffffffffffffffffffff168273ffffffffffffffffffffffffffffffffffffffff160361103b576040517f08c379a000000000000000000000000000000000000000000000000000000000815260040161103290611c9f565b60405180910390fd5b6110468383836111d3565b60008060008573ffffffffffffffffffffffffffffffffffffffff1673ffffffffffffffffffffffffffffffffffffffff168152602001908152602001600020549050818110156110cc576040517f08c379a00000000000000000000000000000000000000000000000000000000081526004016110c390611d31565b60405180910390fd5b8181036000808673ffffffffffffffffffffffffffffffffffffffff1673ffffffffffffffffffffffffffffffffffffffff16815260200190815260200160002081905550816000808573ffffffffffffffffffffffffffffffffffffffff1673ffffffffffffffffffffffffffffffffffffffff168152602001908152602001600020600082825401925050819055508273ffffffffffffffffffffffffffffffffffffffff168473ffffffffffffffffffffffffffffffffffffffff167fddf252ad1be2c89b69c2b068fc378daa952ba7f163c4a11628f55a4df523b3ef846040516111ba91906113ad565b60405180910390a36111cd8484846111d8565b50505050565b505050565b505050565b600081519050919050565b600082825260208201905092915050565b60005b838110156112175780820151818401526020810190506111fc565b60008484015250505050565b6000601f19601f8301169050919050565b600061123f826111dd565b61124981856111e8565b93506112598185602086016111f9565b61126281611223565b840191505092915050565b600060208201905081810360008301526112878184611234565b905092915050565b600080fd5b600073ffffffffffffffffffffffffffffffffffffffff82169050919050565b60006112bf82611294565b9050919050565b6112cf816112b4565b81146112da57600080fd5b50565b6000813590506112ec816112c6565b92915050565b6000819050919050565b611305816112f2565b811461131057600080fd5b50565b600081359050611322816112fc565b92915050565b6000806040838503121561133f5761133e61128f565b5b600061134d858286016112dd565b925050602061135e85828601611313565b9150509250929050565b60008115159050919050565b61137d81611368565b82525050565b60006020820190506113986000830184611374565b92915050565b6113a7816112f2565b82525050565b60006020820190506113c2600083018461139e565b92915050565b6000806000606084860312156113e1576113e061128f565b5b60006113ef868287016112dd565b9350506020611400868287016112dd565b925050604061141186828701611313565b9150509250925092565b600060ff82169050919050565b6114318161141b565b82525050565b600060208201905061144c6000830184611428565b92915050565b6000602082840312156114685761146761128f565b5b6000611476848285016112dd565b91505092915050565b6000819050919050565b60006114a461149f61149a84611294565b61147f565b611294565b9050919050565b60006114b682611489565b9050919050565b60006114c8826114ab565b9050919050565b6114d8816114bd565b82525050565b60006020820190506114f360008301846114cf565b92915050565b611502816112b4565b82525050565b600060208201905061151d60008301846114f9565b92915050565b6000806040838503121561153a5761153961128f565b5b6000611548858286016112dd565b9250506020611559858286016112dd565b9150509250929050565b7f4e487b7100000000000000000000000000000000000000000000000000000000600052602260045260246000fd5b600060028204905060018216806115aa57607f821691505b6020821081036115bd576115bc611563565b5b50919050565b7f4e487b7100000000000000000000000000000000000000000000000000000000600052601160045260246000fd5b60006115fd826112f2565b9150611608836112f2565b92508282019050808211156116205761161f6115c3565b5b92915050565b7f45524332303a2064656372656173656420616c6c6f77616e63652062656c6f7760008201527f207a65726f000000000000000000000000000000000000000000000000000000602082015250565b60006116826025836111e8565b915061168d82611626565b604082019050919050565b600060208201905081810360008301526116b181611675565b9050919050565b7f4f776e61626c653a206e6577206f776e657220697320746865207a65726f206160008201527f6464726573730000000000000000000000000000000000000000000000000000602082015250565b60006117146026836111e8565b915061171f826116b8565b604082019050919050565b6000602082019050818103600083015261174381611707565b9050919050565b7f45524332303a20617070726f76652066726f6d20746865207a65726f2061646460008201527f7265737300000000000000000000000000000000000000000000000000000000602082015250565b60006117a66024836111e8565b91506117b18261174a565b604082019050919050565b600060208201905081810360008301526117d581611799565b9050919050565b7f45524332303a20617070726f766520746f20746865207a65726f20616464726560008201527f7373000000000000000000000000000000000000000000000000000000000000602082015250565b60006118386022836111e8565b9150611843826117dc565b604082019050919050565b600060208201905081810360008301526118678161182b565b9050919050565b7f45524332303a20696e73756666696369656e7420616c6c6f77616e6365000000600082015250565b60006118a4601d836111e8565b91506118af8261186e565b602082019050919050565b600060208201905081810360008301526118d381611897565b9050919050565b6118e381611368565b81146118ee57600080fd5b50565b600081519050611900816118da565b92915050565b60006020828403121561191c5761191b61128f565b5b600061192a848285016118f1565b91505092915050565b7f5452414e534645525f4e4f545f414c4c4f574544000000000000000000000000600082015250565b60006119696014836111e8565b915061197482611933565b602082019050919050565b600060208201905081810360008301526119988161195c565b9050919050565b7f4f776e61626c653a2063616c6c6572206973206e6f7420746865206f776e6572600082015250565b60006119d56020836111e8565b91506119e08261199f565b602082019050919050565b60006020820190508181036000830152611a04816119c8565b9050919050565b7f45524332303a206d696e7420746f20746865207a65726f206164647265737300600082015250565b6000611a41601f836111e8565b9150611a4c82611a0b565b602082019050919050565b60006020820190508181036000830152611a7081611a34565b9050919050565b7f45524332303a206275726e2066726f6d20746865207a65726f2061646472657360008201527f7300000000000000000000000000000000000000000000000000000000000000602082015250565b6000611ad36021836111e8565b9150611ade82611a77565b604082019050919050565b60006020820190508181036000830152611b0281611ac6565b9050919050565b7f45524332303a206275726e20616d6f756e7420657863656564732062616c616e60008201527f6365000000000000000000000000000000000000000000000000000000000000602082015250565b6000611b656022836111e8565b9150611b7082611b09565b604082019050919050565b60006020820190508181036000830152611b9481611b58565b9050919050565b7f45524332303a207472616e736665722066726f6d20746865207a65726f20616460008201527f6472657373000000000000000000000000000000000000000000000000000000602082015250565b6000611bf76025836111e8565b9150611c0282611b9b565b604082019050919050565b60006020820190508181036000830152611c2681611bea565b9050919050565b7f45524332303a207472616e7366657220746f20746865207a65726f206164647260008201527f6573730000000000000000000000000000000000000000000000000000000000602082015250565b6000611c896023836111e8565b9150611c9482611c2d565b604082019050919050565b60006020820190508181036000830152611cb881611c7c565b9050919050565b7f45524332303a207472616e7366657220616d6f756e742065786365656473206260008201527f616c616e63650000000000000000000000000000000000000000000000000000602082015250565b6000611d1b6026836111e8565b9150611d2682611cbf565b604082019050919050565b60006020820190508181036000830152611d4a81611d0e565b905091905056fea2646970667358221220a05a37c3c73d2e0ead45ab8030ed0cc0ffdb697a6e5ed568724b1d15c7a9a4ba64736f6c634300081c0033a2646970667358221220aa59bd3cb79afc784fd8a99591431f947a9629d96ed1512ffcee94f1f2c6e07964736f6c634300081c0033",
  "linkReferences": {},
  "deployedLinkReferences": {}
}