{
  "_format": "hh-sol-artifact-1",
  "contractName": "AssetPool",
  "sourceName": "src/backend/contracts/AssetPool.sol",
  "abi": [
    {
      "inputs": [
        {
          "internalType": "contract AssetPoolShareDeployer",
          "name": "_shareDeployer",
          "type": "address"
        },
        {
          "internalType": "contract PriceOracle",
          "name": "_priceOracle",
          "type": "address"
        }
      ],
      "stateMutability": "nonpayable",
      "type": "constructor"
    },
    {
      "anonymous": false,
      "inputs": [
        {
          "indexed": true,
          "internalType": "address",
          "name": "pool",
          "type": "address"
        },
        {
          "indexed": true,
          "internalType": "address",
          "name": "user",
          "type": "address"
        },
        {
          "indexed": false,
          "internalType": "uint256",
          "name": "borrowShares",
          "type": "uint256"
        },
        {
          "indexed": false,
          "internalType": "uint256",
          "name": "borrowAmount",
          "type": "uint256"
        }
      ],
      "name": "Borrow",
      "type": "event"
    },
    {
      "anonymous": false,
      "inputs": [
        {
          "indexed": true,
          "internalType": "address",
          "name": "pool",
          "type": "address"
        },
        {
          "indexed": true,
          "internalType": "address",
          "name": "user",
          "type": "address"
        },
        {
          "indexed": false,
          "internalType": "uint256",
          "name": "depositShares",
          "type": "uint256"
        },
        {
          "indexed": false,
          "internalType": "uint256",
          "name": "depositAmount",
          "type": "uint256"
        }
      ],
      "name": "Deposit",
      "type": "event"
    },
    {
      "anonymous": false,
      "inputs": [
        {
          "indexed": true,
          "internalType": "address",
          "name": "user",
          "type": "address"
        },
        {
          "indexed": false,
          "internalType": "address",
          "name": "pool",
          "type": "address"
        },
        {
          "indexed": false,
          "internalType": "address",
          "name": "collateral",
          "type": "address"
        },
        {
          "indexed": false,
          "internalType": "uint256",
          "name": "liquidateAmount",
          "type": "uint256"
        },
        {
          "indexed": false,
          "internalType": "uint256",
          "name": "liquidateShares",
          "type": "uint256"
        },
        {
          "indexed": false,
          "internalType": "uint256",
          "name": "collateralAmount",
          "type": "uint256"
        },
        {
          "indexed": false,
          "internalType": "uint256",
          "name": "collateralShares",
          "type": "uint256"
        },
        {
          "indexed": false,
          "internalType": "address",
          "name": "liquidator",
          "type": "address"
        }
      ],
      "name": "Liquidate",
      "type": "event"
    },
    {
      "anonymous": false,
      "inputs": [
        {
          "indexed": true,
          "internalType": "address",
          "name": "previousOwner",
          "type": "address"
        },
        {
          "indexed": true,
          "internalType": "address",
          "name": "newOwner",
          "type": "address"
        }
      ],
      "name": "OwnershipTransferred",
      "type": "event"
    },
    {
      "anonymous": false,
      "inputs": [
        {
          "indexed": true,
          "internalType": "address",
          "name": "token",
          "type": "address"
        },
        {
          "indexed": false,
          "internalType": "address",
          "name": "poolConfigAddress",
          "type": "address"
        }
      ],
      "name": "PoolConfigUpdated",
      "type": "event"
    },
    {
      "anonymous": false,
      "inputs": [
        {
          "indexed": true,
          "internalType": "address",
          "name": "token",
          "type": "address"
        },
        {
          "indexed": true,
          "internalType": "address",
          "name": "shareAddress",
          "type": "address"
        },
        {
          "indexed": true,
          "internalType": "address",
          "name": "poolConfigAddress",
          "type": "address"
        }
      ],
      "name": "PoolInitialized",
      "type": "event"
    },
    {
      "anonymous": false,
      "inputs": [
        {
          "indexed": true,
          "internalType": "address",
          "name": "token",
          "type": "address"
        },
        {
          "indexed": false,
          "internalType": "uint256",
          "name": "cumulativeBorrowInterestRate",
          "type": "uint256"
        },
        {
          "indexed": false,
          "internalType": "uint256",
          "name": "totalBorrows",
          "type": "uint256"
        }
      ],
      "name": "PoolInterestUpdated",
      "type": "event"
    },
    {
      "anonymous": false,
      "inputs": [
        {
          "indexed": true,
          "internalType": "address",
          "name": "pool",
          "type": "address"
        },
        {
          "indexed": true,
          "internalType": "address",
          "name": "user",
          "type": "address"
        },
        {
          "indexed": false,
          "internalType": "uint256",
          "name": "repayShares",
          "type": "uint256"
        },
        {
          "indexed": false,
          "internalType": "uint256",
          "name": "repayAmount",
          "type": "uint256"
        }
      ],
      "name": "Repay",
      "type": "event"
    },
    {
      "anonymous": false,
      "inputs": [
        {
          "indexed": true,
          "internalType": "address",
          "name": "pool",
          "type": "address"
        },
        {
          "indexed": true,
          "internalType": "address",
          "name": "user",
          "type": "address"
        },
        {
          "indexed": false,
          "internalType": "uint256",
          "name": "withdrawShares",
          "type": "uint256"
        },
        {
          "indexed": false,
          "internalType": "uint256",
          "name": "withdrawAmount",
          "type": "uint256"
        }
      ],
      "name": "Withdraw",
      "type": "event"
    },
    {
      "inputs": [],
      "name": "CLOSE_FACTOR",
      "outputs": [
        {
          "internalType": "uint256",
          "name": "",
          "type": "uint256"
        }
      ],
      "stateMutability": "view",
      "type": "function"
    },
    {
      "inputs": [
        {
          "internalType": "contract ERC20",
          "name": "_token",
          "type": "address"
        },
        {
          "internalType": "uint256",
          "name": "_amount",
          "type": "uint256"
        }
      ],
      "name": "borrow",
      "outputs": [],
      "stateMutability": "nonpayable",
      "type": "function"
    },
    {
      "inputs": [
        {
          "internalType": "contract ERC20",
          "name": "_token",
          "type": "address"
        },
        {
          "internalType": "uint256",
          "name": "_amount",
          "type": "uint256"
        }
      ],
      "name": "deposit",
      "outputs": [],
      "stateMutability": "nonpayable",
      "type": "function"
    },
    {
      "inputs": [
        {
          "internalType": "contract ERC20",
          "name": "_token",
          "type": "address"
        }
      ],
      "name": "getAvailableLiquidity",
      "outputs": [
        {
          "internalType": "uint256",
          "name": "",
          "type": "uint256"
        }
      ],
      "stateMutability": "view",
      "type": "function"
    },
    {
      "inputs": [
        {
          "internalType": "contract ERC20",
          "name": "_token",
          "type": "address"
        }
      ],
      "name": "getPool",
      "outputs": [
        {
          "internalType": "enum AssetPool.PoolStatus",
          "name": "status",
          "type": "uint8"
        },
        {
          "internalType": "address",
          "name": "shareToken",
          "type": "address"
        },
        {
          "internalType": "address",
          "name": "poolConfig",
          "type": "address"
        },
        {
          "internalType": "uint256",
          "name": "totalBorrows",
          "type": "uint256"
        },
        {
          "internalType": "uint256",
          "name": "totalBorrowShares",
          "type": "uint256"
        },
        {
          "internalType": "uint256",
          "name": "totalLiquidity",
          "type": "uint256"
        },
        {
          "internalType": "uint256",
          "name": "availableLiquidity",
          "type": "uint256"
        },
        {
          "internalType": "uint256",
          "name": "lastUpdateTimestamp",
          "type": "uint256"
        },
        {
          "internalType": "uint256",
          "name": "borrowRate",
          "type": "uint256"
        },
        {
          "internalType": "uint256",
          "name": "lendingRate",
          "type": "uint256"
        }
      ],
      "stateMutability": "view",
      "type": "function"
    },
    {
      "inputs": [
        {
          "internalType": "contract ERC20",
          "name": "_token",
          "type": "address"
        }
      ],
      "name": "getTotalLiquidity",
      "outputs": [
        {
          "internalType": "uint256",
          "name": "",
          "type": "uint256"
        }
      ],
      "stateMutability": "view",
      "type": "function"
    },
    {
      "inputs": [
        {
          "internalType": "address",
          "name": "_user",
          "type": "address"
        },
        {
          "internalType": "contract ERC20",
          "name": "_token",
          "type": "address"
        }
      ],
      "name": "getUserCompoundedBorrowBalance",
      "outputs": [
        {
          "internalType": "uint256",
          "name": "",
          "type": "uint256"
        }
      ],
      "stateMutability": "view",
      "type": "function"
    },
    {
      "inputs": [
        {
          "internalType": "address",
          "name": "_user",
          "type": "address"
        },
        {
          "internalType": "contract ERC20",
          "name": "_token",
          "type": "address"
        }
      ],
      "name": "getUserCompoundedLiquidityBalance",
      "outputs": [
        {
          "internalType": "uint256",
          "name": "",
          "type": "uint256"
        }
      ],
      "stateMutability": "view",
      "type": "function"
    },
    {
      "inputs": [
        {
          "internalType": "address",
          "name": "_user",
          "type": "address"
        }
      ],
      "name": "getUserInfo",
      "outputs": [
        {
          "internalType": "uint256",
          "name": "totalLiquidityValue",
          "type": "uint256"
        },
        {
          "internalType": "uint256",
          "name": "totalCollateralValue",
          "type": "uint256"
        },
        {
          "internalType": "uint256",
          "name": "totalBorrowedValue",
          "type": "uint256"
        }
      ],
      "stateMutability": "view",
      "type": "function"
    },
    {
      "inputs": [
        {
          "internalType": "address",
          "name": "_user",
          "type": "address"
        },
        {
          "internalType": "contract ERC20",
          "name": "_token",
          "type": "address"
        }
      ],
      "name": "getUserPoolData",
      "outputs": [
        {
          "internalType": "uint256",
          "name": "compoundedLiquidityBalance",
          "type": "uint256"
        },
        {
          "internalType": "uint256",
          "name": "compoundedBorrowBalance",
          "type": "uint256"
        },
        {
          "internalType": "bool",
          "name": "usePoolAsCollateral",
          "type": "bool"
        }
      ],
      "stateMutability": "view",
      "type": "function"
    },
    {
      "inputs": [
        {
          "internalType": "contract ERC20",
          "name": "_token",
          "type": "address"
        },
        {
          "internalType": "contract PoolConfiguration",
          "name": "_poolConfig",
          "type": "address"
        }
      ],
      "name": "initPool",
      "outputs": [],
      "stateMutability": "nonpayable",
      "type": "function"
    },
    {
      "inputs": [
        {
          "internalType": "address",
          "name": "_user",
          "type": "address"
        }
      ],
      "name": "isAccountHealthy",
      "outputs": [
        {
          "internalType": "bool",
          "name": "",
          "type": "bool"
        }
      ],
      "stateMutability": "view",
      "type": "function"
    },
    {
      "inputs": [
        {
          "internalType": "address",
          "name": "_user",
          "type": "address"
        },
        {
          "internalType": "contract ERC20",
          "name": "_token",
          "type": "address"
        },
        {
          "internalType": "uint256",
          "name": "_shares",
          "type": "uint256"
        },
        {
          "internalType": "contract ERC20",
          "name": "_collateral",
          "type": "address"
        }
      ],
      "name": "liquidate",
      "outputs": [],
      "stateMutability": "nonpayable",
      "type": "function"
    },
    {
      "inputs": [],
      "name": "owner",
      "outputs": [
        {
          "internalType": "address",
          "name": "",
          "type": "address"
        }
      ],
      "stateMutability": "view",
      "type": "function"
    },
    {
      "inputs": [
        {
          "internalType": "address",
          "name": "",
          "type": "address"
        }
      ],
      "name": "pools",
      "outputs": [
        {
          "internalType": "enum AssetPool.PoolStatus",
          "name": "status",
          "type": "uint8"
        },
        {
          "internalType": "contract AssetPoolShare",
          "name": "shareToken",
          "type": "address"
        },
        {
          "internalType": "contract PoolConfiguration",
          "name": "poolConfig",
          "type": "address"
        },
        {
          "internalType": "uint256",
          "name": "totalBorrows",
          "type": "uint256"
        },
        {
          "internalType": "uint256",
          "name": "totalBorrowShares",
          "type": "uint256"
        },
        {
          "internalType": "uint256",
          "name": "poolReserves",
          "type": "uint256"
        },
        {
          "internalType": "uint256",
          "name": "lastUpdateTimestamp",
          "type": "uint256"
        }
      ],
      "stateMutability": "view",
      "type": "function"
    },
    {
      "inputs": [],
      "name": "renounceOwnership",
      "outputs": [],
      "stateMutability": "nonpayable",
      "type": "function"
    },
    {
      "inputs": [
        {
          "internalType": "contract ERC20",
          "name": "_token",
          "type": "address"
        },
        {
          "internalType": "uint256",
          "name": "_amount",
          "type": "uint256"
        }
      ],
      "name": "repayByAmount",
      "outputs": [],
      "stateMutability": "nonpayable",
      "type": "function"
    },
    {
      "inputs": [
        {
          "internalType": "contract ERC20",
          "name": "_token",
          "type": "address"
        },
        {
          "internalType": "uint256",
          "name": "_share",
          "type": "uint256"
        }
      ],
      "name": "repayByShare",
      "outputs": [],
      "stateMutability": "nonpayable",
      "type": "function"
    },
    {
      "inputs": [],
      "name": "reserveRate",
      "outputs": [
        {
          "internalType": "uint256",
          "name": "",
          "type": "uint256"
        }
      ],
      "stateMutability": "view",
      "type": "function"
    },
    {
      "inputs": [
        {
          "internalType": "contract ERC20",
          "name": "_token",
          "type": "address"
        },
        {
          "internalType": "enum AssetPool.PoolStatus",
          "name": "_status",
          "type": "uint8"
        }
      ],
      "name": "setPoolStatus",
      "outputs": [],
      "stateMutability": "nonpayable",
      "type": "function"
    },
    {
      "inputs": [
        {
          "internalType": "contract PriceOracle",
          "name": "_priceOracle",
          "type": "address"
        }
      ],
      "name": "setPriceOracle",
      "outputs": [],
      "stateMutability": "nonpayable",
      "type": "function"
    },
    {
      "inputs": [
        {
          "internalType": "uint256",
          "name": "_reserveRate",
          "type": "uint256"
        }
      ],
      "name": "setReserveRate",
      "outputs": [],
      "stateMutability": "nonpayable",
      "type": "function"
    },
    {
      "inputs": [
        {
          "internalType": "address",
          "name": "_user",
          "type": "address"
        },
        {
          "internalType": "contract ERC20",
          "name": "_token",
          "type": "address"
        },
        {
          "internalType": "bool",
          "name": "_useAsCollateral",
          "type": "bool"
        }
      ],
      "name": "setUserUseTokenAsCollateral",
      "outputs": [],
      "stateMutability": "nonpayable",
      "type": "function"
    },
    {
      "inputs": [],
      "name": "shareDeployer",
      "outputs": [
        {
          "internalType": "contract AssetPoolShareDeployer",
          "name": "",
          "type": "address"
        }
      ],
      "stateMutability": "view",
      "type": "function"
    },
    {
      "inputs": [
        {
          "internalType": "uint256",
          "name": "",
          "type": "uint256"
        }
      ],
      "name": "tokenList",
      "outputs": [
        {
          "internalType": "contract ERC20",
          "name": "",
          "type": "address"
        }
      ],
      "stateMutability": "view",
      "type": "function"
    },
    {
      "inputs": [
        {
          "internalType": "address",
          "name": "newOwner",
          "type": "address"
        }
      ],
      "name": "transferOwnership",
      "outputs": [],
      "stateMutability": "nonpayable",
      "type": "function"
    },
    {
      "inputs": [
        {
          "internalType": "contract ERC20",
          "name": "_token",
          "type": "address"
        },
        {
          "internalType": "contract PoolConfiguration",
          "name": "_poolConfig",
          "type": "address"
        }
      ],
      "name": "updatePool",
      "outputs": [],
      "stateMutability": "nonpayable",
      "type": "function"
    },
    {
      "inputs": [
        {
          "internalType": "address",
          "name": "",
          "type": "address"
        },
        {
          "internalType": "address",
          "name": "",
          "type": "address"
        }
      ],
      "name": "userPoolData",
      "outputs": [
        {
          "internalType": "bool",
          "name": "disableAsCollateral",
          "type": "bool"
        },
        {
          "internalType": "uint256",
          "name": "borrowShares",
          "type": "uint256"
        }
      ],
      "stateMutability": "view",
      "type": "function"
    },
    {
      "inputs": [
        {
          "internalType": "contract ERC20",
          "name": "_token",
          "type": "address"
        },
        {
          "internalType": "uint256",
          "name": "_amount",
          "type": "uint256"
        }
      ],
      "name": "withdrawByAmount",
      "outputs": [],
      "stateMutability": "nonpayable",
      "type": "function"
    },
    {
      "inputs": [
        {
          "internalType": "contract ERC20",
          "name": "_token",
          "type": "address"
        },
        {
          "internalType": "uint256",
          "name": "_share",
          "type": "uint256"
        }
      ],
      "name": "withdrawByShare",
      "outputs": [],
      "stateMutability": "nonpayable",
      "type": "function"
    },
    {
      "inputs": [
        {
          "internalType": "contract ERC20",
          "name": "_token",
          "type": "address"
        },
        {
          "internalType": "uint256",
          "name": "_amount",
          "type": "uint256"
        }
      ],
      "name": "withdrawReserve",
      "outputs": [],
      "stateMutability": "nonpayable",
      "type": "function"
    }
  ],
  "bytecode": "0x608060405266b1a2bc2ec5000060075534801561001b57600080fd5b50604051616a43380380616a43833981810160405281019061003d9190610268565b61005961004e6100e960201b60201c565b6100f160201b60201c565b6001808190555081600660006101000a81548173ffffffffffffffffffffffffffffffffffffffff021916908373ffffffffffffffffffffffffffffffffffffffff16021790555080600560006101000a81548173ffffffffffffffffffffffffffffffffffffffff021916908373ffffffffffffffffffffffffffffffffffffffff16021790555050506102a8565b600033905090565b60008060009054906101000a900473ffffffffffffffffffffffffffffffffffffffff169050816000806101000a81548173ffffffffffffffffffffffffffffffffffffffff021916908373ffffffffffffffffffffffffffffffffffffffff1602179055508173ffffffffffffffffffffffffffffffffffffffff168173ffffffffffffffffffffffffffffffffffffffff167f8be0079c531659141344cd1fd0a4f28419497f9722a3daafe3b4186f6b6457e060405160405180910390a35050565b600080fd5b600073ffffffffffffffffffffffffffffffffffffffff82169050919050565b60006101e5826101ba565b9050919050565b60006101f7826101da565b9050919050565b610207816101ec565b811461021257600080fd5b50565b600081519050610224816101fe565b92915050565b6000610235826101da565b9050919050565b6102458161022a565b811461025057600080fd5b50565b6000815190506102628161023c565b92915050565b6000806040838503121561027f5761027e6101b5565b5b600061028d85828601610215565b925050602061029e85828601610253565b9150509250929050565b61678c806102b76000396000f3fe608060405234801561001057600080fd5b50600436106101e55760003560e01c80635dd34bc61161010f578063a4063dbc116100a2578063c520b56311610071578063c520b563146105af578063e526e4ab146105cb578063e5700388146105e7578063f2fde38b14610618576101e5565b8063a4063dbc14610508578063a4bae0081461053e578063bbe4f6db1461055a578063c2ec0dca14610593576101e5565b80638da5cb5b116100de5780638da5cb5b1461046e5780638fbe0f101461048c5780639de8ef79146104a85780639ead7222146104d8576101e5565b80635dd34bc6146103fa5780636386c1c714610416578063715018a61461044857806380e1ed8214610452576101e5565b80633f395c02116101875780634dab4dc0116101565780634dab4dc01461038457806351723e30146103a2578063530e784f146103c057806358d7bf80146103dc576101e5565b80633f395c02146102fe57806347e7ef241461031a578063491db4a2146103365780634b8a352914610368576101e5565b80632f02d91f116101c35780632f02d91f1461026657806336481862146102965780633d4c95b7146102c65780633de2f6b2146102e2576101e5565b8063181428ae146101ea5780631c58ce141461021a578063266e2bd814610236575b600080fd5b61020460048036038101906101ff9190614db6565b610634565b6040516102119190614e0f565b60405180910390f35b610234600480360381019061022f9190614e56565b61072e565b005b610250600480360381019061024b9190614e96565b610ac0565b60405161025d9190614e0f565b60405180910390f35b610280600480360381019061027b9190614db6565b610b43565b60405161028d9190614e0f565b60405180910390f35b6102b060048036038101906102ab9190614ec3565b610bdb565b6040516102bd9190614f0b565b60405180910390f35b6102e060048036038101906102db9190614f52565b610bfb565b005b6102fc60048036038101906102f79190614fa5565b610cf4565b005b6103186004803603810190610313919061504a565b6110dc565b005b610334600480360381019061032f9190614e56565b611600565b005b610350600480360381019061034b9190614db6565b611a2a565b60405161035f9392919061508a565b60405180910390f35b610382600480360381019061037d9190614e56565b611ade565b005b61038c611fa3565b6040516103999190614e0f565b60405180910390f35b6103aa611faf565b6040516103b79190615120565b60405180910390f35b6103da60048036038101906103d59190615179565b611fd5565b005b6103e4612021565b6040516103f19190614e0f565b60405180910390f35b610414600480360381019061040f9190614e56565b612027565b005b610430600480360381019061042b9190614ec3565b612237565b60405161043f939291906151a6565b60405180910390f35b6104506124a1565b005b61046c6004803603810190610467919061504a565b6124b5565b005b610476612629565b60405161048391906151ec565b60405180910390f35b6104a660048036038101906104a19190614e56565b612652565b005b6104c260048036038101906104bd9190614e96565b612853565b6040516104cf9190614e0f565b60405180910390f35b6104f260048036038101906104ed9190615207565b6128c6565b6040516104ff9190615255565b60405180910390f35b610522600480360381019061051d9190614ec3565b612905565b6040516105359796959493929190615329565b60405180910390f35b61055860048036038101906105539190614e56565b612994565b005b610574600480360381019061056f9190614e96565b612b95565b60405161058a9a99989796959493929190615398565b60405180910390f35b6105ad60048036038101906105a89190615459565b612d80565b005b6105c960048036038101906105c49190614e56565b612e8f565b005b6105e560048036038101906105e09190615207565b61309f565b005b61060160048036038101906105fc9190615499565b6130b1565b60405161060f9291906154d9565b60405180910390f35b610632600480360381019061062d9190614ec3565b6130ef565b005b600080600260008473ffffffffffffffffffffffffffffffffffffffff1673ffffffffffffffffffffffffffffffffffffffff168152602001908152602001600020905060008160000160019054906101000a900473ffffffffffffffffffffffffffffffffffffffff1673ffffffffffffffffffffffffffffffffffffffff166370a08231866040518263ffffffff1660e01b81526004016106d791906151ec565b602060405180830381865afa1580156106f4573d6000803e3d6000fd5b505050506040513d601f19601f820116820180604052508101906107189190615517565b90506107248482613172565b9250505092915050565b61073661329d565b816000600260008373ffffffffffffffffffffffffffffffffffffffff1673ffffffffffffffffffffffffffffffffffffffff168152602001908152602001600020905060008160010160009054906101000a900473ffffffffffffffffffffffffffffffffffffffff1673ffffffffffffffffffffffffffffffffffffffff16631a79294483600201546107ca86612853565b6040518363ffffffff1660e01b81526004016107e7929190615544565b602060405180830381865afa158015610804573d6000803e3d6000fd5b505050506040513d601f19601f820116820180604052508101906108289190615517565b9050600061083b828460050154426132ec565b9050600083600201549050670de0b6b3a7640000818361085b919061559c565b610865919061560d565b8460020181905550670de0b6b3a7640000600754828660020154610889919061563e565b610893919061559c565b61089d919061560d565b8460040160008282546108b09190615672565b925050819055504284600501819055508473ffffffffffffffffffffffffffffffffffffffff167f4459cec4806e5d45ce1ebf79e0c92583bc5f7567c93ee849aaeded68aa2c7b2083866002015460405161090c929190615544565b60405180910390a261091c613330565b6000600260008973ffffffffffffffffffffffffffffffffffffffff1673ffffffffffffffffffffffffffffffffffffffff168152602001908152602001600020905060008873ffffffffffffffffffffffffffffffffffffffff166370a08231306040518263ffffffff1660e01b815260040161099a91906151ec565b602060405180830381865afa1580156109b7573d6000803e3d6000fd5b505050506040513d601f19601f820116820180604052508101906109db9190615517565b905080881115610a20576040517f08c379a0000000000000000000000000000000000000000000000000000000008152600401610a1790615703565b60405180910390fd5b8160040154881115610a67576040517f08c379a0000000000000000000000000000000000000000000000000000000008152600401610a5e9061576f565b60405180910390fd5b610a9233898b73ffffffffffffffffffffffffffffffffffffffff166133ae9092919063ffffffff16565b87826004016000828254610aa6919061563e565b9250508190555050505050505050610abc613434565b5050565b60008173ffffffffffffffffffffffffffffffffffffffff166370a08231306040518263ffffffff1660e01b8152600401610afb91906151ec565b602060405180830381865afa158015610b18573d6000803e3d6000fd5b505050506040513d601f19601f82011682018060405250810190610b3c9190615517565b9050919050565b600080600360008573ffffffffffffffffffffffffffffffffffffffff1673ffffffffffffffffffffffffffffffffffffffff16815260200190815260200160002060008473ffffffffffffffffffffffffffffffffffffffff1673ffffffffffffffffffffffffffffffffffffffff168152602001908152602001600020600101549050610bd2838261343d565b91505092915050565b6000806000610be984612237565b92509250508181111592505050919050565b610c03613330565b6000600360008573ffffffffffffffffffffffffffffffffffffffff1673ffffffffffffffffffffffffffffffffffffffff16815260200190815260200160002060008473ffffffffffffffffffffffffffffffffffffffff1673ffffffffffffffffffffffffffffffffffffffff168152602001908152602001600020905081158160000160006101000a81548160ff02191690831515021790555081610cee57610cae84610bdb565b610ced576040517f08c379a0000000000000000000000000000000000000000000000000000000008152600401610ce490615801565b60405180910390fd5b5b50505050565b610cfc61329d565b826000600260008373ffffffffffffffffffffffffffffffffffffffff1673ffffffffffffffffffffffffffffffffffffffff168152602001908152602001600020905060008160010160009054906101000a900473ffffffffffffffffffffffffffffffffffffffff1673ffffffffffffffffffffffffffffffffffffffff16631a7929448360020154610d9086612853565b6040518363ffffffff1660e01b8152600401610dad929190615544565b602060405180830381865afa158015610dca573d6000803e3d6000fd5b505050506040513d601f19601f82011682018060405250810190610dee9190615517565b90506000610e01828460050154426132ec565b9050600083600201549050670de0b6b3a76400008183610e21919061559c565b610e2b919061560d565b8460020181905550670de0b6b3a7640000600754828660020154610e4f919061563e565b610e59919061559c565b610e63919061560d565b846004016000828254610e769190615672565b925050819055504284600501819055508473ffffffffffffffffffffffffffffffffffffffff167f4459cec4806e5d45ce1ebf79e0c92583bc5f7567c93ee849aaeded68aa2c7b20838660020154604051610ed2929190615544565b60405180910390a2856000600260008373ffffffffffffffffffffffffffffffffffffffff1673ffffffffffffffffffffffffffffffffffffffff168152602001908152602001600020905060008160010160009054906101000a900473ffffffffffffffffffffffffffffffffffffffff1673ffffffffffffffffffffffffffffffffffffffff16631a7929448360020154610f6e86612853565b6040518363ffffffff1660e01b8152600401610f8b929190615544565b602060405180830381865afa158015610fa8573d6000803e3d6000fd5b505050506040513d601f19601f82011682018060405250810190610fcc9190615517565b90506000610fdf828460050154426132ec565b9050600083600201549050670de0b6b3a76400008183610fff919061559c565b611009919061560d565b8460020181905550670de0b6b3a764000060075482866002015461102d919061563e565b611037919061559c565b611041919061560d565b8460040160008282546110549190615672565b925050819055504284600501819055508473ffffffffffffffffffffffffffffffffffffffff167f4459cec4806e5d45ce1ebf79e0c92583bc5f7567c93ee849aaeded68aa2c7b208386600201546040516110b0929190615544565b60405180910390a26110c48e8e8e8e6134cd565b505050505050505050506110d6613434565b50505050565b6110e4613330565b60005b6004805490508110156111ad578273ffffffffffffffffffffffffffffffffffffffff166004828154811061111f5761111e615821565b5b9060005260206000200160009054906101000a900473ffffffffffffffffffffffffffffffffffffffff1673ffffffffffffffffffffffffffffffffffffffff16036111a0576040517f08c379a00000000000000000000000000000000000000000000000000000000081526004016111979061589c565b60405180910390fd5b80806001019150506110e7565b5060008273ffffffffffffffffffffffffffffffffffffffff166395d89b416040518163ffffffff1660e01b8152600401600060405180830381865afa1580156111fb573d6000803e3d6000fd5b505050506040513d6000823e3d601f19601f820116820180604052508101906112249190615a1d565b6040516020016112349190615af9565b604051602081830303815290604052905060008373ffffffffffffffffffffffffffffffffffffffff166306fdde036040518163ffffffff1660e01b8152600401600060405180830381865afa158015611292573d6000803e3d6000fd5b505050506040513d6000823e3d601f19601f820116820180604052508101906112bb9190615a1d565b6040516020016112cb9190615af9565b60405160208183030381529060405290506000600660009054906101000a900473ffffffffffffffffffffffffffffffffffffffff1673ffffffffffffffffffffffffffffffffffffffff1663564cdcb18385886040518463ffffffff1660e01b815260040161133d93929190615b54565b6020604051808303816000875af115801561135c573d6000803e3d6000fd5b505050506040513d601f19601f820116820180604052508101906113809190615bd7565b905060006040518060e00160405280600060028111156113a3576113a2615270565b5b81526020018373ffffffffffffffffffffffffffffffffffffffff1681526020018673ffffffffffffffffffffffffffffffffffffffff16815260200160008152602001600081526020016000815260200142815250905080600260008873ffffffffffffffffffffffffffffffffffffffff1673ffffffffffffffffffffffffffffffffffffffff16815260200190815260200160002060008201518160000160006101000a81548160ff0219169083600281111561146657611465615270565b5b021790555060208201518160000160016101000a81548173ffffffffffffffffffffffffffffffffffffffff021916908373ffffffffffffffffffffffffffffffffffffffff16021790555060408201518160010160006101000a81548173ffffffffffffffffffffffffffffffffffffffff021916908373ffffffffffffffffffffffffffffffffffffffff160217905550606082015181600201556080820151816003015560a0820151816004015560c082015181600501559050506004869080600181540180825580915050600190039060005260206000200160009091909190916101000a81548173ffffffffffffffffffffffffffffffffffffffff021916908373ffffffffffffffffffffffffffffffffffffffff1602179055508473ffffffffffffffffffffffffffffffffffffffff168273ffffffffffffffffffffffffffffffffffffffff168773ffffffffffffffffffffffffffffffffffffffff167fb2684e1b8e116bbb42a14d7a6bc6afa19d85ff0a8666a6b424b79a738c661d8160405160405180910390a4505050505050565b61160861329d565b816000600260008373ffffffffffffffffffffffffffffffffffffffff1673ffffffffffffffffffffffffffffffffffffffff168152602001908152602001600020905060008160010160009054906101000a900473ffffffffffffffffffffffffffffffffffffffff1673ffffffffffffffffffffffffffffffffffffffff16631a792944836002015461169c86612853565b6040518363ffffffff1660e01b81526004016116b9929190615544565b602060405180830381865afa1580156116d6573d6000803e3d6000fd5b505050506040513d601f19601f820116820180604052508101906116fa9190615517565b9050600061170d828460050154426132ec565b9050600083600201549050670de0b6b3a7640000818361172d919061559c565b611737919061560d565b8460020181905550670de0b6b3a764000060075482866002015461175b919061563e565b611765919061559c565b61176f919061560d565b8460040160008282546117829190615672565b925050819055504284600501819055508473ffffffffffffffffffffffffffffffffffffffff167f4459cec4806e5d45ce1ebf79e0c92583bc5f7567c93ee849aaeded68aa2c7b208386600201546040516117de929190615544565b60405180910390a260008611611829576040517f08c379a000000000000000000000000000000000000000000000000000000000815260040161182090615c50565b60405180910390fd5b6000600260008973ffffffffffffffffffffffffffffffffffffffff1673ffffffffffffffffffffffffffffffffffffffff1681526020019081526020016000209050600160028111156118805761187f615270565b5b8160000160009054906101000a900460ff1660028111156118a4576118a3615270565b5b146118e4576040517f08c379a00000000000000000000000000000000000000000000000000000000081526004016118db90615cbc565b60405180910390fd5b60006118f08989613bd5565b90508160000160019054906101000a900473ffffffffffffffffffffffffffffffffffffffff1673ffffffffffffffffffffffffffffffffffffffff166340c10f1933836040518363ffffffff1660e01b8152600401611951929190615cdc565b600060405180830381600087803b15801561196b57600080fd5b505af115801561197f573d6000803e3d6000fd5b505050506119b033308a8c73ffffffffffffffffffffffffffffffffffffffff16613cff909392919063ffffffff16565b3373ffffffffffffffffffffffffffffffffffffffff168973ffffffffffffffffffffffffffffffffffffffff167fdcbc1c05240f31ff3ad067ef1ee35ce4997762752e3a095284754544f4c709d7838b604051611a0f929190615544565b60405180910390a350505050505050611a26613434565b5050565b6000806000611a398585610634565b9250611a458585610b43565b9150600360008673ffffffffffffffffffffffffffffffffffffffff1673ffffffffffffffffffffffffffffffffffffffff16815260200190815260200160002060008573ffffffffffffffffffffffffffffffffffffffff1673ffffffffffffffffffffffffffffffffffffffff16815260200190815260200160002060000160009054906101000a900460ff161590509250925092565b611ae661329d565b816000600260008373ffffffffffffffffffffffffffffffffffffffff1673ffffffffffffffffffffffffffffffffffffffff168152602001908152602001600020905060008160010160009054906101000a900473ffffffffffffffffffffffffffffffffffffffff1673ffffffffffffffffffffffffffffffffffffffff16631a7929448360020154611b7a86612853565b6040518363ffffffff1660e01b8152600401611b97929190615544565b602060405180830381865afa158015611bb4573d6000803e3d6000fd5b505050506040513d601f19601f82011682018060405250810190611bd89190615517565b90506000611beb828460050154426132ec565b9050600083600201549050670de0b6b3a76400008183611c0b919061559c565b611c15919061560d565b8460020181905550670de0b6b3a7640000600754828660020154611c39919061563e565b611c43919061559c565b611c4d919061560d565b846004016000828254611c609190615672565b925050819055504284600501819055508473ffffffffffffffffffffffffffffffffffffffff167f4459cec4806e5d45ce1ebf79e0c92583bc5f7567c93ee849aaeded68aa2c7b20838660020154604051611cbc929190615544565b60405180910390a26000600260008973ffffffffffffffffffffffffffffffffffffffff1673ffffffffffffffffffffffffffffffffffffffff168152602001908152602001600020905060016002811115611d1b57611d1a615270565b5b8160000160009054906101000a900460ff166002811115611d3f57611d3e615270565b5b14611d7f576040517f08c379a0000000000000000000000000000000000000000000000000000000008152600401611d7690615cbc565b60405180910390fd5b600087118015611d975750611d9388610ac0565b8711155b611dd6576040517f08c379a0000000000000000000000000000000000000000000000000000000008152600401611dcd90615d51565b60405180910390fd5b6000611de28989613d88565b905087826002016000828254611df89190615672565b9250508190555080826003016000828254611e139190615672565b925050819055506000600360003373ffffffffffffffffffffffffffffffffffffffff1673ffffffffffffffffffffffffffffffffffffffff16815260200190815260200160002060008b73ffffffffffffffffffffffffffffffffffffffff1673ffffffffffffffffffffffffffffffffffffffff168152602001908152602001600020905081816001016000828254611eae9190615672565b92505081905550611ee0338a8c73ffffffffffffffffffffffffffffffffffffffff166133ae9092919063ffffffff16565b611ee933610bdb565b611f28576040517f08c379a0000000000000000000000000000000000000000000000000000000008152600401611f1f90615dbd565b60405180910390fd5b3373ffffffffffffffffffffffffffffffffffffffff168a73ffffffffffffffffffffffffffffffffffffffff167fc1561b330e73faa7d5d1ac03c968d8f359b0191ccdb9cc002cf7d8eb6ae038cb848c604051611f87929190615544565b60405180910390a35050505050505050611f9f613434565b5050565b6706f05b59d3b2000081565b600660009054906101000a900473ffffffffffffffffffffffffffffffffffffffff1681565b611fdd613330565b80600560006101000a81548173ffffffffffffffffffffffffffffffffffffffff021916908373ffffffffffffffffffffffffffffffffffffffff16021790555050565b60075481565b61202f61329d565b816000600260008373ffffffffffffffffffffffffffffffffffffffff1673ffffffffffffffffffffffffffffffffffffffff168152602001908152602001600020905060008160010160009054906101000a900473ffffffffffffffffffffffffffffffffffffffff1673ffffffffffffffffffffffffffffffffffffffff16631a79294483600201546120c386612853565b6040518363ffffffff1660e01b81526004016120e0929190615544565b602060405180830381865afa1580156120fd573d6000803e3d6000fd5b505050506040513d601f19601f820116820180604052508101906121219190615517565b90506000612134828460050154426132ec565b9050600083600201549050670de0b6b3a76400008183612154919061559c565b61215e919061560d565b8460020181905550670de0b6b3a7640000600754828660020154612182919061563e565b61218c919061559c565b612196919061560d565b8460040160008282546121a99190615672565b925050819055504284600501819055508473ffffffffffffffffffffffffffffffffffffffff167f4459cec4806e5d45ce1ebf79e0c92583bc5f7567c93ee849aaeded68aa2c7b20838660020154604051612205929190615544565b60405180910390a260006122198888613e18565b90506122258882613eab565b505050505050612233613434565b5050565b600080600080600090505b6004805490508110156124995760006004828154811061226557612264615821565b5b9060005260206000200160009054906101000a900473ffffffffffffffffffffffffffffffffffffffff1690506000600260008373ffffffffffffffffffffffffffffffffffffffff1673ffffffffffffffffffffffffffffffffffffffff168152602001908152602001600020905060008060006122e48a86611a2a565b9250925092506000831415806122fb575060008214155b156124875760008460010160009054906101000a900473ffffffffffffffffffffffffffffffffffffffff1673ffffffffffffffffffffffffffffffffffffffff166358a6be1c6040518163ffffffff1660e01b8152600401602060405180830381865afa158015612371573d6000803e3d6000fd5b505050506040513d601f19601f820116820180604052508101906123959190615517565b905060006123a2876140fa565b9050600081116123e7576040517f08c379a00000000000000000000000000000000000000000000000000000000081526004016123de90615e29565b60405180910390fd5b6000670de0b6b3a764000086836123fe919061559c565b612408919061560d565b9050808c6124169190615672565b9b506000831180156124255750835b1561245757670de0b6b3a7640000838261243f919061559c565b612449919061560d565b8b6124549190615672565b9a505b670de0b6b3a7640000858361246c919061559c565b612476919061560d565b8a6124819190615672565b99505050505b50505050508080600101915050612242565b509193909250565b6124a9613330565b6124b36000614271565b565b6124bd613330565b6000600260008473ffffffffffffffffffffffffffffffffffffffff1673ffffffffffffffffffffffffffffffffffffffff1681526020019081526020016000209050600073ffffffffffffffffffffffffffffffffffffffff168160000160019054906101000a900473ffffffffffffffffffffffffffffffffffffffff1673ffffffffffffffffffffffffffffffffffffffff1603612593576040517f08c379a000000000000000000000000000000000000000000000000000000000815260040161258a90615e95565b60405180910390fd5b818160010160006101000a81548173ffffffffffffffffffffffffffffffffffffffff021916908373ffffffffffffffffffffffffffffffffffffffff1602179055508273ffffffffffffffffffffffffffffffffffffffff167fed7692d7eac8e25ca74b0bcb7b52fe51d01a8910e8e320c6f3223365708d76de8360405161261c91906151ec565b60405180910390a2505050565b60008060009054906101000a900473ffffffffffffffffffffffffffffffffffffffff16905090565b61265a61329d565b816000600260008373ffffffffffffffffffffffffffffffffffffffff1673ffffffffffffffffffffffffffffffffffffffff168152602001908152602001600020905060008160010160009054906101000a900473ffffffffffffffffffffffffffffffffffffffff1673ffffffffffffffffffffffffffffffffffffffff16631a79294483600201546126ee86612853565b6040518363ffffffff1660e01b815260040161270b929190615544565b602060405180830381865afa158015612728573d6000803e3d6000fd5b505050506040513d601f19601f8201168201806040525081019061274c9190615517565b9050600061275f828460050154426132ec565b9050600083600201549050670de0b6b3a7640000818361277f919061559c565b612789919061560d565b8460020181905550670de0b6b3a76400006007548286600201546127ad919061563e565b6127b7919061559c565b6127c1919061560d565b8460040160008282546127d49190615672565b925050819055504284600501819055508473ffffffffffffffffffffffffffffffffffffffff167f4459cec4806e5d45ce1ebf79e0c92583bc5f7567c93ee849aaeded68aa2c7b20838660020154604051612830929190615544565b60405180910390a26128428787614335565b505050505061284f613434565b5050565b600080600260008473ffffffffffffffffffffffffffffffffffffffff1673ffffffffffffffffffffffffffffffffffffffff168152602001908152602001600020905080600401546128a584610ac0565b82600201546128b49190615672565b6128be919061563e565b915050919050565b600481815481106128d657600080fd5b906000526020600020016000915054906101000a900473ffffffffffffffffffffffffffffffffffffffff1681565b60026020528060005260406000206000915090508060000160009054906101000a900460ff16908060000160019054906101000a900473ffffffffffffffffffffffffffffffffffffffff16908060010160009054906101000a900473ffffffffffffffffffffffffffffffffffffffff16908060020154908060030154908060040154908060050154905087565b61299c61329d565b816000600260008373ffffffffffffffffffffffffffffffffffffffff1673ffffffffffffffffffffffffffffffffffffffff168152602001908152602001600020905060008160010160009054906101000a900473ffffffffffffffffffffffffffffffffffffffff1673ffffffffffffffffffffffffffffffffffffffff16631a7929448360020154612a3086612853565b6040518363ffffffff1660e01b8152600401612a4d929190615544565b602060405180830381865afa158015612a6a573d6000803e3d6000fd5b505050506040513d601f19601f82011682018060405250810190612a8e9190615517565b90506000612aa1828460050154426132ec565b9050600083600201549050670de0b6b3a76400008183612ac1919061559c565b612acb919061560d565b8460020181905550670de0b6b3a7640000600754828660020154612aef919061563e565b612af9919061559c565b612b03919061560d565b846004016000828254612b169190615672565b925050819055504284600501819055508473ffffffffffffffffffffffffffffffffffffffff167f4459cec4806e5d45ce1ebf79e0c92583bc5f7567c93ee849aaeded68aa2c7b20838660020154604051612b72929190615544565b60405180910390a2612b848787613eab565b5050505050612b91613434565b5050565b6000806000806000806000806000806000600260008d73ffffffffffffffffffffffffffffffffffffffff1673ffffffffffffffffffffffffffffffffffffffff16815260200190815260200160002090508060000160019054906101000a900473ffffffffffffffffffffffffffffffffffffffff1699508060010160009054906101000a900473ffffffffffffffffffffffffffffffffffffffff1698508060020154975080600301549650612c4c8c612853565b9550612c578c610ac0565b9450806005015493508060000160009054906101000a900460ff169a508060010160009054906101000a900473ffffffffffffffffffffffffffffffffffffffff1673ffffffffffffffffffffffffffffffffffffffff16631a79294489886040518363ffffffff1660e01b8152600401612cd3929190615544565b602060405180830381865afa158015612cf0573d6000803e3d6000fd5b505050506040513d601f19601f82011682018060405250810190612d149190615517565b925060008614612d6d57670de0b6b3a764000086612d32919061559c565b600754670de0b6b3a7640000612d48919061563e565b8985612d54919061559c565b612d5e919061559c565b612d68919061560d565b612d70565b60005b9150509193959799509193959799565b612d88613330565b6000600260008473ffffffffffffffffffffffffffffffffffffffff1673ffffffffffffffffffffffffffffffffffffffff1681526020019081526020016000209050600073ffffffffffffffffffffffffffffffffffffffff168160000160019054906101000a900473ffffffffffffffffffffffffffffffffffffffff1673ffffffffffffffffffffffffffffffffffffffff1603612e5e576040517f08c379a0000000000000000000000000000000000000000000000000000000008152600401612e5590615e95565b60405180910390fd5b818160000160006101000a81548160ff02191690836002811115612e8557612e84615270565b5b0217905550505050565b612e9761329d565b816000600260008373ffffffffffffffffffffffffffffffffffffffff1673ffffffffffffffffffffffffffffffffffffffff168152602001908152602001600020905060008160010160009054906101000a900473ffffffffffffffffffffffffffffffffffffffff1673ffffffffffffffffffffffffffffffffffffffff16631a7929448360020154612f2b86612853565b6040518363ffffffff1660e01b8152600401612f48929190615544565b602060405180830381865afa158015612f65573d6000803e3d6000fd5b505050506040513d601f19601f82011682018060405250810190612f899190615517565b90506000612f9c828460050154426132ec565b9050600083600201549050670de0b6b3a76400008183612fbc919061559c565b612fc6919061560d565b8460020181905550670de0b6b3a7640000600754828660020154612fea919061563e565b612ff4919061559c565b612ffe919061560d565b8460040160008282546130119190615672565b925050819055504284600501819055508473ffffffffffffffffffffffffffffffffffffffff167f4459cec4806e5d45ce1ebf79e0c92583bc5f7567c93ee849aaeded68aa2c7b2083866002015460405161306d929190615544565b60405180910390a260006130818888614678565b905061308d8882614335565b50505050505061309b613434565b5050565b6130a7613330565b8060078190555050565b6003602052816000526040600020602052806000526040600020600091509150508060000160009054906101000a900460ff16908060010154905082565b6130f7613330565b600073ffffffffffffffffffffffffffffffffffffffff168173ffffffffffffffffffffffffffffffffffffffff1603613166576040517f08c379a000000000000000000000000000000000000000000000000000000000815260040161315d90615f27565b60405180910390fd5b61316f81614271565b50565b600080600260008573ffffffffffffffffffffffffffffffffffffffff1673ffffffffffffffffffffffffffffffffffffffff168152602001908152602001600020905060006131c185612853565b905060008260000160019054906101000a900473ffffffffffffffffffffffffffffffffffffffff1673ffffffffffffffffffffffffffffffffffffffff166318160ddd6040518163ffffffff1660e01b8152600401602060405180830381865afa158015613234573d6000803e3d6000fd5b505050506040513d601f19601f820116820180604052508101906132589190615517565b905060008214806132695750600081145b1561327a5760009350505050613297565b808286613287919061559c565b613291919061560d565b93505050505b92915050565b6002600154036132e2576040517f08c379a00000000000000000000000000000000000000000000000000000000081526004016132d990615f93565b60405180910390fd5b6002600181905550565b6000670de0b6b3a76400006301e133808484613308919061563e565b86613313919061559c565b61331d919061560d565b6133279190615672565b90509392505050565b6133386147a0565b73ffffffffffffffffffffffffffffffffffffffff16613356612629565b73ffffffffffffffffffffffffffffffffffffffff16146133ac576040517f08c379a00000000000000000000000000000000000000000000000000000000081526004016133a390615fff565b60405180910390fd5b565b61342f8363a9059cbb60e01b84846040516024016133cd929190615cdc565b604051602081830303815290604052907bffffffffffffffffffffffffffffffffffffffffffffffffffffffff19166020820180517bffffffffffffffffffffffffffffffffffffffffffffffffffffffff83818316178352505050506147a8565b505050565b60018081905550565b600080600260008573ffffffffffffffffffffffffffffffffffffffff1673ffffffffffffffffffffffffffffffffffffffff1681526020019081526020016000209050600081600201541480613498575060008160030154145b156134a657829150506134c7565b6134c38160020154846134b9919061559c565b8260030154614870565b9150505b92915050565b6134d684610bdb565b15613516576040517f08c379a000000000000000000000000000000000000000000000000000000000815260040161350d9061606b565b60405180910390fd5b6000600260008573ffffffffffffffffffffffffffffffffffffffff1673ffffffffffffffffffffffffffffffffffffffff16815260200190815260200160002090506000600281111561356d5761356c615270565b5b8160000160009054906101000a900460ff16600281111561359157613590615270565b5b036135d1576040517f08c379a00000000000000000000000000000000000000000000000000000000081526004016135c890615cbc565b60405180910390fd5b6000600360008773ffffffffffffffffffffffffffffffffffffffff1673ffffffffffffffffffffffffffffffffffffffff16815260200190815260200160002060008473ffffffffffffffffffffffffffffffffffffffff1673ffffffffffffffffffffffffffffffffffffffff16815260200190815260200160002090508060000160009054906101000a900460ff16156136a3576040517f08c379a000000000000000000000000000000000000000000000000000000000815260040161369a906160d7565b60405180910390fd5b6000600260008573ffffffffffffffffffffffffffffffffffffffff1673ffffffffffffffffffffffffffffffffffffffff168152602001908152602001600020905060008160010160009054906101000a900473ffffffffffffffffffffffffffffffffffffffff1673ffffffffffffffffffffffffffffffffffffffff166358a6be1c6040518163ffffffff1660e01b8152600401602060405180830381865afa158015613757573d6000803e3d6000fd5b505050506040513d601f19601f8201168201806040525081019061377b9190615517565b116137bb576040517f08c379a00000000000000000000000000000000000000000000000000000000081526004016137b290616143565b60405180910390fd5b6000600360008973ffffffffffffffffffffffffffffffffffffffff1673ffffffffffffffffffffffffffffffffffffffff16815260200190815260200160002060008873ffffffffffffffffffffffffffffffffffffffff1673ffffffffffffffffffffffffffffffffffffffff16815260200190815260200160002090506000816001015411613882576040517f08c379a0000000000000000000000000000000000000000000000000000000008152600401613879906161af565b60405180910390fd5b6000670de0b6b3a76400006706f05b59d3b2000083600101546138a5919061559c565b6138af919061560d565b90506000879050818111156138c2578190505b60006138ce8a8361343d565b905060006138dd8b838b6148f1565b905060006138eb8a83614678565b905061391a3330858f73ffffffffffffffffffffffffffffffffffffffff16613cff909392919063ffffffff16565b808760000160019054906101000a900473ffffffffffffffffffffffffffffffffffffffff1673ffffffffffffffffffffffffffffffffffffffff166370a082318f6040518263ffffffff1660e01b815260040161397891906151ec565b602060405180830381865afa158015613995573d6000803e3d6000fd5b505050506040513d601f19601f820116820180604052508101906139b99190615517565b116139f9576040517f08c379a00000000000000000000000000000000000000000000000000000000081526004016139f09061621b565b60405180910390fd5b8660000160019054906101000a900473ffffffffffffffffffffffffffffffffffffffff1673ffffffffffffffffffffffffffffffffffffffff16639dc29fac8e836040518363ffffffff1660e01b8152600401613a58929190615cdc565b600060405180830381600087803b158015613a7257600080fd5b505af1158015613a86573d6000803e3d6000fd5b505050508660000160019054906101000a900473ffffffffffffffffffffffffffffffffffffffff1673ffffffffffffffffffffffffffffffffffffffff166340c10f1933836040518363ffffffff1660e01b8152600401613ae9929190615cdc565b600060405180830381600087803b158015613b0357600080fd5b505af1158015613b17573d6000803e3d6000fd5b5050505082896002016000828254613b2f919061563e565b9250508190555083896003016000828254613b4a919061563e565b9250508190555083866001016000828254613b65919061563e565b925050819055508c73ffffffffffffffffffffffffffffffffffffffff167f602f496956f48338da240f5132098504dfefea6c18ee6d8bcb1879c137942ab38d8c8688878733604051613bbe979695949392919061623b565b60405180910390a250505050505050505050505050565b600080600260008573ffffffffffffffffffffffffffffffffffffffff1673ffffffffffffffffffffffffffffffffffffffff16815260200190815260200160002090506000613c2485612853565b905060008260000160019054906101000a900473ffffffffffffffffffffffffffffffffffffffff1673ffffffffffffffffffffffffffffffffffffffff166318160ddd6040518163ffffffff1660e01b8152600401602060405180830381865afa158015613c97573d6000803e3d6000fd5b505050506040513d601f19601f82011682018060405250810190613cbb9190615517565b90506000821480613ccc5750600081145b15613cdc57849350505050613cf9565b818186613ce9919061559c565b613cf3919061560d565b93505050505b92915050565b613d82846323b872dd60e01b858585604051602401613d20939291906162aa565b604051602081830303815290604052907bffffffffffffffffffffffffffffffffffffffffffffffffffffffff19166020820180517bffffffffffffffffffffffffffffffffffffffffffffffffffffffff83818316178352505050506147a8565b50505050565b600080600260008573ffffffffffffffffffffffffffffffffffffffff1673ffffffffffffffffffffffffffffffffffffffff1681526020019081526020016000209050600081600201541480613de3575060008160030154145b15613df15782915050613e12565b613e0e816003015484613e04919061559c565b8260020154614870565b9150505b92915050565b600080600260008573ffffffffffffffffffffffffffffffffffffffff1673ffffffffffffffffffffffffffffffffffffffff1681526020019081526020016000209050600081600201541480613e73575060008160030154145b15613e82576000915050613ea5565b8060020154816003015484613e97919061559c565b613ea1919061560d565b9150505b92915050565b6000600260008473ffffffffffffffffffffffffffffffffffffffff1673ffffffffffffffffffffffffffffffffffffffff168152602001908152602001600020905060006002811115613f0257613f01615270565b5b8160000160009054906101000a900460ff166002811115613f2657613f25615270565b5b03613f66576040517f08c379a0000000000000000000000000000000000000000000000000000000008152600401613f5d90615cbc565b60405180910390fd5b6000600360003373ffffffffffffffffffffffffffffffffffffffff1673ffffffffffffffffffffffffffffffffffffffff16815260200190815260200160002060008573ffffffffffffffffffffffffffffffffffffffff1673ffffffffffffffffffffffffffffffffffffffff168152602001908152602001600020905060008390508160010154811115613fff57816001015490505b600061400b868361343d565b905080846002016000828254614021919061563e565b925050819055508184600301600082825461403c919061563e565b9250508190555081836001016000828254614057919061563e565b9250508190555061408b3330838973ffffffffffffffffffffffffffffffffffffffff16613cff909392919063ffffffff16565b3373ffffffffffffffffffffffffffffffffffffffff168673ffffffffffffffffffffffffffffffffffffffff167fe4a1ae657f49cb1fb1c7d3a94ae6093565c4c8c0e03de488f79c377c3c3a24e084846040516140ea929190615544565b60405180910390a3505050505050565b6000600560009054906101000a900473ffffffffffffffffffffffffffffffffffffffff1673ffffffffffffffffffffffffffffffffffffffff1663ad5c46486040518163ffffffff1660e01b8152600401602060405180830381865afa158015614169573d6000803e3d6000fd5b505050506040513d601f19601f8201168201806040525081019061418d91906162f6565b73ffffffffffffffffffffffffffffffffffffffff168273ffffffffffffffffffffffffffffffffffffffff161461426057600560009054906101000a900473ffffffffffffffffffffffffffffffffffffffff1673ffffffffffffffffffffffffffffffffffffffff166381cc7e5c836040518263ffffffff1660e01b815260040161421a91906151ec565b602060405180830381865afa158015614237573d6000803e3d6000fd5b505050506040513d601f19601f8201168201806040525081019061425b9190615517565b61426a565b670de0b6b3a76400005b9050919050565b60008060009054906101000a900473ffffffffffffffffffffffffffffffffffffffff169050816000806101000a81548173ffffffffffffffffffffffffffffffffffffffff021916908373ffffffffffffffffffffffffffffffffffffffff1602179055508173ffffffffffffffffffffffffffffffffffffffff168173ffffffffffffffffffffffffffffffffffffffff167f8be0079c531659141344cd1fd0a4f28419497f9722a3daafe3b4186f6b6457e060405160405180910390a35050565b6000600260008473ffffffffffffffffffffffffffffffffffffffff1673ffffffffffffffffffffffffffffffffffffffff168152602001908152602001600020905060008160000160019054906101000a900473ffffffffffffffffffffffffffffffffffffffff1673ffffffffffffffffffffffffffffffffffffffff166370a08231336040518263ffffffff1660e01b81526004016143d791906151ec565b602060405180830381865afa1580156143f4573d6000803e3d6000fd5b505050506040513d601f19601f820116820180604052508101906144189190615517565b90506000600281111561442e5761442d615270565b5b8260000160009054906101000a900460ff16600281111561445257614451615270565b5b03614492576040517f08c379a000000000000000000000000000000000000000000000000000000000815260040161448990615cbc565b60405180910390fd5b6000839050818111156144a3578190505b60006144af8683613172565b90508360000160019054906101000a900473ffffffffffffffffffffffffffffffffffffffff1673ffffffffffffffffffffffffffffffffffffffff16639dc29fac33846040518363ffffffff1660e01b8152600401614510929190615cdc565b600060405180830381600087803b15801561452a57600080fd5b505af115801561453e573d6000803e3d6000fd5b505050508573ffffffffffffffffffffffffffffffffffffffff1663a9059cbb33836040518363ffffffff1660e01b815260040161457d929190615cdc565b6020604051808303816000875af115801561459c573d6000803e3d6000fd5b505050506040513d601f19601f820116820180604052508101906145c09190616338565b506145ca33610bdb565b614609576040517f08c379a000000000000000000000000000000000000000000000000000000000815260040161460090615dbd565b60405180910390fd5b3373ffffffffffffffffffffffffffffffffffffffff168673ffffffffffffffffffffffffffffffffffffffff167ff341246adaac6f497bc2a656f546ab9e182111d630394f0c57c710a59a2cb5678484604051614668929190615544565b60405180910390a3505050505050565b600080600260008573ffffffffffffffffffffffffffffffffffffffff1673ffffffffffffffffffffffffffffffffffffffff168152602001908152602001600020905060006146c785612853565b905060008260000160019054906101000a900473ffffffffffffffffffffffffffffffffffffffff1673ffffffffffffffffffffffffffffffffffffffff166318160ddd6040518163ffffffff1660e01b8152600401602060405180830381865afa15801561473a573d6000803e3d6000fd5b505050506040513d601f19601f8201168201806040525081019061475e9190615517565b9050600082148061476f5750600081145b1561477f5784935050505061479a565b614794818661478e919061559c565b83614870565b93505050505b92915050565b600033905090565b600061480a826040518060400160405280602081526020017f5361666545524332303a206c6f772d6c6576656c2063616c6c206661696c65648152508573ffffffffffffffffffffffffffffffffffffffff16614b399092919063ffffffff16565b905060008151148061482c57508080602001905181019061482b9190616338565b5b61486b576040517f08c379a0000000000000000000000000000000000000000000000000000000008152600401614862906163d7565b60405180910390fd5b505050565b60008082116148b4576040517f08c379a00000000000000000000000000000000000000000000000000000000081526004016148ab90616443565b60405180910390fd5b600082846148c2919061560d565b9050600083856148d29190616463565b146148e7576001816148e49190615672565b90505b8091505092915050565b60008073ffffffffffffffffffffffffffffffffffffffff16600560009054906101000a900473ffffffffffffffffffffffffffffffffffffffff1673ffffffffffffffffffffffffffffffffffffffff1603614983576040517f08c379a000000000000000000000000000000000000000000000000000000000815260040161497a906164e0565b60405180910390fd5b600061498e856140fa565b9050600081116149d3576040517f08c379a00000000000000000000000000000000000000000000000000000000081526004016149ca9061654c565b60405180910390fd5b60006149de846140fa565b905060008111614a23576040517f08c379a0000000000000000000000000000000000000000000000000000000008152600401614a1a906165b8565b60405180910390fd5b6000600260008873ffffffffffffffffffffffffffffffffffffffff1673ffffffffffffffffffffffffffffffffffffffff16815260200190815260200160002060010160009054906101000a900473ffffffffffffffffffffffffffffffffffffffff1673ffffffffffffffffffffffffffffffffffffffff1663e98376da6040518163ffffffff1660e01b8152600401602060405180830381865afa158015614ad2573d6000803e3d6000fd5b505050506040513d601f19601f82011682018060405250810190614af69190615517565b9050670de0b6b3a764000082614b0c919061559c565b818785614b19919061559c565b614b23919061559c565b614b2d919061560d565b93505050509392505050565b6060614b488484600085614b51565b90509392505050565b606082471015614b96576040517f08c379a0000000000000000000000000000000000000000000000000000000008152600401614b8d9061664a565b60405180910390fd5b6000808673ffffffffffffffffffffffffffffffffffffffff168587604051614bbf91906166b1565b60006040518083038185875af1925050503d8060008114614bfc576040519150601f19603f3d011682016040523d82523d6000602084013e614c01565b606091505b5091509150614c1287838387614c1e565b92505050949350505050565b60608315614c80576000835103614c7857614c3885614c93565b614c77576040517f08c379a0000000000000000000000000000000000000000000000000000000008152600401614c6e90616714565b60405180910390fd5b5b829050614c8b565b614c8a8383614cb6565b5b949350505050565b6000808273ffffffffffffffffffffffffffffffffffffffff163b119050919050565b600082511115614cc95781518083602001fd5b806040517f08c379a0000000000000000000000000000000000000000000000000000000008152600401614cfd9190616734565b60405180910390fd5b6000604051905090565b600080fd5b600080fd5b600073ffffffffffffffffffffffffffffffffffffffff82169050919050565b6000614d4582614d1a565b9050919050565b614d5581614d3a565b8114614d6057600080fd5b50565b600081359050614d7281614d4c565b92915050565b6000614d8382614d3a565b9050919050565b614d9381614d78565b8114614d9e57600080fd5b50565b600081359050614db081614d8a565b92915050565b60008060408385031215614dcd57614dcc614d10565b5b6000614ddb85828601614d63565b9250506020614dec85828601614da1565b9150509250929050565b6000819050919050565b614e0981614df6565b82525050565b6000602082019050614e246000830184614e00565b92915050565b614e3381614df6565b8114614e3e57600080fd5b50565b600081359050614e5081614e2a565b92915050565b60008060408385031215614e6d57614e6c614d10565b5b6000614e7b85828601614da1565b9250506020614e8c85828601614e41565b9150509250929050565b600060208284031215614eac57614eab614d10565b5b6000614eba84828501614da1565b91505092915050565b600060208284031215614ed957614ed8614d10565b5b6000614ee784828501614d63565b91505092915050565b60008115159050919050565b614f0581614ef0565b82525050565b6000602082019050614f206000830184614efc565b92915050565b614f2f81614ef0565b8114614f3a57600080fd5b50565b600081359050614f4c81614f26565b92915050565b600080600060608486031215614f6b57614f6a614d10565b5b6000614f7986828701614d63565b9350506020614f8a86828701614da1565b9250506040614f9b86828701614f3d565b9150509250925092565b60008060008060808587031215614fbf57614fbe614d10565b5b6000614fcd87828801614d63565b9450506020614fde87828801614da1565b9350506040614fef87828801614e41565b925050606061500087828801614da1565b91505092959194509250565b600061501782614d3a565b9050919050565b6150278161500c565b811461503257600080fd5b50565b6000813590506150448161501e565b92915050565b6000806040838503121561506157615060614d10565b5b600061506f85828601614da1565b925050602061508085828601615035565b9150509250929050565b600060608201905061509f6000830186614e00565b6150ac6020830185614e00565b6150b96040830184614efc565b949350505050565b6000819050919050565b60006150e66150e16150dc84614d1a565b6150c1565b614d1a565b9050919050565b60006150f8826150cb565b9050919050565b600061510a826150ed565b9050919050565b61511a816150ff565b82525050565b60006020820190506151356000830184615111565b92915050565b600061514682614d3a565b9050919050565b6151568161513b565b811461516157600080fd5b50565b6000813590506151738161514d565b92915050565b60006020828403121561518f5761518e614d10565b5b600061519d84828501615164565b91505092915050565b60006060820190506151bb6000830186614e00565b6151c86020830185614e00565b6151d56040830184614e00565b949350505050565b6151e681614d3a565b82525050565b600060208201905061520160008301846151dd565b92915050565b60006020828403121561521d5761521c614d10565b5b600061522b84828501614e41565b91505092915050565b600061523f826150ed565b9050919050565b61524f81615234565b82525050565b600060208201905061526a6000830184615246565b92915050565b7f4e487b7100000000000000000000000000000000000000000000000000000000600052602160045260246000fd5b600381106152b0576152af615270565b5b50565b60008190506152c18261529f565b919050565b60006152d1826152b3565b9050919050565b6152e1816152c6565b82525050565b60006152f2826150ed565b9050919050565b615302816152e7565b82525050565b6000615313826150ed565b9050919050565b61532381615308565b82525050565b600060e08201905061533e600083018a6152d8565b61534b60208301896152f9565b615358604083018861531a565b6153656060830187614e00565b6153726080830186614e00565b61537f60a0830185614e00565b61538c60c0830184614e00565b98975050505050505050565b6000610140820190506153ae600083018d6152d8565b6153bb602083018c6151dd565b6153c8604083018b6151dd565b6153d5606083018a614e00565b6153e26080830189614e00565b6153ef60a0830188614e00565b6153fc60c0830187614e00565b61540960e0830186614e00565b615417610100830185614e00565b615425610120830184614e00565b9b9a5050505050505050505050565b6003811061544157600080fd5b50565b60008135905061545381615434565b92915050565b600080604083850312156154705761546f614d10565b5b600061547e85828601614da1565b925050602061548f85828601615444565b9150509250929050565b600080604083850312156154b0576154af614d10565b5b60006154be85828601614d63565b92505060206154cf85828601614d63565b9150509250929050565b60006040820190506154ee6000830185614efc565b6154fb6020830184614e00565b9392505050565b60008151905061551181614e2a565b92915050565b60006020828403121561552d5761552c614d10565b5b600061553b84828501615502565b91505092915050565b60006040820190506155596000830185614e00565b6155666020830184614e00565b9392505050565b7f4e487b7100000000000000000000000000000000000000000000000000000000600052601160045260246000fd5b60006155a782614df6565b91506155b283614df6565b92508282026155c081614df6565b915082820484148315176155d7576155d661556d565b5b5092915050565b7f4e487b7100000000000000000000000000000000000000000000000000000000600052601260045260246000fd5b600061561882614df6565b915061562383614df6565b925082615633576156326155de565b5b828204905092915050565b600061564982614df6565b915061565483614df6565b925082820390508181111561566c5761566b61556d565b5b92915050565b600061567d82614df6565b915061568883614df6565b92508282019050808211156156a05761569f61556d565b5b92915050565b600082825260208201905092915050565b7f494e53554646494349454e545f42414c414e4345000000000000000000000000600082015250565b60006156ed6014836156a6565b91506156f8826156b7565b602082019050919050565b6000602082019050818103600083015261571c816156e0565b9050919050565b7f494e53554646494349454e545f504f4f4c5f5245534552564553000000000000600082015250565b6000615759601a836156a6565b915061576482615723565b602082019050919050565b600060208201905081810360008301526157888161574c565b9050919050565b7f63616e2774207365742075736520617320636f6c6c61746572616c2c2061636360008201527f6f756e7420697320756e6865616c7468792e0000000000000000000000000000602082015250565b60006157eb6032836156a6565b91506157f68261578f565b604082019050919050565b6000602082019050818103600083015261581a816157de565b9050919050565b7f4e487b7100000000000000000000000000000000000000000000000000000000600052603260045260246000fd5b7f504f4f4c5f455849535400000000000000000000000000000000000000000000600082015250565b6000615886600a836156a6565b915061589182615850565b602082019050919050565b600060208201905081810360008301526158b581615879565b9050919050565b600080fd5b600080fd5b6000601f19601f8301169050919050565b7f4e487b7100000000000000000000000000000000000000000000000000000000600052604160045260246000fd5b61590f826158c6565b810181811067ffffffffffffffff8211171561592e5761592d6158d7565b5b80604052505050565b6000615941614d06565b905061594d8282615906565b919050565b600067ffffffffffffffff82111561596d5761596c6158d7565b5b615976826158c6565b9050602081019050919050565b60005b838110156159a1578082015181840152602081019050615986565b60008484015250505050565b60006159c06159bb84615952565b615937565b9050828152602081018484840111156159dc576159db6158c1565b5b6159e7848285615983565b509392505050565b600082601f830112615a0457615a036158bc565b5b8151615a148482602086016159ad565b91505092915050565b600060208284031215615a3357615a32614d10565b5b600082015167ffffffffffffffff811115615a5157615a50614d15565b5b615a5d848285016159ef565b91505092915050565b600081905092915050565b7f4173736574200000000000000000000000000000000000000000000000000000600082015250565b6000615aa7600683615a66565b9150615ab282615a71565b600682019050919050565b600081519050919050565b6000615ad382615abd565b615add8185615a66565b9350615aed818560208601615983565b80840191505092915050565b6000615b0482615a9a565b9150615b108284615ac8565b915081905092915050565b6000615b2682615abd565b615b3081856156a6565b9350615b40818560208601615983565b615b49816158c6565b840191505092915050565b60006060820190508181036000830152615b6e8186615b1b565b90508181036020830152615b828185615b1b565b9050615b916040830184615246565b949350505050565b6000615ba482614d3a565b9050919050565b615bb481615b99565b8114615bbf57600080fd5b50565b600081519050615bd181615bab565b92915050565b600060208284031215615bed57615bec614d10565b5b6000615bfb84828501615bc2565b91505092915050565b7f494e56414c49445f4445504f5349545f414d4f554e5400000000000000000000600082015250565b6000615c3a6016836156a6565b9150615c4582615c04565b602082019050919050565b60006020820190508181036000830152615c6981615c2d565b9050919050565b7f494e56414c49445f504f4f4c5f53544154450000000000000000000000000000600082015250565b6000615ca66012836156a6565b9150615cb182615c70565b602082019050919050565b60006020820190508181036000830152615cd581615c99565b9050919050565b6000604082019050615cf160008301856151dd565b615cfe6020830184614e00565b9392505050565b7f494e56414c49445f424f52524f575f414d4f554e540000000000000000000000600082015250565b6000615d3b6015836156a6565b9150615d4682615d05565b602082019050919050565b60006020820190508181036000830152615d6a81615d2e565b9050919050565b7f4143434f554e545f554e4845414c544859000000000000000000000000000000600082015250565b6000615da76011836156a6565b9150615db282615d71565b602082019050919050565b60006020820190508181036000830152615dd681615d9a565b9050919050565b7f494e56414c49445f505249434500000000000000000000000000000000000000600082015250565b6000615e13600d836156a6565b9150615e1e82615ddd565b602082019050919050565b60006020820190508181036000830152615e4281615e06565b9050919050565b7f504f4f4c5f4e4f545f4558495354000000000000000000000000000000000000600082015250565b6000615e7f600e836156a6565b9150615e8a82615e49565b602082019050919050565b60006020820190508181036000830152615eae81615e72565b9050919050565b7f4f776e61626c653a206e6577206f776e657220697320746865207a65726f206160008201527f6464726573730000000000000000000000000000000000000000000000000000602082015250565b6000615f116026836156a6565b9150615f1c82615eb5565b604082019050919050565b60006020820190508181036000830152615f4081615f04565b9050919050565b7f5265656e7472616e637947756172643a207265656e7472616e742063616c6c00600082015250565b6000615f7d601f836156a6565b9150615f8882615f47565b602082019050919050565b60006020820190508181036000830152615fac81615f70565b9050919050565b7f4f776e61626c653a2063616c6c6572206973206e6f7420746865206f776e6572600082015250565b6000615fe96020836156a6565b9150615ff482615fb3565b602082019050919050565b6000602082019050818103600083015261601881615fdc565b9050919050565b7f4143434f554e545f49535f4845414c5448000000000000000000000000000000600082015250565b60006160556011836156a6565b91506160608261601f565b602082019050919050565b6000602082019050818103600083015261608481616048565b9050919050565b7f434f4c4c41544552414c5f44495341424c454400000000000000000000000000600082015250565b60006160c16013836156a6565b91506160cc8261608b565b602082019050919050565b600060208201905081810360008301526160f0816160b4565b9050919050565b7f504f4f4c5f434f4c4c41544552414c5f44495341424c45440000000000000000600082015250565b600061612d6018836156a6565b9150616138826160f7565b602082019050919050565b6000602082019050818103600083015261615c81616120565b9050919050565b7f555345525f4449445f4e4f545f424f52524f5700000000000000000000000000600082015250565b60006161996013836156a6565b91506161a482616163565b602082019050919050565b600060208201905081810360008301526161c88161618c565b9050919050565b7f494e53554646494349454e545f434f4c4c41544552414c000000000000000000600082015250565b60006162056017836156a6565b9150616210826161cf565b602082019050919050565b60006020820190508181036000830152616234816161f8565b9050919050565b600060e082019050616250600083018a6151dd565b61625d60208301896151dd565b61626a6040830188614e00565b6162776060830187614e00565b6162846080830186614e00565b61629160a0830185614e00565b61629e60c08301846151dd565b98975050505050505050565b60006060820190506162bf60008301866151dd565b6162cc60208301856151dd565b6162d96040830184614e00565b949350505050565b6000815190506162f081614d4c565b92915050565b60006020828403121561630c5761630b614d10565b5b600061631a848285016162e1565b91505092915050565b60008151905061633281614f26565b92915050565b60006020828403121561634e5761634d614d10565b5b600061635c84828501616323565b91505092915050565b7f5361666545524332303a204552433230206f7065726174696f6e20646964206e60008201527f6f74207375636365656400000000000000000000000000000000000000000000602082015250565b60006163c1602a836156a6565b91506163cc82616365565b604082019050919050565b600060208201905081810360008301526163f0816163b4565b9050919050565b7f444956494445445f42595f5a45524f0000000000000000000000000000000000600082015250565b600061642d600f836156a6565b9150616438826163f7565b602082019050919050565b6000602082019050818103600083015261645c81616420565b9050919050565b600061646e82614df6565b915061647983614df6565b925082616489576164886155de565b5b828206905092915050565b7f494e56414c49445f50524943455f4f5241434c45000000000000000000000000600082015250565b60006164ca6014836156a6565b91506164d582616494565b602082019050919050565b600060208201905081810360008301526164f9816164bd565b9050919050565b7f494e56414c49445f544f4b454e5f505249434500000000000000000000000000600082015250565b60006165366013836156a6565b915061654182616500565b602082019050919050565b6000602082019050818103600083015261656581616529565b9050919050565b7f494e56414c49445f434f4c4c41544552414c5f50524943450000000000000000600082015250565b60006165a26018836156a6565b91506165ad8261656c565b602082019050919050565b600060208201905081810360008301526165d181616595565b9050919050565b7f416464726573733a20696e73756666696369656e742062616c616e636520666f60008201527f722063616c6c0000000000000000000000000000000000000000000000000000602082015250565b60006166346026836156a6565b915061663f826165d8565b604082019050919050565b6000602082019050818103600083015261666381616627565b9050919050565b600081519050919050565b600081905092915050565b600061668b8261666a565b6166958185616675565b93506166a5818560208601615983565b80840191505092915050565b60006166bd8284616680565b915081905092915050565b7f416464726573733a2063616c6c20746f206e6f6e2d636f6e7472616374000000600082015250565b60006166fe601d836156a6565b9150616709826166c8565b602082019050919050565b6000602082019050818103600083015261672d816166f1565b9050919050565b6000602082019050818103600083015261674e8184615b1b565b90509291505056fea264697066735822122077078f7bc2d4688c96dd90b223edc3980516c91b7548054ec51472abf9bb464864736f6c634300081c0033",
  "linkReferences": {},
  "deployedLinkReferences": {}
}