{
  "_format": "hh-sol-artifact-1",
  "contractName": "PoolConfiguration",
  "sourceName": "src/backend/contracts/PoolConfiguration.sol",
  "abi": [
    {
      "inputs": [
        {
          "internalType": "uint256",
          "name": "_baseBorrowRate",
          "type": "uint256"
        },
        {
          "internalType": "uint256",
          "name": "_optimalSpan",
          "type": "uint256"
        },
        {
          "internalType": "uint256",
          "name": "_exceessSpan",
          "type": "uint256"
        },
        {
          "internalType": "uint256",
          "name": "_optimalUtilizationRate",
          "type": "uint256"
        },
        {
          "internalType": "uint256",
          "name": "_collateralRate",
          "type": "uint256"
        },
        {
          "internalType": "uint256",
          "name": "_liquiditionBonusRate",
          "type": "uint256"
        }
      ],
      "stateMutability": "nonpayable",
      "type": "constructor"
    },
    {
      "inputs": [],
      "name": "baseBorrowRate",
      "outputs": [
        {
          "internalType": "uint256",
          "name": "",
          "type": "uint256"
        }
      ],
      "stateMutability": "view",
      "type": "function"
    },
    {
      "inputs": [
        {
          "internalType": "uint256",
          "name": "_totalBorrows",
          "type": "uint256"
        },
        {
          "internalType": "uint256",
          "name": "_totalLiquidity",
          "type": "uint256"
        }
      ],
      "name": "calculateBorrowInterestRate",
      "outputs": [
        {
          "internalType": "uint256",
          "name": "",
          "type": "uint256"
        }
      ],
      "stateMutability": "view",
      "type": "function"
    },
    {
      "inputs": [],
      "name": "collateralRate",
      "outputs": [
        {
          "internalType": "uint256",
          "name": "",
          "type": "uint256"
        }
      ],
      "stateMutability": "view",
      "type": "function"
    },
    {
      "inputs": [],
      "name": "excessSpan",
      "outputs": [
        {
          "internalType": "uint256",
          "name": "",
          "type": "uint256"
        }
      ],
      "stateMutability": "view",
      "type": "function"
    },
    {
      "inputs": [
        {
          "internalType": "uint256",
          "name": "_totalBorrows",
          "type": "uint256"
        },
        {
          "internalType": "uint256",
          "name": "_totalLiquidity",
          "type": "uint256"
        }
      ],
      "name": "getUtilizationRate",
      "outputs": [
        {
          "internalType": "uint256",
          "name": "",
          "type": "uint256"
        }
      ],
      "stateMutability": "pure",
      "type": "function"
    },
    {
      "inputs": [],
      "name": "liquidationBonusRate",
      "outputs": [
        {
          "internalType": "uint256",
          "name": "",
          "type": "uint256"
        }
      ],
      "stateMutability": "view",
      "type": "function"
    },
    {
      "inputs": [],
      "name": "optimalSpan",
      "outputs": [
        {
          "internalType": "uint256",
          "name": "",
          "type": "uint256"
        }
      ],
      "stateMutability": "view",
      "type": "function"
    },
    {
      "inputs": [],
      "name": "optimalUtilizationRate",
      "outputs": [
        {
          "internalType": "uint256",
          "name": "",
          "type": "uint256"
        }
      ],
      "stateMutability": "view",
      "type": "function"
    }
  ],
  "bytecode": "0x608060405234801561001057600080fd5b506040516106e43803806106e4833981810160405281019061003291906100ec565b670de0b6b3a7640000831061007c576040517f08c379a0000000000000000000000000000000000000000000000000000000008152600401610073906101fc565b60405180910390fd5b85600081905550846001819055508360028190555082600381905550816004819055508060058190555050505050505061021c565b600080fd5b6000819050919050565b6100c9816100b6565b81146100d457600080fd5b50565b6000815190506100e6816100c0565b92915050565b60008060008060008060c08789031215610109576101086100b1565b5b600061011789828a016100d7565b965050602061012889828a016100d7565b955050604061013989828a016100d7565b945050606061014a89828a016100d7565b935050608061015b89828a016100d7565b92505060a061016c89828a016100d7565b9150509295509295509295565b600082825260208201905092915050565b7f494e56414c49445f4f5054494d414c5f5554494c495a494154494f4e5f52415460008201527f4500000000000000000000000000000000000000000000000000000000000000602082015250565b60006101e6602183610179565b91506101f18261018a565b604082019050919050565b60006020820190508181036000830152610215816101d9565b9050919050565b6104b98061022b6000396000f3fe608060405234801561001057600080fd5b50600436106100885760003560e01c8063687969801161005b5780636879698014610129578063bf38668214610147578063dffd2b3814610165578063e98376da1461018357610088565b806310b2b3b71461008d5780631a792944146100ab57806345ade051146100db57806358a6be1c1461010b575b600080fd5b6100956101a1565b6040516100a291906102be565b60405180910390f35b6100c560048036038101906100c0919061030a565b6101a7565b6040516100d291906102be565b60405180910390f35b6100f560048036038101906100f0919061030a565b61024f565b60405161010291906102be565b60405180910390f35b610113610287565b60405161012091906102be565b60405180910390f35b61013161028d565b60405161013e91906102be565b60405180910390f35b61014f610293565b60405161015c91906102be565b60405180910390f35b61016d610299565b60405161017a91906102be565b60405180910390f35b61018b61029f565b60405161019891906102be565b60405180910390f35b60025481565b6000806101b4848461024f565b905060035481111561021d57600354670de0b6b3a76400006101d69190610379565b600354826101e49190610379565b6002546101f191906103ad565b6101fb919061041e565b60015460005461020b919061044f565b610215919061044f565b915050610249565b6003546001548261022e91906103ad565b610238919061041e565b600054610245919061044f565b9150505b92915050565b600080821461027c5781670de0b6b3a76400008461026d91906103ad565b610277919061041e565b61027f565b60005b905092915050565b60045481565b60015481565b60005481565b60035481565b60055481565b6000819050919050565b6102b8816102a5565b82525050565b60006020820190506102d360008301846102af565b92915050565b600080fd5b6102e7816102a5565b81146102f257600080fd5b50565b600081359050610304816102de565b92915050565b60008060408385031215610321576103206102d9565b5b600061032f858286016102f5565b9250506020610340858286016102f5565b9150509250929050565b7f4e487b7100000000000000000000000000000000000000000000000000000000600052601160045260246000fd5b6000610384826102a5565b915061038f836102a5565b92508282039050818111156103a7576103a661034a565b5b92915050565b60006103b8826102a5565b91506103c3836102a5565b92508282026103d1816102a5565b915082820484148315176103e8576103e761034a565b5b5092915050565b7f4e487b7100000000000000000000000000000000000000000000000000000000600052601260045260246000fd5b6000610429826102a5565b9150610434836102a5565b925082610444576104436103ef565b5b828204905092915050565b600061045a826102a5565b9150610465836102a5565b925082820190508082111561047d5761047c61034a565b5b9291505056fea264697066735822122068c18e733b91e858bccfed6519ae53c6bae39f73e89df3fdcbd2f1aad1bfeafe64736f6c634300081c0033",
  "linkReferences": {},
  "deployedLinkReferences": {}
}