{
  "_format": "hh-sol-artifact-1",
  "contractName": "PriceOracle",
  "sourceName": "src/backend/contracts/PriceOracle.sol",
  "abi": [
    {
      "inputs": [
        {
          "internalType": "address",
          "name": "_router",
          "type": "address"
        },
        {
          "internalType": "address",
          "name": "_WETH",
          "type": "address"
        }
      ],
      "stateMutability": "nonpayable",
      "type": "constructor"
    },
    {
      "inputs": [],
      "name": "WETH",
      "outputs": [
        {
          "internalType": "address",
          "name": "",
          "type": "address"
        }
      ],
      "stateMutability": "view",
      "type": "function"
    },
    {
      "inputs": [
        {
          "internalType": "address",
          "name": "_token",
          "type": "address"
        }
      ],
      "name": "getPriceInWETH",
      "outputs": [
        {
          "internalType": "uint256",
          "name": "",
          "type": "uint256"
        }
      ],
      "stateMutability": "view",
      "type": "function"
    },
    {
      "inputs": [],
      "name": "router",
      "outputs": [
        {
          "internalType": "address",
          "name": "",
          "type": "address"
        }
      ],
      "stateMutability": "view",
      "type": "function"
    }
  ],
  "bytecode": "0x608060405234801561001057600080fd5b5060405161087e38038061087e8339818101604052810190610032919061011d565b816000806101000a81548173ffffffffffffffffffffffffffffffffffffffff021916908373ffffffffffffffffffffffffffffffffffffffff16021790555080600160006101000a81548173ffffffffffffffffffffffffffffffffffffffff021916908373ffffffffffffffffffffffffffffffffffffffff160217905550505061015d565b600080fd5b600073ffffffffffffffffffffffffffffffffffffffff82169050919050565b60006100ea826100bf565b9050919050565b6100fa816100df565b811461010557600080fd5b50565b600081519050610117816100f1565b92915050565b60008060408385031215610134576101336100ba565b5b600061014285828601610108565b925050602061015385828601610108565b9150509250929050565b6107128061016c6000396000f3fe608060405234801561001057600080fd5b50600436106100415760003560e01c806381cc7e5c14610046578063ad5c464814610076578063f887ea4014610094575b600080fd5b610060600480360381019061005b91906102df565b6100b2565b60405161006d9190610325565b60405180910390f35b61007e610232565b60405161008b919061034f565b60405180910390f35b61009c610258565b6040516100a9919061034f565b60405180910390f35b60008060008060009054906101000a900473ffffffffffffffffffffffffffffffffffffffff1673ffffffffffffffffffffffffffffffffffffffff1663d52bb6f485600160009054906101000a900473ffffffffffffffffffffffffffffffffffffffff166040518363ffffffff1660e01b815260040161013592919061036a565b606060405180830381865afa158015610152573d6000803e3d6000fd5b505050506040513d601f19601f8201168201806040525081019061017691906103d4565b50915091506000820361018e5760009250505061022d565b60008473ffffffffffffffffffffffffffffffffffffffff1663313ce5676040518163ffffffff1660e01b8152600401602060405180830381865afa1580156101db573d6000803e3d6000fd5b505050506040513d601f19601f820116820180604052508101906101ff9190610460565b60ff169050828282600a61021391906105ef565b61021d919061063a565b61022791906106ab565b93505050505b919050565b600160009054906101000a900473ffffffffffffffffffffffffffffffffffffffff1681565b60008054906101000a900473ffffffffffffffffffffffffffffffffffffffff1681565b600080fd5b600073ffffffffffffffffffffffffffffffffffffffff82169050919050565b60006102ac82610281565b9050919050565b6102bc816102a1565b81146102c757600080fd5b50565b6000813590506102d9816102b3565b92915050565b6000602082840312156102f5576102f461027c565b5b6000610303848285016102ca565b91505092915050565b6000819050919050565b61031f8161030c565b82525050565b600060208201905061033a6000830184610316565b92915050565b610349816102a1565b82525050565b60006020820190506103646000830184610340565b92915050565b600060408201905061037f6000830185610340565b61038c6020830184610340565b9392505050565b61039c8161030c565b81146103a757600080fd5b50565b6000815190506103b981610393565b92915050565b6000815190506103ce816102b3565b92915050565b6000806000606084860312156103ed576103ec61027c565b5b60006103fb868287016103aa565b935050602061040c868287016103aa565b925050604061041d868287016103bf565b9150509250925092565b600060ff82169050919050565b61043d81610427565b811461044857600080fd5b50565b60008151905061045a81610434565b92915050565b6000602082840312156104765761047561027c565b5b60006104848482850161044b565b91505092915050565b7f4e487b7100000000000000000000000000000000000000000000000000000000600052601160045260246000fd5b60008160011c9050919050565b6000808291508390505b6001851115610513578086048111156104ef576104ee61048d565b5b60018516156104fe5780820291505b808102905061050c856104bc565b94506104d3565b94509492505050565b60008261052c57600190506105e8565b8161053a57600090506105e8565b8160018114610550576002811461055a57610589565b60019150506105e8565b60ff84111561056c5761056b61048d565b5b8360020a9150848211156105835761058261048d565b5b506105e8565b5060208310610133831016604e8410600b84101617156105be5782820a9050838111156105b9576105b861048d565b5b6105e8565b6105cb84848460016104c9565b925090508184048111156105e2576105e161048d565b5b81810290505b9392505050565b60006105fa8261030c565b91506106058361030c565b92506106327fffffffffffffffffffffffffffffffffffffffffffffffffffffffffffffffff848461051c565b905092915050565b60006106458261030c565b91506106508361030c565b925082820261065e8161030c565b915082820484148315176106755761067461048d565b5b5092915050565b7f4e487b7100000000000000000000000000000000000000000000000000000000600052601260045260246000fd5b60006106b68261030c565b91506106c18361030c565b9250826106d1576106d061067c565b5b82820490509291505056fea264697066735822122071de1ef6d8f0d207fd64cbc25cce4094520a9a5cdc1e10d84eab466d82bc5f0164736f6c634300081c0033",
  "linkReferences": {},
  "deployedLinkReferences": {}
}