{
  "_format": "hh-sol-artifact-1",
  "contractName": "WETH",
  "sourceName": "src/backend/contracts/WETH.sol",
  "abi": [
    {
      "inputs": [],
      "stateMutability": "nonpayable",
      "type": "constructor"
    },
    {
      "anonymous": false,
      "inputs": [
        {
          "indexed": true,
          "internalType": "address",
          "name": "src",
          "type": "address"
        },
        {
          "indexed": true,
          "internalType": "address",
          "name": "guy",
          "type": "address"
        },
        {
          "indexed": false,
          "internalType": "uint256",
          "name": "wad",
          "type": "uint256"
        }
      ],
      "name": "Approval",
      "type": "event"
    },
    {
      "anonymous": false,
      "inputs": [
        {
          "indexed": true,
          "internalType": "address",
          "name": "dst",
          "type": "address"
        },
        {
          "indexed": false,
          "internalType": "uint256",
          "name": "wad",
          "type": "uint256"
        }
      ],
      "name": "Deposit",
      "type": "event"
    },
    {
      "anonymous": false,
      "inputs": [
        {
          "indexed": true,
          "internalType": "address",
          "name": "src",
          "type": "address"
        },
        {
          "indexed": true,
          "internalType": "address",
          "name": "dst",
          "type": "address"
        },
        {
          "indexed": false,
          "internalType": "uint256",
          "name": "wad",
          "type": "uint256"
        }
      ],
      "name": "Transfer",
      "type": "event"
    },
    {
      "anonymous": false,
      "inputs": [
        {
          "indexed": true,
          "internalType": "address",
          "name": "src",
          "type": "address"
        },
        {
          "indexed": false,
          "internalType": "uint256",
          "name": "wad",
          "type": "uint256"
        }
      ],
      "name": "Withdrawal",
      "type": "event"
    },
    {
      "inputs": [
        {
          "internalType": "address",
          "name": "",
          "type": "address"
        },
        {
          "internalType": "address",
          "name": "",
          "type": "address"
        }
      ],
      "name": "allowance",
      "outputs": [
        {
          "internalType": "uint256",
          "name": "",
          "type": "uint256"
        }
      ],
      "stateMutability": "view",
      "type": "function"
    },
    {
      "inputs": [
        {
          "internalType": "address",
          "name": "guy",
          "type": "address"
        },
        {
          "internalType": "uint256",
          "name": "wad",
          "type": "uint256"
        }
      ],
      "name": "approve",
      "outputs": [
        {
          "internalType": "bool",
          "name": "",
          "type": "bool"
        }
      ],
      "stateMutability": "nonpayable",
      "type": "function"
    },
    {
      "inputs": [
        {
          "internalType": "address",
          "name": "",
          "type": "address"
        }
      ],
      "name": "balanceOf",
      "outputs": [
        {
          "internalType": "uint256",
          "name": "",
          "type": "uint256"
        }
      ],
      "stateMutability": "view",
      "type": "function"
    },
    {
      "inputs": [],
      "name": "decimals",
      "outputs": [
        {
          "internalType": "uint8",
          "name": "",
          "type": "uint8"
        }
      ],
      "stateMutability": "view",
      "type": "function"
    },
    {
      "inputs": [],
      "name": "deposit",
      "outputs": [],
      "stateMutability": "payable",
      "type": "function"
    },
    {
      "inputs": [],
      "name": "name",
      "outputs": [
        {
          "internalType": "string",
          "name": "",
          "type": "string"
        }
      ],
      "stateMutability": "view",
      "type": "function"
    },
    {
      "inputs": [],
      "name": "symbol",
      "outputs": [
        {
          "internalType": "string",
          "name": "",
          "type": "string"
        }
      ],
      "stateMutability": "view",
      "type": "function"
    },
    {
      "inputs": [],
      "name": "totalSupply",
      "outputs": [
        {
          "internalType": "uint256",
          "name": "",
          "type": "uint256"
        }
      ],
      "stateMutability": "view",
      "type": "function"
    },
    {
      "inputs": [
        {
          "internalType": "address",
          "name": "dst",
          "type": "address"
        },
        {
          "internalType": "uint256",
          "name": "wad",
          "type": "uint256"
        }
      ],
      "name": "transfer",
      "outputs": [
        {
          "internalType": "bool",
          "name": "",
          "type": "bool"
        }
      ],
      "stateMutability": "nonpayable",
      "type": "function"
    },
    {
      "inputs": [
        {
          "internalType": "address",
          "name": "src",
          "type": "address"
        },
        {
          "internalType": "address",
          "name": "dst",
          "type": "address"
        },
        {
          "internalType": "uint256",
          "name": "wad",
          "type": "uint256"
        }
      ],
      "name": "transferFrom",
      "outputs": [
        {
          "internalType": "bool",
          "name": "",
          "type": "bool"
        }
      ],
      "stateMutability": "nonpayable",
      "type": "function"
    },
    {
      "inputs": [
        {
          "internalType": "uint256",
          "name": "wad",
          "type": "uint256"
        }
      ],
      "name": "withdrawal",
      "outputs": [],
      "stateMutability": "nonpayable",
      "type": "function"
    }
  ],
  "bytecode": "0x60806040526040518060400160405280600d81526020017f57726170706564204574686572000000000000000000000000000000000000008152506000908161004891906103c0565b506040518060400160405280600481526020017f57455448000000000000000000000000000000000000000000000000000000008152506001908161008d91906103c0565b506012600260006101000a81548160ff021916908360ff1602179055503480156100b657600080fd5b506100c56100ca60201b60201c565b61051f565b34600360003373ffffffffffffffffffffffffffffffffffffffff1673ffffffffffffffffffffffffffffffffffffffff168152602001908152602001600020600082825461011991906104c1565b925050819055503373ffffffffffffffffffffffffffffffffffffffff167fe1fffcc4923d04b559f4d29a8bfc6cda04eb5b0d3c460751c2402c5c5cc9109c346040516101669190610504565b60405180910390a2565b600081519050919050565b7f4e487b7100000000000000000000000000000000000000000000000000000000600052604160045260246000fd5b7f4e487b7100000000000000000000000000000000000000000000000000000000600052602260045260246000fd5b600060028204905060018216806101f157607f821691505b602082108103610204576102036101aa565b5b50919050565b60008190508160005260206000209050919050565b60006020601f8301049050919050565b600082821b905092915050565b60006008830261026c7fffffffffffffffffffffffffffffffffffffffffffffffffffffffffffffffff8261022f565b610276868361022f565b95508019841693508086168417925050509392505050565b6000819050919050565b6000819050919050565b60006102bd6102b86102b38461028e565b610298565b61028e565b9050919050565b6000819050919050565b6102d7836102a2565b6102eb6102e3826102c4565b84845461023c565b825550505050565b600090565b6103006102f3565b61030b8184846102ce565b505050565b5b8181101561032f576103246000826102f8565b600181019050610311565b5050565b601f821115610374576103458161020a565b61034e8461021f565b8101602085101561035d578190505b6103716103698561021f565b830182610310565b50505b505050565b600082821c905092915050565b600061039760001984600802610379565b1980831691505092915050565b60006103b08383610386565b9150826002028217905092915050565b6103c982610170565b67ffffffffffffffff8111156103e2576103e161017b565b5b6103ec82546101d9565b6103f7828285610333565b600060209050601f83116001811461042a5760008415610418578287015190505b61042285826103a4565b86555061048a565b601f1984166104388661020a565b60005b828110156104605784890151825560018201915060208501945060208101905061043b565b8683101561047d5784890151610479601f891682610386565b8355505b6001600288020188555050505b505050505050565b7f4e487b7100000000000000000000000000000000000000000000000000000000600052601160045260246000fd5b60006104cc8261028e565b91506104d78361028e565b92508282019050808211156104ef576104ee610492565b5b92915050565b6104fe8161028e565b82525050565b600060208201905061051960008301846104f5565b92915050565b610eac8061052e6000396000f3fe60806040526004361061009c5760003560e01c806370a082311161006457806370a082311461019c578063835fc6ca146101d957806395d89b4114610202578063a9059cbb1461022d578063d0e30db01461026a578063dd62ed3e146102745761009c565b806306fdde03146100a1578063095ea7b3146100cc57806318160ddd1461010957806323b872dd14610134578063313ce56714610171575b600080fd5b3480156100ad57600080fd5b506100b66102b1565b6040516100c39190610b00565b60405180910390f35b3480156100d857600080fd5b506100f360048036038101906100ee9190610bbb565b61033f565b6040516101009190610c16565b60405180910390f35b34801561011557600080fd5b5061011e610431565b60405161012b9190610c40565b60405180910390f35b34801561014057600080fd5b5061015b60048036038101906101569190610c5b565b610439565b6040516101689190610c16565b60405180910390f35b34801561017d57600080fd5b5061018661079d565b6040516101939190610cca565b60405180910390f35b3480156101a857600080fd5b506101c360048036038101906101be9190610ce5565b6107b0565b6040516101d09190610c40565b60405180910390f35b3480156101e557600080fd5b5061020060048036038101906101fb9190610d12565b6107c8565b005b34801561020e57600080fd5b50610217610902565b6040516102249190610b00565b60405180910390f35b34801561023957600080fd5b50610254600480360381019061024f9190610bbb565b610990565b6040516102619190610c16565b60405180910390f35b6102726109a5565b005b34801561028057600080fd5b5061029b60048036038101906102969190610d3f565b610a4b565b6040516102a89190610c40565b60405180910390f35b600080546102be90610dae565b80601f01602080910402602001604051908101604052809291908181526020018280546102ea90610dae565b80156103375780601f1061030c57610100808354040283529160200191610337565b820191906000526020600020905b81548152906001019060200180831161031a57829003601f168201915b505050505081565b600081600460003373ffffffffffffffffffffffffffffffffffffffff1673ffffffffffffffffffffffffffffffffffffffff16815260200190815260200160002060008573ffffffffffffffffffffffffffffffffffffffff1673ffffffffffffffffffffffffffffffffffffffff168152602001908152602001600020819055508273ffffffffffffffffffffffffffffffffffffffff163373ffffffffffffffffffffffffffffffffffffffff167f8c5be1e5ebec7d5bd14f71427d1e84f3dd0314c0f7b2291e5b200ac8c7c3b9258460405161041f9190610c40565b60405180910390a36001905092915050565b600047905090565b600081600360008673ffffffffffffffffffffffffffffffffffffffff1673ffffffffffffffffffffffffffffffffffffffff16815260200190815260200160002054101561048757600080fd5b3373ffffffffffffffffffffffffffffffffffffffff168473ffffffffffffffffffffffffffffffffffffffff161415801561055f57507fffffffffffffffffffffffffffffffffffffffffffffffffffffffffffffffff600460008673ffffffffffffffffffffffffffffffffffffffff1673ffffffffffffffffffffffffffffffffffffffff16815260200190815260200160002060003373ffffffffffffffffffffffffffffffffffffffff1673ffffffffffffffffffffffffffffffffffffffff1681526020019081526020016000205414155b156106815781600460008673ffffffffffffffffffffffffffffffffffffffff1673ffffffffffffffffffffffffffffffffffffffff16815260200190815260200160002060003373ffffffffffffffffffffffffffffffffffffffff1673ffffffffffffffffffffffffffffffffffffffff1681526020019081526020016000205410156105ed57600080fd5b81600460008673ffffffffffffffffffffffffffffffffffffffff1673ffffffffffffffffffffffffffffffffffffffff16815260200190815260200160002060003373ffffffffffffffffffffffffffffffffffffffff1673ffffffffffffffffffffffffffffffffffffffff16815260200190815260200160002060008282546106799190610e0e565b925050819055505b81600360008673ffffffffffffffffffffffffffffffffffffffff1673ffffffffffffffffffffffffffffffffffffffff16815260200190815260200160002060008282546106d09190610e0e565b9250508190555081600360008573ffffffffffffffffffffffffffffffffffffffff1673ffffffffffffffffffffffffffffffffffffffff16815260200190815260200160002060008282546107269190610e42565b925050819055508273ffffffffffffffffffffffffffffffffffffffff168473ffffffffffffffffffffffffffffffffffffffff167fddf252ad1be2c89b69c2b068fc378daa952ba7f163c4a11628f55a4df523b3ef8460405161078a9190610c40565b60405180910390a3600190509392505050565b600260009054906101000a900460ff1681565b60036020528060005260406000206000915090505481565b80600360003373ffffffffffffffffffffffffffffffffffffffff1673ffffffffffffffffffffffffffffffffffffffff16815260200190815260200160002054101561081457600080fd5b80600360003373ffffffffffffffffffffffffffffffffffffffff1673ffffffffffffffffffffffffffffffffffffffff16815260200190815260200160002060008282546108639190610e0e565b925050819055503373ffffffffffffffffffffffffffffffffffffffff166108fc829081150290604051600060405180830381858888f193505050501580156108b0573d6000803e3d6000fd5b503373ffffffffffffffffffffffffffffffffffffffff167f7fcf532c15f0a6db0bd6d0e038bea71d30d808c7d98cb3bf7268a95bf5081b65826040516108f79190610c40565b60405180910390a250565b6001805461090f90610dae565b80601f016020809104026020016040519081016040528092919081815260200182805461093b90610dae565b80156109885780601f1061095d57610100808354040283529160200191610988565b820191906000526020600020905b81548152906001019060200180831161096b57829003601f168201915b505050505081565b600061099d338484610439565b905092915050565b34600360003373ffffffffffffffffffffffffffffffffffffffff1673ffffffffffffffffffffffffffffffffffffffff16815260200190815260200160002060008282546109f49190610e42565b925050819055503373ffffffffffffffffffffffffffffffffffffffff167fe1fffcc4923d04b559f4d29a8bfc6cda04eb5b0d3c460751c2402c5c5cc9109c34604051610a419190610c40565b60405180910390a2565b6004602052816000526040600020602052806000526040600020600091509150505481565b600081519050919050565b600082825260208201905092915050565b60005b83811015610aaa578082015181840152602081019050610a8f565b60008484015250505050565b6000601f19601f8301169050919050565b6000610ad282610a70565b610adc8185610a7b565b9350610aec818560208601610a8c565b610af581610ab6565b840191505092915050565b60006020820190508181036000830152610b1a8184610ac7565b905092915050565b600080fd5b600073ffffffffffffffffffffffffffffffffffffffff82169050919050565b6000610b5282610b27565b9050919050565b610b6281610b47565b8114610b6d57600080fd5b50565b600081359050610b7f81610b59565b92915050565b6000819050919050565b610b9881610b85565b8114610ba357600080fd5b50565b600081359050610bb581610b8f565b92915050565b60008060408385031215610bd257610bd1610b22565b5b6000610be085828601610b70565b9250506020610bf185828601610ba6565b9150509250929050565b60008115159050919050565b610c1081610bfb565b82525050565b6000602082019050610c2b6000830184610c07565b92915050565b610c3a81610b85565b82525050565b6000602082019050610c556000830184610c31565b92915050565b600080600060608486031215610c7457610c73610b22565b5b6000610c8286828701610b70565b9350506020610c9386828701610b70565b9250506040610ca486828701610ba6565b9150509250925092565b600060ff82169050919050565b610cc481610cae565b82525050565b6000602082019050610cdf6000830184610cbb565b92915050565b600060208284031215610cfb57610cfa610b22565b5b6000610d0984828501610b70565b91505092915050565b600060208284031215610d2857610d27610b22565b5b6000610d3684828501610ba6565b91505092915050565b60008060408385031215610d5657610d55610b22565b5b6000610d6485828601610b70565b9250506020610d7585828601610b70565b9150509250929050565b7f4e487b7100000000000000000000000000000000000000000000000000000000600052602260045260246000fd5b60006002820490506001821680610dc657607f821691505b602082108103610dd957610dd8610d7f565b5b50919050565b7f4e487b7100000000000000000000000000000000000000000000000000000000600052601160045260246000fd5b6000610e1982610b85565b9150610e2483610b85565b9250828203905081811115610e3c57610e3b610ddf565b5b92915050565b6000610e4d82610b85565b9150610e5883610b85565b9250828201905080821115610e7057610e6f610ddf565b5b9291505056fea26469706673582212200ef148aea1a3a31b231217f7ca170f794de896758e6b581810cf88155c8bcaa164736f6c634300081c0033",
  "linkReferences": {},
  "deployedLinkReferences": {}
}