{
  "_format": "hh-sol-artifact-1",
  "contractName": "AMMRouter",
  "sourceName": "src/backend/contracts/AMMRouter.sol",
  "abi": [
    {
      "inputs": [
        {
          "internalType": "address",
          "name": "_factory",
          "type": "address"
        },
        {
          "internalType": "address",
          "name": "_WETH",
          "type": "address"
        }
      ],
      "stateMutability": "nonpayable",
      "type": "constructor"
    },
    {
      "inputs": [],
      "name": "WETH",
      "outputs": [
        {
          "internalType": "address",
          "name": "",
          "type": "address"
        }
      ],
      "stateMutability": "view",
      "type": "function"
    },
    {
      "inputs": [
        {
          "internalType": "address",
          "name": "tokenA",
          "type": "address"
        },
        {
          "internalType": "address",
          "name": "tokenB",
          "type": "address"
        },
        {
          "internalType": "uint256",
          "name": "amountADesired",
          "type": "uint256"
        },
        {
          "internalType": "uint256",
          "name": "amountBDesired",
          "type": "uint256"
        },
        {
          "internalType": "uint256",
          "name": "amountAMin",
          "type": "uint256"
        },
        {
          "internalType": "uint256",
          "name": "amountBMin",
          "type": "uint256"
        },
        {
          "internalType": "address",
          "name": "to",
          "type": "address"
        },
        {
          "internalType": "uint256",
          "name": "deadline",
          "type": "uint256"
        }
      ],
      "name": "addLiquidity",
      "outputs": [
        {
          "internalType": "uint256",
          "name": "amountA",
          "type": "uint256"
        },
        {
          "internalType": "uint256",
          "name": "amountB",
          "type": "uint256"
        },
        {
          "internalType": "uint256",
          "name": "liquidity",
          "type": "uint256"
        }
      ],
      "stateMutability": "nonpayable",
      "type": "function"
    },
    {
      "inputs": [
        {
          "internalType": "address",
          "name": "token",
          "type": "address"
        },
        {
          "internalType": "uint256",
          "name": "amountTokenDesired",
          "type": "uint256"
        },
        {
          "internalType": "uint256",
          "name": "amountTokenMin",
          "type": "uint256"
        },
        {
          "internalType": "uint256",
          "name": "amountETHMin",
          "type": "uint256"
        },
        {
          "internalType": "address",
          "name": "to",
          "type": "address"
        },
        {
          "internalType": "uint256",
          "name": "deadline",
          "type": "uint256"
        }
      ],
      "name": "addLiquidityETH",
      "outputs": [
        {
          "internalType": "uint256",
          "name": "amountToken",
          "type": "uint256"
        },
        {
          "internalType": "uint256",
          "name": "amountETH",
          "type": "uint256"
        },
        {
          "internalType": "uint256",
          "name": "liquidity",
          "type": "uint256"
        }
      ],
      "stateMutability": "payable",
      "type": "function"
    },
    {
      "inputs": [],
      "name": "factory",
      "outputs": [
        {
          "internalType": "address",
          "name": "",
          "type": "address"
        }
      ],
      "stateMutability": "view",
      "type": "function"
    },
    {
      "inputs": [
        {
          "internalType": "uint256",
          "name": "amountOut",
          "type": "uint256"
        },
        {
          "internalType": "address[]",
          "name": "path",
          "type": "address[]"
        }
      ],
      "name": "getAmountsIn",
      "outputs": [
        {
          "internalType": "uint256[]",
          "name": "amounts",
          "type": "uint256[]"
        }
      ],
      "stateMutability": "view",
      "type": "function"
    },
    {
      "inputs": [
        {
          "internalType": "uint256",
          "name": "amountIn",
          "type": "uint256"
        },
        {
          "internalType": "address[]",
          "name": "path",
          "type": "address[]"
        }
      ],
      "name": "getAmountsOut",
      "outputs": [
        {
          "internalType": "uint256[]",
          "name": "amounts",
          "type": "uint256[]"
        }
      ],
      "stateMutability": "view",
      "type": "function"
    },
    {
      "inputs": [
        {
          "internalType": "address",
          "name": "tokenA",
          "type": "address"
        },
        {
          "internalType": "address",
          "name": "tokenB",
          "type": "address"
        }
      ],
      "name": "getReserves",
      "outputs": [
        {
          "internalType": "uint256",
          "name": "reserveA",
          "type": "uint256"
        },
        {
          "internalType": "uint256",
          "name": "reserveB",
          "type": "uint256"
        },
        {
          "internalType": "address",
          "name": "pair",
          "type": "address"
        }
      ],
      "stateMutability": "view",
      "type": "function"
    },
    {
      "inputs": [
        {
          "internalType": "address",
          "name": "tokenA",
          "type": "address"
        },
        {
          "internalType": "address",
          "name": "tokenB",
          "type": "address"
        },
        {
          "internalType": "uint256",
          "name": "liquidity",
          "type": "uint256"
        },
        {
          "internalType": "uint256",
          "name": "amountAMin",
          "type": "uint256"
        },
        {
          "internalType": "uint256",
          "name": "amountBMin",
          "type": "uint256"
        },
        {
          "internalType": "address",
          "name": "to",
          "type": "address"
        },
        {
          "internalType": "uint256",
          "name": "deadline",
          "type": "uint256"
        }
      ],
      "name": "removeLiquidity",
      "outputs": [
        {
          "internalType": "uint256",
          "name": "amountA",
          "type": "uint256"
        },
        {
          "internalType": "uint256",
          "name": "amountB",
          "type": "uint256"
        }
      ],
      "stateMutability": "nonpayable",
      "type": "function"
    },
    {
      "inputs": [
        {
          "internalType": "address",
          "name": "token",
          "type": "address"
        },
        {
          "internalType": "uint256",
          "name": "liquidity",
          "type": "uint256"
        },
        {
          "internalType": "uint256",
          "name": "amountTokenMin",
          "type": "uint256"
        },
        {
          "internalType": "uint256",
          "name": "amountETHMin",
          "type": "uint256"
        },
        {
          "internalType": "address",
          "name": "to",
          "type": "address"
        },
        {
          "internalType": "uint256",
          "name": "deadline",
          "type": "uint256"
        }
      ],
      "name": "removeLiquidityETH",
      "outputs": [
        {
          "internalType": "uint256",
          "name": "amountToken",
          "type": "uint256"
        },
        {
          "internalType": "uint256",
          "name": "amountETH",
          "type": "uint256"
        }
      ],
      "stateMutability": "nonpayable",
      "type": "function"
    },
    {
      "inputs": [
        {
          "internalType": "uint256",
          "name": "amountOut",
          "type": "uint256"
        },
        {
          "internalType": "address[]",
          "name": "path",
          "type": "address[]"
        },
        {
          "internalType": "address",
          "name": "to",
          "type": "address"
        },
        {
          "internalType": "uint256",
          "name": "deadline",
          "type": "uint256"
        }
      ],
      "name": "swapETHForExactTokens",
      "outputs": [
        {
          "internalType": "uint256[]",
          "name": "amounts",
          "type": "uint256[]"
        }
      ],
      "stateMutability": "payable",
      "type": "function"
    },
    {
      "inputs": [
        {
          "internalType": "uint256",
          "name": "amountOutMin",
          "type": "uint256"
        },
        {
          "internalType": "address[]",
          "name": "path",
          "type": "address[]"
        },
        {
          "internalType": "address",
          "name": "to",
          "type": "address"
        },
        {
          "internalType": "uint256",
          "name": "deadline",
          "type": "uint256"
        }
      ],
      "name": "swapExactETHForTokens",
      "outputs": [
        {
          "internalType": "uint256[]",
          "name": "amounts",
          "type": "uint256[]"
        }
      ],
      "stateMutability": "payable",
      "type": "function"
    },
    {
      "inputs": [
        {
          "internalType": "uint256",
          "name": "amountIn",
          "type": "uint256"
        },
        {
          "internalType": "uint256",
          "name": "amountOutMin",
          "type": "uint256"
        },
        {
          "internalType": "address[]",
          "name": "path",
          "type": "address[]"
        },
        {
          "internalType": "address",
          "name": "to",
          "type": "address"
        },
        {
          "internalType": "uint256",
          "name": "deadline",
          "type": "uint256"
        }
      ],
      "name": "swapExactTokensForETH",
      "outputs": [
        {
          "internalType": "uint256[]",
          "name": "amounts",
          "type": "uint256[]"
        }
      ],
      "stateMutability": "nonpayable",
      "type": "function"
    },
    {
      "inputs": [
        {
          "internalType": "uint256",
          "name": "amountIn",
          "type": "uint256"
        },
        {
          "internalType": "uint256",
          "name": "amountOutMin",
          "type": "uint256"
        },
        {
          "internalType": "address[]",
          "name": "path",
          "type": "address[]"
        },
        {
          "internalType": "address",
          "name": "to",
          "type": "address"
        },
        {
          "internalType": "uint256",
          "name": "deadline",
          "type": "uint256"
        }
      ],
      "name": "swapExactTokensForTokens",
      "outputs": [
        {
          "internalType": "uint256[]",
          "name": "amounts",
          "type": "uint256[]"
        }
      ],
      "stateMutability": "nonpayable",
      "type": "function"
    },
    {
      "inputs": [
        {
          "internalType": "uint256",
          "name": "amountOut",
          "type": "uint256"
        },
        {
          "internalType": "uint256",
          "name": "amountInMax",
          "type": "uint256"
        },
        {
          "internalType": "address[]",
          "name": "path",
          "type": "address[]"
        },
        {
          "internalType": "address",
          "name": "to",
          "type": "address"
        },
        {
          "internalType": "uint256",
          "name": "deadline",
          "type": "uint256"
        }
      ],
      "name": "swapTokensForExactETH",
      "outputs": [
        {
          "internalType": "uint256[]",
          "name": "amounts",
          "type": "uint256[]"
        }
      ],
      "stateMutability": "nonpayable",
      "type": "function"
    },
    {
      "inputs": [
        {
          "internalType": "uint256",
          "name": "amountOut",
          "type": "uint256"
        },
        {
          "internalType": "uint256",
          "name": "amountInMax",
          "type": "uint256"
        },
        {
          "internalType": "address[]",
          "name": "path",
          "type": "address[]"
        },
        {
          "internalType": "address",
          "name": "to",
          "type": "address"
        },
        {
          "internalType": "uint256",
          "name": "deadline",
          "type": "uint256"
        }
      ],
      "name": "swapTokensForExactTokens",
      "outputs": [
        {
          "internalType": "uint256[]",
          "name": "amounts",
          "type": "uint256[]"
        }
      ],
      "stateMutability": "nonpayable",
      "type": "function"
    },
    {
      "stateMutability": "payable",
      "type": "receive"
    }
  ],
  "bytecode": "0x60c060405234801561001057600080fd5b5060405161473c38038061473c8339818101604052810190610032919061017b565b8173ffffffffffffffffffffffffffffffffffffffff1660808173ffffffffffffffffffffffffffffffffffffffff16815250508073ffffffffffffffffffffffffffffffffffffffff1660a08173ffffffffffffffffffffffffffffffffffffffff168152505060805173ffffffffffffffffffffffffffffffffffffffff16635855a25a6040518163ffffffff1660e01b8152600401602060405180830381865afa1580156100e7573d6000803e3d6000fd5b505050506040513d601f19601f8201168201806040525081019061010b91906101f1565b600081905550505061021e565b600080fd5b600073ffffffffffffffffffffffffffffffffffffffff82169050919050565b60006101488261011d565b9050919050565b6101588161013d565b811461016357600080fd5b50565b6000815190506101758161014f565b92915050565b6000806040838503121561019257610191610118565b5b60006101a085828601610166565b92505060206101b185828601610166565b9150509250929050565b6000819050919050565b6101ce816101bb565b81146101d957600080fd5b50565b6000815190506101eb816101c5565b92915050565b60006020828403121561020757610206610118565b5b6000610215848285016101dc565b91505092915050565b60805160a0516144366103066000396000818160f3015281816104f10152818161052f01528181610616015281816108a901528181610d970152818161101e01528181611152015281816112bf0152818161135b0152818161170801528181611d2901528181611d6b01528181611dec01528181611f87015281816120e801526121840152600081816107c101528181610c5e01528181610f360152818161139a01528181611615015281816117780152818161191e01528181611adc015281816121c301528181612855015281816128ac01528181612c810152612d3801526144366000f3fe6080604052600436106100ec5760003560e01c8063ad5c46481161008a578063d52bb6f411610059578063d52bb6f4146103c4578063e8e3370014610403578063f305d71914610442578063fb3bdb41146104745761014f565b8063ad5c4648146102f3578063baa2abde1461031e578063c45a01551461035c578063d06ca61f146103875761014f565b806338ed1739116100c657806338ed17391461020c5780634a25d94a146102495780637ff36ab5146102865780638803dbee146102b65761014f565b806302751cec1461015457806318cbafe5146101925780631f00ca74146101cf5761014f565b3661014f577f000000000000000000000000000000000000000000000000000000000000000073ffffffffffffffffffffffffffffffffffffffff163373ffffffffffffffffffffffffffffffffffffffff161461014d5761014c612fad565b5b005b600080fd5b34801561016057600080fd5b5061017b60048036038101906101769190613084565b6104a4565b604051610189929190613120565b60405180910390f35b34801561019e57600080fd5b506101b960048036038101906101b491906131ae565b6105ce565b6040516101c69190613306565b60405180910390f35b3480156101db57600080fd5b506101f660048036038101906101f19190613477565b610995565b6040516102039190613306565b60405180910390f35b34801561021857600080fd5b50610233600480360381019061022e91906131ae565b610b2f565b6040516102409190613306565b60405180910390f35b34801561025557600080fd5b50610270600480360381019061026b91906131ae565b610d4f565b60405161027d9190613306565b60405180910390f35b6102a0600480360381019061029b91906134d3565b61110a565b6040516102ad9190613306565b60405180910390f35b3480156102c257600080fd5b506102dd60048036038101906102d891906131ae565b6114f2565b6040516102ea9190613306565b60405180910390f35b3480156102ff57600080fd5b50610308611706565b604051610315919061356a565b60405180910390f35b34801561032a57600080fd5b5061034560048036038101906103409190613585565b61172a565b604051610353929190613120565b60405180910390f35b34801561036857600080fd5b5061037161191c565b60405161037e919061356a565b60405180910390f35b34801561039357600080fd5b506103ae60048036038101906103a99190613477565b611940565b6040516103bb9190613306565b60405180910390f35b3480156103d057600080fd5b506103eb60048036038101906103e69190613627565b611ac4565b6040516103fa93929190613667565b60405180910390f35b34801561040f57600080fd5b5061042a6004803603810190610425919061369e565b611bcd565b60405161043993929190613754565b60405180910390f35b61045c60048036038101906104579190613084565b611cd8565b60405161046b93929190613754565b60405180910390f35b61048e600480360381019061048991906134d3565b611f3f565b60405161049b9190613306565b60405180910390f35b60008082428110156104eb576040517f08c379a00000000000000000000000000000000000000000000000000000000081526004016104e2906137e8565b60405180910390fd5b61051a897f00000000000000000000000000000000000000000000000000000000000000008a8a8a308a61172a565b809350819450505061052d89868561236f565b7f000000000000000000000000000000000000000000000000000000000000000073ffffffffffffffffffffffffffffffffffffffff16632e1a7d4d836040518263ffffffff1660e01b81526004016105869190613808565b600060405180830381600087803b1580156105a057600080fd5b505af11580156105b4573d6000803e3d6000fd5b505050506105c285836124a5565b50965096945050505050565b60608142811015610614576040517f08c379a000000000000000000000000000000000000000000000000000000000815260040161060b906137e8565b60405180910390fd5b7f000000000000000000000000000000000000000000000000000000000000000073ffffffffffffffffffffffffffffffffffffffff16868660018989905061065d9190613852565b81811061066d5761066c613886565b5b905060200201602081019061068291906138b5565b73ffffffffffffffffffffffffffffffffffffffff16146106d8576040517f08c379a00000000000000000000000000000000000000000000000000000000081526004016106cf9061392e565b60405180910390fd5b61072388878780806020026020016040519081016040528093929190818152602001838360200280828437600081840152601f19601f82011690508083019250505050505050611940565b91508682600184516107359190613852565b8151811061074657610745613886565b5b6020026020010151101561078f576040517f08c379a00000000000000000000000000000000000000000000000000000000081526004016107869061399a565b60405180910390fd5b61085b868660008181106107a6576107a5613886565b5b90506020020160208101906107bb91906138b5565b3361083a7f00000000000000000000000000000000000000000000000000000000000000008a8a60008181106107f4576107f3613886565b5b905060200201602081019061080991906138b5565b8b8b600181811061081d5761081c613886565b5b905060200201602081019061083291906138b5565b6000546125a5565b8560008151811061084e5761084d613886565b5b602002602001015161261a565b6108a782878780806020026020016040519081016040528093929190818152602001838360200280828437600081840152601f19601f8201169050808301925050505050505030612753565b7f000000000000000000000000000000000000000000000000000000000000000073ffffffffffffffffffffffffffffffffffffffff16632e1a7d4d83600185516108f29190613852565b8151811061090357610902613886565b5b60200260200101516040518263ffffffff1660e01b81526004016109279190613808565b600060405180830381600087803b15801561094157600080fd5b505af1158015610955573d6000803e3d6000fd5b5050505061098a84836001855161096c9190613852565b8151811061097d5761097c613886565b5b60200260200101516124a5565b509695505050505050565b60606002825110156109dc576040517f08c379a00000000000000000000000000000000000000000000000000000000081526004016109d39061392e565b60405180910390fd5b815167ffffffffffffffff8111156109f7576109f6613339565b5b604051908082528060200260200182016040528015610a255781602001602082028036833780820191505090505b509050828160018351610a389190613852565b81518110610a4957610a48613886565b5b602002602001018181525050600060018351610a659190613852565b90505b6000811115610b2857600080610abe85600185610a859190613852565b81518110610a9657610a95613886565b5b6020026020010151868581518110610ab157610ab0613886565b5b6020026020010151611ac4565b5091509150610ae8848481518110610ad957610ad8613886565b5b6020026020010151838361295d565b84600185610af69190613852565b81518110610b0757610b06613886565b5b60200260200101818152505050508080610b20906139ba565b915050610a68565b5092915050565b60608142811015610b75576040517f08c379a0000000000000000000000000000000000000000000000000000000008152600401610b6c906137e8565b60405180910390fd5b610bc088878780806020026020016040519081016040528093929190818152602001838360200280828437600081840152601f19601f82011690508083019250505050505050611940565b9150868260018451610bd29190613852565b81518110610be357610be2613886565b5b60200260200101511015610c2c576040517f08c379a0000000000000000000000000000000000000000000000000000000008152600401610c239061399a565b60405180910390fd5b610cf886866000818110610c4357610c42613886565b5b9050602002016020810190610c5891906138b5565b33610cd77f00000000000000000000000000000000000000000000000000000000000000008a8a6000818110610c9157610c90613886565b5b9050602002016020810190610ca691906138b5565b8b8b6001818110610cba57610cb9613886565b5b9050602002016020810190610ccf91906138b5565b6000546125a5565b85600081518110610ceb57610cea613886565b5b602002602001015161261a565b610d4482878780806020026020016040519081016040528093929190818152602001838360200280828437600081840152601f19601f8201169050808301925050505050505086612753565b509695505050505050565b60608142811015610d95576040517f08c379a0000000000000000000000000000000000000000000000000000000008152600401610d8c906137e8565b60405180910390fd5b7f000000000000000000000000000000000000000000000000000000000000000073ffffffffffffffffffffffffffffffffffffffff168686600189899050610dde9190613852565b818110610dee57610ded613886565b5b9050602002016020810190610e0391906138b5565b73ffffffffffffffffffffffffffffffffffffffff1614610e59576040517f08c379a0000000000000000000000000000000000000000000000000000000008152600401610e509061392e565b60405180910390fd5b610ea488878780806020026020016040519081016040528093929190818152602001838360200280828437600081840152601f19601f82011690508083019250505050505050610995565b91508682600081518110610ebb57610eba613886565b5b60200260200101511115610f04576040517f08c379a0000000000000000000000000000000000000000000000000000000008152600401610efb90613a2f565b60405180910390fd5b610fd086866000818110610f1b57610f1a613886565b5b9050602002016020810190610f3091906138b5565b33610faf7f00000000000000000000000000000000000000000000000000000000000000008a8a6000818110610f6957610f68613886565b5b9050602002016020810190610f7e91906138b5565b8b8b6001818110610f9257610f91613886565b5b9050602002016020810190610fa791906138b5565b6000546125a5565b85600081518110610fc357610fc2613886565b5b602002602001015161261a565b61101c82878780806020026020016040519081016040528093929190818152602001838360200280828437600081840152601f19601f8201169050808301925050505050505030612753565b7f000000000000000000000000000000000000000000000000000000000000000073ffffffffffffffffffffffffffffffffffffffff16632e1a7d4d83600185516110679190613852565b8151811061107857611077613886565b5b60200260200101516040518263ffffffff1660e01b815260040161109c9190613808565b600060405180830381600087803b1580156110b657600080fd5b505af11580156110ca573d6000803e3d6000fd5b505050506110ff8483600185516110e19190613852565b815181106110f2576110f1613886565b5b60200260200101516124a5565b509695505050505050565b60608142811015611150576040517f08c379a0000000000000000000000000000000000000000000000000000000008152600401611147906137e8565b60405180910390fd5b7f000000000000000000000000000000000000000000000000000000000000000073ffffffffffffffffffffffffffffffffffffffff168686600081811061119b5761119a613886565b5b90506020020160208101906111b091906138b5565b73ffffffffffffffffffffffffffffffffffffffff1614611206576040517f08c379a00000000000000000000000000000000000000000000000000000000081526004016111fd9061392e565b60405180910390fd5b61125134878780806020026020016040519081016040528093929190818152602001838360200280828437600081840152601f19601f82011690508083019250505050505050611940565b91508682600184516112639190613852565b8151811061127457611273613886565b5b602002602001015110156112bd576040517f08c379a00000000000000000000000000000000000000000000000000000000081526004016112b49061399a565b60405180910390fd5b7f000000000000000000000000000000000000000000000000000000000000000073ffffffffffffffffffffffffffffffffffffffff1663d0e30db08360008151811061130d5761130c613886565b5b60200260200101516040518263ffffffff1660e01b81526004016000604051808303818588803b15801561134057600080fd5b505af1158015611354573d6000803e3d6000fd5b50505050507f000000000000000000000000000000000000000000000000000000000000000073ffffffffffffffffffffffffffffffffffffffff1663a9059cbb6114137f0000000000000000000000000000000000000000000000000000000000000000898960008181106113cd576113cc613886565b5b90506020020160208101906113e291906138b5565b8a8a60018181106113f6576113f5613886565b5b905060200201602081019061140b91906138b5565b6000546125a5565b8460008151811061142757611426613886565b5b60200260200101516040518363ffffffff1660e01b815260040161144c929190613a4f565b6020604051808303816000875af115801561146b573d6000803e3d6000fd5b505050506040513d601f19601f8201168201806040525081019061148f9190613ab0565b61149c5761149b612fad565b5b6114e882878780806020026020016040519081016040528093929190818152602001838360200280828437600081840152601f19601f8201169050808301925050505050505086612753565b5095945050505050565b60608142811015611538576040517f08c379a000000000000000000000000000000000000000000000000000000000815260040161152f906137e8565b60405180910390fd5b61158388878780806020026020016040519081016040528093929190818152602001838360200280828437600081840152601f19601f82011690508083019250505050505050610995565b9150868260008151811061159a57611599613886565b5b602002602001015111156115e3576040517f08c379a00000000000000000000000000000000000000000000000000000000081526004016115da90613a2f565b60405180910390fd5b6116af868660008181106115fa576115f9613886565b5b905060200201602081019061160f91906138b5565b3361168e7f00000000000000000000000000000000000000000000000000000000000000008a8a600081811061164857611647613886565b5b905060200201602081019061165d91906138b5565b8b8b600181811061167157611670613886565b5b905060200201602081019061168691906138b5565b6000546125a5565b856000815181106116a2576116a1613886565b5b602002602001015161261a565b6116fb82878780806020026020016040519081016040528093929190818152602001838360200280828437600081840152601f19601f8201169050808301925050505050505086612753565b509695505050505050565b7f000000000000000000000000000000000000000000000000000000000000000081565b6000808242811015611771576040517f08c379a0000000000000000000000000000000000000000000000000000000008152600401611768906137e8565b60405180910390fd5b60006117a17f00000000000000000000000000000000000000000000000000000000000000008c8c6000546125a5565b90506117af8133838c61261a565b6000808273ffffffffffffffffffffffffffffffffffffffff166389afcb44896040518263ffffffff1660e01b81526004016117eb919061356a565b60408051808303816000875af1158015611809573d6000803e3d6000fd5b505050506040513d601f19601f8201168201806040525081019061182d9190613af2565b91509150600061183d8e8e612a4d565b5090508073ffffffffffffffffffffffffffffffffffffffff168e73ffffffffffffffffffffffffffffffffffffffff161461187a57818361187d565b82825b80975081985050508a8710156118c8576040517f08c379a00000000000000000000000000000000000000000000000000000000081526004016118bf90613b7e565b60405180910390fd5b8986101561190b576040517f08c379a000000000000000000000000000000000000000000000000000000000815260040161190290613bea565b60405180910390fd5b505050505097509795505050505050565b7f000000000000000000000000000000000000000000000000000000000000000081565b6060600282511015611987576040517f08c379a000000000000000000000000000000000000000000000000000000000815260040161197e9061392e565b60405180910390fd5b815167ffffffffffffffff8111156119a2576119a1613339565b5b6040519080825280602002602001820160405280156119d05781602001602082028036833780820191505090505b50905082816000815181106119e8576119e7613886565b5b60200260200101818152505060005b60018351611a059190613852565b811015611abd57600080611a59858481518110611a2557611a24613886565b5b602002602001015186600186611a3b9190613c0a565b81518110611a4c57611a4b613886565b5b6020026020010151611ac4565b5091509150611a83848481518110611a7457611a73613886565b5b60200260200101518383612b79565b84600185611a919190613c0a565b81518110611aa257611aa1613886565b5b602002602001018181525050505080806001019150506119f7565b5092915050565b600080600080611ad48686612a4d565b509050611b057f000000000000000000000000000000000000000000000000000000000000000087876000546125a5565b91506000808373ffffffffffffffffffffffffffffffffffffffff16630902f1ac6040518163ffffffff1660e01b8152600401606060405180830381865afa158015611b55573d6000803e3d6000fd5b505050506040513d601f19601f82011682018060405250810190611b799190613c3e565b50915091508273ffffffffffffffffffffffffffffffffffffffff168873ffffffffffffffffffffffffffffffffffffffff1614611bb8578082611bbb565b81815b80965081975050505050509250925092565b60008060008342811015611c16576040517f08c379a0000000000000000000000000000000000000000000000000000000008152600401611c0d906137e8565b60405180910390fd5b6000611c268d8d8d8d8d8d612c63565b809350819650829750505050611c3e8d33838861261a565b611c4a8c33838761261a565b8073ffffffffffffffffffffffffffffffffffffffff16636a627842886040518263ffffffff1660e01b8152600401611c83919061356a565b6020604051808303816000875af1158015611ca2573d6000803e3d6000fd5b505050506040513d601f19601f82011682018060405250810190611cc69190613c91565b92505050985098509895505050505050565b60008060008342811015611d21576040517f08c379a0000000000000000000000000000000000000000000000000000000008152600401611d18906137e8565b60405180910390fd5b6000611d518b7f00000000000000000000000000000000000000000000000000000000000000008c348d8d612c63565b809350819650829750505050611d698b33838861261a565b7f000000000000000000000000000000000000000000000000000000000000000073ffffffffffffffffffffffffffffffffffffffff1663d0e30db0856040518263ffffffff1660e01b81526004016000604051808303818588803b158015611dd157600080fd5b505af1158015611de5573d6000803e3d6000fd5b50505050507f000000000000000000000000000000000000000000000000000000000000000073ffffffffffffffffffffffffffffffffffffffff1663a9059cbb82866040518363ffffffff1660e01b8152600401611e45929190613a4f565b6020604051808303816000875af1158015611e64573d6000803e3d6000fd5b505050506040513d601f19601f82011682018060405250810190611e889190613ab0565b611e9557611e94612fad565b5b8073ffffffffffffffffffffffffffffffffffffffff16636a627842886040518263ffffffff1660e01b8152600401611ece919061356a565b6020604051808303816000875af1158015611eed573d6000803e3d6000fd5b505050506040513d601f19601f82011682018060405250810190611f119190613c91565b925083341115611f3157611f30338534611f2b9190613852565b6124a5565b5b505096509650969350505050565b60608142811015611f85576040517f08c379a0000000000000000000000000000000000000000000000000000000008152600401611f7c906137e8565b60405180910390fd5b7f000000000000000000000000000000000000000000000000000000000000000073ffffffffffffffffffffffffffffffffffffffff1686866000818110611fd057611fcf613886565b5b9050602002016020810190611fe591906138b5565b73ffffffffffffffffffffffffffffffffffffffff161461203b576040517f08c379a00000000000000000000000000000000000000000000000000000000081526004016120329061392e565b60405180910390fd5b61208687878780806020026020016040519081016040528093929190818152602001838360200280828437600081840152601f19601f82011690508083019250505050505050610995565b9150348260008151811061209d5761209c613886565b5b602002602001015111156120e6576040517f08c379a00000000000000000000000000000000000000000000000000000000081526004016120dd90613a2f565b60405180910390fd5b7f000000000000000000000000000000000000000000000000000000000000000073ffffffffffffffffffffffffffffffffffffffff1663d0e30db08360008151811061213657612135613886565b5b60200260200101516040518263ffffffff1660e01b81526004016000604051808303818588803b15801561216957600080fd5b505af115801561217d573d6000803e3d6000fd5b50505050507f000000000000000000000000000000000000000000000000000000000000000073ffffffffffffffffffffffffffffffffffffffff1663a9059cbb61223c7f0000000000000000000000000000000000000000000000000000000000000000898960008181106121f6576121f5613886565b5b905060200201602081019061220b91906138b5565b8a8a600181811061221f5761221e613886565b5b905060200201602081019061223491906138b5565b6000546125a5565b846000815181106122505761224f613886565b5b60200260200101516040518363ffffffff1660e01b8152600401612275929190613a4f565b6020604051808303816000875af1158015612294573d6000803e3d6000fd5b505050506040513d601f19601f820116820180604052508101906122b89190613ab0565b6122c5576122c4612fad565b5b61231182878780806020026020016040519081016040528093929190818152602001838360200280828437600081840152601f19601f8201169050808301925050505050505086612753565b8160008151811061232557612324613886565b5b602002602001015134111561236557612364338360008151811061234c5761234b613886565b5b60200260200101513461235f9190613852565b6124a5565b5b5095945050505050565b6000808473ffffffffffffffffffffffffffffffffffffffff1663a9059cbb85856040516024016123a1929190613a4f565b6040516020818303038152906040529060e01b6020820180517bffffffffffffffffffffffffffffffffffffffffffffffffffffffff83818316178352505050506040516123ef9190613d2f565b6000604051808303816000865af19150503d806000811461242c576040519150601f19603f3d011682016040523d82523d6000602084013e612431565b606091505b509150915081801561245f575060008151148061245e57508080602001905181019061245d9190613ab0565b5b5b61249e576040517f08c379a000000000000000000000000000000000000000000000000000000000815260040161249590613d92565b60405180910390fd5b5050505050565b60008273ffffffffffffffffffffffffffffffffffffffff1682600067ffffffffffffffff8111156124da576124d9613339565b5b6040519080825280601f01601f19166020018201604052801561250c5781602001600182028036833780820191505090505b5060405161251a9190613d2f565b60006040518083038185875af1925050503d8060008114612557576040519150601f19603f3d011682016040523d82523d6000602084013e61255c565b606091505b50509050806125a0576040517f08c379a000000000000000000000000000000000000000000000000000000000815260040161259790613dfe565b60405180910390fd5b505050565b60008060006125b48686612a4d565b915091508682826040516020016125cc929190613e66565b60405160208183030381529060405280519060200120856040516020016125f593929190613f14565b6040516020818303038152906040528051906020012060001c92505050949350505050565b6000808573ffffffffffffffffffffffffffffffffffffffff166323b872dd86868660405160240161264e93929190613f5c565b6040516020818303038152906040529060e01b6020820180517bffffffffffffffffffffffffffffffffffffffffffffffffffffffff838183161783525050505060405161269c9190613d2f565b6000604051808303816000865af19150503d80600081146126d9576040519150601f19603f3d011682016040523d82523d6000602084013e6126de565b606091505b509150915081801561270c575060008151148061270b57508080602001905181019061270a9190613ab0565b5b5b61274b576040517f08c379a000000000000000000000000000000000000000000000000000000000815260040161274290613fdf565b60405180910390fd5b505050505050565b60005b600183516127649190613852565b8110156129575760008084838151811061278157612780613886565b5b6020026020010151856001856127979190613c0a565b815181106127a8576127a7613886565b5b60200260200101519150915060006127c08383612a4d565b5090506000876001866127d39190613c0a565b815181106127e4576127e3613886565b5b602002602001015190506000808373ffffffffffffffffffffffffffffffffffffffff168673ffffffffffffffffffffffffffffffffffffffff161461282c57826000612830565b6000835b91509150600060028a516128449190613852565b881061285057886128a5565b6128a47f0000000000000000000000000000000000000000000000000000000000000000878c60028c6128839190613c0a565b8151811061289457612893613886565b5b60200260200101516000546125a5565b5b90506128d57f000000000000000000000000000000000000000000000000000000000000000088886000546125a5565b73ffffffffffffffffffffffffffffffffffffffff16636d9a640a8484846040518463ffffffff1660e01b815260040161291193929190613667565b600060405180830381600087803b15801561292b57600080fd5b505af115801561293f573d6000803e3d6000fd5b50505050505050505050508080600101915050612756565b50505050565b60008084116129a1576040517f08c379a00000000000000000000000000000000000000000000000000000000081526004016129989061399a565b60405180910390fd5b6000831180156129b15750600082115b6129f0576040517f08c379a00000000000000000000000000000000000000000000000000000000081526004016129e79061404b565b60405180910390fd5b60006103e88585612a01919061406b565b612a0b919061406b565b905060006103e68685612a1e9190613852565b612a28919061406b565b905060018183612a3891906140dc565b612a429190613c0a565b925050509392505050565b6000808273ffffffffffffffffffffffffffffffffffffffff168473ffffffffffffffffffffffffffffffffffffffff1603612abe576040517f08c379a0000000000000000000000000000000000000000000000000000000008152600401612ab590614159565b60405180910390fd5b8273ffffffffffffffffffffffffffffffffffffffff168473ffffffffffffffffffffffffffffffffffffffff1610612af8578284612afb565b83835b8092508193505050600073ffffffffffffffffffffffffffffffffffffffff168273ffffffffffffffffffffffffffffffffffffffff1603612b72576040517f08c379a0000000000000000000000000000000000000000000000000000000008152600401612b69906141c5565b60405180910390fd5b9250929050565b6000808411612bbd576040517f08c379a0000000000000000000000000000000000000000000000000000000008152600401612bb490614231565b60405180910390fd5b600083118015612bcd5750600082115b612c0c576040517f08c379a0000000000000000000000000000000000000000000000000000000008152600401612c039061404b565b60405180910390fd5b60006103e685612c1c919061406b565b905060008382612c2c919061406b565b90506000826103e887612c3f919061406b565b612c499190613c0a565b90508082612c5791906140dc565b93505050509392505050565b60008060008073ffffffffffffffffffffffffffffffffffffffff167f000000000000000000000000000000000000000000000000000000000000000073ffffffffffffffffffffffffffffffffffffffff1663e6a439058b8b6040518363ffffffff1660e01b8152600401612cda929190614251565b602060405180830381865afa158015612cf7573d6000803e3d6000fd5b505050506040513d601f19601f82011682018060405250810190612d1b919061428f565b73ffffffffffffffffffffffffffffffffffffffff1603612dd6577f000000000000000000000000000000000000000000000000000000000000000073ffffffffffffffffffffffffffffffffffffffff1663c9c653968a8a6040518363ffffffff1660e01b8152600401612d91929190614251565b6020604051808303816000875af1158015612db0573d6000803e3d6000fd5b505050506040513d601f19601f82011682018060405250810190612dd4919061428f565b505b600080612de38b8b611ac4565b809550819350829450505050600082148015612dff5750600081145b15612e135788888095508196505050612eec565b6000612e208a8484612efa565b9050888111612e7b5786811015612e6c576040517f08c379a0000000000000000000000000000000000000000000000000000000008152600401612e6390614308565b60405180910390fd5b89818096508197505050612eea565b6000612e888a8486612efa565b90508a811115612e9b57612e9a612fad565b5b88811015612ede576040517f08c379a0000000000000000000000000000000000000000000000000000000008152600401612ed590614374565b60405180910390fd5b808a8097508198505050505b505b505096509650969350505050565b6000808411612f3e576040517f08c379a0000000000000000000000000000000000000000000000000000000008152600401612f35906143e0565b60405180910390fd5b600083118015612f4e5750600082115b612f8d576040517f08c379a0000000000000000000000000000000000000000000000000000000008152600401612f849061404b565b60405180910390fd5b828285612f9a919061406b565b612fa491906140dc565b90509392505050565b7f4e487b7100000000000000000000000000000000000000000000000000000000600052600160045260246000fd5b6000604051905090565b600080fd5b600080fd5b600073ffffffffffffffffffffffffffffffffffffffff82169050919050565b600061301b82612ff0565b9050919050565b61302b81613010565b811461303657600080fd5b50565b60008135905061304881613022565b92915050565b6000819050919050565b6130618161304e565b811461306c57600080fd5b50565b60008135905061307e81613058565b92915050565b60008060008060008060c087890312156130a1576130a0612fe6565b5b60006130af89828a01613039565b96505060206130c089828a0161306f565b95505060406130d189828a0161306f565b94505060606130e289828a0161306f565b93505060806130f389828a01613039565b92505060a061310489828a0161306f565b9150509295509295509295565b61311a8161304e565b82525050565b60006040820190506131356000830185613111565b6131426020830184613111565b9392505050565b600080fd5b600080fd5b600080fd5b60008083601f84011261316e5761316d613149565b5b8235905067ffffffffffffffff81111561318b5761318a61314e565b5b6020830191508360208202830111156131a7576131a6613153565b5b9250929050565b60008060008060008060a087890312156131cb576131ca612fe6565b5b60006131d989828a0161306f565b96505060206131ea89828a0161306f565b955050604087013567ffffffffffffffff81111561320b5761320a612feb565b5b61321789828a01613158565b9450945050606061322a89828a01613039565b925050608061323b89828a0161306f565b9150509295509295509295565b600081519050919050565b600082825260208201905092915050565b6000819050602082019050919050565b61327d8161304e565b82525050565b600061328f8383613274565b60208301905092915050565b6000602082019050919050565b60006132b382613248565b6132bd8185613253565b93506132c883613264565b8060005b838110156132f95781516132e08882613283565b97506132eb8361329b565b9250506001810190506132cc565b5085935050505092915050565b6000602082019050818103600083015261332081846132a8565b905092915050565b6000601f19601f8301169050919050565b7f4e487b7100000000000000000000000000000000000000000000000000000000600052604160045260246000fd5b61337182613328565b810181811067ffffffffffffffff821117156133905761338f613339565b5b80604052505050565b60006133a3612fdc565b90506133af8282613368565b919050565b600067ffffffffffffffff8211156133cf576133ce613339565b5b602082029050602081019050919050565b60006133f36133ee846133b4565b613399565b9050808382526020820190506020840283018581111561341657613415613153565b5b835b8181101561343f578061342b8882613039565b845260208401935050602081019050613418565b5050509392505050565b600082601f83011261345e5761345d613149565b5b813561346e8482602086016133e0565b91505092915050565b6000806040838503121561348e5761348d612fe6565b5b600061349c8582860161306f565b925050602083013567ffffffffffffffff8111156134bd576134bc612feb565b5b6134c985828601613449565b9150509250929050565b6000806000806000608086880312156134ef576134ee612fe6565b5b60006134fd8882890161306f565b955050602086013567ffffffffffffffff81111561351e5761351d612feb565b5b61352a88828901613158565b9450945050604061353d88828901613039565b925050606061354e8882890161306f565b9150509295509295909350565b61356481613010565b82525050565b600060208201905061357f600083018461355b565b92915050565b600080600080600080600060e0888a0312156135a4576135a3612fe6565b5b60006135b28a828b01613039565b97505060206135c38a828b01613039565b96505060406135d48a828b0161306f565b95505060606135e58a828b0161306f565b94505060806135f68a828b0161306f565b93505060a06136078a828b01613039565b92505060c06136188a828b0161306f565b91505092959891949750929550565b6000806040838503121561363e5761363d612fe6565b5b600061364c85828601613039565b925050602061365d85828601613039565b9150509250929050565b600060608201905061367c6000830186613111565b6136896020830185613111565b613696604083018461355b565b949350505050565b600080600080600080600080610100898b0312156136bf576136be612fe6565b5b60006136cd8b828c01613039565b98505060206136de8b828c01613039565b97505060406136ef8b828c0161306f565b96505060606137008b828c0161306f565b95505060806137118b828c0161306f565b94505060a06137228b828c0161306f565b93505060c06137338b828c01613039565b92505060e06137448b828c0161306f565b9150509295985092959890939650565b60006060820190506137696000830186613111565b6137766020830185613111565b6137836040830184613111565b949350505050565b600082825260208201905092915050565b7f4558504952454400000000000000000000000000000000000000000000000000600082015250565b60006137d260078361378b565b91506137dd8261379c565b602082019050919050565b60006020820190508181036000830152613801816137c5565b9050919050565b600060208201905061381d6000830184613111565b92915050565b7f4e487b7100000000000000000000000000000000000000000000000000000000600052601160045260246000fd5b600061385d8261304e565b91506138688361304e565b92508282039050818111156138805761387f613823565b5b92915050565b7f4e487b7100000000000000000000000000000000000000000000000000000000600052603260045260246000fd5b6000602082840312156138cb576138ca612fe6565b5b60006138d984828501613039565b91505092915050565b7f494e56414c49445f504154480000000000000000000000000000000000000000600082015250565b6000613918600c8361378b565b9150613923826138e2565b602082019050919050565b600060208201905081810360008301526139478161390b565b9050919050565b7f494e53554646494349454e545f4f55545055545f414d4f554e54000000000000600082015250565b6000613984601a8361378b565b915061398f8261394e565b602082019050919050565b600060208201905081810360008301526139b381613977565b9050919050565b60006139c58261304e565b9150600082036139d8576139d7613823565b5b600182039050919050565b7f4558434553534956455f494e5055545f414d4f554e5400000000000000000000600082015250565b6000613a1960168361378b565b9150613a24826139e3565b602082019050919050565b60006020820190508181036000830152613a4881613a0c565b9050919050565b6000604082019050613a64600083018561355b565b613a716020830184613111565b9392505050565b60008115159050919050565b613a8d81613a78565b8114613a9857600080fd5b50565b600081519050613aaa81613a84565b92915050565b600060208284031215613ac657613ac5612fe6565b5b6000613ad484828501613a9b565b91505092915050565b600081519050613aec81613058565b92915050565b60008060408385031215613b0957613b08612fe6565b5b6000613b1785828601613add565b9250506020613b2885828601613add565b9150509250929050565b7f494e53554646494349454e545f415f414d4f554e540000000000000000000000600082015250565b6000613b6860158361378b565b9150613b7382613b32565b602082019050919050565b60006020820190508181036000830152613b9781613b5b565b9050919050565b7f494e53554646494349454e545f425f414d4f554e540000000000000000000000600082015250565b6000613bd460158361378b565b9150613bdf82613b9e565b602082019050919050565b60006020820190508181036000830152613c0381613bc7565b9050919050565b6000613c158261304e565b9150613c208361304e565b9250828201905080821115613c3857613c37613823565b5b92915050565b600080600060608486031215613c5757613c56612fe6565b5b6000613c6586828701613add565b9350506020613c7686828701613add565b9250506040613c8786828701613add565b9150509250925092565b600060208284031215613ca757613ca6612fe6565b5b6000613cb584828501613add565b91505092915050565b600081519050919050565b600081905092915050565b60005b83811015613cf2578082015181840152602081019050613cd7565b60008484015250505050565b6000613d0982613cbe565b613d138185613cc9565b9350613d23818560208601613cd4565b80840191505092915050565b6000613d3b8284613cfe565b915081905092915050565b7f5472616e7366657248656c7065723a205452414e534645525f4641494c454400600082015250565b6000613d7c601f8361378b565b9150613d8782613d46565b602082019050919050565b60006020820190508181036000830152613dab81613d6f565b9050919050565b7f4554485f5452414e534645525f4641494c454400000000000000000000000000600082015250565b6000613de860138361378b565b9150613df382613db2565b602082019050919050565b60006020820190508181036000830152613e1781613ddb565b9050919050565b60008160601b9050919050565b6000613e3682613e1e565b9050919050565b6000613e4882613e2b565b9050919050565b613e60613e5b82613010565b613e3d565b82525050565b6000613e728285613e4f565b601482019150613e828284613e4f565b6014820191508190509392505050565b600081905092915050565b7fff00000000000000000000000000000000000000000000000000000000000000600082015250565b6000613ed3600183613e92565b9150613ede82613e9d565b600182019050919050565b6000819050919050565b6000819050919050565b613f0e613f0982613ee9565b613ef3565b82525050565b6000613f1f82613ec6565b9150613f2b8286613e4f565b601482019150613f3b8285613efd565b602082019150613f4b8284613efd565b602082019150819050949350505050565b6000606082019050613f71600083018661355b565b613f7e602083018561355b565b613f8b6040830184613111565b949350505050565b7f5452414e534645525f46524f4d5f4641494c4544000000000000000000000000600082015250565b6000613fc960148361378b565b9150613fd482613f93565b602082019050919050565b60006020820190508181036000830152613ff881613fbc565b9050919050565b7f494e53554646494349454e545f4c495155494449545900000000000000000000600082015250565b600061403560168361378b565b915061404082613fff565b602082019050919050565b6000602082019050818103600083015261406481614028565b9050919050565b60006140768261304e565b91506140818361304e565b925082820261408f8161304e565b915082820484148315176140a6576140a5613823565b5b5092915050565b7f4e487b7100000000000000000000000000000000000000000000000000000000600052601260045260246000fd5b60006140e78261304e565b91506140f28361304e565b925082614102576141016140ad565b5b828204905092915050565b7f4944454e544943414c5f4144445245535345535f4e4f545f414c4c4f57454400600082015250565b6000614143601f8361378b565b915061414e8261410d565b602082019050919050565b6000602082019050818103600083015261417281614136565b9050919050565b7f5a45524f5f414444524553535f4e4f545f414c4c4f5745440000000000000000600082015250565b60006141af60188361378b565b91506141ba82614179565b602082019050919050565b600060208201905081810360008301526141de816141a2565b9050919050565b7f494e53554646494349454e545f494e5055545f414d4f554e5400000000000000600082015250565b600061421b60198361378b565b9150614226826141e5565b602082019050919050565b6000602082019050818103600083015261424a8161420e565b9050919050565b6000604082019050614266600083018561355b565b614273602083018461355b565b9392505050565b60008151905061428981613022565b92915050565b6000602082840312156142a5576142a4612fe6565b5b60006142b38482850161427a565b91505092915050565b7f494e53554646494349454e545f746f6b656e425f414d4f554e54000000000000600082015250565b60006142f2601a8361378b565b91506142fd826142bc565b602082019050919050565b60006020820190508181036000830152614321816142e5565b9050919050565b7f494e53554646494349454e545f746f6b656e415f414d4f554e54000000000000600082015250565b600061435e601a8361378b565b915061436982614328565b602082019050919050565b6000602082019050818103600083015261438d81614351565b9050919050565b7f494e53554646494349454e545f414d4f554e5400000000000000000000000000600082015250565b60006143ca60138361378b565b91506143d582614394565b602082019050919050565b600060208201905081810360008301526143f9816143bd565b905091905056fea26469706673582212207a11e16e5b7eeaf5c58c03c8a4de4f74ce36db30cc8653143e1f5a2ea1ba063a64736f6c634300081c0033",
  "linkReferences": {},
  "deployedLinkReferences": {}
}