{"src/backend/contracts/StakingPoolManager.sol":{"StakingPoolManager":{"abi":[{"anonymous":false,"inputs":[{"indexed":false,"internalType":"address","name":"owner","type":"address"},{"indexed":false,"internalType":"address","name":"stakingPool","type":"address"}],"name":"CreateStakingPool","type":"event"},{"inputs":[{"internalType":"contract ERC20","name":"_stakedToken","type":"address"},{"internalType":"contract ERC20","name":"_rewardToken","type":"address"},{"internalType":"uint256","name":"_rewardPerBlock","type":"uint256"},{"internalType":"uint256","name":"_rewardStartBlock","type":"uint256"},{"internalType":"uint256","name":"_rewardEndBlock","type":"uint256"}],"name":"createStakingPool","outputs":[{"internalType":"contract StakingPool","name":"","type":"address"}],"stateMutability":"nonpayable","type":"function"},{"inputs":[],"name":"getAllStakingPools","outputs":[{"internalType":"address[]","name":"","type":"address[]"}],"stateMutability":"view","type":"function"},{"inputs":[{"internalType":"uint256","name":"","type":"uint256"}],"name":"stakingPools","outputs":[{"internalType":"address","name":"","type":"address"}],"stateMutability":"view","type":"function"}],"evm":{"bytecode":{"linkReferences":{},"object":"6080604052348015600f57600080fd5b50612e038061001f6000396000f3fe608060405234801561001057600080fd5b50600436106100415760003560e01c8063405afeef146100465780635aad6cf014610076578063d9d54858146100a6575b600080fd5b610060600480360381019061005b919061039e565b6100c4565b60405161006d9190610478565b60405180910390f35b610090600480360381019061008b9190610493565b610219565b60405161009d91906104cf565b60405180910390f35b6100ae610258565b6040516100bb91906105a8565b60405180910390f35b60008086868686866040516100d8906102e6565b6100e69594939291906105fa565b604051809103906000f080158015610102573d6000803e3d6000fd5b5090508073ffffffffffffffffffffffffffffffffffffffff1663f2fde38b336040518263ffffffff1660e01b815260040161013e91906104cf565b600060405180830381600087803b15801561015857600080fd5b505af115801561016c573d6000803e3d6000fd5b505050506000819080600181540180825580915050600190039060005260206000200160009091909190916101000a81548173ffffffffffffffffffffffffffffffffffffffff021916908373ffffffffffffffffffffffffffffffffffffffff1602179055507f0a9391dd2f7201dd6af8a5b6a5fe8dfee81ba9307eaff717f71c65f9d3df9fff338260405161020492919061064d565b60405180910390a18091505095945050505050565b6000818154811061022957600080fd5b906000526020600020016000915054906101000a900473ffffffffffffffffffffffffffffffffffffffff1681565b606060008054806020026020016040519081016040528092919081815260200182805480156102dc57602002820191906000526020600020905b8160009054906101000a900473ffffffffffffffffffffffffffffffffffffffff1673ffffffffffffffffffffffffffffffffffffffff1681526020019060010190808311610292575b5050505050905090565b6127578061067783390190565b600080fd5b600073ffffffffffffffffffffffffffffffffffffffff82169050919050565b6000610323826102f8565b9050919050565b600061033582610318565b9050919050565b6103458161032a565b811461035057600080fd5b50565b6000813590506103628161033c565b92915050565b6000819050919050565b61037b81610368565b811461038657600080fd5b50565b60008135905061039881610372565b92915050565b600080600080600060a086880312156103ba576103b96102f3565b5b60006103c888828901610353565b95505060206103d988828901610353565b94505060406103ea88828901610389565b93505060606103fb88828901610389565b925050608061040c88828901610389565b9150509295509295909350565b6000819050919050565b600061043e610439610434846102f8565b610419565b6102f8565b9050919050565b600061045082610423565b9050919050565b600061046282610445565b9050919050565b61047281610457565b82525050565b600060208201905061048d6000830184610469565b92915050565b6000602082840312156104a9576104a86102f3565b5b60006104b784828501610389565b91505092915050565b6104c981610318565b82525050565b60006020820190506104e460008301846104c0565b92915050565b600081519050919050565b600082825260208201905092915050565b6000819050602082019050919050565b61051f81610318565b82525050565b60006105318383610516565b60208301905092915050565b6000602082019050919050565b6000610555826104ea565b61055f81856104f5565b935061056a83610506565b8060005b8381101561059b5781516105828882610525565b975061058d8361053d565b92505060018101905061056e565b5085935050505092915050565b600060208201905081810360008301526105c2818461054a565b905092915050565b60006105d582610445565b9050919050565b6105e5816105ca565b82525050565b6105f481610368565b82525050565b600060a08201905061060f60008301886105dc565b61061c60208301876105dc565b61062960408301866105eb565b61063660608301856105eb565b61064360808301846105eb565b9695505050505050565b600060408201905061066260008301856104c0565b61066f60208301846104c0565b939250505056fe60a060405234801561001057600080fd5b5060405161275738038061275783398181016040528101906100329190610372565b61004e6100436101fb60201b60201c565b61020360201b60201c565b6001808190555084600860006101000a81548173ffffffffffffffffffffffffffffffffffffffff021916908373ffffffffffffffffffffffffffffffffffffffff16021790555083600760006101000a81548173ffffffffffffffffffffffffffffffffffffffff021916908373ffffffffffffffffffffffffffffffffffffffff1602179055508260068190555081600381905550806004819055506000600760009054906101000a900473ffffffffffffffffffffffffffffffffffffffff1673ffffffffffffffffffffffffffffffffffffffff1663313ce5676040518163ffffffff1660e01b8152600401602060405180830381865afa15801561015b573d6000803e3d6000fd5b505050506040513d601f19601f8201168201806040525081019061017f9190610426565b60ff169050601e81106101c7576040517f08c379a00000000000000000000000000000000000000000000000000000000081526004016101be906104d6565b60405180910390fd5b80601e6101d49190610525565b600a6101e0919061068c565b608081815250506003546005819055505050505050506106d7565b600033905090565b60008060009054906101000a900473ffffffffffffffffffffffffffffffffffffffff169050816000806101000a81548173ffffffffffffffffffffffffffffffffffffffff021916908373ffffffffffffffffffffffffffffffffffffffff1602179055508173ffffffffffffffffffffffffffffffffffffffff168173ffffffffffffffffffffffffffffffffffffffff167f8be0079c531659141344cd1fd0a4f28419497f9722a3daafe3b4186f6b6457e060405160405180910390a35050565b600080fd5b600073ffffffffffffffffffffffffffffffffffffffff82169050919050565b60006102f7826102cc565b9050919050565b6000610309826102ec565b9050919050565b610319816102fe565b811461032457600080fd5b50565b60008151905061033681610310565b92915050565b6000819050919050565b61034f8161033c565b811461035a57600080fd5b50565b60008151905061036c81610346565b92915050565b600080600080600060a0868803121561038e5761038d6102c7565b5b600061039c88828901610327565b95505060206103ad88828901610327565b94505060406103be8882890161035d565b93505060606103cf8882890161035d565b92505060806103e08882890161035d565b9150509295509295909350565b600060ff82169050919050565b610403816103ed565b811461040e57600080fd5b50565b600081519050610420816103fa565b92915050565b60006020828403121561043c5761043b6102c7565b5b600061044a84828501610411565b91505092915050565b600082825260208201905092915050565b7f446563696d616c73206f662072657761726420746f6b656e206d75737420626560008201527f206c657373207468616e20333000000000000000000000000000000000000000602082015250565b60006104c0602d83610453565b91506104cb82610464565b604082019050919050565b600060208201905081810360008301526104ef816104b3565b9050919050565b7f4e487b7100000000000000000000000000000000000000000000000000000000600052601160045260246000fd5b60006105308261033c565b915061053b8361033c565b9250828203905081811115610553576105526104f6565b5b92915050565b60008160011c9050919050565b6000808291508390505b60018511156105b05780860481111561058c5761058b6104f6565b5b600185161561059b5780820291505b80810290506105a985610559565b9450610570565b94509492505050565b6000826105c95760019050610685565b816105d75760009050610685565b81600181146105ed57600281146105f757610626565b6001915050610685565b60ff841115610609576106086104f6565b5b8360020a9150848211156106205761061f6104f6565b5b50610685565b5060208310610133831016604e8410600b841016171561065b5782820a905083811115610656576106556104f6565b5b610685565b6106688484846001610566565b9250905081840481111561067f5761067e6104f6565b5b81810290505b9392505050565b60006106978261033c565b91506106a28361033c565b92506106cf7fffffffffffffffffffffffffffffffffffffffffffffffffffffffffffffffff84846105b9565b905092915050565b60805161202d61072a600039600081816104ce015281816105f9015281816108a8015281816108f20152818161094601528181610bcc01528181610cfb01528181610dc00152610f9a015261202d6000f3fe608060405234801561001057600080fd5b506004361061012c5760003560e01c80638f662915116100ad578063b6b55f2511610071578063b6b55f25146102e8578063cc7a262e14610304578063ccd34cd514610322578063f2fde38b14610340578063f7c618c11461035c5761012c565b80638f66291514610254578063921979af146102725780639513997f14610290578063a9f8d181146102ac578063b2d2900f146102ca5761012c565b8063604ef2e5116100f4578063604ef2e5146101e6578063715018a614610204578063797008c61461020e5780638ae39cac146102185780638da5cb5b146102365761012c565b806301f8a976146101315780631959a0021461014d5780632e1a7d4d1461017e5780633f138d4b1461019a5780634df9d6ba146101b6575b600080fd5b61014b600480360381019061014691906114ec565b61037a565b005b61016760048036038101906101629190611577565b610407565b6040516101759291906115b3565b60405180910390f35b610198600480360381019061019391906114ec565b61042b565b005b6101b460048036038101906101af91906115dc565b610697565b005b6101d060048036038101906101cb9190611577565b610827565b6040516101dd919061161c565b60405180910390f35b6101ee610994565b6040516101fb919061161c565b60405180910390f35b61020c61099a565b005b6102166109ae565b005b6102206109f8565b60405161022d919061161c565b60405180910390f35b61023e6109fe565b60405161024b9190611646565b60405180910390f35b61025c610a27565b604051610269919061161c565b60405180910390f35b61027a610a2d565b604051610287919061161c565b60405180910390f35b6102aa60048036038101906102a59190611661565b610a33565b005b6102b4610b57565b6040516102c1919061161c565b60405180910390f35b6102d2610b5d565b6040516102df919061161c565b60405180910390f35b61030260048036038101906102fd91906114ec565b610b63565b005b61030c610d98565b6040516103199190611700565b60405180910390f35b61032a610dbe565b604051610337919061161c565b60405180910390f35b61035a60048036038101906103559190611577565b610de2565b005b610364610e65565b6040516103719190611700565b60405180910390f35b610382610e8b565b60035443106103c6576040517f08c379a00000000000000000000000000000000000000000000000000000000081526004016103bd90611778565b60405180910390fd5b806006819055507fc606f355efeddd89e42e997e575220501445590def6dd71bf081c2c51d6c0a4d816040516103fc919061161c565b60405180910390a150565b600a6020528060005260406000206000915090508060000154908060010154905082565b610433610f09565b6000600a60003373ffffffffffffffffffffffffffffffffffffffff1673ffffffffffffffffffffffffffffffffffffffff168152602001908152602001600020905081816000015410156104bd576040517f08c379a00000000000000000000000000000000000000000000000000000000081526004016104b4906117e4565b60405180910390fd5b6104c5610f58565b600081600101547f000000000000000000000000000000000000000000000000000000000000000060025484600001546104ff9190611833565b61050991906118a4565b61051391906118d5565b905060008311156105a0578282600001600082825461053291906118d5565b92505081905550826009600082825461054b91906118d5565b9250508190555061059f3384600860009054906101000a900473ffffffffffffffffffffffffffffffffffffffff1673ffffffffffffffffffffffffffffffffffffffff16610ff19092919063ffffffff16565b5b60008111156105f7576105f63382600760009054906101000a900473ffffffffffffffffffffffffffffffffffffffff1673ffffffffffffffffffffffffffffffffffffffff16610ff19092919063ffffffff16565b5b7f0000000000000000000000000000000000000000000000000000000000000000600254836000015461062a9190611833565b61063491906118a4565b82600101819055503373ffffffffffffffffffffffffffffffffffffffff167f884edad9ce6fa2440d8a54cc123490eb96d2768479d49ff9c7366125a942436484604051610682919061161c565b60405180910390a25050610694611077565b50565b61069f610e8b565b600860009054906101000a900473ffffffffffffffffffffffffffffffffffffffff1673ffffffffffffffffffffffffffffffffffffffff168273ffffffffffffffffffffffffffffffffffffffff160361072f576040517f08c379a000000000000000000000000000000000000000000000000000000000815260040161072690611955565b60405180910390fd5b600760009054906101000a900473ffffffffffffffffffffffffffffffffffffffff1673ffffffffffffffffffffffffffffffffffffffff168273ffffffffffffffffffffffffffffffffffffffff16036107bf576040517f08c379a00000000000000000000000000000000000000000000000000000000081526004016107b6906119c1565b60405180910390fd5b6107ea33828473ffffffffffffffffffffffffffffffffffffffff16610ff19092919063ffffffff16565b7ffba2d3bdfb2d601eb66a89783a2c614856101cadce71556753c2edadd60c831c828260405161081b9291906119e1565b60405180910390a15050565b600080600a60008473ffffffffffffffffffffffffffffffffffffffff1673ffffffffffffffffffffffffffffffffffffffff16815260200190815260200160002090506005544311801561087f5750600060095414155b1561093f57600061089260055443611080565b60065461089f9190611833565b905060006009547f0000000000000000000000000000000000000000000000000000000000000000836108d29190611833565b6108dc91906118a4565b6002546108e99190611a0a565b905082600101547f00000000000000000000000000000000000000000000000000000000000000008285600001546109219190611833565b61092b91906118a4565b61093591906118d5565b935050505061098f565b80600101547f000000000000000000000000000000000000000000000000000000000000000060025483600001546109779190611833565b61098191906118a4565b61098b91906118d5565b9150505b919050565b60045481565b6109a2610e8b565b6109ac60006110c7565b565b6109b6610e8b565b436004819055507fafb6c2f001c26fd9b9b6bfc8fa9dd1a41e3b501527a831cece8570604da4eef36004546040516109ee919061161c565b60405180910390a1565b60065481565b60008060009054906101000a900473ffffffffffffffffffffffffffffffffffffffff16905090565b60025481565b60095481565b610a3b610e8b565b6003544310610a7f576040517f08c379a0000000000000000000000000000000000000000000000000000000008152600401610a7690611778565b60405180910390fd5b808210610ac1576040517f08c379a0000000000000000000000000000000000000000000000000000000008152600401610ab890611ab0565b60405180910390fd5b814310610b03576040517f08c379a0000000000000000000000000000000000000000000000000000000008152600401610afa90611b42565b60405180910390fd5b81600381905550806004819055506003546005819055507f053462fec8f17a9d662e3778a6027b6c0c1ac0da2390a991aa33cb3aa60cae4e8282604051610b4b9291906115b3565b60405180910390a15050565b60055481565b60035481565b610b6b610f09565b6000600a60003373ffffffffffffffffffffffffffffffffffffffff1673ffffffffffffffffffffffffffffffffffffffff1681526020019081526020016000209050610bb6610f58565b600081600001541115610c6c57600081600101547f00000000000000000000000000000000000000000000000000000000000000006002548460000154610bfd9190611833565b610c0791906118a4565b610c1191906118d5565b90506000811115610c6a57610c693382600760009054906101000a900473ffffffffffffffffffffffffffffffffffffffff1673ffffffffffffffffffffffffffffffffffffffff16610ff19092919063ffffffff16565b5b505b6000821115610cf95781816000016000828254610c899190611a0a565b925050819055508160096000828254610ca29190611a0a565b92505081905550610cf8333084600860009054906101000a900473ffffffffffffffffffffffffffffffffffffffff1673ffffffffffffffffffffffffffffffffffffffff1661118b909392919063ffffffff16565b5b7f00000000000000000000000000000000000000000000000000000000000000006002548260000154610d2c9190611833565b610d3691906118a4565b81600101819055503373ffffffffffffffffffffffffffffffffffffffff167fe1fffcc4923d04b559f4d29a8bfc6cda04eb5b0d3c460751c2402c5c5cc9109c83604051610d84919061161c565b60405180910390a250610d95611077565b50565b600860009054906101000a900473ffffffffffffffffffffffffffffffffffffffff1681565b7f000000000000000000000000000000000000000000000000000000000000000081565b610dea610e8b565b600073ffffffffffffffffffffffffffffffffffffffff168173ffffffffffffffffffffffffffffffffffffffff1603610e59576040517f08c379a0000000000000000000000000000000000000000000000000000000008152600401610e5090611bd4565b60405180910390fd5b610e62816110c7565b50565b600760009054906101000a900473ffffffffffffffffffffffffffffffffffffffff1681565b610e93611214565b73ffffffffffffffffffffffffffffffffffffffff16610eb16109fe565b73ffffffffffffffffffffffffffffffffffffffff1614610f07576040517f08c379a0000000000000000000000000000000000000000000000000000000008152600401610efe90611c40565b60405180910390fd5b565b600260015403610f4e576040517f08c379a0000000000000000000000000000000000000000000000000000000008152600401610f4590611cac565b60405180910390fd5b6002600181905550565b600554431115610fef57600060095403610f785743600581905550610fef565b6000610f8660055443611080565b600654610f939190611833565b90506009547f000000000000000000000000000000000000000000000000000000000000000082610fc49190611833565b610fce91906118a4565b60026000828254610fdf9190611a0a565b9250508190555043600581905550505b565b6110728363a9059cbb60e01b84846040516024016110109291906119e1565b604051602081830303815290604052907bffffffffffffffffffffffffffffffffffffffffffffffffffffffff19166020820180517bffffffffffffffffffffffffffffffffffffffffffffffffffffffff838183161783525050505061121c565b505050565b60018081905550565b6000600454821161109e57828261109791906118d5565b90506110c1565b60045483106110b057600090506110c1565b826004546110be91906118d5565b90505b92915050565b60008060009054906101000a900473ffffffffffffffffffffffffffffffffffffffff169050816000806101000a81548173ffffffffffffffffffffffffffffffffffffffff021916908373ffffffffffffffffffffffffffffffffffffffff1602179055508173ffffffffffffffffffffffffffffffffffffffff168173ffffffffffffffffffffffffffffffffffffffff167f8be0079c531659141344cd1fd0a4f28419497f9722a3daafe3b4186f6b6457e060405160405180910390a35050565b61120e846323b872dd60e01b8585856040516024016111ac93929190611ccc565b604051602081830303815290604052907bffffffffffffffffffffffffffffffffffffffffffffffffffffffff19166020820180517bffffffffffffffffffffffffffffffffffffffffffffffffffffffff838183161783525050505061121c565b50505050565b600033905090565b600061127e826040518060400160405280602081526020017f5361666545524332303a206c6f772d6c6576656c2063616c6c206661696c65648152508573ffffffffffffffffffffffffffffffffffffffff166112e49092919063ffffffff16565b90506000815114806112a057508080602001905181019061129f9190611d3b565b5b6112df576040517f08c379a00000000000000000000000000000000000000000000000000000000081526004016112d690611dda565b60405180910390fd5b505050565b60606112f384846000856112fc565b90509392505050565b606082471015611341576040517f08c379a000000000000000000000000000000000000000000000000000000000815260040161133890611e6c565b60405180910390fd5b6000808673ffffffffffffffffffffffffffffffffffffffff16858760405161136a9190611efd565b60006040518083038185875af1925050503d80600081146113a7576040519150601f19603f3d011682016040523d82523d6000602084013e6113ac565b606091505b50915091506113bd878383876113c9565b92505050949350505050565b6060831561142b576000835103611423576113e38561143e565b611422576040517f08c379a000000000000000000000000000000000000000000000000000000000815260040161141990611f60565b60405180910390fd5b5b829050611436565b6114358383611461565b5b949350505050565b6000808273ffffffffffffffffffffffffffffffffffffffff163b119050919050565b6000825111156114745781518083602001fd5b806040517f08c379a00000000000000000000000000000000000000000000000000000000081526004016114a89190611fd5565b60405180910390fd5b600080fd5b6000819050919050565b6114c9816114b6565b81146114d457600080fd5b50565b6000813590506114e6816114c0565b92915050565b600060208284031215611502576115016114b1565b5b6000611510848285016114d7565b91505092915050565b600073ffffffffffffffffffffffffffffffffffffffff82169050919050565b600061154482611519565b9050919050565b61155481611539565b811461155f57600080fd5b50565b6000813590506115718161154b565b92915050565b60006020828403121561158d5761158c6114b1565b5b600061159b84828501611562565b91505092915050565b6115ad816114b6565b82525050565b60006040820190506115c860008301856115a4565b6115d560208301846115a4565b9392505050565b600080604083850312156115f3576115f26114b1565b5b600061160185828601611562565b9250506020611612858286016114d7565b9150509250929050565b600060208201905061163160008301846115a4565b92915050565b61164081611539565b82525050565b600060208201905061165b6000830184611637565b92915050565b60008060408385031215611678576116776114b1565b5b6000611686858286016114d7565b9250506020611697858286016114d7565b9150509250929050565b6000819050919050565b60006116c66116c16116bc84611519565b6116a1565b611519565b9050919050565b60006116d8826116ab565b9050919050565b60006116ea826116cd565b9050919050565b6116fa816116df565b82525050565b600060208201905061171560008301846116f1565b92915050565b600082825260208201905092915050565b7f506f6f6c20686173207374617274656400000000000000000000000000000000600082015250565b600061176260108361171b565b915061176d8261172c565b602082019050919050565b6000602082019050818103600083015261179181611755565b9050919050565b7f496e73756666696369656e7420616d6f756e7420746f20776974686472617700600082015250565b60006117ce601f8361171b565b91506117d982611798565b602082019050919050565b600060208201905081810360008301526117fd816117c1565b9050919050565b7f4e487b7100000000000000000000000000000000000000000000000000000000600052601160045260246000fd5b600061183e826114b6565b9150611849836114b6565b9250828202611857816114b6565b9150828204841483151761186e5761186d611804565b5b5092915050565b7f4e487b7100000000000000000000000000000000000000000000000000000000600052601260045260246000fd5b60006118af826114b6565b91506118ba836114b6565b9250826118ca576118c9611875565b5b828204905092915050565b60006118e0826114b6565b91506118eb836114b6565b925082820390508181111561190357611902611804565b5b92915050565b7f43616e6e6f74206265207374616b656420746f6b656e00000000000000000000600082015250565b600061193f60168361171b565b915061194a82611909565b602082019050919050565b6000602082019050818103600083015261196e81611932565b9050919050565b7f43616e6e6f742062652072657761726420746f6b656e00000000000000000000600082015250565b60006119ab60168361171b565b91506119b682611975565b602082019050919050565b600060208201905081810360008301526119da8161199e565b9050919050565b60006040820190506119f66000830185611637565b611a0360208301846115a4565b9392505050565b6000611a15826114b6565b9150611a20836114b6565b9250828201905080821115611a3857611a37611804565b5b92915050565b7f4e657720737461727420626c6f636b206d757374206265206c6f77657220746860008201527f616e206e657720656e6420626c6f636b00000000000000000000000000000000602082015250565b6000611a9a60308361171b565b9150611aa582611a3e565b604082019050919050565b60006020820190508181036000830152611ac981611a8d565b9050919050565b7f4e657720737461727420626c6f636b206d75737420626520686967686572207460008201527f68616e2063757272656e7420626c6f636b000000000000000000000000000000602082015250565b6000611b2c60318361171b565b9150611b3782611ad0565b604082019050919050565b60006020820190508181036000830152611b5b81611b1f565b9050919050565b7f4f776e61626c653a206e6577206f776e657220697320746865207a65726f206160008201527f6464726573730000000000000000000000000000000000000000000000000000602082015250565b6000611bbe60268361171b565b9150611bc982611b62565b604082019050919050565b60006020820190508181036000830152611bed81611bb1565b9050919050565b7f4f776e61626c653a2063616c6c6572206973206e6f7420746865206f776e6572600082015250565b6000611c2a60208361171b565b9150611c3582611bf4565b602082019050919050565b60006020820190508181036000830152611c5981611c1d565b9050919050565b7f5265656e7472616e637947756172643a207265656e7472616e742063616c6c00600082015250565b6000611c96601f8361171b565b9150611ca182611c60565b602082019050919050565b60006020820190508181036000830152611cc581611c89565b9050919050565b6000606082019050611ce16000830186611637565b611cee6020830185611637565b611cfb60408301846115a4565b949350505050565b60008115159050919050565b611d1881611d03565b8114611d2357600080fd5b50565b600081519050611d3581611d0f565b92915050565b600060208284031215611d5157611d506114b1565b5b6000611d5f84828501611d26565b91505092915050565b7f5361666545524332303a204552433230206f7065726174696f6e20646964206e60008201527f6f74207375636365656400000000000000000000000000000000000000000000602082015250565b6000611dc4602a8361171b565b9150611dcf82611d68565b604082019050919050565b60006020820190508181036000830152611df381611db7565b9050919050565b7f416464726573733a20696e73756666696369656e742062616c616e636520666f60008201527f722063616c6c0000000000000000000000000000000000000000000000000000602082015250565b6000611e5660268361171b565b9150611e6182611dfa565b604082019050919050565b60006020820190508181036000830152611e8581611e49565b9050919050565b600081519050919050565b600081905092915050565b60005b83811015611ec0578082015181840152602081019050611ea5565b60008484015250505050565b6000611ed782611e8c565b611ee18185611e97565b9350611ef1818560208601611ea2565b80840191505092915050565b6000611f098284611ecc565b915081905092915050565b7f416464726573733a2063616c6c20746f206e6f6e2d636f6e7472616374000000600082015250565b6000611f4a601d8361171b565b9150611f5582611f14565b602082019050919050565b60006020820190508181036000830152611f7981611f3d565b9050919050565b600081519050919050565b6000601f19601f8301169050919050565b6000611fa782611f80565b611fb1818561171b565b9350611fc1818560208601611ea2565b611fca81611f8b565b840191505092915050565b60006020820190508181036000830152611fef8184611f9c565b90509291505056fea26469706673582212200e6557a9ca59b909405b70eed98fc3a24db2c04ce0fd6beaea7215686a99f79e64736f6c634300081c0033a26469706673582212204fe9417959f751fb580ca6f88640c07be8db649a4987b21fdf1ccff3150d5d6a64736f6c634300081c0033","opcodes":"PUSH1 0x80 PUSH1 0x40 MSTORE CALLVALUE DUP1 ISZERO PUSH1 0xF JUMPI PUSH1 0x0 DUP1 REVERT JUMPDEST POP PUSH2 0x2E03 DUP1 PUSH2 0x1F PUSH1 0x0 CODECOPY PUSH1 0x0 RETURN INVALID PUSH1 0x80 PUSH1 0x40 MSTORE CALLVALUE DUP1 ISZERO PUSH2 0x10 JUMPI PUSH1 0x0 DUP1 REVERT JUMPDEST POP PUSH1 0x4 CALLDATASIZE LT PUSH2 0x41 JUMPI PUSH1 0x0 CALLDATALOAD PUSH1 0xE0 SHR DUP1 PUSH4 0x405AFEEF EQ PUSH2 0x46 JUMPI DUP1 PUSH4 0x5AAD6CF0 EQ PUSH2 0x76 JUMPI DUP1 PUSH4 0xD9D54858 EQ PUSH2 0xA6 JUMPI JUMPDEST PUSH1 0x0 DUP1 REVERT JUMPDEST PUSH2 0x60 PUSH1 0x4 DUP1 CALLDATASIZE SUB DUP2 ADD SWAP1 PUSH2 0x5B SWAP2 SWAP1 PUSH2 0x39E JUMP JUMPDEST PUSH2 0xC4 JUMP JUMPDEST PUSH1 0x40 MLOAD PUSH2 0x6D SWAP2 SWAP1 PUSH2 0x478 JUMP JUMPDEST PUSH1 0x40 MLOAD DUP1 SWAP2 SUB SWAP1 RETURN JUMPDEST PUSH2 0x90 PUSH1 0x4 DUP1 CALLDATASIZE SUB DUP2 ADD SWAP1 PUSH2 0x8B SWAP2 SWAP1 PUSH2 0x493 JUMP JUMPDEST PUSH2 0x219 JUMP JUMPDEST PUSH1 0x40 MLOAD PUSH2 0x9D SWAP2 SWAP1 PUSH2 0x4CF JUMP JUMPDEST PUSH1 0x40 MLOAD DUP1 SWAP2 SUB SWAP1 RETURN JUMPDEST PUSH2 0xAE PUSH2 0x258 JUMP JUMPDEST PUSH1 0x40 MLOAD PUSH2 0xBB SWAP2 SWAP1 PUSH2 0x5A8 JUMP JUMPDEST PUSH1 0x40 MLOAD DUP1 SWAP2 SUB SWAP1 RETURN JUMPDEST PUSH1 0x0 DUP1 DUP7 DUP7 DUP7 DUP7 DUP7 PUSH1 0x40 MLOAD PUSH2 0xD8 SWAP1 PUSH2 0x2E6 JUMP JUMPDEST PUSH2 0xE6 SWAP6 SWAP5 SWAP4 SWAP3 SWAP2 SWAP1 PUSH2 0x5FA JUMP JUMPDEST PUSH1 0x40 MLOAD DUP1 SWAP2 SUB SWAP1 PUSH1 0x0 CREATE DUP1 ISZERO DUP1 ISZERO PUSH2 0x102 JUMPI RETURNDATASIZE PUSH1 0x0 DUP1 RETURNDATACOPY RETURNDATASIZE PUSH1 0x0 REVERT JUMPDEST POP SWAP1 POP DUP1 PUSH20 0xFFFFFFFFFFFFFFFFFFFFFFFFFFFFFFFFFFFFFFFF AND PUSH4 0xF2FDE38B CALLER PUSH1 0x40 MLOAD DUP3 PUSH4 0xFFFFFFFF AND PUSH1 0xE0 SHL DUP2 MSTORE PUSH1 0x4 ADD PUSH2 0x13E SWAP2 SWAP1 PUSH2 0x4CF JUMP JUMPDEST PUSH1 0x0 PUSH1 0x40 MLOAD DUP1 DUP4 SUB DUP2 PUSH1 0x0 DUP8 DUP1 EXTCODESIZE ISZERO DUP1 ISZERO PUSH2 0x158 JUMPI PUSH1 0x0 DUP1 REVERT JUMPDEST POP GAS CALL ISZERO DUP1 ISZERO PUSH2 0x16C JUMPI RETURNDATASIZE PUSH1 0x0 DUP1 RETURNDATACOPY RETURNDATASIZE PUSH1 0x0 REVERT JUMPDEST POP POP POP POP PUSH1 0x0 DUP2 SWAP1 DUP1 PUSH1 0x1 DUP2 SLOAD ADD DUP1 DUP3 SSTORE DUP1 SWAP2 POP POP PUSH1 0x1 SWAP1 SUB SWAP1 PUSH1 0x0 MSTORE PUSH1 0x20 PUSH1 0x0 KECCAK256 ADD PUSH1 0x0 SWAP1 SWAP2 SWAP1 SWAP2 SWAP1 SWAP2 PUSH2 0x100 EXP DUP2 SLOAD DUP2 PUSH20 0xFFFFFFFFFFFFFFFFFFFFFFFFFFFFFFFFFFFFFFFF MUL NOT AND SWAP1 DUP4 PUSH20 0xFFFFFFFFFFFFFFFFFFFFFFFFFFFFFFFFFFFFFFFF AND MUL OR SWAP1 SSTORE POP PUSH32 0xA9391DD2F7201DD6AF8A5B6A5FE8DFEE81BA9307EAFF717F71C65F9D3DF9FFF CALLER DUP3 PUSH1 0x40 MLOAD PUSH2 0x204 SWAP3 SWAP2 SWAP1 PUSH2 0x64D JUMP JUMPDEST PUSH1 0x40 MLOAD DUP1 SWAP2 SUB SWAP1 LOG1 DUP1 SWAP2 POP POP SWAP6 SWAP5 POP POP POP POP POP JUMP JUMPDEST PUSH1 0x0 DUP2 DUP2 SLOAD DUP2 LT PUSH2 0x229 JUMPI PUSH1 0x0 DUP1 REVERT JUMPDEST SWAP1 PUSH1 0x0 MSTORE PUSH1 0x20 PUSH1 0x0 KECCAK256 ADD PUSH1 0x0 SWAP2 POP SLOAD SWAP1 PUSH2 0x100 EXP SWAP1 DIV PUSH20 0xFFFFFFFFFFFFFFFFFFFFFFFFFFFFFFFFFFFFFFFF AND DUP2 JUMP JUMPDEST PUSH1 0x60 PUSH1 0x0 DUP1 SLOAD DUP1 PUSH1 0x20 MUL PUSH1 0x20 ADD PUSH1 0x40 MLOAD SWAP1 DUP2 ADD PUSH1 0x40 MSTORE DUP1 SWAP3 SWAP2 SWAP1 DUP2 DUP2 MSTORE PUSH1 0x20 ADD DUP3 DUP1 SLOAD DUP1 ISZERO PUSH2 0x2DC JUMPI PUSH1 0x20 MUL DUP3 ADD SWAP2 SWAP1 PUSH1 0x0 MSTORE PUSH1 0x20 PUSH1 0x0 KECCAK256 SWAP1 JUMPDEST DUP2 PUSH1 0x0 SWAP1 SLOAD SWAP1 PUSH2 0x100 EXP SWAP1 DIV PUSH20 0xFFFFFFFFFFFFFFFFFFFFFFFFFFFFFFFFFFFFFFFF AND PUSH20 0xFFFFFFFFFFFFFFFFFFFFFFFFFFFFFFFFFFFFFFFF AND DUP2 MSTORE PUSH1 0x20 ADD SWAP1 PUSH1 0x1 ADD SWAP1 DUP1 DUP4 GT PUSH2 0x292 JUMPI JUMPDEST POP POP POP POP POP SWAP1 POP SWAP1 JUMP JUMPDEST PUSH2 0x2757 DUP1 PUSH2 0x677 DUP4 CODECOPY ADD SWAP1 JUMP JUMPDEST PUSH1 0x0 DUP1 REVERT JUMPDEST PUSH1 0x0 PUSH20 0xFFFFFFFFFFFFFFFFFFFFFFFFFFFFFFFFFFFFFFFF DUP3 AND SWAP1 POP SWAP2 SWAP1 POP JUMP JUMPDEST PUSH1 0x0 PUSH2 0x323 DUP3 PUSH2 0x2F8 JUMP JUMPDEST SWAP1 POP SWAP2 SWAP1 POP JUMP JUMPDEST PUSH1 0x0 PUSH2 0x335 DUP3 PUSH2 0x318 JUMP JUMPDEST SWAP1 POP SWAP2 SWAP1 POP JUMP JUMPDEST PUSH2 0x345 DUP2 PUSH2 0x32A JUMP JUMPDEST DUP2 EQ PUSH2 0x350 JUMPI PUSH1 0x0 DUP1 REVERT JUMPDEST POP JUMP JUMPDEST PUSH1 0x0 DUP2 CALLDATALOAD SWAP1 POP PUSH2 0x362 DUP2 PUSH2 0x33C JUMP JUMPDEST SWAP3 SWAP2 POP POP JUMP JUMPDEST PUSH1 0x0 DUP2 SWAP1 POP SWAP2 SWAP1 POP JUMP JUMPDEST PUSH2 0x37B DUP2 PUSH2 0x368 JUMP JUMPDEST DUP2 EQ PUSH2 0x386 JUMPI PUSH1 0x0 DUP1 REVERT JUMPDEST POP JUMP JUMPDEST PUSH1 0x0 DUP2 CALLDATALOAD SWAP1 POP PUSH2 0x398 DUP2 PUSH2 0x372 JUMP JUMPDEST SWAP3 SWAP2 POP POP JUMP JUMPDEST PUSH1 0x0 DUP1 PUSH1 0x0 DUP1 PUSH1 0x0 PUSH1 0xA0 DUP7 DUP9 SUB SLT ISZERO PUSH2 0x3BA JUMPI PUSH2 0x3B9 PUSH2 0x2F3 JUMP JUMPDEST JUMPDEST PUSH1 0x0 PUSH2 0x3C8 DUP9 DUP3 DUP10 ADD PUSH2 0x353 JUMP JUMPDEST SWAP6 POP POP PUSH1 0x20 PUSH2 0x3D9 DUP9 DUP3 DUP10 ADD PUSH2 0x353 JUMP JUMPDEST SWAP5 POP POP PUSH1 0x40 PUSH2 0x3EA DUP9 DUP3 DUP10 ADD PUSH2 0x389 JUMP JUMPDEST SWAP4 POP POP PUSH1 0x60 PUSH2 0x3FB DUP9 DUP3 DUP10 ADD PUSH2 0x389 JUMP JUMPDEST SWAP3 POP POP PUSH1 0x80 PUSH2 0x40C DUP9 DUP3 DUP10 ADD PUSH2 0x389 JUMP JUMPDEST SWAP2 POP POP SWAP3 SWAP6 POP SWAP3 SWAP6 SWAP1 SWAP4 POP JUMP JUMPDEST PUSH1 0x0 DUP2 SWAP1 POP SWAP2 SWAP1 POP JUMP JUMPDEST PUSH1 0x0 PUSH2 0x43E PUSH2 0x439 PUSH2 0x434 DUP5 PUSH2 0x2F8 JUMP JUMPDEST PUSH2 0x419 JUMP JUMPDEST PUSH2 0x2F8 JUMP JUMPDEST SWAP1 POP SWAP2 SWAP1 POP JUMP JUMPDEST PUSH1 0x0 PUSH2 0x450 DUP3 PUSH2 0x423 JUMP JUMPDEST SWAP1 POP SWAP2 SWAP1 POP JUMP JUMPDEST PUSH1 0x0 PUSH2 0x462 DUP3 PUSH2 0x445 JUMP JUMPDEST SWAP1 POP SWAP2 SWAP1 POP JUMP JUMPDEST PUSH2 0x472 DUP2 PUSH2 0x457 JUMP JUMPDEST DUP3 MSTORE POP POP JUMP JUMPDEST PUSH1 0x0 PUSH1 0x20 DUP3 ADD SWAP1 POP PUSH2 0x48D PUSH1 0x0 DUP4 ADD DUP5 PUSH2 0x469 JUMP JUMPDEST SWAP3 SWAP2 POP POP JUMP JUMPDEST PUSH1 0x0 PUSH1 0x20 DUP3 DUP5 SUB SLT ISZERO PUSH2 0x4A9 JUMPI PUSH2 0x4A8 PUSH2 0x2F3 JUMP JUMPDEST JUMPDEST PUSH1 0x0 PUSH2 0x4B7 DUP5 DUP3 DUP6 ADD PUSH2 0x389 JUMP JUMPDEST SWAP2 POP POP SWAP3 SWAP2 POP POP JUMP JUMPDEST PUSH2 0x4C9 DUP2 PUSH2 0x318 JUMP JUMPDEST DUP3 MSTORE POP POP JUMP JUMPDEST PUSH1 0x0 PUSH1 0x20 DUP3 ADD SWAP1 POP PUSH2 0x4E4 PUSH1 0x0 DUP4 ADD DUP5 PUSH2 0x4C0 JUMP JUMPDEST SWAP3 SWAP2 POP POP JUMP JUMPDEST PUSH1 0x0 DUP2 MLOAD SWAP1 POP SWAP2 SWAP1 POP JUMP JUMPDEST PUSH1 0x0 DUP3 DUP3 MSTORE PUSH1 0x20 DUP3 ADD SWAP1 POP SWAP3 SWAP2 POP POP JUMP JUMPDEST PUSH1 0x0 DUP2 SWAP1 POP PUSH1 0x20 DUP3 ADD SWAP1 POP SWAP2 SWAP1 POP JUMP JUMPDEST PUSH2 0x51F DUP2 PUSH2 0x318 JUMP JUMPDEST DUP3 MSTORE POP POP JUMP JUMPDEST PUSH1 0x0 PUSH2 0x531 DUP4 DUP4 PUSH2 0x516 JUMP JUMPDEST PUSH1 0x20 DUP4 ADD SWAP1 POP SWAP3 SWAP2 POP POP JUMP JUMPDEST PUSH1 0x0 PUSH1 0x20 DUP3 ADD SWAP1 POP SWAP2 SWAP1 POP JUMP JUMPDEST PUSH1 0x0 PUSH2 0x555 DUP3 PUSH2 0x4EA JUMP JUMPDEST PUSH2 0x55F DUP2 DUP6 PUSH2 0x4F5 JUMP JUMPDEST SWAP4 POP PUSH2 0x56A DUP4 PUSH2 0x506 JUMP JUMPDEST DUP1 PUSH1 0x0 JUMPDEST DUP4 DUP2 LT ISZERO PUSH2 0x59B JUMPI DUP2 MLOAD PUSH2 0x582 DUP9 DUP3 PUSH2 0x525 JUMP JUMPDEST SWAP8 POP PUSH2 0x58D DUP4 PUSH2 0x53D JUMP JUMPDEST SWAP3 POP POP PUSH1 0x1 DUP2 ADD SWAP1 POP PUSH2 0x56E JUMP JUMPDEST POP DUP6 SWAP4 POP POP POP POP SWAP3 SWAP2 POP POP JUMP JUMPDEST PUSH1 0x0 PUSH1 0x20 DUP3 ADD SWAP1 POP DUP2 DUP2 SUB PUSH1 0x0 DUP4 ADD MSTORE PUSH2 0x5C2 DUP2 DUP5 PUSH2 0x54A JUMP JUMPDEST SWAP1 POP SWAP3 SWAP2 POP POP JUMP JUMPDEST PUSH1 0x0 PUSH2 0x5D5 DUP3 PUSH2 0x445 JUMP JUMPDEST SWAP1 POP SWAP2 SWAP1 POP JUMP JUMPDEST PUSH2 0x5E5 DUP2 PUSH2 0x5CA JUMP JUMPDEST DUP3 MSTORE POP POP JUMP JUMPDEST PUSH2 0x5F4 DUP2 PUSH2 0x368 JUMP JUMPDEST DUP3 MSTORE POP POP JUMP JUMPDEST PUSH1 0x0 PUSH1 0xA0 DUP3 ADD SWAP1 POP PUSH2 0x60F PUSH1 0x0 DUP4 ADD DUP9 PUSH2 0x5DC JUMP JUMPDEST PUSH2 0x61C PUSH1 0x20 DUP4 ADD DUP8 PUSH2 0x5DC JUMP JUMPDEST PUSH2 0x629 PUSH1 0x40 DUP4 ADD DUP7 PUSH2 0x5EB JUMP JUMPDEST PUSH2 0x636 PUSH1 0x60 DUP4 ADD DUP6 PUSH2 0x5EB JUMP JUMPDEST PUSH2 0x643 PUSH1 0x80 DUP4 ADD DUP5 PUSH2 0x5EB JUMP JUMPDEST SWAP7 SWAP6 POP POP POP POP POP POP JUMP JUMPDEST PUSH1 0x0 PUSH1 0x40 DUP3 ADD SWAP1 POP PUSH2 0x662 PUSH1 0x0 DUP4 ADD DUP6 PUSH2 0x4C0 JUMP JUMPDEST PUSH2 0x66F PUSH1 0x20 DUP4 ADD DUP5 PUSH2 0x4C0 JUMP JUMPDEST SWAP4 SWAP3 POP POP POP JUMP INVALID PUSH1 0xA0 PUSH1 0x40 MSTORE CALLVALUE DUP1 ISZERO PUSH2 0x10 JUMPI PUSH1 0x0 DUP1 REVERT JUMPDEST POP PUSH1 0x40 MLOAD PUSH2 0x2757 CODESIZE SUB DUP1 PUSH2 0x2757 DUP4 CODECOPY DUP2 DUP2 ADD PUSH1 0x40 MSTORE DUP2 ADD SWAP1 PUSH2 0x32 SWAP2 SWAP1 PUSH2 0x372 JUMP JUMPDEST PUSH2 0x4E PUSH2 0x43 PUSH2 0x1FB PUSH1 0x20 SHL PUSH1 0x20 SHR JUMP JUMPDEST PUSH2 0x203 PUSH1 0x20 SHL PUSH1 0x20 SHR JUMP JUMPDEST PUSH1 0x1 DUP1 DUP2 SWAP1 SSTORE POP DUP5 PUSH1 0x8 PUSH1 0x0 PUSH2 0x100 EXP DUP2 SLOAD DUP2 PUSH20 0xFFFFFFFFFFFFFFFFFFFFFFFFFFFFFFFFFFFFFFFF MUL NOT AND SWAP1 DUP4 PUSH20 0xFFFFFFFFFFFFFFFFFFFFFFFFFFFFFFFFFFFFFFFF AND MUL OR SWAP1 SSTORE POP DUP4 PUSH1 0x7 PUSH1 0x0 PUSH2 0x100 EXP DUP2 SLOAD DUP2 PUSH20 0xFFFFFFFFFFFFFFFFFFFFFFFFFFFFFFFFFFFFFFFF MUL NOT AND SWAP1 DUP4 PUSH20 0xFFFFFFFFFFFFFFFFFFFFFFFFFFFFFFFFFFFFFFFF AND MUL OR SWAP1 SSTORE POP DUP3 PUSH1 0x6 DUP2 SWAP1 SSTORE POP DUP2 PUSH1 0x3 DUP2 SWAP1 SSTORE POP DUP1 PUSH1 0x4 DUP2 SWAP1 SSTORE POP PUSH1 0x0 PUSH1 0x7 PUSH1 0x0 SWAP1 SLOAD SWAP1 PUSH2 0x100 EXP SWAP1 DIV PUSH20 0xFFFFFFFFFFFFFFFFFFFFFFFFFFFFFFFFFFFFFFFF AND PUSH20 0xFFFFFFFFFFFFFFFFFFFFFFFFFFFFFFFFFFFFFFFF AND PUSH4 0x313CE567 PUSH1 0x40 MLOAD DUP2 PUSH4 0xFFFFFFFF AND PUSH1 0xE0 SHL DUP2 MSTORE PUSH1 0x4 ADD PUSH1 0x20 PUSH1 0x40 MLOAD DUP1 DUP4 SUB DUP2 DUP7 GAS STATICCALL ISZERO DUP1 ISZERO PUSH2 0x15B JUMPI RETURNDATASIZE PUSH1 0x0 DUP1 RETURNDATACOPY RETURNDATASIZE PUSH1 0x0 REVERT JUMPDEST POP POP POP POP PUSH1 0x40 MLOAD RETURNDATASIZE PUSH1 0x1F NOT PUSH1 0x1F DUP3 ADD AND DUP3 ADD DUP1 PUSH1 0x40 MSTORE POP DUP2 ADD SWAP1 PUSH2 0x17F SWAP2 SWAP1 PUSH2 0x426 JUMP JUMPDEST PUSH1 0xFF AND SWAP1 POP PUSH1 0x1E DUP2 LT PUSH2 0x1C7 JUMPI PUSH1 0x40 MLOAD PUSH32 0x8C379A000000000000000000000000000000000000000000000000000000000 DUP2 MSTORE PUSH1 0x4 ADD PUSH2 0x1BE SWAP1 PUSH2 0x4D6 JUMP JUMPDEST PUSH1 0x40 MLOAD DUP1 SWAP2 SUB SWAP1 REVERT JUMPDEST DUP1 PUSH1 0x1E PUSH2 0x1D4 SWAP2 SWAP1 PUSH2 0x525 JUMP JUMPDEST PUSH1 0xA PUSH2 0x1E0 SWAP2 SWAP1 PUSH2 0x68C JUMP JUMPDEST PUSH1 0x80 DUP2 DUP2 MSTORE POP POP PUSH1 0x3 SLOAD PUSH1 0x5 DUP2 SWAP1 SSTORE POP POP POP POP POP POP POP PUSH2 0x6D7 JUMP JUMPDEST PUSH1 0x0 CALLER SWAP1 POP SWAP1 JUMP JUMPDEST PUSH1 0x0 DUP1 PUSH1 0x0 SWAP1 SLOAD SWAP1 PUSH2 0x100 EXP SWAP1 DIV PUSH20 0xFFFFFFFFFFFFFFFFFFFFFFFFFFFFFFFFFFFFFFFF AND SWAP1 POP DUP2 PUSH1 0x0 DUP1 PUSH2 0x100 EXP DUP2 SLOAD DUP2 PUSH20 0xFFFFFFFFFFFFFFFFFFFFFFFFFFFFFFFFFFFFFFFF MUL NOT AND SWAP1 DUP4 PUSH20 0xFFFFFFFFFFFFFFFFFFFFFFFFFFFFFFFFFFFFFFFF AND MUL OR SWAP1 SSTORE POP DUP2 PUSH20 0xFFFFFFFFFFFFFFFFFFFFFFFFFFFFFFFFFFFFFFFF AND DUP2 PUSH20 0xFFFFFFFFFFFFFFFFFFFFFFFFFFFFFFFFFFFFFFFF AND PUSH32 0x8BE0079C531659141344CD1FD0A4F28419497F9722A3DAAFE3B4186F6B6457E0 PUSH1 0x40 MLOAD PUSH1 0x40 MLOAD DUP1 SWAP2 SUB SWAP1 LOG3 POP POP JUMP JUMPDEST PUSH1 0x0 DUP1 REVERT JUMPDEST PUSH1 0x0 PUSH20 0xFFFFFFFFFFFFFFFFFFFFFFFFFFFFFFFFFFFFFFFF DUP3 AND SWAP1 POP SWAP2 SWAP1 POP JUMP JUMPDEST PUSH1 0x0 PUSH2 0x2F7 DUP3 PUSH2 0x2CC JUMP JUMPDEST SWAP1 POP SWAP2 SWAP1 POP JUMP JUMPDEST PUSH1 0x0 PUSH2 0x309 DUP3 PUSH2 0x2EC JUMP JUMPDEST SWAP1 POP SWAP2 SWAP1 POP JUMP JUMPDEST PUSH2 0x319 DUP2 PUSH2 0x2FE JUMP JUMPDEST DUP2 EQ PUSH2 0x324 JUMPI PUSH1 0x0 DUP1 REVERT JUMPDEST POP JUMP JUMPDEST PUSH1 0x0 DUP2 MLOAD SWAP1 POP PUSH2 0x336 DUP2 PUSH2 0x310 JUMP JUMPDEST SWAP3 SWAP2 POP POP JUMP JUMPDEST PUSH1 0x0 DUP2 SWAP1 POP SWAP2 SWAP1 POP JUMP JUMPDEST PUSH2 0x34F DUP2 PUSH2 0x33C JUMP JUMPDEST DUP2 EQ PUSH2 0x35A JUMPI PUSH1 0x0 DUP1 REVERT JUMPDEST POP JUMP JUMPDEST PUSH1 0x0 DUP2 MLOAD SWAP1 POP PUSH2 0x36C DUP2 PUSH2 0x346 JUMP JUMPDEST SWAP3 SWAP2 POP POP JUMP JUMPDEST PUSH1 0x0 DUP1 PUSH1 0x0 DUP1 PUSH1 0x0 PUSH1 0xA0 DUP7 DUP9 SUB SLT ISZERO PUSH2 0x38E JUMPI PUSH2 0x38D PUSH2 0x2C7 JUMP JUMPDEST JUMPDEST PUSH1 0x0 PUSH2 0x39C DUP9 DUP3 DUP10 ADD PUSH2 0x327 JUMP JUMPDEST SWAP6 POP POP PUSH1 0x20 PUSH2 0x3AD DUP9 DUP3 DUP10 ADD PUSH2 0x327 JUMP JUMPDEST SWAP5 POP POP PUSH1 0x40 PUSH2 0x3BE DUP9 DUP3 DUP10 ADD PUSH2 0x35D JUMP JUMPDEST SWAP4 POP POP PUSH1 0x60 PUSH2 0x3CF DUP9 DUP3 DUP10 ADD PUSH2 0x35D JUMP JUMPDEST SWAP3 POP POP PUSH1 0x80 PUSH2 0x3E0 DUP9 DUP3 DUP10 ADD PUSH2 0x35D JUMP JUMPDEST SWAP2 POP POP SWAP3 SWAP6 POP SWAP3 SWAP6 SWAP1 SWAP4 POP JUMP JUMPDEST PUSH1 0x0 PUSH1 0xFF DUP3 AND SWAP1 POP SWAP2 SWAP1 POP JUMP JUMPDEST PUSH2 0x403 DUP2 PUSH2 0x3ED JUMP JUMPDEST DUP2 EQ PUSH2 0x40E JUMPI PUSH1 0x0 DUP1 REVERT JUMPDEST POP JUMP JUMPDEST PUSH1 0x0 DUP2 MLOAD SWAP1 POP PUSH2 0x420 DUP2 PUSH2 0x3FA JUMP JUMPDEST SWAP3 SWAP2 POP POP JUMP JUMPDEST PUSH1 0x0 PUSH1 0x20 DUP3 DUP5 SUB SLT ISZERO PUSH2 0x43C JUMPI PUSH2 0x43B PUSH2 0x2C7 JUMP JUMPDEST JUMPDEST PUSH1 0x0 PUSH2 0x44A DUP5 DUP3 DUP6 ADD PUSH2 0x411 JUMP JUMPDEST SWAP2 POP POP SWAP3 SWAP2 POP POP JUMP JUMPDEST PUSH1 0x0 DUP3 DUP3 MSTORE PUSH1 0x20 DUP3 ADD SWAP1 POP SWAP3 SWAP2 POP POP JUMP JUMPDEST PUSH32 0x446563696D616C73206F662072657761726420746F6B656E206D757374206265 PUSH1 0x0 DUP3 ADD MSTORE PUSH32 0x206C657373207468616E20333000000000000000000000000000000000000000 PUSH1 0x20 DUP3 ADD MSTORE POP JUMP JUMPDEST PUSH1 0x0 PUSH2 0x4C0 PUSH1 0x2D DUP4 PUSH2 0x453 JUMP JUMPDEST SWAP2 POP PUSH2 0x4CB DUP3 PUSH2 0x464 JUMP JUMPDEST PUSH1 0x40 DUP3 ADD SWAP1 POP SWAP2 SWAP1 POP JUMP JUMPDEST PUSH1 0x0 PUSH1 0x20 DUP3 ADD SWAP1 POP DUP2 DUP2 SUB PUSH1 0x0 DUP4 ADD MSTORE PUSH2 0x4EF DUP2 PUSH2 0x4B3 JUMP JUMPDEST SWAP1 POP SWAP2 SWAP1 POP JUMP JUMPDEST PUSH32 0x4E487B7100000000000000000000000000000000000000000000000000000000 PUSH1 0x0 MSTORE PUSH1 0x11 PUSH1 0x4 MSTORE PUSH1 0x24 PUSH1 0x0 REVERT JUMPDEST PUSH1 0x0 PUSH2 0x530 DUP3 PUSH2 0x33C JUMP JUMPDEST SWAP2 POP PUSH2 0x53B DUP4 PUSH2 0x33C JUMP JUMPDEST SWAP3 POP DUP3 DUP3 SUB SWAP1 POP DUP2 DUP2 GT ISZERO PUSH2 0x553 JUMPI PUSH2 0x552 PUSH2 0x4F6 JUMP JUMPDEST JUMPDEST SWAP3 SWAP2 POP POP JUMP JUMPDEST PUSH1 0x0 DUP2 PUSH1 0x1 SHR SWAP1 POP SWAP2 SWAP1 POP JUMP JUMPDEST PUSH1 0x0 DUP1 DUP3 SWAP2 POP DUP4 SWAP1 POP JUMPDEST PUSH1 0x1 DUP6 GT ISZERO PUSH2 0x5B0 JUMPI DUP1 DUP7 DIV DUP2 GT ISZERO PUSH2 0x58C JUMPI PUSH2 0x58B PUSH2 0x4F6 JUMP JUMPDEST JUMPDEST PUSH1 0x1 DUP6 AND ISZERO PUSH2 0x59B JUMPI DUP1 DUP3 MUL SWAP2 POP JUMPDEST DUP1 DUP2 MUL SWAP1 POP PUSH2 0x5A9 DUP6 PUSH2 0x559 JUMP JUMPDEST SWAP5 POP PUSH2 0x570 JUMP JUMPDEST SWAP5 POP SWAP5 SWAP3 POP POP POP JUMP JUMPDEST PUSH1 0x0 DUP3 PUSH2 0x5C9 JUMPI PUSH1 0x1 SWAP1 POP PUSH2 0x685 JUMP JUMPDEST DUP2 PUSH2 0x5D7 JUMPI PUSH1 0x0 SWAP1 POP PUSH2 0x685 JUMP JUMPDEST DUP2 PUSH1 0x1 DUP2 EQ PUSH2 0x5ED JUMPI PUSH1 0x2 DUP2 EQ PUSH2 0x5F7 JUMPI PUSH2 0x626 JUMP JUMPDEST PUSH1 0x1 SWAP2 POP POP PUSH2 0x685 JUMP JUMPDEST PUSH1 0xFF DUP5 GT ISZERO PUSH2 0x609 JUMPI PUSH2 0x608 PUSH2 0x4F6 JUMP JUMPDEST JUMPDEST DUP4 PUSH1 0x2 EXP SWAP2 POP DUP5 DUP3 GT ISZERO PUSH2 0x620 JUMPI PUSH2 0x61F PUSH2 0x4F6 JUMP JUMPDEST JUMPDEST POP PUSH2 0x685 JUMP JUMPDEST POP PUSH1 0x20 DUP4 LT PUSH2 0x133 DUP4 LT AND PUSH1 0x4E DUP5 LT PUSH1 0xB DUP5 LT AND OR ISZERO PUSH2 0x65B JUMPI DUP3 DUP3 EXP SWAP1 POP DUP4 DUP2 GT ISZERO PUSH2 0x656 JUMPI PUSH2 0x655 PUSH2 0x4F6 JUMP JUMPDEST JUMPDEST PUSH2 0x685 JUMP JUMPDEST PUSH2 0x668 DUP5 DUP5 DUP5 PUSH1 0x1 PUSH2 0x566 JUMP JUMPDEST SWAP3 POP SWAP1 POP DUP2 DUP5 DIV DUP2 GT ISZERO PUSH2 0x67F JUMPI PUSH2 0x67E PUSH2 0x4F6 JUMP JUMPDEST JUMPDEST DUP2 DUP2 MUL SWAP1 POP JUMPDEST SWAP4 SWAP3 POP POP POP JUMP JUMPDEST PUSH1 0x0 PUSH2 0x697 DUP3 PUSH2 0x33C JUMP JUMPDEST SWAP2 POP PUSH2 0x6A2 DUP4 PUSH2 0x33C JUMP JUMPDEST SWAP3 POP PUSH2 0x6CF PUSH32 0xFFFFFFFFFFFFFFFFFFFFFFFFFFFFFFFFFFFFFFFFFFFFFFFFFFFFFFFFFFFFFFFF DUP5 DUP5 PUSH2 0x5B9 JUMP JUMPDEST SWAP1 POP SWAP3 SWAP2 POP POP JUMP JUMPDEST PUSH1 0x80 MLOAD PUSH2 0x202D PUSH2 0x72A PUSH1 0x0 CODECOPY PUSH1 0x0 DUP2 DUP2 PUSH2 0x4CE ADD MSTORE DUP2 DUP2 PUSH2 0x5F9 ADD MSTORE DUP2 DUP2 PUSH2 0x8A8 ADD MSTORE DUP2 DUP2 PUSH2 0x8F2 ADD MSTORE DUP2 DUP2 PUSH2 0x946 ADD MSTORE DUP2 DUP2 PUSH2 0xBCC ADD MSTORE DUP2 DUP2 PUSH2 0xCFB ADD MSTORE DUP2 DUP2 PUSH2 0xDC0 ADD MSTORE PUSH2 0xF9A ADD MSTORE PUSH2 0x202D PUSH1 0x0 RETURN INVALID PUSH1 0x80 PUSH1 0x40 MSTORE CALLVALUE DUP1 ISZERO PUSH2 0x10 JUMPI PUSH1 0x0 DUP1 REVERT JUMPDEST POP PUSH1 0x4 CALLDATASIZE LT PUSH2 0x12C JUMPI PUSH1 0x0 CALLDATALOAD PUSH1 0xE0 SHR DUP1 PUSH4 0x8F662915 GT PUSH2 0xAD JUMPI DUP1 PUSH4 0xB6B55F25 GT PUSH2 0x71 JUMPI DUP1 PUSH4 0xB6B55F25 EQ PUSH2 0x2E8 JUMPI DUP1 PUSH4 0xCC7A262E EQ PUSH2 0x304 JUMPI DUP1 PUSH4 0xCCD34CD5 EQ PUSH2 0x322 JUMPI DUP1 PUSH4 0xF2FDE38B EQ PUSH2 0x340 JUMPI DUP1 PUSH4 0xF7C618C1 EQ PUSH2 0x35C JUMPI PUSH2 0x12C JUMP JUMPDEST DUP1 PUSH4 0x8F662915 EQ PUSH2 0x254 JUMPI DUP1 PUSH4 0x921979AF EQ PUSH2 0x272 JUMPI DUP1 PUSH4 0x9513997F EQ PUSH2 0x290 JUMPI DUP1 PUSH4 0xA9F8D181 EQ PUSH2 0x2AC JUMPI DUP1 PUSH4 0xB2D2900F EQ PUSH2 0x2CA JUMPI PUSH2 0x12C JUMP JUMPDEST DUP1 PUSH4 0x604EF2E5 GT PUSH2 0xF4 JUMPI DUP1 PUSH4 0x604EF2E5 EQ PUSH2 0x1E6 JUMPI DUP1 PUSH4 0x715018A6 EQ PUSH2 0x204 JUMPI DUP1 PUSH4 0x797008C6 EQ PUSH2 0x20E JUMPI DUP1 PUSH4 0x8AE39CAC EQ PUSH2 0x218 JUMPI DUP1 PUSH4 0x8DA5CB5B EQ PUSH2 0x236 JUMPI PUSH2 0x12C JUMP JUMPDEST DUP1 PUSH4 0x1F8A976 EQ PUSH2 0x131 JUMPI DUP1 PUSH4 0x1959A002 EQ PUSH2 0x14D JUMPI DUP1 PUSH4 0x2E1A7D4D EQ PUSH2 0x17E JUMPI DUP1 PUSH4 0x3F138D4B EQ PUSH2 0x19A JUMPI DUP1 PUSH4 0x4DF9D6BA EQ PUSH2 0x1B6 JUMPI JUMPDEST PUSH1 0x0 DUP1 REVERT JUMPDEST PUSH2 0x14B PUSH1 0x4 DUP1 CALLDATASIZE SUB DUP2 ADD SWAP1 PUSH2 0x146 SWAP2 SWAP1 PUSH2 0x14EC JUMP JUMPDEST PUSH2 0x37A JUMP JUMPDEST STOP JUMPDEST PUSH2 0x167 PUSH1 0x4 DUP1 CALLDATASIZE SUB DUP2 ADD SWAP1 PUSH2 0x162 SWAP2 SWAP1 PUSH2 0x1577 JUMP JUMPDEST PUSH2 0x407 JUMP JUMPDEST PUSH1 0x40 MLOAD PUSH2 0x175 SWAP3 SWAP2 SWAP1 PUSH2 0x15B3 JUMP JUMPDEST PUSH1 0x40 MLOAD DUP1 SWAP2 SUB SWAP1 RETURN JUMPDEST PUSH2 0x198 PUSH1 0x4 DUP1 CALLDATASIZE SUB DUP2 ADD SWAP1 PUSH2 0x193 SWAP2 SWAP1 PUSH2 0x14EC JUMP JUMPDEST PUSH2 0x42B JUMP JUMPDEST STOP JUMPDEST PUSH2 0x1B4 PUSH1 0x4 DUP1 CALLDATASIZE SUB DUP2 ADD SWAP1 PUSH2 0x1AF SWAP2 SWAP1 PUSH2 0x15DC JUMP JUMPDEST PUSH2 0x697 JUMP JUMPDEST STOP JUMPDEST PUSH2 0x1D0 PUSH1 0x4 DUP1 CALLDATASIZE SUB DUP2 ADD SWAP1 PUSH2 0x1CB SWAP2 SWAP1 PUSH2 0x1577 JUMP JUMPDEST PUSH2 0x827 JUMP JUMPDEST PUSH1 0x40 MLOAD PUSH2 0x1DD SWAP2 SWAP1 PUSH2 0x161C JUMP JUMPDEST PUSH1 0x40 MLOAD DUP1 SWAP2 SUB SWAP1 RETURN JUMPDEST PUSH2 0x1EE PUSH2 0x994 JUMP JUMPDEST PUSH1 0x40 MLOAD PUSH2 0x1FB SWAP2 SWAP1 PUSH2 0x161C JUMP JUMPDEST PUSH1 0x40 MLOAD DUP1 SWAP2 SUB SWAP1 RETURN JUMPDEST PUSH2 0x20C PUSH2 0x99A JUMP JUMPDEST STOP JUMPDEST PUSH2 0x216 PUSH2 0x9AE JUMP JUMPDEST STOP JUMPDEST PUSH2 0x220 PUSH2 0x9F8 JUMP JUMPDEST PUSH1 0x40 MLOAD PUSH2 0x22D SWAP2 SWAP1 PUSH2 0x161C JUMP JUMPDEST PUSH1 0x40 MLOAD DUP1 SWAP2 SUB SWAP1 RETURN JUMPDEST PUSH2 0x23E PUSH2 0x9FE JUMP JUMPDEST PUSH1 0x40 MLOAD PUSH2 0x24B SWAP2 SWAP1 PUSH2 0x1646 JUMP JUMPDEST PUSH1 0x40 MLOAD DUP1 SWAP2 SUB SWAP1 RETURN JUMPDEST PUSH2 0x25C PUSH2 0xA27 JUMP JUMPDEST PUSH1 0x40 MLOAD PUSH2 0x269 SWAP2 SWAP1 PUSH2 0x161C JUMP JUMPDEST PUSH1 0x40 MLOAD DUP1 SWAP2 SUB SWAP1 RETURN JUMPDEST PUSH2 0x27A PUSH2 0xA2D JUMP JUMPDEST PUSH1 0x40 MLOAD PUSH2 0x287 SWAP2 SWAP1 PUSH2 0x161C JUMP JUMPDEST PUSH1 0x40 MLOAD DUP1 SWAP2 SUB SWAP1 RETURN JUMPDEST PUSH2 0x2AA PUSH1 0x4 DUP1 CALLDATASIZE SUB DUP2 ADD SWAP1 PUSH2 0x2A5 SWAP2 SWAP1 PUSH2 0x1661 JUMP JUMPDEST PUSH2 0xA33 JUMP JUMPDEST STOP JUMPDEST PUSH2 0x2B4 PUSH2 0xB57 JUMP JUMPDEST PUSH1 0x40 MLOAD PUSH2 0x2C1 SWAP2 SWAP1 PUSH2 0x161C JUMP JUMPDEST PUSH1 0x40 MLOAD DUP1 SWAP2 SUB SWAP1 RETURN JUMPDEST PUSH2 0x2D2 PUSH2 0xB5D JUMP JUMPDEST PUSH1 0x40 MLOAD PUSH2 0x2DF SWAP2 SWAP1 PUSH2 0x161C JUMP JUMPDEST PUSH1 0x40 MLOAD DUP1 SWAP2 SUB SWAP1 RETURN JUMPDEST PUSH2 0x302 PUSH1 0x4 DUP1 CALLDATASIZE SUB DUP2 ADD SWAP1 PUSH2 0x2FD SWAP2 SWAP1 PUSH2 0x14EC JUMP JUMPDEST PUSH2 0xB63 JUMP JUMPDEST STOP JUMPDEST PUSH2 0x30C PUSH2 0xD98 JUMP JUMPDEST PUSH1 0x40 MLOAD PUSH2 0x319 SWAP2 SWAP1 PUSH2 0x1700 JUMP JUMPDEST PUSH1 0x40 MLOAD DUP1 SWAP2 SUB SWAP1 RETURN JUMPDEST PUSH2 0x32A PUSH2 0xDBE JUMP JUMPDEST PUSH1 0x40 MLOAD PUSH2 0x337 SWAP2 SWAP1 PUSH2 0x161C JUMP JUMPDEST PUSH1 0x40 MLOAD DUP1 SWAP2 SUB SWAP1 RETURN JUMPDEST PUSH2 0x35A PUSH1 0x4 DUP1 CALLDATASIZE SUB DUP2 ADD SWAP1 PUSH2 0x355 SWAP2 SWAP1 PUSH2 0x1577 JUMP JUMPDEST PUSH2 0xDE2 JUMP JUMPDEST STOP JUMPDEST PUSH2 0x364 PUSH2 0xE65 JUMP JUMPDEST PUSH1 0x40 MLOAD PUSH2 0x371 SWAP2 SWAP1 PUSH2 0x1700 JUMP JUMPDEST PUSH1 0x40 MLOAD DUP1 SWAP2 SUB SWAP1 RETURN JUMPDEST PUSH2 0x382 PUSH2 0xE8B JUMP JUMPDEST PUSH1 0x3 SLOAD NUMBER LT PUSH2 0x3C6 JUMPI PUSH1 0x40 MLOAD PUSH32 0x8C379A000000000000000000000000000000000000000000000000000000000 DUP2 MSTORE PUSH1 0x4 ADD PUSH2 0x3BD SWAP1 PUSH2 0x1778 JUMP JUMPDEST PUSH1 0x40 MLOAD DUP1 SWAP2 SUB SWAP1 REVERT JUMPDEST DUP1 PUSH1 0x6 DUP2 SWAP1 SSTORE POP PUSH32 0xC606F355EFEDDD89E42E997E575220501445590DEF6DD71BF081C2C51D6C0A4D DUP2 PUSH1 0x40 MLOAD PUSH2 0x3FC SWAP2 SWAP1 PUSH2 0x161C JUMP JUMPDEST PUSH1 0x40 MLOAD DUP1 SWAP2 SUB SWAP1 LOG1 POP JUMP JUMPDEST PUSH1 0xA PUSH1 0x20 MSTORE DUP1 PUSH1 0x0 MSTORE PUSH1 0x40 PUSH1 0x0 KECCAK256 PUSH1 0x0 SWAP2 POP SWAP1 POP DUP1 PUSH1 0x0 ADD SLOAD SWAP1 DUP1 PUSH1 0x1 ADD SLOAD SWAP1 POP DUP3 JUMP JUMPDEST PUSH2 0x433 PUSH2 0xF09 JUMP JUMPDEST PUSH1 0x0 PUSH1 0xA PUSH1 0x0 CALLER PUSH20 0xFFFFFFFFFFFFFFFFFFFFFFFFFFFFFFFFFFFFFFFF AND PUSH20 0xFFFFFFFFFFFFFFFFFFFFFFFFFFFFFFFFFFFFFFFF AND DUP2 MSTORE PUSH1 0x20 ADD SWAP1 DUP2 MSTORE PUSH1 0x20 ADD PUSH1 0x0 KECCAK256 SWAP1 POP DUP2 DUP2 PUSH1 0x0 ADD SLOAD LT ISZERO PUSH2 0x4BD JUMPI PUSH1 0x40 MLOAD PUSH32 0x8C379A000000000000000000000000000000000000000000000000000000000 DUP2 MSTORE PUSH1 0x4 ADD PUSH2 0x4B4 SWAP1 PUSH2 0x17E4 JUMP JUMPDEST PUSH1 0x40 MLOAD DUP1 SWAP2 SUB SWAP1 REVERT JUMPDEST PUSH2 0x4C5 PUSH2 0xF58 JUMP JUMPDEST PUSH1 0x0 DUP2 PUSH1 0x1 ADD SLOAD PUSH32 0x0 PUSH1 0x2 SLOAD DUP5 PUSH1 0x0 ADD SLOAD PUSH2 0x4FF SWAP2 SWAP1 PUSH2 0x1833 JUMP JUMPDEST PUSH2 0x509 SWAP2 SWAP1 PUSH2 0x18A4 JUMP JUMPDEST PUSH2 0x513 SWAP2 SWAP1 PUSH2 0x18D5 JUMP JUMPDEST SWAP1 POP PUSH1 0x0 DUP4 GT ISZERO PUSH2 0x5A0 JUMPI DUP3 DUP3 PUSH1 0x0 ADD PUSH1 0x0 DUP3 DUP3 SLOAD PUSH2 0x532 SWAP2 SWAP1 PUSH2 0x18D5 JUMP JUMPDEST SWAP3 POP POP DUP2 SWAP1 SSTORE POP DUP3 PUSH1 0x9 PUSH1 0x0 DUP3 DUP3 SLOAD PUSH2 0x54B SWAP2 SWAP1 PUSH2 0x18D5 JUMP JUMPDEST SWAP3 POP POP DUP2 SWAP1 SSTORE POP PUSH2 0x59F CALLER DUP5 PUSH1 0x8 PUSH1 0x0 SWAP1 SLOAD SWAP1 PUSH2 0x100 EXP SWAP1 DIV PUSH20 0xFFFFFFFFFFFFFFFFFFFFFFFFFFFFFFFFFFFFFFFF AND PUSH20 0xFFFFFFFFFFFFFFFFFFFFFFFFFFFFFFFFFFFFFFFF AND PUSH2 0xFF1 SWAP1 SWAP3 SWAP2 SWAP1 PUSH4 0xFFFFFFFF AND JUMP JUMPDEST JUMPDEST PUSH1 0x0 DUP2 GT ISZERO PUSH2 0x5F7 JUMPI PUSH2 0x5F6 CALLER DUP3 PUSH1 0x7 PUSH1 0x0 SWAP1 SLOAD SWAP1 PUSH2 0x100 EXP SWAP1 DIV PUSH20 0xFFFFFFFFFFFFFFFFFFFFFFFFFFFFFFFFFFFFFFFF AND PUSH20 0xFFFFFFFFFFFFFFFFFFFFFFFFFFFFFFFFFFFFFFFF AND PUSH2 0xFF1 SWAP1 SWAP3 SWAP2 SWAP1 PUSH4 0xFFFFFFFF AND JUMP JUMPDEST JUMPDEST PUSH32 0x0 PUSH1 0x2 SLOAD DUP4 PUSH1 0x0 ADD SLOAD PUSH2 0x62A SWAP2 SWAP1 PUSH2 0x1833 JUMP JUMPDEST PUSH2 0x634 SWAP2 SWAP1 PUSH2 0x18A4 JUMP JUMPDEST DUP3 PUSH1 0x1 ADD DUP2 SWAP1 SSTORE POP CALLER PUSH20 0xFFFFFFFFFFFFFFFFFFFFFFFFFFFFFFFFFFFFFFFF AND PUSH32 0x884EDAD9CE6FA2440D8A54CC123490EB96D2768479D49FF9C7366125A9424364 DUP5 PUSH1 0x40 MLOAD PUSH2 0x682 SWAP2 SWAP1 PUSH2 0x161C JUMP JUMPDEST PUSH1 0x40 MLOAD DUP1 SWAP2 SUB SWAP1 LOG2 POP POP PUSH2 0x694 PUSH2 0x1077 JUMP JUMPDEST POP JUMP JUMPDEST PUSH2 0x69F PUSH2 0xE8B JUMP JUMPDEST PUSH1 0x8 PUSH1 0x0 SWAP1 SLOAD SWAP1 PUSH2 0x100 EXP SWAP1 DIV PUSH20 0xFFFFFFFFFFFFFFFFFFFFFFFFFFFFFFFFFFFFFFFF AND PUSH20 0xFFFFFFFFFFFFFFFFFFFFFFFFFFFFFFFFFFFFFFFF AND DUP3 PUSH20 0xFFFFFFFFFFFFFFFFFFFFFFFFFFFFFFFFFFFFFFFF AND SUB PUSH2 0x72F JUMPI PUSH1 0x40 MLOAD PUSH32 0x8C379A000000000000000000000000000000000000000000000000000000000 DUP2 MSTORE PUSH1 0x4 ADD PUSH2 0x726 SWAP1 PUSH2 0x1955 JUMP JUMPDEST PUSH1 0x40 MLOAD DUP1 SWAP2 SUB SWAP1 REVERT JUMPDEST PUSH1 0x7 PUSH1 0x0 SWAP1 SLOAD SWAP1 PUSH2 0x100 EXP SWAP1 DIV PUSH20 0xFFFFFFFFFFFFFFFFFFFFFFFFFFFFFFFFFFFFFFFF AND PUSH20 0xFFFFFFFFFFFFFFFFFFFFFFFFFFFFFFFFFFFFFFFF AND DUP3 PUSH20 0xFFFFFFFFFFFFFFFFFFFFFFFFFFFFFFFFFFFFFFFF AND SUB PUSH2 0x7BF JUMPI PUSH1 0x40 MLOAD PUSH32 0x8C379A000000000000000000000000000000000000000000000000000000000 DUP2 MSTORE PUSH1 0x4 ADD PUSH2 0x7B6 SWAP1 PUSH2 0x19C1 JUMP JUMPDEST PUSH1 0x40 MLOAD DUP1 SWAP2 SUB SWAP1 REVERT JUMPDEST PUSH2 0x7EA CALLER DUP3 DUP5 PUSH20 0xFFFFFFFFFFFFFFFFFFFFFFFFFFFFFFFFFFFFFFFF AND PUSH2 0xFF1 SWAP1 SWAP3 SWAP2 SWAP1 PUSH4 0xFFFFFFFF AND JUMP JUMPDEST PUSH32 0xFBA2D3BDFB2D601EB66A89783A2C614856101CADCE71556753C2EDADD60C831C DUP3 DUP3 PUSH1 0x40 MLOAD PUSH2 0x81B SWAP3 SWAP2 SWAP1 PUSH2 0x19E1 JUMP JUMPDEST PUSH1 0x40 MLOAD DUP1 SWAP2 SUB SWAP1 LOG1 POP POP JUMP JUMPDEST PUSH1 0x0 DUP1 PUSH1 0xA PUSH1 0x0 DUP5 PUSH20 0xFFFFFFFFFFFFFFFFFFFFFFFFFFFFFFFFFFFFFFFF AND PUSH20 0xFFFFFFFFFFFFFFFFFFFFFFFFFFFFFFFFFFFFFFFF AND DUP2 MSTORE PUSH1 0x20 ADD SWAP1 DUP2 MSTORE PUSH1 0x20 ADD PUSH1 0x0 KECCAK256 SWAP1 POP PUSH1 0x5 SLOAD NUMBER GT DUP1 ISZERO PUSH2 0x87F JUMPI POP PUSH1 0x0 PUSH1 0x9 SLOAD EQ ISZERO JUMPDEST ISZERO PUSH2 0x93F JUMPI PUSH1 0x0 PUSH2 0x892 PUSH1 0x5 SLOAD NUMBER PUSH2 0x1080 JUMP JUMPDEST PUSH1 0x6 SLOAD PUSH2 0x89F SWAP2 SWAP1 PUSH2 0x1833 JUMP JUMPDEST SWAP1 POP PUSH1 0x0 PUSH1 0x9 SLOAD PUSH32 0x0 DUP4 PUSH2 0x8D2 SWAP2 SWAP1 PUSH2 0x1833 JUMP JUMPDEST PUSH2 0x8DC SWAP2 SWAP1 PUSH2 0x18A4 JUMP JUMPDEST PUSH1 0x2 SLOAD PUSH2 0x8E9 SWAP2 SWAP1 PUSH2 0x1A0A JUMP JUMPDEST SWAP1 POP DUP3 PUSH1 0x1 ADD SLOAD PUSH32 0x0 DUP3 DUP6 PUSH1 0x0 ADD SLOAD PUSH2 0x921 SWAP2 SWAP1 PUSH2 0x1833 JUMP JUMPDEST PUSH2 0x92B SWAP2 SWAP1 PUSH2 0x18A4 JUMP JUMPDEST PUSH2 0x935 SWAP2 SWAP1 PUSH2 0x18D5 JUMP JUMPDEST SWAP4 POP POP POP POP PUSH2 0x98F JUMP JUMPDEST DUP1 PUSH1 0x1 ADD SLOAD PUSH32 0x0 PUSH1 0x2 SLOAD DUP4 PUSH1 0x0 ADD SLOAD PUSH2 0x977 SWAP2 SWAP1 PUSH2 0x1833 JUMP JUMPDEST PUSH2 0x981 SWAP2 SWAP1 PUSH2 0x18A4 JUMP JUMPDEST PUSH2 0x98B SWAP2 SWAP1 PUSH2 0x18D5 JUMP JUMPDEST SWAP2 POP POP JUMPDEST SWAP2 SWAP1 POP JUMP JUMPDEST PUSH1 0x4 SLOAD DUP2 JUMP JUMPDEST PUSH2 0x9A2 PUSH2 0xE8B JUMP JUMPDEST PUSH2 0x9AC PUSH1 0x0 PUSH2 0x10C7 JUMP JUMPDEST JUMP JUMPDEST PUSH2 0x9B6 PUSH2 0xE8B JUMP JUMPDEST NUMBER PUSH1 0x4 DUP2 SWAP1 SSTORE POP PUSH32 0xAFB6C2F001C26FD9B9B6BFC8FA9DD1A41E3B501527A831CECE8570604DA4EEF3 PUSH1 0x4 SLOAD PUSH1 0x40 MLOAD PUSH2 0x9EE SWAP2 SWAP1 PUSH2 0x161C JUMP JUMPDEST PUSH1 0x40 MLOAD DUP1 SWAP2 SUB SWAP1 LOG1 JUMP JUMPDEST PUSH1 0x6 SLOAD DUP2 JUMP JUMPDEST PUSH1 0x0 DUP1 PUSH1 0x0 SWAP1 SLOAD SWAP1 PUSH2 0x100 EXP SWAP1 DIV PUSH20 0xFFFFFFFFFFFFFFFFFFFFFFFFFFFFFFFFFFFFFFFF AND SWAP1 POP SWAP1 JUMP JUMPDEST PUSH1 0x2 SLOAD DUP2 JUMP JUMPDEST PUSH1 0x9 SLOAD DUP2 JUMP JUMPDEST PUSH2 0xA3B PUSH2 0xE8B JUMP JUMPDEST PUSH1 0x3 SLOAD NUMBER LT PUSH2 0xA7F JUMPI PUSH1 0x40 MLOAD PUSH32 0x8C379A000000000000000000000000000000000000000000000000000000000 DUP2 MSTORE PUSH1 0x4 ADD PUSH2 0xA76 SWAP1 PUSH2 0x1778 JUMP JUMPDEST PUSH1 0x40 MLOAD DUP1 SWAP2 SUB SWAP1 REVERT JUMPDEST DUP1 DUP3 LT PUSH2 0xAC1 JUMPI PUSH1 0x40 MLOAD PUSH32 0x8C379A000000000000000000000000000000000000000000000000000000000 DUP2 MSTORE PUSH1 0x4 ADD PUSH2 0xAB8 SWAP1 PUSH2 0x1AB0 JUMP JUMPDEST PUSH1 0x40 MLOAD DUP1 SWAP2 SUB SWAP1 REVERT JUMPDEST DUP2 NUMBER LT PUSH2 0xB03 JUMPI PUSH1 0x40 MLOAD PUSH32 0x8C379A000000000000000000000000000000000000000000000000000000000 DUP2 MSTORE PUSH1 0x4 ADD PUSH2 0xAFA SWAP1 PUSH2 0x1B42 JUMP JUMPDEST PUSH1 0x40 MLOAD DUP1 SWAP2 SUB SWAP1 REVERT JUMPDEST DUP2 PUSH1 0x3 DUP2 SWAP1 SSTORE POP DUP1 PUSH1 0x4 DUP2 SWAP1 SSTORE POP PUSH1 0x3 SLOAD PUSH1 0x5 DUP2 SWAP1 SSTORE POP PUSH32 0x53462FEC8F17A9D662E3778A6027B6C0C1AC0DA2390A991AA33CB3AA60CAE4E DUP3 DUP3 PUSH1 0x40 MLOAD PUSH2 0xB4B SWAP3 SWAP2 SWAP1 PUSH2 0x15B3 JUMP JUMPDEST PUSH1 0x40 MLOAD DUP1 SWAP2 SUB SWAP1 LOG1 POP POP JUMP JUMPDEST PUSH1 0x5 SLOAD DUP2 JUMP JUMPDEST PUSH1 0x3 SLOAD DUP2 JUMP JUMPDEST PUSH2 0xB6B PUSH2 0xF09 JUMP JUMPDEST PUSH1 0x0 PUSH1 0xA PUSH1 0x0 CALLER PUSH20 0xFFFFFFFFFFFFFFFFFFFFFFFFFFFFFFFFFFFFFFFF AND PUSH20 0xFFFFFFFFFFFFFFFFFFFFFFFFFFFFFFFFFFFFFFFF AND DUP2 MSTORE PUSH1 0x20 ADD SWAP1 DUP2 MSTORE PUSH1 0x20 ADD PUSH1 0x0 KECCAK256 SWAP1 POP PUSH2 0xBB6 PUSH2 0xF58 JUMP JUMPDEST PUSH1 0x0 DUP2 PUSH1 0x0 ADD SLOAD GT ISZERO PUSH2 0xC6C JUMPI PUSH1 0x0 DUP2 PUSH1 0x1 ADD SLOAD PUSH32 0x0 PUSH1 0x2 SLOAD DUP5 PUSH1 0x0 ADD SLOAD PUSH2 0xBFD SWAP2 SWAP1 PUSH2 0x1833 JUMP JUMPDEST PUSH2 0xC07 SWAP2 SWAP1 PUSH2 0x18A4 JUMP JUMPDEST PUSH2 0xC11 SWAP2 SWAP1 PUSH2 0x18D5 JUMP JUMPDEST SWAP1 POP PUSH1 0x0 DUP2 GT ISZERO PUSH2 0xC6A JUMPI PUSH2 0xC69 CALLER DUP3 PUSH1 0x7 PUSH1 0x0 SWAP1 SLOAD SWAP1 PUSH2 0x100 EXP SWAP1 DIV PUSH20 0xFFFFFFFFFFFFFFFFFFFFFFFFFFFFFFFFFFFFFFFF AND PUSH20 0xFFFFFFFFFFFFFFFFFFFFFFFFFFFFFFFFFFFFFFFF AND PUSH2 0xFF1 SWAP1 SWAP3 SWAP2 SWAP1 PUSH4 0xFFFFFFFF AND JUMP JUMPDEST JUMPDEST POP JUMPDEST PUSH1 0x0 DUP3 GT ISZERO PUSH2 0xCF9 JUMPI DUP2 DUP2 PUSH1 0x0 ADD PUSH1 0x0 DUP3 DUP3 SLOAD PUSH2 0xC89 SWAP2 SWAP1 PUSH2 0x1A0A JUMP JUMPDEST SWAP3 POP POP DUP2 SWAP1 SSTORE POP DUP2 PUSH1 0x9 PUSH1 0x0 DUP3 DUP3 SLOAD PUSH2 0xCA2 SWAP2 SWAP1 PUSH2 0x1A0A JUMP JUMPDEST SWAP3 POP POP DUP2 SWAP1 SSTORE POP PUSH2 0xCF8 CALLER ADDRESS DUP5 PUSH1 0x8 PUSH1 0x0 SWAP1 SLOAD SWAP1 PUSH2 0x100 EXP SWAP1 DIV PUSH20 0xFFFFFFFFFFFFFFFFFFFFFFFFFFFFFFFFFFFFFFFF AND PUSH20 0xFFFFFFFFFFFFFFFFFFFFFFFFFFFFFFFFFFFFFFFF AND PUSH2 0x118B SWAP1 SWAP4 SWAP3 SWAP2 SWAP1 PUSH4 0xFFFFFFFF AND JUMP JUMPDEST JUMPDEST PUSH32 0x0 PUSH1 0x2 SLOAD DUP3 PUSH1 0x0 ADD SLOAD PUSH2 0xD2C SWAP2 SWAP1 PUSH2 0x1833 JUMP JUMPDEST PUSH2 0xD36 SWAP2 SWAP1 PUSH2 0x18A4 JUMP JUMPDEST DUP2 PUSH1 0x1 ADD DUP2 SWAP1 SSTORE POP CALLER PUSH20 0xFFFFFFFFFFFFFFFFFFFFFFFFFFFFFFFFFFFFFFFF AND PUSH32 0xE1FFFCC4923D04B559F4D29A8BFC6CDA04EB5B0D3C460751C2402C5C5CC9109C DUP4 PUSH1 0x40 MLOAD PUSH2 0xD84 SWAP2 SWAP1 PUSH2 0x161C JUMP JUMPDEST PUSH1 0x40 MLOAD DUP1 SWAP2 SUB SWAP1 LOG2 POP PUSH2 0xD95 PUSH2 0x1077 JUMP JUMPDEST POP JUMP JUMPDEST PUSH1 0x8 PUSH1 0x0 SWAP1 SLOAD SWAP1 PUSH2 0x100 EXP SWAP1 DIV PUSH20 0xFFFFFFFFFFFFFFFFFFFFFFFFFFFFFFFFFFFFFFFF AND DUP2 JUMP JUMPDEST PUSH32 0x0 DUP2 JUMP JUMPDEST PUSH2 0xDEA PUSH2 0xE8B JUMP JUMPDEST PUSH1 0x0 PUSH20 0xFFFFFFFFFFFFFFFFFFFFFFFFFFFFFFFFFFFFFFFF AND DUP2 PUSH20 0xFFFFFFFFFFFFFFFFFFFFFFFFFFFFFFFFFFFFFFFF AND SUB PUSH2 0xE59 JUMPI PUSH1 0x40 MLOAD PUSH32 0x8C379A000000000000000000000000000000000000000000000000000000000 DUP2 MSTORE PUSH1 0x4 ADD PUSH2 0xE50 SWAP1 PUSH2 0x1BD4 JUMP JUMPDEST PUSH1 0x40 MLOAD DUP1 SWAP2 SUB SWAP1 REVERT JUMPDEST PUSH2 0xE62 DUP2 PUSH2 0x10C7 JUMP JUMPDEST POP JUMP JUMPDEST PUSH1 0x7 PUSH1 0x0 SWAP1 SLOAD SWAP1 PUSH2 0x100 EXP SWAP1 DIV PUSH20 0xFFFFFFFFFFFFFFFFFFFFFFFFFFFFFFFFFFFFFFFF AND DUP2 JUMP JUMPDEST PUSH2 0xE93 PUSH2 0x1214 JUMP JUMPDEST PUSH20 0xFFFFFFFFFFFFFFFFFFFFFFFFFFFFFFFFFFFFFFFF AND PUSH2 0xEB1 PUSH2 0x9FE JUMP JUMPDEST PUSH20 0xFFFFFFFFFFFFFFFFFFFFFFFFFFFFFFFFFFFFFFFF AND EQ PUSH2 0xF07 JUMPI PUSH1 0x40 MLOAD PUSH32 0x8C379A000000000000000000000000000000000000000000000000000000000 DUP2 MSTORE PUSH1 0x4 ADD PUSH2 0xEFE SWAP1 PUSH2 0x1C40 JUMP JUMPDEST PUSH1 0x40 MLOAD DUP1 SWAP2 SUB SWAP1 REVERT JUMPDEST JUMP JUMPDEST PUSH1 0x2 PUSH1 0x1 SLOAD SUB PUSH2 0xF4E JUMPI PUSH1 0x40 MLOAD PUSH32 0x8C379A000000000000000000000000000000000000000000000000000000000 DUP2 MSTORE PUSH1 0x4 ADD PUSH2 0xF45 SWAP1 PUSH2 0x1CAC JUMP JUMPDEST PUSH1 0x40 MLOAD DUP1 SWAP2 SUB SWAP1 REVERT JUMPDEST PUSH1 0x2 PUSH1 0x1 DUP2 SWAP1 SSTORE POP JUMP JUMPDEST PUSH1 0x5 SLOAD NUMBER GT ISZERO PUSH2 0xFEF JUMPI PUSH1 0x0 PUSH1 0x9 SLOAD SUB PUSH2 0xF78 JUMPI NUMBER PUSH1 0x5 DUP2 SWAP1 SSTORE POP PUSH2 0xFEF JUMP JUMPDEST PUSH1 0x0 PUSH2 0xF86 PUSH1 0x5 SLOAD NUMBER PUSH2 0x1080 JUMP JUMPDEST PUSH1 0x6 SLOAD PUSH2 0xF93 SWAP2 SWAP1 PUSH2 0x1833 JUMP JUMPDEST SWAP1 POP PUSH1 0x9 SLOAD PUSH32 0x0 DUP3 PUSH2 0xFC4 SWAP2 SWAP1 PUSH2 0x1833 JUMP JUMPDEST PUSH2 0xFCE SWAP2 SWAP1 PUSH2 0x18A4 JUMP JUMPDEST PUSH1 0x2 PUSH1 0x0 DUP3 DUP3 SLOAD PUSH2 0xFDF SWAP2 SWAP1 PUSH2 0x1A0A JUMP JUMPDEST SWAP3 POP POP DUP2 SWAP1 SSTORE POP NUMBER PUSH1 0x5 DUP2 SWAP1 SSTORE POP POP JUMPDEST JUMP JUMPDEST PUSH2 0x1072 DUP4 PUSH4 0xA9059CBB PUSH1 0xE0 SHL DUP5 DUP5 PUSH1 0x40 MLOAD PUSH1 0x24 ADD PUSH2 0x1010 SWAP3 SWAP2 SWAP1 PUSH2 0x19E1 JUMP JUMPDEST PUSH1 0x40 MLOAD PUSH1 0x20 DUP2 DUP4 SUB SUB DUP2 MSTORE SWAP1 PUSH1 0x40 MSTORE SWAP1 PUSH28 0xFFFFFFFFFFFFFFFFFFFFFFFFFFFFFFFFFFFFFFFFFFFFFFFFFFFFFFFF NOT AND PUSH1 0x20 DUP3 ADD DUP1 MLOAD PUSH28 0xFFFFFFFFFFFFFFFFFFFFFFFFFFFFFFFFFFFFFFFFFFFFFFFFFFFFFFFF DUP4 DUP2 DUP4 AND OR DUP4 MSTORE POP POP POP POP PUSH2 0x121C JUMP JUMPDEST POP POP POP JUMP JUMPDEST PUSH1 0x1 DUP1 DUP2 SWAP1 SSTORE POP JUMP JUMPDEST PUSH1 0x0 PUSH1 0x4 SLOAD DUP3 GT PUSH2 0x109E JUMPI DUP3 DUP3 PUSH2 0x1097 SWAP2 SWAP1 PUSH2 0x18D5 JUMP JUMPDEST SWAP1 POP PUSH2 0x10C1 JUMP JUMPDEST PUSH1 0x4 SLOAD DUP4 LT PUSH2 0x10B0 JUMPI PUSH1 0x0 SWAP1 POP PUSH2 0x10C1 JUMP JUMPDEST DUP3 PUSH1 0x4 SLOAD PUSH2 0x10BE SWAP2 SWAP1 PUSH2 0x18D5 JUMP JUMPDEST SWAP1 POP JUMPDEST SWAP3 SWAP2 POP POP JUMP JUMPDEST PUSH1 0x0 DUP1 PUSH1 0x0 SWAP1 SLOAD SWAP1 PUSH2 0x100 EXP SWAP1 DIV PUSH20 0xFFFFFFFFFFFFFFFFFFFFFFFFFFFFFFFFFFFFFFFF AND SWAP1 POP DUP2 PUSH1 0x0 DUP1 PUSH2 0x100 EXP DUP2 SLOAD DUP2 PUSH20 0xFFFFFFFFFFFFFFFFFFFFFFFFFFFFFFFFFFFFFFFF MUL NOT AND SWAP1 DUP4 PUSH20 0xFFFFFFFFFFFFFFFFFFFFFFFFFFFFFFFFFFFFFFFF AND MUL OR SWAP1 SSTORE POP DUP2 PUSH20 0xFFFFFFFFFFFFFFFFFFFFFFFFFFFFFFFFFFFFFFFF AND DUP2 PUSH20 0xFFFFFFFFFFFFFFFFFFFFFFFFFFFFFFFFFFFFFFFF AND PUSH32 0x8BE0079C531659141344CD1FD0A4F28419497F9722A3DAAFE3B4186F6B6457E0 PUSH1 0x40 MLOAD PUSH1 0x40 MLOAD DUP1 SWAP2 SUB SWAP1 LOG3 POP POP JUMP JUMPDEST PUSH2 0x120E DUP5 PUSH4 0x23B872DD PUSH1 0xE0 SHL DUP6 DUP6 DUP6 PUSH1 0x40 MLOAD PUSH1 0x24 ADD PUSH2 0x11AC SWAP4 SWAP3 SWAP2 SWAP1 PUSH2 0x1CCC JUMP JUMPDEST PUSH1 0x40 MLOAD PUSH1 0x20 DUP2 DUP4 SUB SUB DUP2 MSTORE SWAP1 PUSH1 0x40 MSTORE SWAP1 PUSH28 0xFFFFFFFFFFFFFFFFFFFFFFFFFFFFFFFFFFFFFFFFFFFFFFFFFFFFFFFF NOT AND PUSH1 0x20 DUP3 ADD DUP1 MLOAD PUSH28 0xFFFFFFFFFFFFFFFFFFFFFFFFFFFFFFFFFFFFFFFFFFFFFFFFFFFFFFFF DUP4 DUP2 DUP4 AND OR DUP4 MSTORE POP POP POP POP PUSH2 0x121C JUMP JUMPDEST POP POP POP POP JUMP JUMPDEST PUSH1 0x0 CALLER SWAP1 POP SWAP1 JUMP JUMPDEST PUSH1 0x0 PUSH2 0x127E DUP3 PUSH1 0x40 MLOAD DUP1 PUSH1 0x40 ADD PUSH1 0x40 MSTORE DUP1 PUSH1 0x20 DUP2 MSTORE PUSH1 0x20 ADD PUSH32 0x5361666545524332303A206C6F772D6C6576656C2063616C6C206661696C6564 DUP2 MSTORE POP DUP6 PUSH20 0xFFFFFFFFFFFFFFFFFFFFFFFFFFFFFFFFFFFFFFFF AND PUSH2 0x12E4 SWAP1 SWAP3 SWAP2 SWAP1 PUSH4 0xFFFFFFFF AND JUMP JUMPDEST SWAP1 POP PUSH1 0x0 DUP2 MLOAD EQ DUP1 PUSH2 0x12A0 JUMPI POP DUP1 DUP1 PUSH1 0x20 ADD SWAP1 MLOAD DUP2 ADD SWAP1 PUSH2 0x129F SWAP2 SWAP1 PUSH2 0x1D3B JUMP JUMPDEST JUMPDEST PUSH2 0x12DF JUMPI PUSH1 0x40 MLOAD PUSH32 0x8C379A000000000000000000000000000000000000000000000000000000000 DUP2 MSTORE PUSH1 0x4 ADD PUSH2 0x12D6 SWAP1 PUSH2 0x1DDA JUMP JUMPDEST PUSH1 0x40 MLOAD DUP1 SWAP2 SUB SWAP1 REVERT JUMPDEST POP POP POP JUMP JUMPDEST PUSH1 0x60 PUSH2 0x12F3 DUP5 DUP5 PUSH1 0x0 DUP6 PUSH2 0x12FC JUMP JUMPDEST SWAP1 POP SWAP4 SWAP3 POP POP POP JUMP JUMPDEST PUSH1 0x60 DUP3 SELFBALANCE LT ISZERO PUSH2 0x1341 JUMPI PUSH1 0x40 MLOAD PUSH32 0x8C379A000000000000000000000000000000000000000000000000000000000 DUP2 MSTORE PUSH1 0x4 ADD PUSH2 0x1338 SWAP1 PUSH2 0x1E6C JUMP JUMPDEST PUSH1 0x40 MLOAD DUP1 SWAP2 SUB SWAP1 REVERT JUMPDEST PUSH1 0x0 DUP1 DUP7 PUSH20 0xFFFFFFFFFFFFFFFFFFFFFFFFFFFFFFFFFFFFFFFF AND DUP6 DUP8 PUSH1 0x40 MLOAD PUSH2 0x136A SWAP2 SWAP1 PUSH2 0x1EFD JUMP JUMPDEST PUSH1 0x0 PUSH1 0x40 MLOAD DUP1 DUP4 SUB DUP2 DUP6 DUP8 GAS CALL SWAP3 POP POP POP RETURNDATASIZE DUP1 PUSH1 0x0 DUP2 EQ PUSH2 0x13A7 JUMPI PUSH1 0x40 MLOAD SWAP2 POP PUSH1 0x1F NOT PUSH1 0x3F RETURNDATASIZE ADD AND DUP3 ADD PUSH1 0x40 MSTORE RETURNDATASIZE DUP3 MSTORE RETURNDATASIZE PUSH1 0x0 PUSH1 0x20 DUP5 ADD RETURNDATACOPY PUSH2 0x13AC JUMP JUMPDEST PUSH1 0x60 SWAP2 POP JUMPDEST POP SWAP2 POP SWAP2 POP PUSH2 0x13BD DUP8 DUP4 DUP4 DUP8 PUSH2 0x13C9 JUMP JUMPDEST SWAP3 POP POP POP SWAP5 SWAP4 POP POP POP POP JUMP JUMPDEST PUSH1 0x60 DUP4 ISZERO PUSH2 0x142B JUMPI PUSH1 0x0 DUP4 MLOAD SUB PUSH2 0x1423 JUMPI PUSH2 0x13E3 DUP6 PUSH2 0x143E JUMP JUMPDEST PUSH2 0x1422 JUMPI PUSH1 0x40 MLOAD PUSH32 0x8C379A000000000000000000000000000000000000000000000000000000000 DUP2 MSTORE PUSH1 0x4 ADD PUSH2 0x1419 SWAP1 PUSH2 0x1F60 JUMP JUMPDEST PUSH1 0x40 MLOAD DUP1 SWAP2 SUB SWAP1 REVERT JUMPDEST JUMPDEST DUP3 SWAP1 POP PUSH2 0x1436 JUMP JUMPDEST PUSH2 0x1435 DUP4 DUP4 PUSH2 0x1461 JUMP JUMPDEST JUMPDEST SWAP5 SWAP4 POP POP POP POP JUMP JUMPDEST PUSH1 0x0 DUP1 DUP3 PUSH20 0xFFFFFFFFFFFFFFFFFFFFFFFFFFFFFFFFFFFFFFFF AND EXTCODESIZE GT SWAP1 POP SWAP2 SWAP1 POP JUMP JUMPDEST PUSH1 0x0 DUP3 MLOAD GT ISZERO PUSH2 0x1474 JUMPI DUP2 MLOAD DUP1 DUP4 PUSH1 0x20 ADD REVERT JUMPDEST DUP1 PUSH1 0x40 MLOAD PUSH32 0x8C379A000000000000000000000000000000000000000000000000000000000 DUP2 MSTORE PUSH1 0x4 ADD PUSH2 0x14A8 SWAP2 SWAP1 PUSH2 0x1FD5 JUMP JUMPDEST PUSH1 0x40 MLOAD DUP1 SWAP2 SUB SWAP1 REVERT JUMPDEST PUSH1 0x0 DUP1 REVERT JUMPDEST PUSH1 0x0 DUP2 SWAP1 POP SWAP2 SWAP1 POP JUMP JUMPDEST PUSH2 0x14C9 DUP2 PUSH2 0x14B6 JUMP JUMPDEST DUP2 EQ PUSH2 0x14D4 JUMPI PUSH1 0x0 DUP1 REVERT JUMPDEST POP JUMP JUMPDEST PUSH1 0x0 DUP2 CALLDATALOAD SWAP1 POP PUSH2 0x14E6 DUP2 PUSH2 0x14C0 JUMP JUMPDEST SWAP3 SWAP2 POP POP JUMP JUMPDEST PUSH1 0x0 PUSH1 0x20 DUP3 DUP5 SUB SLT ISZERO PUSH2 0x1502 JUMPI PUSH2 0x1501 PUSH2 0x14B1 JUMP JUMPDEST JUMPDEST PUSH1 0x0 PUSH2 0x1510 DUP5 DUP3 DUP6 ADD PUSH2 0x14D7 JUMP JUMPDEST SWAP2 POP POP SWAP3 SWAP2 POP POP JUMP JUMPDEST PUSH1 0x0 PUSH20 0xFFFFFFFFFFFFFFFFFFFFFFFFFFFFFFFFFFFFFFFF DUP3 AND SWAP1 POP SWAP2 SWAP1 POP JUMP JUMPDEST PUSH1 0x0 PUSH2 0x1544 DUP3 PUSH2 0x1519 JUMP JUMPDEST SWAP1 POP SWAP2 SWAP1 POP JUMP JUMPDEST PUSH2 0x1554 DUP2 PUSH2 0x1539 JUMP JUMPDEST DUP2 EQ PUSH2 0x155F JUMPI PUSH1 0x0 DUP1 REVERT JUMPDEST POP JUMP JUMPDEST PUSH1 0x0 DUP2 CALLDATALOAD SWAP1 POP PUSH2 0x1571 DUP2 PUSH2 0x154B JUMP JUMPDEST SWAP3 SWAP2 POP POP JUMP JUMPDEST PUSH1 0x0 PUSH1 0x20 DUP3 DUP5 SUB SLT ISZERO PUSH2 0x158D JUMPI PUSH2 0x158C PUSH2 0x14B1 JUMP JUMPDEST JUMPDEST PUSH1 0x0 PUSH2 0x159B DUP5 DUP3 DUP6 ADD PUSH2 0x1562 JUMP JUMPDEST SWAP2 POP POP SWAP3 SWAP2 POP POP JUMP JUMPDEST PUSH2 0x15AD DUP2 PUSH2 0x14B6 JUMP JUMPDEST DUP3 MSTORE POP POP JUMP JUMPDEST PUSH1 0x0 PUSH1 0x40 DUP3 ADD SWAP1 POP PUSH2 0x15C8 PUSH1 0x0 DUP4 ADD DUP6 PUSH2 0x15A4 JUMP JUMPDEST PUSH2 0x15D5 PUSH1 0x20 DUP4 ADD DUP5 PUSH2 0x15A4 JUMP JUMPDEST SWAP4 SWAP3 POP POP POP JUMP JUMPDEST PUSH1 0x0 DUP1 PUSH1 0x40 DUP4 DUP6 SUB SLT ISZERO PUSH2 0x15F3 JUMPI PUSH2 0x15F2 PUSH2 0x14B1 JUMP JUMPDEST JUMPDEST PUSH1 0x0 PUSH2 0x1601 DUP6 DUP3 DUP7 ADD PUSH2 0x1562 JUMP JUMPDEST SWAP3 POP POP PUSH1 0x20 PUSH2 0x1612 DUP6 DUP3 DUP7 ADD PUSH2 0x14D7 JUMP JUMPDEST SWAP2 POP POP SWAP3 POP SWAP3 SWAP1 POP JUMP JUMPDEST PUSH1 0x0 PUSH1 0x20 DUP3 ADD SWAP1 POP PUSH2 0x1631 PUSH1 0x0 DUP4 ADD DUP5 PUSH2 0x15A4 JUMP JUMPDEST SWAP3 SWAP2 POP POP JUMP JUMPDEST PUSH2 0x1640 DUP2 PUSH2 0x1539 JUMP JUMPDEST DUP3 MSTORE POP POP JUMP JUMPDEST PUSH1 0x0 PUSH1 0x20 DUP3 ADD SWAP1 POP PUSH2 0x165B PUSH1 0x0 DUP4 ADD DUP5 PUSH2 0x1637 JUMP JUMPDEST SWAP3 SWAP2 POP POP JUMP JUMPDEST PUSH1 0x0 DUP1 PUSH1 0x40 DUP4 DUP6 SUB SLT ISZERO PUSH2 0x1678 JUMPI PUSH2 0x1677 PUSH2 0x14B1 JUMP JUMPDEST JUMPDEST PUSH1 0x0 PUSH2 0x1686 DUP6 DUP3 DUP7 ADD PUSH2 0x14D7 JUMP JUMPDEST SWAP3 POP POP PUSH1 0x20 PUSH2 0x1697 DUP6 DUP3 DUP7 ADD PUSH2 0x14D7 JUMP JUMPDEST SWAP2 POP POP SWAP3 POP SWAP3 SWAP1 POP JUMP JUMPDEST PUSH1 0x0 DUP2 SWAP1 POP SWAP2 SWAP1 POP JUMP JUMPDEST PUSH1 0x0 PUSH2 0x16C6 PUSH2 0x16C1 PUSH2 0x16BC DUP5 PUSH2 0x1519 JUMP JUMPDEST PUSH2 0x16A1 JUMP JUMPDEST PUSH2 0x1519 JUMP JUMPDEST SWAP1 POP SWAP2 SWAP1 POP JUMP JUMPDEST PUSH1 0x0 PUSH2 0x16D8 DUP3 PUSH2 0x16AB JUMP JUMPDEST SWAP1 POP SWAP2 SWAP1 POP JUMP JUMPDEST PUSH1 0x0 PUSH2 0x16EA DUP3 PUSH2 0x16CD JUMP JUMPDEST SWAP1 POP SWAP2 SWAP1 POP JUMP JUMPDEST PUSH2 0x16FA DUP2 PUSH2 0x16DF JUMP JUMPDEST DUP3 MSTORE POP POP JUMP JUMPDEST PUSH1 0x0 PUSH1 0x20 DUP3 ADD SWAP1 POP PUSH2 0x1715 PUSH1 0x0 DUP4 ADD DUP5 PUSH2 0x16F1 JUMP JUMPDEST SWAP3 SWAP2 POP POP JUMP JUMPDEST PUSH1 0x0 DUP3 DUP3 MSTORE PUSH1 0x20 DUP3 ADD SWAP1 POP SWAP3 SWAP2 POP POP JUMP JUMPDEST PUSH32 0x506F6F6C20686173207374617274656400000000000000000000000000000000 PUSH1 0x0 DUP3 ADD MSTORE POP JUMP JUMPDEST PUSH1 0x0 PUSH2 0x1762 PUSH1 0x10 DUP4 PUSH2 0x171B JUMP JUMPDEST SWAP2 POP PUSH2 0x176D DUP3 PUSH2 0x172C JUMP JUMPDEST PUSH1 0x20 DUP3 ADD SWAP1 POP SWAP2 SWAP1 POP JUMP JUMPDEST PUSH1 0x0 PUSH1 0x20 DUP3 ADD SWAP1 POP DUP2 DUP2 SUB PUSH1 0x0 DUP4 ADD MSTORE PUSH2 0x1791 DUP2 PUSH2 0x1755 JUMP JUMPDEST SWAP1 POP SWAP2 SWAP1 POP JUMP JUMPDEST PUSH32 0x496E73756666696369656E7420616D6F756E7420746F20776974686472617700 PUSH1 0x0 DUP3 ADD MSTORE POP JUMP JUMPDEST PUSH1 0x0 PUSH2 0x17CE PUSH1 0x1F DUP4 PUSH2 0x171B JUMP JUMPDEST SWAP2 POP PUSH2 0x17D9 DUP3 PUSH2 0x1798 JUMP JUMPDEST PUSH1 0x20 DUP3 ADD SWAP1 POP SWAP2 SWAP1 POP JUMP JUMPDEST PUSH1 0x0 PUSH1 0x20 DUP3 ADD SWAP1 POP DUP2 DUP2 SUB PUSH1 0x0 DUP4 ADD MSTORE PUSH2 0x17FD DUP2 PUSH2 0x17C1 JUMP JUMPDEST SWAP1 POP SWAP2 SWAP1 POP JUMP JUMPDEST PUSH32 0x4E487B7100000000000000000000000000000000000000000000000000000000 PUSH1 0x0 MSTORE PUSH1 0x11 PUSH1 0x4 MSTORE PUSH1 0x24 PUSH1 0x0 REVERT JUMPDEST PUSH1 0x0 PUSH2 0x183E DUP3 PUSH2 0x14B6 JUMP JUMPDEST SWAP2 POP PUSH2 0x1849 DUP4 PUSH2 0x14B6 JUMP JUMPDEST SWAP3 POP DUP3 DUP3 MUL PUSH2 0x1857 DUP2 PUSH2 0x14B6 JUMP JUMPDEST SWAP2 POP DUP3 DUP3 DIV DUP5 EQ DUP4 ISZERO OR PUSH2 0x186E JUMPI PUSH2 0x186D PUSH2 0x1804 JUMP JUMPDEST JUMPDEST POP SWAP3 SWAP2 POP POP JUMP JUMPDEST PUSH32 0x4E487B7100000000000000000000000000000000000000000000000000000000 PUSH1 0x0 MSTORE PUSH1 0x12 PUSH1 0x4 MSTORE PUSH1 0x24 PUSH1 0x0 REVERT JUMPDEST PUSH1 0x0 PUSH2 0x18AF DUP3 PUSH2 0x14B6 JUMP JUMPDEST SWAP2 POP PUSH2 0x18BA DUP4 PUSH2 0x14B6 JUMP JUMPDEST SWAP3 POP DUP3 PUSH2 0x18CA JUMPI PUSH2 0x18C9 PUSH2 0x1875 JUMP JUMPDEST JUMPDEST DUP3 DUP3 DIV SWAP1 POP SWAP3 SWAP2 POP POP JUMP JUMPDEST PUSH1 0x0 PUSH2 0x18E0 DUP3 PUSH2 0x14B6 JUMP JUMPDEST SWAP2 POP PUSH2 0x18EB DUP4 PUSH2 0x14B6 JUMP JUMPDEST SWAP3 POP DUP3 DUP3 SUB SWAP1 POP DUP2 DUP2 GT ISZERO PUSH2 0x1903 JUMPI PUSH2 0x1902 PUSH2 0x1804 JUMP JUMPDEST JUMPDEST SWAP3 SWAP2 POP POP JUMP JUMPDEST PUSH32 0x43616E6E6F74206265207374616B656420746F6B656E00000000000000000000 PUSH1 0x0 DUP3 ADD MSTORE POP JUMP JUMPDEST PUSH1 0x0 PUSH2 0x193F PUSH1 0x16 DUP4 PUSH2 0x171B JUMP JUMPDEST SWAP2 POP PUSH2 0x194A DUP3 PUSH2 0x1909 JUMP JUMPDEST PUSH1 0x20 DUP3 ADD SWAP1 POP SWAP2 SWAP1 POP JUMP JUMPDEST PUSH1 0x0 PUSH1 0x20 DUP3 ADD SWAP1 POP DUP2 DUP2 SUB PUSH1 0x0 DUP4 ADD MSTORE PUSH2 0x196E DUP2 PUSH2 0x1932 JUMP JUMPDEST SWAP1 POP SWAP2 SWAP1 POP JUMP JUMPDEST PUSH32 0x43616E6E6F742062652072657761726420746F6B656E00000000000000000000 PUSH1 0x0 DUP3 ADD MSTORE POP JUMP JUMPDEST PUSH1 0x0 PUSH2 0x19AB PUSH1 0x16 DUP4 PUSH2 0x171B JUMP JUMPDEST SWAP2 POP PUSH2 0x19B6 DUP3 PUSH2 0x1975 JUMP JUMPDEST PUSH1 0x20 DUP3 ADD SWAP1 POP SWAP2 SWAP1 POP JUMP JUMPDEST PUSH1 0x0 PUSH1 0x20 DUP3 ADD SWAP1 POP DUP2 DUP2 SUB PUSH1 0x0 DUP4 ADD MSTORE PUSH2 0x19DA DUP2 PUSH2 0x199E JUMP JUMPDEST SWAP1 POP SWAP2 SWAP1 POP JUMP JUMPDEST PUSH1 0x0 PUSH1 0x40 DUP3 ADD SWAP1 POP PUSH2 0x19F6 PUSH1 0x0 DUP4 ADD DUP6 PUSH2 0x1637 JUMP JUMPDEST PUSH2 0x1A03 PUSH1 0x20 DUP4 ADD DUP5 PUSH2 0x15A4 JUMP JUMPDEST SWAP4 SWAP3 POP POP POP JUMP JUMPDEST PUSH1 0x0 PUSH2 0x1A15 DUP3 PUSH2 0x14B6 JUMP JUMPDEST SWAP2 POP PUSH2 0x1A20 DUP4 PUSH2 0x14B6 JUMP JUMPDEST SWAP3 POP DUP3 DUP3 ADD SWAP1 POP DUP1 DUP3 GT ISZERO PUSH2 0x1A38 JUMPI PUSH2 0x1A37 PUSH2 0x1804 JUMP JUMPDEST JUMPDEST SWAP3 SWAP2 POP POP JUMP JUMPDEST PUSH32 0x4E657720737461727420626C6F636B206D757374206265206C6F776572207468 PUSH1 0x0 DUP3 ADD MSTORE PUSH32 0x616E206E657720656E6420626C6F636B00000000000000000000000000000000 PUSH1 0x20 DUP3 ADD MSTORE POP JUMP JUMPDEST PUSH1 0x0 PUSH2 0x1A9A PUSH1 0x30 DUP4 PUSH2 0x171B JUMP JUMPDEST SWAP2 POP PUSH2 0x1AA5 DUP3 PUSH2 0x1A3E JUMP JUMPDEST PUSH1 0x40 DUP3 ADD SWAP1 POP SWAP2 SWAP1 POP JUMP JUMPDEST PUSH1 0x0 PUSH1 0x20 DUP3 ADD SWAP1 POP DUP2 DUP2 SUB PUSH1 0x0 DUP4 ADD MSTORE PUSH2 0x1AC9 DUP2 PUSH2 0x1A8D JUMP JUMPDEST SWAP1 POP SWAP2 SWAP1 POP JUMP JUMPDEST PUSH32 0x4E657720737461727420626C6F636B206D757374206265206869676865722074 PUSH1 0x0 DUP3 ADD MSTORE PUSH32 0x68616E2063757272656E7420626C6F636B000000000000000000000000000000 PUSH1 0x20 DUP3 ADD MSTORE POP JUMP JUMPDEST PUSH1 0x0 PUSH2 0x1B2C PUSH1 0x31 DUP4 PUSH2 0x171B JUMP JUMPDEST SWAP2 POP PUSH2 0x1B37 DUP3 PUSH2 0x1AD0 JUMP JUMPDEST PUSH1 0x40 DUP3 ADD SWAP1 POP SWAP2 SWAP1 POP JUMP JUMPDEST PUSH1 0x0 PUSH1 0x20 DUP3 ADD SWAP1 POP DUP2 DUP2 SUB PUSH1 0x0 DUP4 ADD MSTORE PUSH2 0x1B5B DUP2 PUSH2 0x1B1F JUMP JUMPDEST SWAP1 POP SWAP2 SWAP1 POP JUMP JUMPDEST PUSH32 0x4F776E61626C653A206E6577206F776E657220697320746865207A65726F2061 PUSH1 0x0 DUP3 ADD MSTORE PUSH32 0x6464726573730000000000000000000000000000000000000000000000000000 PUSH1 0x20 DUP3 ADD MSTORE POP JUMP JUMPDEST PUSH1 0x0 PUSH2 0x1BBE PUSH1 0x26 DUP4 PUSH2 0x171B JUMP JUMPDEST SWAP2 POP PUSH2 0x1BC9 DUP3 PUSH2 0x1B62 JUMP JUMPDEST PUSH1 0x40 DUP3 ADD SWAP1 POP SWAP2 SWAP1 POP JUMP JUMPDEST PUSH1 0x0 PUSH1 0x20 DUP3 ADD SWAP1 POP DUP2 DUP2 SUB PUSH1 0x0 DUP4 ADD MSTORE PUSH2 0x1BED DUP2 PUSH2 0x1BB1 JUMP JUMPDEST SWAP1 POP SWAP2 SWAP1 POP JUMP JUMPDEST PUSH32 0x4F776E61626C653A2063616C6C6572206973206E6F7420746865206F776E6572 PUSH1 0x0 DUP3 ADD MSTORE POP JUMP JUMPDEST PUSH1 0x0 PUSH2 0x1C2A PUSH1 0x20 DUP4 PUSH2 0x171B JUMP JUMPDEST SWAP2 POP PUSH2 0x1C35 DUP3 PUSH2 0x1BF4 JUMP JUMPDEST PUSH1 0x20 DUP3 ADD SWAP1 POP SWAP2 SWAP1 POP JUMP JUMPDEST PUSH1 0x0 PUSH1 0x20 DUP3 ADD SWAP1 POP DUP2 DUP2 SUB PUSH1 0x0 DUP4 ADD MSTORE PUSH2 0x1C59 DUP2 PUSH2 0x1C1D JUMP JUMPDEST SWAP1 POP SWAP2 SWAP1 POP JUMP JUMPDEST PUSH32 0x5265656E7472616E637947756172643A207265656E7472616E742063616C6C00 PUSH1 0x0 DUP3 ADD MSTORE POP JUMP JUMPDEST PUSH1 0x0 PUSH2 0x1C96 PUSH1 0x1F DUP4 PUSH2 0x171B JUMP JUMPDEST SWAP2 POP PUSH2 0x1CA1 DUP3 PUSH2 0x1C60 JUMP JUMPDEST PUSH1 0x20 DUP3 ADD SWAP1 POP SWAP2 SWAP1 POP JUMP JUMPDEST PUSH1 0x0 PUSH1 0x20 DUP3 ADD SWAP1 POP DUP2 DUP2 SUB PUSH1 0x0 DUP4 ADD MSTORE PUSH2 0x1CC5 DUP2 PUSH2 0x1C89 JUMP JUMPDEST SWAP1 POP SWAP2 SWAP1 POP JUMP JUMPDEST PUSH1 0x0 PUSH1 0x60 DUP3 ADD SWAP1 POP PUSH2 0x1CE1 PUSH1 0x0 DUP4 ADD DUP7 PUSH2 0x1637 JUMP JUMPDEST PUSH2 0x1CEE PUSH1 0x20 DUP4 ADD DUP6 PUSH2 0x1637 JUMP JUMPDEST PUSH2 0x1CFB PUSH1 0x40 DUP4 ADD DUP5 PUSH2 0x15A4 JUMP JUMPDEST SWAP5 SWAP4 POP POP POP POP JUMP JUMPDEST PUSH1 0x0 DUP2 ISZERO ISZERO SWAP1 POP SWAP2 SWAP1 POP JUMP JUMPDEST PUSH2 0x1D18 DUP2 PUSH2 0x1D03 JUMP JUMPDEST DUP2 EQ PUSH2 0x1D23 JUMPI PUSH1 0x0 DUP1 REVERT JUMPDEST POP JUMP JUMPDEST PUSH1 0x0 DUP2 MLOAD SWAP1 POP PUSH2 0x1D35 DUP2 PUSH2 0x1D0F JUMP JUMPDEST SWAP3 SWAP2 POP POP JUMP JUMPDEST PUSH1 0x0 PUSH1 0x20 DUP3 DUP5 SUB SLT ISZERO PUSH2 0x1D51 JUMPI PUSH2 0x1D50 PUSH2 0x14B1 JUMP JUMPDEST JUMPDEST PUSH1 0x0 PUSH2 0x1D5F DUP5 DUP3 DUP6 ADD PUSH2 0x1D26 JUMP JUMPDEST SWAP2 POP POP SWAP3 SWAP2 POP POP JUMP JUMPDEST PUSH32 0x5361666545524332303A204552433230206F7065726174696F6E20646964206E PUSH1 0x0 DUP3 ADD MSTORE PUSH32 0x6F74207375636365656400000000000000000000000000000000000000000000 PUSH1 0x20 DUP3 ADD MSTORE POP JUMP JUMPDEST PUSH1 0x0 PUSH2 0x1DC4 PUSH1 0x2A DUP4 PUSH2 0x171B JUMP JUMPDEST SWAP2 POP PUSH2 0x1DCF DUP3 PUSH2 0x1D68 JUMP JUMPDEST PUSH1 0x40 DUP3 ADD SWAP1 POP SWAP2 SWAP1 POP JUMP JUMPDEST PUSH1 0x0 PUSH1 0x20 DUP3 ADD SWAP1 POP DUP2 DUP2 SUB PUSH1 0x0 DUP4 ADD MSTORE PUSH2 0x1DF3 DUP2 PUSH2 0x1DB7 JUMP JUMPDEST SWAP1 POP SWAP2 SWAP1 POP JUMP JUMPDEST PUSH32 0x416464726573733A20696E73756666696369656E742062616C616E636520666F PUSH1 0x0 DUP3 ADD MSTORE PUSH32 0x722063616C6C0000000000000000000000000000000000000000000000000000 PUSH1 0x20 DUP3 ADD MSTORE POP JUMP JUMPDEST PUSH1 0x0 PUSH2 0x1E56 PUSH1 0x26 DUP4 PUSH2 0x171B JUMP JUMPDEST SWAP2 POP PUSH2 0x1E61 DUP3 PUSH2 0x1DFA JUMP JUMPDEST PUSH1 0x40 DUP3 ADD SWAP1 POP SWAP2 SWAP1 POP JUMP JUMPDEST PUSH1 0x0 PUSH1 0x20 DUP3 ADD SWAP1 POP DUP2 DUP2 SUB PUSH1 0x0 DUP4 ADD MSTORE PUSH2 0x1E85 DUP2 PUSH2 0x1E49 JUMP JUMPDEST SWAP1 POP SWAP2 SWAP1 POP JUMP JUMPDEST PUSH1 0x0 DUP2 MLOAD SWAP1 POP SWAP2 SWAP1 POP JUMP JUMPDEST PUSH1 0x0 DUP2 SWAP1 POP SWAP3 SWAP2 POP POP JUMP JUMPDEST PUSH1 0x0 JUMPDEST DUP4 DUP2 LT ISZERO PUSH2 0x1EC0 JUMPI DUP1 DUP3 ADD MLOAD DUP2 DUP5 ADD MSTORE PUSH1 0x20 DUP2 ADD SWAP1 POP PUSH2 0x1EA5 JUMP JUMPDEST PUSH1 0x0 DUP5 DUP5 ADD MSTORE POP POP POP POP JUMP JUMPDEST PUSH1 0x0 PUSH2 0x1ED7 DUP3 PUSH2 0x1E8C JUMP JUMPDEST PUSH2 0x1EE1 DUP2 DUP6 PUSH2 0x1E97 JUMP JUMPDEST SWAP4 POP PUSH2 0x1EF1 DUP2 DUP6 PUSH1 0x20 DUP7 ADD PUSH2 0x1EA2 JUMP JUMPDEST DUP1 DUP5 ADD SWAP2 POP POP SWAP3 SWAP2 POP POP JUMP JUMPDEST PUSH1 0x0 PUSH2 0x1F09 DUP3 DUP5 PUSH2 0x1ECC JUMP JUMPDEST SWAP2 POP DUP2 SWAP1 POP SWAP3 SWAP2 POP POP JUMP JUMPDEST PUSH32 0x416464726573733A2063616C6C20746F206E6F6E2D636F6E7472616374000000 PUSH1 0x0 DUP3 ADD MSTORE POP JUMP JUMPDEST PUSH1 0x0 PUSH2 0x1F4A PUSH1 0x1D DUP4 PUSH2 0x171B JUMP JUMPDEST SWAP2 POP PUSH2 0x1F55 DUP3 PUSH2 0x1F14 JUMP JUMPDEST PUSH1 0x20 DUP3 ADD SWAP1 POP SWAP2 SWAP1 POP JUMP JUMPDEST PUSH1 0x0 PUSH1 0x20 DUP3 ADD SWAP1 POP DUP2 DUP2 SUB PUSH1 0x0 DUP4 ADD MSTORE PUSH2 0x1F79 DUP2 PUSH2 0x1F3D JUMP JUMPDEST SWAP1 POP SWAP2 SWAP1 POP JUMP JUMPDEST PUSH1 0x0 DUP2 MLOAD SWAP1 POP SWAP2 SWAP1 POP JUMP JUMPDEST PUSH1 0x0 PUSH1 0x1F NOT PUSH1 0x1F DUP4 ADD AND SWAP1 POP SWAP2 SWAP1 POP JUMP JUMPDEST PUSH1 0x0 PUSH2 0x1FA7 DUP3 PUSH2 0x1F80 JUMP JUMPDEST PUSH2 0x1FB1 DUP2 DUP6 PUSH2 0x171B JUMP JUMPDEST SWAP4 POP PUSH2 0x1FC1 DUP2 DUP6 PUSH1 0x20 DUP7 ADD PUSH2 0x1EA2 JUMP JUMPDEST PUSH2 0x1FCA DUP2 PUSH2 0x1F8B JUMP JUMPDEST DUP5 ADD SWAP2 POP POP SWAP3 SWAP2 POP POP JUMP JUMPDEST PUSH1 0x0 PUSH1 0x20 DUP3 ADD SWAP1 POP DUP2 DUP2 SUB PUSH1 0x0 DUP4 ADD MSTORE PUSH2 0x1FEF DUP2 DUP5 PUSH2 0x1F9C JUMP JUMPDEST SWAP1 POP SWAP3 SWAP2 POP POP JUMP INVALID LOG2 PUSH5 0x6970667358 0x22 SLT KECCAK256 0xE PUSH6 0x57A9CA59B909 BLOCKHASH JUMPDEST PUSH17 0xEED98FC3A24DB2C04CE0FD6BEAEA721568 PUSH11 0x99F79E64736F6C63430008 SHR STOP CALLER LOG2 PUSH5 0x6970667358 0x22 SLT KECCAK256 0x4F 0xE9 COINBASE PUSH26 0x59F751FB580CA6F88640C07BE8DB649A4987B21FDF1CCFF3150D TSTORE PUSH11 0x64736F6C634300081C0033 "},"methodIdentifiers":{"createStakingPool(address,address,uint256,uint256,uint256)":"405afeef","getAllStakingPools()":"d9d54858","stakingPools(uint256)":"5aad6cf0"}}}}}