{"src/backend/contracts/AMMRouter.sol":{"AMMRouter":{"abi":[{"inputs":[{"internalType":"address","name":"_factory","type":"address"},{"internalType":"address","name":"_WETH","type":"address"}],"stateMutability":"nonpayable","type":"constructor"},{"inputs":[],"name":"WETH","outputs":[{"internalType":"address","name":"","type":"address"}],"stateMutability":"view","type":"function"},{"inputs":[{"internalType":"address","name":"tokenA","type":"address"},{"internalType":"address","name":"tokenB","type":"address"},{"internalType":"uint256","name":"amountADesired","type":"uint256"},{"internalType":"uint256","name":"amountBDesired","type":"uint256"},{"internalType":"uint256","name":"amountAMin","type":"uint256"},{"internalType":"uint256","name":"amountBMin","type":"uint256"},{"internalType":"address","name":"to","type":"address"},{"internalType":"uint256","name":"deadline","type":"uint256"}],"name":"addLiquidity","outputs":[{"internalType":"uint256","name":"amountA","type":"uint256"},{"internalType":"uint256","name":"amountB","type":"uint256"},{"internalType":"uint256","name":"liquidity","type":"uint256"}],"stateMutability":"nonpayable","type":"function"},{"inputs":[{"internalType":"address","name":"token","type":"address"},{"internalType":"uint256","name":"amountTokenDesired","type":"uint256"},{"internalType":"uint256","name":"amountTokenMin","type":"uint256"},{"internalType":"uint256","name":"amountETHMin","type":"uint256"},{"internalType":"address","name":"to","type":"address"},{"internalType":"uint256","name":"deadline","type":"uint256"}],"name":"addLiquidityETH","outputs":[{"internalType":"uint256","name":"amountToken","type":"uint256"},{"internalType":"uint256","name":"amountETH","type":"uint256"},{"internalType":"uint256","name":"liquidity","type":"uint256"}],"stateMutability":"payable","type":"function"},{"inputs":[],"name":"factory","outputs":[{"internalType":"address","name":"","type":"address"}],"stateMutability":"view","type":"function"},{"inputs":[{"internalType":"uint256","name":"amountOut","type":"uint256"},{"internalType":"address[]","name":"path","type":"address[]"}],"name":"getAmountsIn","outputs":[{"internalType":"uint256[]","name":"amounts","type":"uint256[]"}],"stateMutability":"view","type":"function"},{"inputs":[{"internalType":"uint256","name":"amountIn","type":"uint256"},{"internalType":"address[]","name":"path","type":"address[]"}],"name":"getAmountsOut","outputs":[{"internalType":"uint256[]","name":"amounts","type":"uint256[]"}],"stateMutability":"view","type":"function"},{"inputs":[{"internalType":"address","name":"tokenA","type":"address"},{"internalType":"address","name":"tokenB","type":"address"}],"name":"getReserves","outputs":[{"internalType":"uint256","name":"reserveA","type":"uint256"},{"internalType":"uint256","name":"reserveB","type":"uint256"},{"internalType":"address","name":"pair","type":"address"}],"stateMutability":"view","type":"function"},{"inputs":[{"internalType":"address","name":"tokenA","type":"address"},{"internalType":"address","name":"tokenB","type":"address"},{"internalType":"uint256","name":"liquidity","type":"uint256"},{"internalType":"uint256","name":"amountAMin","type":"uint256"},{"internalType":"uint256","name":"amountBMin","type":"uint256"},{"internalType":"address","name":"to","type":"address"},{"internalType":"uint256","name":"deadline","type":"uint256"}],"name":"removeLiquidity","outputs":[{"internalType":"uint256","name":"amountA","type":"uint256"},{"internalType":"uint256","name":"amountB","type":"uint256"}],"stateMutability":"nonpayable","type":"function"},{"inputs":[{"internalType":"address","name":"token","type":"address"},{"internalType":"uint256","name":"liquidity","type":"uint256"},{"internalType":"uint256","name":"amountTokenMin","type":"uint256"},{"internalType":"uint256","name":"amountETHMin","type":"uint256"},{"internalType":"address","name":"to","type":"address"},{"internalType":"uint256","name":"deadline","type":"uint256"}],"name":"removeLiquidityETH","outputs":[{"internalType":"uint256","name":"amountToken","type":"uint256"},{"internalType":"uint256","name":"amountETH","type":"uint256"}],"stateMutability":"nonpayable","type":"function"},{"inputs":[{"internalType":"uint256","name":"amountOut","type":"uint256"},{"internalType":"address[]","name":"path","type":"address[]"},{"internalType":"address","name":"to","type":"address"},{"internalType":"uint256","name":"deadline","type":"uint256"}],"name":"swapETHForExactTokens","outputs":[{"internalType":"uint256[]","name":"amounts","type":"uint256[]"}],"stateMutability":"payable","type":"function"},{"inputs":[{"internalType":"uint256","name":"amountOutMin","type":"uint256"},{"internalType":"address[]","name":"path","type":"address[]"},{"internalType":"address","name":"to","type":"address"},{"internalType":"uint256","name":"deadline","type":"uint256"}],"name":"swapExactETHForTokens","outputs":[{"internalType":"uint256[]","name":"amounts","type":"uint256[]"}],"stateMutability":"payable","type":"function"},{"inputs":[{"internalType":"uint256","name":"amountIn","type":"uint256"},{"internalType":"uint256","name":"amountOutMin","type":"uint256"},{"internalType":"address[]","name":"path","type":"address[]"},{"internalType":"address","name":"to","type":"address"},{"internalType":"uint256","name":"deadline","type":"uint256"}],"name":"swapExactTokensForETH","outputs":[{"internalType":"uint256[]","name":"amounts","type":"uint256[]"}],"stateMutability":"nonpayable","type":"function"},{"inputs":[{"internalType":"uint256","name":"amountIn","type":"uint256"},{"internalType":"uint256","name":"amountOutMin","type":"uint256"},{"internalType":"address[]","name":"path","type":"address[]"},{"internalType":"address","name":"to","type":"address"},{"internalType":"uint256","name":"deadline","type":"uint256"}],"name":"swapExactTokensForTokens","outputs":[{"internalType":"uint256[]","name":"amounts","type":"uint256[]"}],"stateMutability":"nonpayable","type":"function"},{"inputs":[{"internalType":"uint256","name":"amountOut","type":"uint256"},{"internalType":"uint256","name":"amountInMax","type":"uint256"},{"internalType":"address[]","name":"path","type":"address[]"},{"internalType":"address","name":"to","type":"address"},{"internalType":"uint256","name":"deadline","type":"uint256"}],"name":"swapTokensForExactETH","outputs":[{"internalType":"uint256[]","name":"amounts","type":"uint256[]"}],"stateMutability":"nonpayable","type":"function"},{"inputs":[{"internalType":"uint256","name":"amountOut","type":"uint256"},{"internalType":"uint256","name":"amountInMax","type":"uint256"},{"internalType":"address[]","name":"path","type":"address[]"},{"internalType":"address","name":"to","type":"address"},{"internalType":"uint256","name":"deadline","type":"uint256"}],"name":"swapTokensForExactTokens","outputs":[{"internalType":"uint256[]","name":"amounts","type":"uint256[]"}],"stateMutability":"nonpayable","type":"function"},{"stateMutability":"payable","type":"receive"}],"evm":{"bytecode":{"linkReferences":{},"object":"60c060405234801561001057600080fd5b5060405161473c38038061473c8339818101604052810190610032919061017b565b8173ffffffffffffffffffffffffffffffffffffffff1660808173ffffffffffffffffffffffffffffffffffffffff16815250508073ffffffffffffffffffffffffffffffffffffffff1660a08173ffffffffffffffffffffffffffffffffffffffff168152505060805173ffffffffffffffffffffffffffffffffffffffff16635855a25a6040518163ffffffff1660e01b8152600401602060405180830381865afa1580156100e7573d6000803e3d6000fd5b505050506040513d601f19601f8201168201806040525081019061010b91906101f1565b600081905550505061021e565b600080fd5b600073ffffffffffffffffffffffffffffffffffffffff82169050919050565b60006101488261011d565b9050919050565b6101588161013d565b811461016357600080fd5b50565b6000815190506101758161014f565b92915050565b6000806040838503121561019257610191610118565b5b60006101a085828601610166565b92505060206101b185828601610166565b9150509250929050565b6000819050919050565b6101ce816101bb565b81146101d957600080fd5b50565b6000815190506101eb816101c5565b92915050565b60006020828403121561020757610206610118565b5b6000610215848285016101dc565b91505092915050565b60805160a0516144366103066000396000818160f3015281816104f10152818161052f01528181610616015281816108a901528181610d970152818161101e01528181611152015281816112bf0152818161135b0152818161170801528181611d2901528181611d6b01528181611dec01528181611f87015281816120e801526121840152600081816107c101528181610c5e01528181610f360152818161139a01528181611615015281816117780152818161191e01528181611adc015281816121c301528181612855015281816128ac01528181612c810152612d3801526144366000f3fe6080604052600436106100ec5760003560e01c8063ad5c46481161008a578063d52bb6f411610059578063d52bb6f4146103c4578063e8e3370014610403578063f305d71914610442578063fb3bdb41146104745761014f565b8063ad5c4648146102f3578063baa2abde1461031e578063c45a01551461035c578063d06ca61f146103875761014f565b806338ed1739116100c657806338ed17391461020c5780634a25d94a146102495780637ff36ab5146102865780638803dbee146102b65761014f565b806302751cec1461015457806318cbafe5146101925780631f00ca74146101cf5761014f565b3661014f577f000000000000000000000000000000000000000000000000000000000000000073ffffffffffffffffffffffffffffffffffffffff163373ffffffffffffffffffffffffffffffffffffffff161461014d5761014c612fad565b5b005b600080fd5b34801561016057600080fd5b5061017b60048036038101906101769190613084565b6104a4565b604051610189929190613120565b60405180910390f35b34801561019e57600080fd5b506101b960048036038101906101b491906131ae565b6105ce565b6040516101c69190613306565b60405180910390f35b3480156101db57600080fd5b506101f660048036038101906101f19190613477565b610995565b6040516102039190613306565b60405180910390f35b34801561021857600080fd5b50610233600480360381019061022e91906131ae565b610b2f565b6040516102409190613306565b60405180910390f35b34801561025557600080fd5b50610270600480360381019061026b91906131ae565b610d4f565b60405161027d9190613306565b60405180910390f35b6102a0600480360381019061029b91906134d3565b61110a565b6040516102ad9190613306565b60405180910390f35b3480156102c257600080fd5b506102dd60048036038101906102d891906131ae565b6114f2565b6040516102ea9190613306565b60405180910390f35b3480156102ff57600080fd5b50610308611706565b604051610315919061356a565b60405180910390f35b34801561032a57600080fd5b5061034560048036038101906103409190613585565b61172a565b604051610353929190613120565b60405180910390f35b34801561036857600080fd5b5061037161191c565b60405161037e919061356a565b60405180910390f35b34801561039357600080fd5b506103ae60048036038101906103a99190613477565b611940565b6040516103bb9190613306565b60405180910390f35b3480156103d057600080fd5b506103eb60048036038101906103e69190613627565b611ac4565b6040516103fa93929190613667565b60405180910390f35b34801561040f57600080fd5b5061042a6004803603810190610425919061369e565b611bcd565b60405161043993929190613754565b60405180910390f35b61045c60048036038101906104579190613084565b611cd8565b60405161046b93929190613754565b60405180910390f35b61048e600480360381019061048991906134d3565b611f3f565b60405161049b9190613306565b60405180910390f35b60008082428110156104eb576040517f08c379a00000000000000000000000000000000000000000000000000000000081526004016104e2906137e8565b60405180910390fd5b61051a897f00000000000000000000000000000000000000000000000000000000000000008a8a8a308a61172a565b809350819450505061052d89868561236f565b7f000000000000000000000000000000000000000000000000000000000000000073ffffffffffffffffffffffffffffffffffffffff16632e1a7d4d836040518263ffffffff1660e01b81526004016105869190613808565b600060405180830381600087803b1580156105a057600080fd5b505af11580156105b4573d6000803e3d6000fd5b505050506105c285836124a5565b50965096945050505050565b60608142811015610614576040517f08c379a000000000000000000000000000000000000000000000000000000000815260040161060b906137e8565b60405180910390fd5b7f000000000000000000000000000000000000000000000000000000000000000073ffffffffffffffffffffffffffffffffffffffff16868660018989905061065d9190613852565b81811061066d5761066c613886565b5b905060200201602081019061068291906138b5565b73ffffffffffffffffffffffffffffffffffffffff16146106d8576040517f08c379a00000000000000000000000000000000000000000000000000000000081526004016106cf9061392e565b60405180910390fd5b61072388878780806020026020016040519081016040528093929190818152602001838360200280828437600081840152601f19601f82011690508083019250505050505050611940565b91508682600184516107359190613852565b8151811061074657610745613886565b5b6020026020010151101561078f576040517f08c379a00000000000000000000000000000000000000000000000000000000081526004016107869061399a565b60405180910390fd5b61085b868660008181106107a6576107a5613886565b5b90506020020160208101906107bb91906138b5565b3361083a7f00000000000000000000000000000000000000000000000000000000000000008a8a60008181106107f4576107f3613886565b5b905060200201602081019061080991906138b5565b8b8b600181811061081d5761081c613886565b5b905060200201602081019061083291906138b5565b6000546125a5565b8560008151811061084e5761084d613886565b5b602002602001015161261a565b6108a782878780806020026020016040519081016040528093929190818152602001838360200280828437600081840152601f19601f8201169050808301925050505050505030612753565b7f000000000000000000000000000000000000000000000000000000000000000073ffffffffffffffffffffffffffffffffffffffff16632e1a7d4d83600185516108f29190613852565b8151811061090357610902613886565b5b60200260200101516040518263ffffffff1660e01b81526004016109279190613808565b600060405180830381600087803b15801561094157600080fd5b505af1158015610955573d6000803e3d6000fd5b5050505061098a84836001855161096c9190613852565b8151811061097d5761097c613886565b5b60200260200101516124a5565b509695505050505050565b60606002825110156109dc576040517f08c379a00000000000000000000000000000000000000000000000000000000081526004016109d39061392e565b60405180910390fd5b815167ffffffffffffffff8111156109f7576109f6613339565b5b604051908082528060200260200182016040528015610a255781602001602082028036833780820191505090505b509050828160018351610a389190613852565b81518110610a4957610a48613886565b5b602002602001018181525050600060018351610a659190613852565b90505b6000811115610b2857600080610abe85600185610a859190613852565b81518110610a9657610a95613886565b5b6020026020010151868581518110610ab157610ab0613886565b5b6020026020010151611ac4565b5091509150610ae8848481518110610ad957610ad8613886565b5b6020026020010151838361295d565b84600185610af69190613852565b81518110610b0757610b06613886565b5b60200260200101818152505050508080610b20906139ba565b915050610a68565b5092915050565b60608142811015610b75576040517f08c379a0000000000000000000000000000000000000000000000000000000008152600401610b6c906137e8565b60405180910390fd5b610bc088878780806020026020016040519081016040528093929190818152602001838360200280828437600081840152601f19601f82011690508083019250505050505050611940565b9150868260018451610bd29190613852565b81518110610be357610be2613886565b5b60200260200101511015610c2c576040517f08c379a0000000000000000000000000000000000000000000000000000000008152600401610c239061399a565b60405180910390fd5b610cf886866000818110610c4357610c42613886565b5b9050602002016020810190610c5891906138b5565b33610cd77f00000000000000000000000000000000000000000000000000000000000000008a8a6000818110610c9157610c90613886565b5b9050602002016020810190610ca691906138b5565b8b8b6001818110610cba57610cb9613886565b5b9050602002016020810190610ccf91906138b5565b6000546125a5565b85600081518110610ceb57610cea613886565b5b602002602001015161261a565b610d4482878780806020026020016040519081016040528093929190818152602001838360200280828437600081840152601f19601f8201169050808301925050505050505086612753565b509695505050505050565b60608142811015610d95576040517f08c379a0000000000000000000000000000000000000000000000000000000008152600401610d8c906137e8565b60405180910390fd5b7f000000000000000000000000000000000000000000000000000000000000000073ffffffffffffffffffffffffffffffffffffffff168686600189899050610dde9190613852565b818110610dee57610ded613886565b5b9050602002016020810190610e0391906138b5565b73ffffffffffffffffffffffffffffffffffffffff1614610e59576040517f08c379a0000000000000000000000000000000000000000000000000000000008152600401610e509061392e565b60405180910390fd5b610ea488878780806020026020016040519081016040528093929190818152602001838360200280828437600081840152601f19601f82011690508083019250505050505050610995565b91508682600081518110610ebb57610eba613886565b5b60200260200101511115610f04576040517f08c379a0000000000000000000000000000000000000000000000000000000008152600401610efb90613a2f565b60405180910390fd5b610fd086866000818110610f1b57610f1a613886565b5b9050602002016020810190610f3091906138b5565b33610faf7f00000000000000000000000000000000000000000000000000000000000000008a8a6000818110610f6957610f68613886565b5b9050602002016020810190610f7e91906138b5565b8b8b6001818110610f9257610f91613886565b5b9050602002016020810190610fa791906138b5565b6000546125a5565b85600081518110610fc357610fc2613886565b5b602002602001015161261a565b61101c82878780806020026020016040519081016040528093929190818152602001838360200280828437600081840152601f19601f8201169050808301925050505050505030612753565b7f000000000000000000000000000000000000000000000000000000000000000073ffffffffffffffffffffffffffffffffffffffff16632e1a7d4d83600185516110679190613852565b8151811061107857611077613886565b5b60200260200101516040518263ffffffff1660e01b815260040161109c9190613808565b600060405180830381600087803b1580156110b657600080fd5b505af11580156110ca573d6000803e3d6000fd5b505050506110ff8483600185516110e19190613852565b815181106110f2576110f1613886565b5b60200260200101516124a5565b509695505050505050565b60608142811015611150576040517f08c379a0000000000000000000000000000000000000000000000000000000008152600401611147906137e8565b60405180910390fd5b7f000000000000000000000000000000000000000000000000000000000000000073ffffffffffffffffffffffffffffffffffffffff168686600081811061119b5761119a613886565b5b90506020020160208101906111b091906138b5565b73ffffffffffffffffffffffffffffffffffffffff1614611206576040517f08c379a00000000000000000000000000000000000000000000000000000000081526004016111fd9061392e565b60405180910390fd5b61125134878780806020026020016040519081016040528093929190818152602001838360200280828437600081840152601f19601f82011690508083019250505050505050611940565b91508682600184516112639190613852565b8151811061127457611273613886565b5b602002602001015110156112bd576040517f08c379a00000000000000000000000000000000000000000000000000000000081526004016112b49061399a565b60405180910390fd5b7f000000000000000000000000000000000000000000000000000000000000000073ffffffffffffffffffffffffffffffffffffffff1663d0e30db08360008151811061130d5761130c613886565b5b60200260200101516040518263ffffffff1660e01b81526004016000604051808303818588803b15801561134057600080fd5b505af1158015611354573d6000803e3d6000fd5b50505050507f000000000000000000000000000000000000000000000000000000000000000073ffffffffffffffffffffffffffffffffffffffff1663a9059cbb6114137f0000000000000000000000000000000000000000000000000000000000000000898960008181106113cd576113cc613886565b5b90506020020160208101906113e291906138b5565b8a8a60018181106113f6576113f5613886565b5b905060200201602081019061140b91906138b5565b6000546125a5565b8460008151811061142757611426613886565b5b60200260200101516040518363ffffffff1660e01b815260040161144c929190613a4f565b6020604051808303816000875af115801561146b573d6000803e3d6000fd5b505050506040513d601f19601f8201168201806040525081019061148f9190613ab0565b61149c5761149b612fad565b5b6114e882878780806020026020016040519081016040528093929190818152602001838360200280828437600081840152601f19601f8201169050808301925050505050505086612753565b5095945050505050565b60608142811015611538576040517f08c379a000000000000000000000000000000000000000000000000000000000815260040161152f906137e8565b60405180910390fd5b61158388878780806020026020016040519081016040528093929190818152602001838360200280828437600081840152601f19601f82011690508083019250505050505050610995565b9150868260008151811061159a57611599613886565b5b602002602001015111156115e3576040517f08c379a00000000000000000000000000000000000000000000000000000000081526004016115da90613a2f565b60405180910390fd5b6116af868660008181106115fa576115f9613886565b5b905060200201602081019061160f91906138b5565b3361168e7f00000000000000000000000000000000000000000000000000000000000000008a8a600081811061164857611647613886565b5b905060200201602081019061165d91906138b5565b8b8b600181811061167157611670613886565b5b905060200201602081019061168691906138b5565b6000546125a5565b856000815181106116a2576116a1613886565b5b602002602001015161261a565b6116fb82878780806020026020016040519081016040528093929190818152602001838360200280828437600081840152601f19601f8201169050808301925050505050505086612753565b509695505050505050565b7f000000000000000000000000000000000000000000000000000000000000000081565b6000808242811015611771576040517f08c379a0000000000000000000000000000000000000000000000000000000008152600401611768906137e8565b60405180910390fd5b60006117a17f00000000000000000000000000000000000000000000000000000000000000008c8c6000546125a5565b90506117af8133838c61261a565b6000808273ffffffffffffffffffffffffffffffffffffffff166389afcb44896040518263ffffffff1660e01b81526004016117eb919061356a565b60408051808303816000875af1158015611809573d6000803e3d6000fd5b505050506040513d601f19601f8201168201806040525081019061182d9190613af2565b91509150600061183d8e8e612a4d565b5090508073ffffffffffffffffffffffffffffffffffffffff168e73ffffffffffffffffffffffffffffffffffffffff161461187a57818361187d565b82825b80975081985050508a8710156118c8576040517f08c379a00000000000000000000000000000000000000000000000000000000081526004016118bf90613b7e565b60405180910390fd5b8986101561190b576040517f08c379a000000000000000000000000000000000000000000000000000000000815260040161190290613bea565b60405180910390fd5b505050505097509795505050505050565b7f000000000000000000000000000000000000000000000000000000000000000081565b6060600282511015611987576040517f08c379a000000000000000000000000000000000000000000000000000000000815260040161197e9061392e565b60405180910390fd5b815167ffffffffffffffff8111156119a2576119a1613339565b5b6040519080825280602002602001820160405280156119d05781602001602082028036833780820191505090505b50905082816000815181106119e8576119e7613886565b5b60200260200101818152505060005b60018351611a059190613852565b811015611abd57600080611a59858481518110611a2557611a24613886565b5b602002602001015186600186611a3b9190613c0a565b81518110611a4c57611a4b613886565b5b6020026020010151611ac4565b5091509150611a83848481518110611a7457611a73613886565b5b60200260200101518383612b79565b84600185611a919190613c0a565b81518110611aa257611aa1613886565b5b602002602001018181525050505080806001019150506119f7565b5092915050565b600080600080611ad48686612a4d565b509050611b057f000000000000000000000000000000000000000000000000000000000000000087876000546125a5565b91506000808373ffffffffffffffffffffffffffffffffffffffff16630902f1ac6040518163ffffffff1660e01b8152600401606060405180830381865afa158015611b55573d6000803e3d6000fd5b505050506040513d601f19601f82011682018060405250810190611b799190613c3e565b50915091508273ffffffffffffffffffffffffffffffffffffffff168873ffffffffffffffffffffffffffffffffffffffff1614611bb8578082611bbb565b81815b80965081975050505050509250925092565b60008060008342811015611c16576040517f08c379a0000000000000000000000000000000000000000000000000000000008152600401611c0d906137e8565b60405180910390fd5b6000611c268d8d8d8d8d8d612c63565b809350819650829750505050611c3e8d33838861261a565b611c4a8c33838761261a565b8073ffffffffffffffffffffffffffffffffffffffff16636a627842886040518263ffffffff1660e01b8152600401611c83919061356a565b6020604051808303816000875af1158015611ca2573d6000803e3d6000fd5b505050506040513d601f19601f82011682018060405250810190611cc69190613c91565b92505050985098509895505050505050565b60008060008342811015611d21576040517f08c379a0000000000000000000000000000000000000000000000000000000008152600401611d18906137e8565b60405180910390fd5b6000611d518b7f00000000000000000000000000000000000000000000000000000000000000008c348d8d612c63565b809350819650829750505050611d698b33838861261a565b7f000000000000000000000000000000000000000000000000000000000000000073ffffffffffffffffffffffffffffffffffffffff1663d0e30db0856040518263ffffffff1660e01b81526004016000604051808303818588803b158015611dd157600080fd5b505af1158015611de5573d6000803e3d6000fd5b50505050507f000000000000000000000000000000000000000000000000000000000000000073ffffffffffffffffffffffffffffffffffffffff1663a9059cbb82866040518363ffffffff1660e01b8152600401611e45929190613a4f565b6020604051808303816000875af1158015611e64573d6000803e3d6000fd5b505050506040513d601f19601f82011682018060405250810190611e889190613ab0565b611e9557611e94612fad565b5b8073ffffffffffffffffffffffffffffffffffffffff16636a627842886040518263ffffffff1660e01b8152600401611ece919061356a565b6020604051808303816000875af1158015611eed573d6000803e3d6000fd5b505050506040513d601f19601f82011682018060405250810190611f119190613c91565b925083341115611f3157611f30338534611f2b9190613852565b6124a5565b5b505096509650969350505050565b60608142811015611f85576040517f08c379a0000000000000000000000000000000000000000000000000000000008152600401611f7c906137e8565b60405180910390fd5b7f000000000000000000000000000000000000000000000000000000000000000073ffffffffffffffffffffffffffffffffffffffff1686866000818110611fd057611fcf613886565b5b9050602002016020810190611fe591906138b5565b73ffffffffffffffffffffffffffffffffffffffff161461203b576040517f08c379a00000000000000000000000000000000000000000000000000000000081526004016120329061392e565b60405180910390fd5b61208687878780806020026020016040519081016040528093929190818152602001838360200280828437600081840152601f19601f82011690508083019250505050505050610995565b9150348260008151811061209d5761209c613886565b5b602002602001015111156120e6576040517f08c379a00000000000000000000000000000000000000000000000000000000081526004016120dd90613a2f565b60405180910390fd5b7f000000000000000000000000000000000000000000000000000000000000000073ffffffffffffffffffffffffffffffffffffffff1663d0e30db08360008151811061213657612135613886565b5b60200260200101516040518263ffffffff1660e01b81526004016000604051808303818588803b15801561216957600080fd5b505af115801561217d573d6000803e3d6000fd5b50505050507f000000000000000000000000000000000000000000000000000000000000000073ffffffffffffffffffffffffffffffffffffffff1663a9059cbb61223c7f0000000000000000000000000000000000000000000000000000000000000000898960008181106121f6576121f5613886565b5b905060200201602081019061220b91906138b5565b8a8a600181811061221f5761221e613886565b5b905060200201602081019061223491906138b5565b6000546125a5565b846000815181106122505761224f613886565b5b60200260200101516040518363ffffffff1660e01b8152600401612275929190613a4f565b6020604051808303816000875af1158015612294573d6000803e3d6000fd5b505050506040513d601f19601f820116820180604052508101906122b89190613ab0565b6122c5576122c4612fad565b5b61231182878780806020026020016040519081016040528093929190818152602001838360200280828437600081840152601f19601f8201169050808301925050505050505086612753565b8160008151811061232557612324613886565b5b602002602001015134111561236557612364338360008151811061234c5761234b613886565b5b60200260200101513461235f9190613852565b6124a5565b5b5095945050505050565b6000808473ffffffffffffffffffffffffffffffffffffffff1663a9059cbb85856040516024016123a1929190613a4f565b6040516020818303038152906040529060e01b6020820180517bffffffffffffffffffffffffffffffffffffffffffffffffffffffff83818316178352505050506040516123ef9190613d2f565b6000604051808303816000865af19150503d806000811461242c576040519150601f19603f3d011682016040523d82523d6000602084013e612431565b606091505b509150915081801561245f575060008151148061245e57508080602001905181019061245d9190613ab0565b5b5b61249e576040517f08c379a000000000000000000000000000000000000000000000000000000000815260040161249590613d92565b60405180910390fd5b5050505050565b60008273ffffffffffffffffffffffffffffffffffffffff1682600067ffffffffffffffff8111156124da576124d9613339565b5b6040519080825280601f01601f19166020018201604052801561250c5781602001600182028036833780820191505090505b5060405161251a9190613d2f565b60006040518083038185875af1925050503d8060008114612557576040519150601f19603f3d011682016040523d82523d6000602084013e61255c565b606091505b50509050806125a0576040517f08c379a000000000000000000000000000000000000000000000000000000000815260040161259790613dfe565b60405180910390fd5b505050565b60008060006125b48686612a4d565b915091508682826040516020016125cc929190613e66565b60405160208183030381529060405280519060200120856040516020016125f593929190613f14565b6040516020818303038152906040528051906020012060001c92505050949350505050565b6000808573ffffffffffffffffffffffffffffffffffffffff166323b872dd86868660405160240161264e93929190613f5c565b6040516020818303038152906040529060e01b6020820180517bffffffffffffffffffffffffffffffffffffffffffffffffffffffff838183161783525050505060405161269c9190613d2f565b6000604051808303816000865af19150503d80600081146126d9576040519150601f19603f3d011682016040523d82523d6000602084013e6126de565b606091505b509150915081801561270c575060008151148061270b57508080602001905181019061270a9190613ab0565b5b5b61274b576040517f08c379a000000000000000000000000000000000000000000000000000000000815260040161274290613fdf565b60405180910390fd5b505050505050565b60005b600183516127649190613852565b8110156129575760008084838151811061278157612780613886565b5b6020026020010151856001856127979190613c0a565b815181106127a8576127a7613886565b5b60200260200101519150915060006127c08383612a4d565b5090506000876001866127d39190613c0a565b815181106127e4576127e3613886565b5b602002602001015190506000808373ffffffffffffffffffffffffffffffffffffffff168673ffffffffffffffffffffffffffffffffffffffff161461282c57826000612830565b6000835b91509150600060028a516128449190613852565b881061285057886128a5565b6128a47f0000000000000000000000000000000000000000000000000000000000000000878c60028c6128839190613c0a565b8151811061289457612893613886565b5b60200260200101516000546125a5565b5b90506128d57f000000000000000000000000000000000000000000000000000000000000000088886000546125a5565b73ffffffffffffffffffffffffffffffffffffffff16636d9a640a8484846040518463ffffffff1660e01b815260040161291193929190613667565b600060405180830381600087803b15801561292b57600080fd5b505af115801561293f573d6000803e3d6000fd5b50505050505050505050508080600101915050612756565b50505050565b60008084116129a1576040517f08c379a00000000000000000000000000000000000000000000000000000000081526004016129989061399a565b60405180910390fd5b6000831180156129b15750600082115b6129f0576040517f08c379a00000000000000000000000000000000000000000000000000000000081526004016129e79061404b565b60405180910390fd5b60006103e88585612a01919061406b565b612a0b919061406b565b905060006103e68685612a1e9190613852565b612a28919061406b565b905060018183612a3891906140dc565b612a429190613c0a565b925050509392505050565b6000808273ffffffffffffffffffffffffffffffffffffffff168473ffffffffffffffffffffffffffffffffffffffff1603612abe576040517f08c379a0000000000000000000000000000000000000000000000000000000008152600401612ab590614159565b60405180910390fd5b8273ffffffffffffffffffffffffffffffffffffffff168473ffffffffffffffffffffffffffffffffffffffff1610612af8578284612afb565b83835b8092508193505050600073ffffffffffffffffffffffffffffffffffffffff168273ffffffffffffffffffffffffffffffffffffffff1603612b72576040517f08c379a0000000000000000000000000000000000000000000000000000000008152600401612b69906141c5565b60405180910390fd5b9250929050565b6000808411612bbd576040517f08c379a0000000000000000000000000000000000000000000000000000000008152600401612bb490614231565b60405180910390fd5b600083118015612bcd5750600082115b612c0c576040517f08c379a0000000000000000000000000000000000000000000000000000000008152600401612c039061404b565b60405180910390fd5b60006103e685612c1c919061406b565b905060008382612c2c919061406b565b90506000826103e887612c3f919061406b565b612c499190613c0a565b90508082612c5791906140dc565b93505050509392505050565b60008060008073ffffffffffffffffffffffffffffffffffffffff167f000000000000000000000000000000000000000000000000000000000000000073ffffffffffffffffffffffffffffffffffffffff1663e6a439058b8b6040518363ffffffff1660e01b8152600401612cda929190614251565b602060405180830381865afa158015612cf7573d6000803e3d6000fd5b505050506040513d601f19601f82011682018060405250810190612d1b919061428f565b73ffffffffffffffffffffffffffffffffffffffff1603612dd6577f000000000000000000000000000000000000000000000000000000000000000073ffffffffffffffffffffffffffffffffffffffff1663c9c653968a8a6040518363ffffffff1660e01b8152600401612d91929190614251565b6020604051808303816000875af1158015612db0573d6000803e3d6000fd5b505050506040513d601f19601f82011682018060405250810190612dd4919061428f565b505b600080612de38b8b611ac4565b809550819350829450505050600082148015612dff5750600081145b15612e135788888095508196505050612eec565b6000612e208a8484612efa565b9050888111612e7b5786811015612e6c576040517f08c379a0000000000000000000000000000000000000000000000000000000008152600401612e6390614308565b60405180910390fd5b89818096508197505050612eea565b6000612e888a8486612efa565b90508a811115612e9b57612e9a612fad565b5b88811015612ede576040517f08c379a0000000000000000000000000000000000000000000000000000000008152600401612ed590614374565b60405180910390fd5b808a8097508198505050505b505b505096509650969350505050565b6000808411612f3e576040517f08c379a0000000000000000000000000000000000000000000000000000000008152600401612f35906143e0565b60405180910390fd5b600083118015612f4e5750600082115b612f8d576040517f08c379a0000000000000000000000000000000000000000000000000000000008152600401612f849061404b565b60405180910390fd5b828285612f9a919061406b565b612fa491906140dc565b90509392505050565b7f4e487b7100000000000000000000000000000000000000000000000000000000600052600160045260246000fd5b6000604051905090565b600080fd5b600080fd5b600073ffffffffffffffffffffffffffffffffffffffff82169050919050565b600061301b82612ff0565b9050919050565b61302b81613010565b811461303657600080fd5b50565b60008135905061304881613022565b92915050565b6000819050919050565b6130618161304e565b811461306c57600080fd5b50565b60008135905061307e81613058565b92915050565b60008060008060008060c087890312156130a1576130a0612fe6565b5b60006130af89828a01613039565b96505060206130c089828a0161306f565b95505060406130d189828a0161306f565b94505060606130e289828a0161306f565b93505060806130f389828a01613039565b92505060a061310489828a0161306f565b9150509295509295509295565b61311a8161304e565b82525050565b60006040820190506131356000830185613111565b6131426020830184613111565b9392505050565b600080fd5b600080fd5b600080fd5b60008083601f84011261316e5761316d613149565b5b8235905067ffffffffffffffff81111561318b5761318a61314e565b5b6020830191508360208202830111156131a7576131a6613153565b5b9250929050565b60008060008060008060a087890312156131cb576131ca612fe6565b5b60006131d989828a0161306f565b96505060206131ea89828a0161306f565b955050604087013567ffffffffffffffff81111561320b5761320a612feb565b5b61321789828a01613158565b9450945050606061322a89828a01613039565b925050608061323b89828a0161306f565b9150509295509295509295565b600081519050919050565b600082825260208201905092915050565b6000819050602082019050919050565b61327d8161304e565b82525050565b600061328f8383613274565b60208301905092915050565b6000602082019050919050565b60006132b382613248565b6132bd8185613253565b93506132c883613264565b8060005b838110156132f95781516132e08882613283565b97506132eb8361329b565b9250506001810190506132cc565b5085935050505092915050565b6000602082019050818103600083015261332081846132a8565b905092915050565b6000601f19601f8301169050919050565b7f4e487b7100000000000000000000000000000000000000000000000000000000600052604160045260246000fd5b61337182613328565b810181811067ffffffffffffffff821117156133905761338f613339565b5b80604052505050565b60006133a3612fdc565b90506133af8282613368565b919050565b600067ffffffffffffffff8211156133cf576133ce613339565b5b602082029050602081019050919050565b60006133f36133ee846133b4565b613399565b9050808382526020820190506020840283018581111561341657613415613153565b5b835b8181101561343f578061342b8882613039565b845260208401935050602081019050613418565b5050509392505050565b600082601f83011261345e5761345d613149565b5b813561346e8482602086016133e0565b91505092915050565b6000806040838503121561348e5761348d612fe6565b5b600061349c8582860161306f565b925050602083013567ffffffffffffffff8111156134bd576134bc612feb565b5b6134c985828601613449565b9150509250929050565b6000806000806000608086880312156134ef576134ee612fe6565b5b60006134fd8882890161306f565b955050602086013567ffffffffffffffff81111561351e5761351d612feb565b5b61352a88828901613158565b9450945050604061353d88828901613039565b925050606061354e8882890161306f565b9150509295509295909350565b61356481613010565b82525050565b600060208201905061357f600083018461355b565b92915050565b600080600080600080600060e0888a0312156135a4576135a3612fe6565b5b60006135b28a828b01613039565b97505060206135c38a828b01613039565b96505060406135d48a828b0161306f565b95505060606135e58a828b0161306f565b94505060806135f68a828b0161306f565b93505060a06136078a828b01613039565b92505060c06136188a828b0161306f565b91505092959891949750929550565b6000806040838503121561363e5761363d612fe6565b5b600061364c85828601613039565b925050602061365d85828601613039565b9150509250929050565b600060608201905061367c6000830186613111565b6136896020830185613111565b613696604083018461355b565b949350505050565b600080600080600080600080610100898b0312156136bf576136be612fe6565b5b60006136cd8b828c01613039565b98505060206136de8b828c01613039565b97505060406136ef8b828c0161306f565b96505060606137008b828c0161306f565b95505060806137118b828c0161306f565b94505060a06137228b828c0161306f565b93505060c06137338b828c01613039565b92505060e06137448b828c0161306f565b9150509295985092959890939650565b60006060820190506137696000830186613111565b6137766020830185613111565b6137836040830184613111565b949350505050565b600082825260208201905092915050565b7f4558504952454400000000000000000000000000000000000000000000000000600082015250565b60006137d260078361378b565b91506137dd8261379c565b602082019050919050565b60006020820190508181036000830152613801816137c5565b9050919050565b600060208201905061381d6000830184613111565b92915050565b7f4e487b7100000000000000000000000000000000000000000000000000000000600052601160045260246000fd5b600061385d8261304e565b91506138688361304e565b92508282039050818111156138805761387f613823565b5b92915050565b7f4e487b7100000000000000000000000000000000000000000000000000000000600052603260045260246000fd5b6000602082840312156138cb576138ca612fe6565b5b60006138d984828501613039565b91505092915050565b7f494e56414c49445f504154480000000000000000000000000000000000000000600082015250565b6000613918600c8361378b565b9150613923826138e2565b602082019050919050565b600060208201905081810360008301526139478161390b565b9050919050565b7f494e53554646494349454e545f4f55545055545f414d4f554e54000000000000600082015250565b6000613984601a8361378b565b915061398f8261394e565b602082019050919050565b600060208201905081810360008301526139b381613977565b9050919050565b60006139c58261304e565b9150600082036139d8576139d7613823565b5b600182039050919050565b7f4558434553534956455f494e5055545f414d4f554e5400000000000000000000600082015250565b6000613a1960168361378b565b9150613a24826139e3565b602082019050919050565b60006020820190508181036000830152613a4881613a0c565b9050919050565b6000604082019050613a64600083018561355b565b613a716020830184613111565b9392505050565b60008115159050919050565b613a8d81613a78565b8114613a9857600080fd5b50565b600081519050613aaa81613a84565b92915050565b600060208284031215613ac657613ac5612fe6565b5b6000613ad484828501613a9b565b91505092915050565b600081519050613aec81613058565b92915050565b60008060408385031215613b0957613b08612fe6565b5b6000613b1785828601613add565b9250506020613b2885828601613add565b9150509250929050565b7f494e53554646494349454e545f415f414d4f554e540000000000000000000000600082015250565b6000613b6860158361378b565b9150613b7382613b32565b602082019050919050565b60006020820190508181036000830152613b9781613b5b565b9050919050565b7f494e53554646494349454e545f425f414d4f554e540000000000000000000000600082015250565b6000613bd460158361378b565b9150613bdf82613b9e565b602082019050919050565b60006020820190508181036000830152613c0381613bc7565b9050919050565b6000613c158261304e565b9150613c208361304e565b9250828201905080821115613c3857613c37613823565b5b92915050565b600080600060608486031215613c5757613c56612fe6565b5b6000613c6586828701613add565b9350506020613c7686828701613add565b9250506040613c8786828701613add565b9150509250925092565b600060208284031215613ca757613ca6612fe6565b5b6000613cb584828501613add565b91505092915050565b600081519050919050565b600081905092915050565b60005b83811015613cf2578082015181840152602081019050613cd7565b60008484015250505050565b6000613d0982613cbe565b613d138185613cc9565b9350613d23818560208601613cd4565b80840191505092915050565b6000613d3b8284613cfe565b915081905092915050565b7f5472616e7366657248656c7065723a205452414e534645525f4641494c454400600082015250565b6000613d7c601f8361378b565b9150613d8782613d46565b602082019050919050565b60006020820190508181036000830152613dab81613d6f565b9050919050565b7f4554485f5452414e534645525f4641494c454400000000000000000000000000600082015250565b6000613de860138361378b565b9150613df382613db2565b602082019050919050565b60006020820190508181036000830152613e1781613ddb565b9050919050565b60008160601b9050919050565b6000613e3682613e1e565b9050919050565b6000613e4882613e2b565b9050919050565b613e60613e5b82613010565b613e3d565b82525050565b6000613e728285613e4f565b601482019150613e828284613e4f565b6014820191508190509392505050565b600081905092915050565b7fff00000000000000000000000000000000000000000000000000000000000000600082015250565b6000613ed3600183613e92565b9150613ede82613e9d565b600182019050919050565b6000819050919050565b6000819050919050565b613f0e613f0982613ee9565b613ef3565b82525050565b6000613f1f82613ec6565b9150613f2b8286613e4f565b601482019150613f3b8285613efd565b602082019150613f4b8284613efd565b602082019150819050949350505050565b6000606082019050613f71600083018661355b565b613f7e602083018561355b565b613f8b6040830184613111565b949350505050565b7f5452414e534645525f46524f4d5f4641494c4544000000000000000000000000600082015250565b6000613fc960148361378b565b9150613fd482613f93565b602082019050919050565b60006020820190508181036000830152613ff881613fbc565b9050919050565b7f494e53554646494349454e545f4c495155494449545900000000000000000000600082015250565b600061403560168361378b565b915061404082613fff565b602082019050919050565b6000602082019050818103600083015261406481614028565b9050919050565b60006140768261304e565b91506140818361304e565b925082820261408f8161304e565b915082820484148315176140a6576140a5613823565b5b5092915050565b7f4e487b7100000000000000000000000000000000000000000000000000000000600052601260045260246000fd5b60006140e78261304e565b91506140f28361304e565b925082614102576141016140ad565b5b828204905092915050565b7f4944454e544943414c5f4144445245535345535f4e4f545f414c4c4f57454400600082015250565b6000614143601f8361378b565b915061414e8261410d565b602082019050919050565b6000602082019050818103600083015261417281614136565b9050919050565b7f5a45524f5f414444524553535f4e4f545f414c4c4f5745440000000000000000600082015250565b60006141af60188361378b565b91506141ba82614179565b602082019050919050565b600060208201905081810360008301526141de816141a2565b9050919050565b7f494e53554646494349454e545f494e5055545f414d4f554e5400000000000000600082015250565b600061421b60198361378b565b9150614226826141e5565b602082019050919050565b6000602082019050818103600083015261424a8161420e565b9050919050565b6000604082019050614266600083018561355b565b614273602083018461355b565b9392505050565b60008151905061428981613022565b92915050565b6000602082840312156142a5576142a4612fe6565b5b60006142b38482850161427a565b91505092915050565b7f494e53554646494349454e545f746f6b656e425f414d4f554e54000000000000600082015250565b60006142f2601a8361378b565b91506142fd826142bc565b602082019050919050565b60006020820190508181036000830152614321816142e5565b9050919050565b7f494e53554646494349454e545f746f6b656e415f414d4f554e54000000000000600082015250565b600061435e601a8361378b565b915061436982614328565b602082019050919050565b6000602082019050818103600083015261438d81614351565b9050919050565b7f494e53554646494349454e545f414d4f554e5400000000000000000000000000600082015250565b60006143ca60138361378b565b91506143d582614394565b602082019050919050565b600060208201905081810360008301526143f9816143bd565b905091905056fea26469706673582212207a11e16e5b7eeaf5c58c03c8a4de4f74ce36db30cc8653143e1f5a2ea1ba063a64736f6c634300081c0033","opcodes":"PUSH1 0xC0 PUSH1 0x40 MSTORE CALLVALUE DUP1 ISZERO PUSH2 0x10 JUMPI PUSH1 0x0 DUP1 REVERT JUMPDEST POP PUSH1 0x40 MLOAD PUSH2 0x473C CODESIZE SUB DUP1 PUSH2 0x473C DUP4 CODECOPY DUP2 DUP2 ADD PUSH1 0x40 MSTORE DUP2 ADD SWAP1 PUSH2 0x32 SWAP2 SWAP1 PUSH2 0x17B JUMP JUMPDEST DUP2 PUSH20 0xFFFFFFFFFFFFFFFFFFFFFFFFFFFFFFFFFFFFFFFF AND PUSH1 0x80 DUP2 PUSH20 0xFFFFFFFFFFFFFFFFFFFFFFFFFFFFFFFFFFFFFFFF AND DUP2 MSTORE POP POP DUP1 PUSH20 0xFFFFFFFFFFFFFFFFFFFFFFFFFFFFFFFFFFFFFFFF AND PUSH1 0xA0 DUP2 PUSH20 0xFFFFFFFFFFFFFFFFFFFFFFFFFFFFFFFFFFFFFFFF AND DUP2 MSTORE POP POP PUSH1 0x80 MLOAD PUSH20 0xFFFFFFFFFFFFFFFFFFFFFFFFFFFFFFFFFFFFFFFF AND PUSH4 0x5855A25A PUSH1 0x40 MLOAD DUP2 PUSH4 0xFFFFFFFF AND PUSH1 0xE0 SHL DUP2 MSTORE PUSH1 0x4 ADD PUSH1 0x20 PUSH1 0x40 MLOAD DUP1 DUP4 SUB DUP2 DUP7 GAS STATICCALL ISZERO DUP1 ISZERO PUSH2 0xE7 JUMPI RETURNDATASIZE PUSH1 0x0 DUP1 RETURNDATACOPY RETURNDATASIZE PUSH1 0x0 REVERT JUMPDEST POP POP POP POP PUSH1 0x40 MLOAD RETURNDATASIZE PUSH1 0x1F NOT PUSH1 0x1F DUP3 ADD AND DUP3 ADD DUP1 PUSH1 0x40 MSTORE POP DUP2 ADD SWAP1 PUSH2 0x10B SWAP2 SWAP1 PUSH2 0x1F1 JUMP JUMPDEST PUSH1 0x0 DUP2 SWAP1 SSTORE POP POP POP PUSH2 0x21E JUMP JUMPDEST PUSH1 0x0 DUP1 REVERT JUMPDEST PUSH1 0x0 PUSH20 0xFFFFFFFFFFFFFFFFFFFFFFFFFFFFFFFFFFFFFFFF DUP3 AND SWAP1 POP SWAP2 SWAP1 POP JUMP JUMPDEST PUSH1 0x0 PUSH2 0x148 DUP3 PUSH2 0x11D JUMP JUMPDEST SWAP1 POP SWAP2 SWAP1 POP JUMP JUMPDEST PUSH2 0x158 DUP2 PUSH2 0x13D JUMP JUMPDEST DUP2 EQ PUSH2 0x163 JUMPI PUSH1 0x0 DUP1 REVERT JUMPDEST POP JUMP JUMPDEST PUSH1 0x0 DUP2 MLOAD SWAP1 POP PUSH2 0x175 DUP2 PUSH2 0x14F JUMP JUMPDEST SWAP3 SWAP2 POP POP JUMP JUMPDEST PUSH1 0x0 DUP1 PUSH1 0x40 DUP4 DUP6 SUB SLT ISZERO PUSH2 0x192 JUMPI PUSH2 0x191 PUSH2 0x118 JUMP JUMPDEST JUMPDEST PUSH1 0x0 PUSH2 0x1A0 DUP6 DUP3 DUP7 ADD PUSH2 0x166 JUMP JUMPDEST SWAP3 POP POP PUSH1 0x20 PUSH2 0x1B1 DUP6 DUP3 DUP7 ADD PUSH2 0x166 JUMP JUMPDEST SWAP2 POP POP SWAP3 POP SWAP3 SWAP1 POP JUMP JUMPDEST PUSH1 0x0 DUP2 SWAP1 POP SWAP2 SWAP1 POP JUMP JUMPDEST PUSH2 0x1CE DUP2 PUSH2 0x1BB JUMP JUMPDEST DUP2 EQ PUSH2 0x1D9 JUMPI PUSH1 0x0 DUP1 REVERT JUMPDEST POP JUMP JUMPDEST PUSH1 0x0 DUP2 MLOAD SWAP1 POP PUSH2 0x1EB DUP2 PUSH2 0x1C5 JUMP JUMPDEST SWAP3 SWAP2 POP POP JUMP JUMPDEST PUSH1 0x0 PUSH1 0x20 DUP3 DUP5 SUB SLT ISZERO PUSH2 0x207 JUMPI PUSH2 0x206 PUSH2 0x118 JUMP JUMPDEST JUMPDEST PUSH1 0x0 PUSH2 0x215 DUP5 DUP3 DUP6 ADD PUSH2 0x1DC JUMP JUMPDEST SWAP2 POP POP SWAP3 SWAP2 POP POP JUMP JUMPDEST PUSH1 0x80 MLOAD PUSH1 0xA0 MLOAD PUSH2 0x4436 PUSH2 0x306 PUSH1 0x0 CODECOPY PUSH1 0x0 DUP2 DUP2 PUSH1 0xF3 ADD MSTORE DUP2 DUP2 PUSH2 0x4F1 ADD MSTORE DUP2 DUP2 PUSH2 0x52F ADD MSTORE DUP2 DUP2 PUSH2 0x616 ADD MSTORE DUP2 DUP2 PUSH2 0x8A9 ADD MSTORE DUP2 DUP2 PUSH2 0xD97 ADD MSTORE DUP2 DUP2 PUSH2 0x101E ADD MSTORE DUP2 DUP2 PUSH2 0x1152 ADD MSTORE DUP2 DUP2 PUSH2 0x12BF ADD MSTORE DUP2 DUP2 PUSH2 0x135B ADD MSTORE DUP2 DUP2 PUSH2 0x1708 ADD MSTORE DUP2 DUP2 PUSH2 0x1D29 ADD MSTORE DUP2 DUP2 PUSH2 0x1D6B ADD MSTORE DUP2 DUP2 PUSH2 0x1DEC ADD MSTORE DUP2 DUP2 PUSH2 0x1F87 ADD MSTORE DUP2 DUP2 PUSH2 0x20E8 ADD MSTORE PUSH2 0x2184 ADD MSTORE PUSH1 0x0 DUP2 DUP2 PUSH2 0x7C1 ADD MSTORE DUP2 DUP2 PUSH2 0xC5E ADD MSTORE DUP2 DUP2 PUSH2 0xF36 ADD MSTORE DUP2 DUP2 PUSH2 0x139A ADD MSTORE DUP2 DUP2 PUSH2 0x1615 ADD MSTORE DUP2 DUP2 PUSH2 0x1778 ADD MSTORE DUP2 DUP2 PUSH2 0x191E ADD MSTORE DUP2 DUP2 PUSH2 0x1ADC ADD MSTORE DUP2 DUP2 PUSH2 0x21C3 ADD MSTORE DUP2 DUP2 PUSH2 0x2855 ADD MSTORE DUP2 DUP2 PUSH2 0x28AC ADD MSTORE DUP2 DUP2 PUSH2 0x2C81 ADD MSTORE PUSH2 0x2D38 ADD MSTORE PUSH2 0x4436 PUSH1 0x0 RETURN INVALID PUSH1 0x80 PUSH1 0x40 MSTORE PUSH1 0x4 CALLDATASIZE LT PUSH2 0xEC JUMPI PUSH1 0x0 CALLDATALOAD PUSH1 0xE0 SHR DUP1 PUSH4 0xAD5C4648 GT PUSH2 0x8A JUMPI DUP1 PUSH4 0xD52BB6F4 GT PUSH2 0x59 JUMPI DUP1 PUSH4 0xD52BB6F4 EQ PUSH2 0x3C4 JUMPI DUP1 PUSH4 0xE8E33700 EQ PUSH2 0x403 JUMPI DUP1 PUSH4 0xF305D719 EQ PUSH2 0x442 JUMPI DUP1 PUSH4 0xFB3BDB41 EQ PUSH2 0x474 JUMPI PUSH2 0x14F JUMP JUMPDEST DUP1 PUSH4 0xAD5C4648 EQ PUSH2 0x2F3 JUMPI DUP1 PUSH4 0xBAA2ABDE EQ PUSH2 0x31E JUMPI DUP1 PUSH4 0xC45A0155 EQ PUSH2 0x35C JUMPI DUP1 PUSH4 0xD06CA61F EQ PUSH2 0x387 JUMPI PUSH2 0x14F JUMP JUMPDEST DUP1 PUSH4 0x38ED1739 GT PUSH2 0xC6 JUMPI DUP1 PUSH4 0x38ED1739 EQ PUSH2 0x20C JUMPI DUP1 PUSH4 0x4A25D94A EQ PUSH2 0x249 JUMPI DUP1 PUSH4 0x7FF36AB5 EQ PUSH2 0x286 JUMPI DUP1 PUSH4 0x8803DBEE EQ PUSH2 0x2B6 JUMPI PUSH2 0x14F JUMP JUMPDEST DUP1 PUSH4 0x2751CEC EQ PUSH2 0x154 JUMPI DUP1 PUSH4 0x18CBAFE5 EQ PUSH2 0x192 JUMPI DUP1 PUSH4 0x1F00CA74 EQ PUSH2 0x1CF JUMPI PUSH2 0x14F JUMP JUMPDEST CALLDATASIZE PUSH2 0x14F JUMPI PUSH32 0x0 PUSH20 0xFFFFFFFFFFFFFFFFFFFFFFFFFFFFFFFFFFFFFFFF AND CALLER PUSH20 0xFFFFFFFFFFFFFFFFFFFFFFFFFFFFFFFFFFFFFFFF AND EQ PUSH2 0x14D JUMPI PUSH2 0x14C PUSH2 0x2FAD JUMP JUMPDEST JUMPDEST STOP JUMPDEST PUSH1 0x0 DUP1 REVERT JUMPDEST CALLVALUE DUP1 ISZERO PUSH2 0x160 JUMPI PUSH1 0x0 DUP1 REVERT JUMPDEST POP PUSH2 0x17B PUSH1 0x4 DUP1 CALLDATASIZE SUB DUP2 ADD SWAP1 PUSH2 0x176 SWAP2 SWAP1 PUSH2 0x3084 JUMP JUMPDEST PUSH2 0x4A4 JUMP JUMPDEST PUSH1 0x40 MLOAD PUSH2 0x189 SWAP3 SWAP2 SWAP1 PUSH2 0x3120 JUMP JUMPDEST PUSH1 0x40 MLOAD DUP1 SWAP2 SUB SWAP1 RETURN JUMPDEST CALLVALUE DUP1 ISZERO PUSH2 0x19E JUMPI PUSH1 0x0 DUP1 REVERT JUMPDEST POP PUSH2 0x1B9 PUSH1 0x4 DUP1 CALLDATASIZE SUB DUP2 ADD SWAP1 PUSH2 0x1B4 SWAP2 SWAP1 PUSH2 0x31AE JUMP JUMPDEST PUSH2 0x5CE JUMP JUMPDEST PUSH1 0x40 MLOAD PUSH2 0x1C6 SWAP2 SWAP1 PUSH2 0x3306 JUMP JUMPDEST PUSH1 0x40 MLOAD DUP1 SWAP2 SUB SWAP1 RETURN JUMPDEST CALLVALUE DUP1 ISZERO PUSH2 0x1DB JUMPI PUSH1 0x0 DUP1 REVERT JUMPDEST POP PUSH2 0x1F6 PUSH1 0x4 DUP1 CALLDATASIZE SUB DUP2 ADD SWAP1 PUSH2 0x1F1 SWAP2 SWAP1 PUSH2 0x3477 JUMP JUMPDEST PUSH2 0x995 JUMP JUMPDEST PUSH1 0x40 MLOAD PUSH2 0x203 SWAP2 SWAP1 PUSH2 0x3306 JUMP JUMPDEST PUSH1 0x40 MLOAD DUP1 SWAP2 SUB SWAP1 RETURN JUMPDEST CALLVALUE DUP1 ISZERO PUSH2 0x218 JUMPI PUSH1 0x0 DUP1 REVERT JUMPDEST POP PUSH2 0x233 PUSH1 0x4 DUP1 CALLDATASIZE SUB DUP2 ADD SWAP1 PUSH2 0x22E SWAP2 SWAP1 PUSH2 0x31AE JUMP JUMPDEST PUSH2 0xB2F JUMP JUMPDEST PUSH1 0x40 MLOAD PUSH2 0x240 SWAP2 SWAP1 PUSH2 0x3306 JUMP JUMPDEST PUSH1 0x40 MLOAD DUP1 SWAP2 SUB SWAP1 RETURN JUMPDEST CALLVALUE DUP1 ISZERO PUSH2 0x255 JUMPI PUSH1 0x0 DUP1 REVERT JUMPDEST POP PUSH2 0x270 PUSH1 0x4 DUP1 CALLDATASIZE SUB DUP2 ADD SWAP1 PUSH2 0x26B SWAP2 SWAP1 PUSH2 0x31AE JUMP JUMPDEST PUSH2 0xD4F JUMP JUMPDEST PUSH1 0x40 MLOAD PUSH2 0x27D SWAP2 SWAP1 PUSH2 0x3306 JUMP JUMPDEST PUSH1 0x40 MLOAD DUP1 SWAP2 SUB SWAP1 RETURN JUMPDEST PUSH2 0x2A0 PUSH1 0x4 DUP1 CALLDATASIZE SUB DUP2 ADD SWAP1 PUSH2 0x29B SWAP2 SWAP1 PUSH2 0x34D3 JUMP JUMPDEST PUSH2 0x110A JUMP JUMPDEST PUSH1 0x40 MLOAD PUSH2 0x2AD SWAP2 SWAP1 PUSH2 0x3306 JUMP JUMPDEST PUSH1 0x40 MLOAD DUP1 SWAP2 SUB SWAP1 RETURN JUMPDEST CALLVALUE DUP1 ISZERO PUSH2 0x2C2 JUMPI PUSH1 0x0 DUP1 REVERT JUMPDEST POP PUSH2 0x2DD PUSH1 0x4 DUP1 CALLDATASIZE SUB DUP2 ADD SWAP1 PUSH2 0x2D8 SWAP2 SWAP1 PUSH2 0x31AE JUMP JUMPDEST PUSH2 0x14F2 JUMP JUMPDEST PUSH1 0x40 MLOAD PUSH2 0x2EA SWAP2 SWAP1 PUSH2 0x3306 JUMP JUMPDEST PUSH1 0x40 MLOAD DUP1 SWAP2 SUB SWAP1 RETURN JUMPDEST CALLVALUE DUP1 ISZERO PUSH2 0x2FF JUMPI PUSH1 0x0 DUP1 REVERT JUMPDEST POP PUSH2 0x308 PUSH2 0x1706 JUMP JUMPDEST PUSH1 0x40 MLOAD PUSH2 0x315 SWAP2 SWAP1 PUSH2 0x356A JUMP JUMPDEST PUSH1 0x40 MLOAD DUP1 SWAP2 SUB SWAP1 RETURN JUMPDEST CALLVALUE DUP1 ISZERO PUSH2 0x32A JUMPI PUSH1 0x0 DUP1 REVERT JUMPDEST POP PUSH2 0x345 PUSH1 0x4 DUP1 CALLDATASIZE SUB DUP2 ADD SWAP1 PUSH2 0x340 SWAP2 SWAP1 PUSH2 0x3585 JUMP JUMPDEST PUSH2 0x172A JUMP JUMPDEST PUSH1 0x40 MLOAD PUSH2 0x353 SWAP3 SWAP2 SWAP1 PUSH2 0x3120 JUMP JUMPDEST PUSH1 0x40 MLOAD DUP1 SWAP2 SUB SWAP1 RETURN JUMPDEST CALLVALUE DUP1 ISZERO PUSH2 0x368 JUMPI PUSH1 0x0 DUP1 REVERT JUMPDEST POP PUSH2 0x371 PUSH2 0x191C JUMP JUMPDEST PUSH1 0x40 MLOAD PUSH2 0x37E SWAP2 SWAP1 PUSH2 0x356A JUMP JUMPDEST PUSH1 0x40 MLOAD DUP1 SWAP2 SUB SWAP1 RETURN JUMPDEST CALLVALUE DUP1 ISZERO PUSH2 0x393 JUMPI PUSH1 0x0 DUP1 REVERT JUMPDEST POP PUSH2 0x3AE PUSH1 0x4 DUP1 CALLDATASIZE SUB DUP2 ADD SWAP1 PUSH2 0x3A9 SWAP2 SWAP1 PUSH2 0x3477 JUMP JUMPDEST PUSH2 0x1940 JUMP JUMPDEST PUSH1 0x40 MLOAD PUSH2 0x3BB SWAP2 SWAP1 PUSH2 0x3306 JUMP JUMPDEST PUSH1 0x40 MLOAD DUP1 SWAP2 SUB SWAP1 RETURN JUMPDEST CALLVALUE DUP1 ISZERO PUSH2 0x3D0 JUMPI PUSH1 0x0 DUP1 REVERT JUMPDEST POP PUSH2 0x3EB PUSH1 0x4 DUP1 CALLDATASIZE SUB DUP2 ADD SWAP1 PUSH2 0x3E6 SWAP2 SWAP1 PUSH2 0x3627 JUMP JUMPDEST PUSH2 0x1AC4 JUMP JUMPDEST PUSH1 0x40 MLOAD PUSH2 0x3FA SWAP4 SWAP3 SWAP2 SWAP1 PUSH2 0x3667 JUMP JUMPDEST PUSH1 0x40 MLOAD DUP1 SWAP2 SUB SWAP1 RETURN JUMPDEST CALLVALUE DUP1 ISZERO PUSH2 0x40F JUMPI PUSH1 0x0 DUP1 REVERT JUMPDEST POP PUSH2 0x42A PUSH1 0x4 DUP1 CALLDATASIZE SUB DUP2 ADD SWAP1 PUSH2 0x425 SWAP2 SWAP1 PUSH2 0x369E JUMP JUMPDEST PUSH2 0x1BCD JUMP JUMPDEST PUSH1 0x40 MLOAD PUSH2 0x439 SWAP4 SWAP3 SWAP2 SWAP1 PUSH2 0x3754 JUMP JUMPDEST PUSH1 0x40 MLOAD DUP1 SWAP2 SUB SWAP1 RETURN JUMPDEST PUSH2 0x45C PUSH1 0x4 DUP1 CALLDATASIZE SUB DUP2 ADD SWAP1 PUSH2 0x457 SWAP2 SWAP1 PUSH2 0x3084 JUMP JUMPDEST PUSH2 0x1CD8 JUMP JUMPDEST PUSH1 0x40 MLOAD PUSH2 0x46B SWAP4 SWAP3 SWAP2 SWAP1 PUSH2 0x3754 JUMP JUMPDEST PUSH1 0x40 MLOAD DUP1 SWAP2 SUB SWAP1 RETURN JUMPDEST PUSH2 0x48E PUSH1 0x4 DUP1 CALLDATASIZE SUB DUP2 ADD SWAP1 PUSH2 0x489 SWAP2 SWAP1 PUSH2 0x34D3 JUMP JUMPDEST PUSH2 0x1F3F JUMP JUMPDEST PUSH1 0x40 MLOAD PUSH2 0x49B SWAP2 SWAP1 PUSH2 0x3306 JUMP JUMPDEST PUSH1 0x40 MLOAD DUP1 SWAP2 SUB SWAP1 RETURN JUMPDEST PUSH1 0x0 DUP1 DUP3 TIMESTAMP DUP2 LT ISZERO PUSH2 0x4EB JUMPI PUSH1 0x40 MLOAD PUSH32 0x8C379A000000000000000000000000000000000000000000000000000000000 DUP2 MSTORE PUSH1 0x4 ADD PUSH2 0x4E2 SWAP1 PUSH2 0x37E8 JUMP JUMPDEST PUSH1 0x40 MLOAD DUP1 SWAP2 SUB SWAP1 REVERT JUMPDEST PUSH2 0x51A DUP10 PUSH32 0x0 DUP11 DUP11 DUP11 ADDRESS DUP11 PUSH2 0x172A JUMP JUMPDEST DUP1 SWAP4 POP DUP2 SWAP5 POP POP POP PUSH2 0x52D DUP10 DUP7 DUP6 PUSH2 0x236F JUMP JUMPDEST PUSH32 0x0 PUSH20 0xFFFFFFFFFFFFFFFFFFFFFFFFFFFFFFFFFFFFFFFF AND PUSH4 0x2E1A7D4D DUP4 PUSH1 0x40 MLOAD DUP3 PUSH4 0xFFFFFFFF AND PUSH1 0xE0 SHL DUP2 MSTORE PUSH1 0x4 ADD PUSH2 0x586 SWAP2 SWAP1 PUSH2 0x3808 JUMP JUMPDEST PUSH1 0x0 PUSH1 0x40 MLOAD DUP1 DUP4 SUB DUP2 PUSH1 0x0 DUP8 DUP1 EXTCODESIZE ISZERO DUP1 ISZERO PUSH2 0x5A0 JUMPI PUSH1 0x0 DUP1 REVERT JUMPDEST POP GAS CALL ISZERO DUP1 ISZERO PUSH2 0x5B4 JUMPI RETURNDATASIZE PUSH1 0x0 DUP1 RETURNDATACOPY RETURNDATASIZE PUSH1 0x0 REVERT JUMPDEST POP POP POP POP PUSH2 0x5C2 DUP6 DUP4 PUSH2 0x24A5 JUMP JUMPDEST POP SWAP7 POP SWAP7 SWAP5 POP POP POP POP POP JUMP JUMPDEST PUSH1 0x60 DUP2 TIMESTAMP DUP2 LT ISZERO PUSH2 0x614 JUMPI PUSH1 0x40 MLOAD PUSH32 0x8C379A000000000000000000000000000000000000000000000000000000000 DUP2 MSTORE PUSH1 0x4 ADD PUSH2 0x60B SWAP1 PUSH2 0x37E8 JUMP JUMPDEST PUSH1 0x40 MLOAD DUP1 SWAP2 SUB SWAP1 REVERT JUMPDEST PUSH32 0x0 PUSH20 0xFFFFFFFFFFFFFFFFFFFFFFFFFFFFFFFFFFFFFFFF AND DUP7 DUP7 PUSH1 0x1 DUP10 DUP10 SWAP1 POP PUSH2 0x65D SWAP2 SWAP1 PUSH2 0x3852 JUMP JUMPDEST DUP2 DUP2 LT PUSH2 0x66D JUMPI PUSH2 0x66C PUSH2 0x3886 JUMP JUMPDEST JUMPDEST SWAP1 POP PUSH1 0x20 MUL ADD PUSH1 0x20 DUP2 ADD SWAP1 PUSH2 0x682 SWAP2 SWAP1 PUSH2 0x38B5 JUMP JUMPDEST PUSH20 0xFFFFFFFFFFFFFFFFFFFFFFFFFFFFFFFFFFFFFFFF AND EQ PUSH2 0x6D8 JUMPI PUSH1 0x40 MLOAD PUSH32 0x8C379A000000000000000000000000000000000000000000000000000000000 DUP2 MSTORE PUSH1 0x4 ADD PUSH2 0x6CF SWAP1 PUSH2 0x392E JUMP JUMPDEST PUSH1 0x40 MLOAD DUP1 SWAP2 SUB SWAP1 REVERT JUMPDEST PUSH2 0x723 DUP9 DUP8 DUP8 DUP1 DUP1 PUSH1 0x20 MUL PUSH1 0x20 ADD PUSH1 0x40 MLOAD SWAP1 DUP2 ADD PUSH1 0x40 MSTORE DUP1 SWAP4 SWAP3 SWAP2 SWAP1 DUP2 DUP2 MSTORE PUSH1 0x20 ADD DUP4 DUP4 PUSH1 0x20 MUL DUP1 DUP3 DUP5 CALLDATACOPY PUSH1 0x0 DUP2 DUP5 ADD MSTORE PUSH1 0x1F NOT PUSH1 0x1F DUP3 ADD AND SWAP1 POP DUP1 DUP4 ADD SWAP3 POP POP POP POP POP POP POP PUSH2 0x1940 JUMP JUMPDEST SWAP2 POP DUP7 DUP3 PUSH1 0x1 DUP5 MLOAD PUSH2 0x735 SWAP2 SWAP1 PUSH2 0x3852 JUMP JUMPDEST DUP2 MLOAD DUP2 LT PUSH2 0x746 JUMPI PUSH2 0x745 PUSH2 0x3886 JUMP JUMPDEST JUMPDEST PUSH1 0x20 MUL PUSH1 0x20 ADD ADD MLOAD LT ISZERO PUSH2 0x78F JUMPI PUSH1 0x40 MLOAD PUSH32 0x8C379A000000000000000000000000000000000000000000000000000000000 DUP2 MSTORE PUSH1 0x4 ADD PUSH2 0x786 SWAP1 PUSH2 0x399A JUMP JUMPDEST PUSH1 0x40 MLOAD DUP1 SWAP2 SUB SWAP1 REVERT JUMPDEST PUSH2 0x85B DUP7 DUP7 PUSH1 0x0 DUP2 DUP2 LT PUSH2 0x7A6 JUMPI PUSH2 0x7A5 PUSH2 0x3886 JUMP JUMPDEST JUMPDEST SWAP1 POP PUSH1 0x20 MUL ADD PUSH1 0x20 DUP2 ADD SWAP1 PUSH2 0x7BB SWAP2 SWAP1 PUSH2 0x38B5 JUMP JUMPDEST CALLER PUSH2 0x83A PUSH32 0x0 DUP11 DUP11 PUSH1 0x0 DUP2 DUP2 LT PUSH2 0x7F4 JUMPI PUSH2 0x7F3 PUSH2 0x3886 JUMP JUMPDEST JUMPDEST SWAP1 POP PUSH1 0x20 MUL ADD PUSH1 0x20 DUP2 ADD SWAP1 PUSH2 0x809 SWAP2 SWAP1 PUSH2 0x38B5 JUMP JUMPDEST DUP12 DUP12 PUSH1 0x1 DUP2 DUP2 LT PUSH2 0x81D JUMPI PUSH2 0x81C PUSH2 0x3886 JUMP JUMPDEST JUMPDEST SWAP1 POP PUSH1 0x20 MUL ADD PUSH1 0x20 DUP2 ADD SWAP1 PUSH2 0x832 SWAP2 SWAP1 PUSH2 0x38B5 JUMP JUMPDEST PUSH1 0x0 SLOAD PUSH2 0x25A5 JUMP JUMPDEST DUP6 PUSH1 0x0 DUP2 MLOAD DUP2 LT PUSH2 0x84E JUMPI PUSH2 0x84D PUSH2 0x3886 JUMP JUMPDEST JUMPDEST PUSH1 0x20 MUL PUSH1 0x20 ADD ADD MLOAD PUSH2 0x261A JUMP JUMPDEST PUSH2 0x8A7 DUP3 DUP8 DUP8 DUP1 DUP1 PUSH1 0x20 MUL PUSH1 0x20 ADD PUSH1 0x40 MLOAD SWAP1 DUP2 ADD PUSH1 0x40 MSTORE DUP1 SWAP4 SWAP3 SWAP2 SWAP1 DUP2 DUP2 MSTORE PUSH1 0x20 ADD DUP4 DUP4 PUSH1 0x20 MUL DUP1 DUP3 DUP5 CALLDATACOPY PUSH1 0x0 DUP2 DUP5 ADD MSTORE PUSH1 0x1F NOT PUSH1 0x1F DUP3 ADD AND SWAP1 POP DUP1 DUP4 ADD SWAP3 POP POP POP POP POP POP POP ADDRESS PUSH2 0x2753 JUMP JUMPDEST PUSH32 0x0 PUSH20 0xFFFFFFFFFFFFFFFFFFFFFFFFFFFFFFFFFFFFFFFF AND PUSH4 0x2E1A7D4D DUP4 PUSH1 0x1 DUP6 MLOAD PUSH2 0x8F2 SWAP2 SWAP1 PUSH2 0x3852 JUMP JUMPDEST DUP2 MLOAD DUP2 LT PUSH2 0x903 JUMPI PUSH2 0x902 PUSH2 0x3886 JUMP JUMPDEST JUMPDEST PUSH1 0x20 MUL PUSH1 0x20 ADD ADD MLOAD PUSH1 0x40 MLOAD DUP3 PUSH4 0xFFFFFFFF AND PUSH1 0xE0 SHL DUP2 MSTORE PUSH1 0x4 ADD PUSH2 0x927 SWAP2 SWAP1 PUSH2 0x3808 JUMP JUMPDEST PUSH1 0x0 PUSH1 0x40 MLOAD DUP1 DUP4 SUB DUP2 PUSH1 0x0 DUP8 DUP1 EXTCODESIZE ISZERO DUP1 ISZERO PUSH2 0x941 JUMPI PUSH1 0x0 DUP1 REVERT JUMPDEST POP GAS CALL ISZERO DUP1 ISZERO PUSH2 0x955 JUMPI RETURNDATASIZE PUSH1 0x0 DUP1 RETURNDATACOPY RETURNDATASIZE PUSH1 0x0 REVERT JUMPDEST POP POP POP POP PUSH2 0x98A DUP5 DUP4 PUSH1 0x1 DUP6 MLOAD PUSH2 0x96C SWAP2 SWAP1 PUSH2 0x3852 JUMP JUMPDEST DUP2 MLOAD DUP2 LT PUSH2 0x97D JUMPI PUSH2 0x97C PUSH2 0x3886 JUMP JUMPDEST JUMPDEST PUSH1 0x20 MUL PUSH1 0x20 ADD ADD MLOAD PUSH2 0x24A5 JUMP JUMPDEST POP SWAP7 SWAP6 POP POP POP POP POP POP JUMP JUMPDEST PUSH1 0x60 PUSH1 0x2 DUP3 MLOAD LT ISZERO PUSH2 0x9DC JUMPI PUSH1 0x40 MLOAD PUSH32 0x8C379A000000000000000000000000000000000000000000000000000000000 DUP2 MSTORE PUSH1 0x4 ADD PUSH2 0x9D3 SWAP1 PUSH2 0x392E JUMP JUMPDEST PUSH1 0x40 MLOAD DUP1 SWAP2 SUB SWAP1 REVERT JUMPDEST DUP2 MLOAD PUSH8 0xFFFFFFFFFFFFFFFF DUP2 GT ISZERO PUSH2 0x9F7 JUMPI PUSH2 0x9F6 PUSH2 0x3339 JUMP JUMPDEST JUMPDEST PUSH1 0x40 MLOAD SWAP1 DUP1 DUP3 MSTORE DUP1 PUSH1 0x20 MUL PUSH1 0x20 ADD DUP3 ADD PUSH1 0x40 MSTORE DUP1 ISZERO PUSH2 0xA25 JUMPI DUP2 PUSH1 0x20 ADD PUSH1 0x20 DUP3 MUL DUP1 CALLDATASIZE DUP4 CALLDATACOPY DUP1 DUP3 ADD SWAP2 POP POP SWAP1 POP JUMPDEST POP SWAP1 POP DUP3 DUP2 PUSH1 0x1 DUP4 MLOAD PUSH2 0xA38 SWAP2 SWAP1 PUSH2 0x3852 JUMP JUMPDEST DUP2 MLOAD DUP2 LT PUSH2 0xA49 JUMPI PUSH2 0xA48 PUSH2 0x3886 JUMP JUMPDEST JUMPDEST PUSH1 0x20 MUL PUSH1 0x20 ADD ADD DUP2 DUP2 MSTORE POP POP PUSH1 0x0 PUSH1 0x1 DUP4 MLOAD PUSH2 0xA65 SWAP2 SWAP1 PUSH2 0x3852 JUMP JUMPDEST SWAP1 POP JUMPDEST PUSH1 0x0 DUP2 GT ISZERO PUSH2 0xB28 JUMPI PUSH1 0x0 DUP1 PUSH2 0xABE DUP6 PUSH1 0x1 DUP6 PUSH2 0xA85 SWAP2 SWAP1 PUSH2 0x3852 JUMP JUMPDEST DUP2 MLOAD DUP2 LT PUSH2 0xA96 JUMPI PUSH2 0xA95 PUSH2 0x3886 JUMP JUMPDEST JUMPDEST PUSH1 0x20 MUL PUSH1 0x20 ADD ADD MLOAD DUP7 DUP6 DUP2 MLOAD DUP2 LT PUSH2 0xAB1 JUMPI PUSH2 0xAB0 PUSH2 0x3886 JUMP JUMPDEST JUMPDEST PUSH1 0x20 MUL PUSH1 0x20 ADD ADD MLOAD PUSH2 0x1AC4 JUMP JUMPDEST POP SWAP2 POP SWAP2 POP PUSH2 0xAE8 DUP5 DUP5 DUP2 MLOAD DUP2 LT PUSH2 0xAD9 JUMPI PUSH2 0xAD8 PUSH2 0x3886 JUMP JUMPDEST JUMPDEST PUSH1 0x20 MUL PUSH1 0x20 ADD ADD MLOAD DUP4 DUP4 PUSH2 0x295D JUMP JUMPDEST DUP5 PUSH1 0x1 DUP6 PUSH2 0xAF6 SWAP2 SWAP1 PUSH2 0x3852 JUMP JUMPDEST DUP2 MLOAD DUP2 LT PUSH2 0xB07 JUMPI PUSH2 0xB06 PUSH2 0x3886 JUMP JUMPDEST JUMPDEST PUSH1 0x20 MUL PUSH1 0x20 ADD ADD DUP2 DUP2 MSTORE POP POP POP POP DUP1 DUP1 PUSH2 0xB20 SWAP1 PUSH2 0x39BA JUMP JUMPDEST SWAP2 POP POP PUSH2 0xA68 JUMP JUMPDEST POP SWAP3 SWAP2 POP POP JUMP JUMPDEST PUSH1 0x60 DUP2 TIMESTAMP DUP2 LT ISZERO PUSH2 0xB75 JUMPI PUSH1 0x40 MLOAD PUSH32 0x8C379A000000000000000000000000000000000000000000000000000000000 DUP2 MSTORE PUSH1 0x4 ADD PUSH2 0xB6C SWAP1 PUSH2 0x37E8 JUMP JUMPDEST PUSH1 0x40 MLOAD DUP1 SWAP2 SUB SWAP1 REVERT JUMPDEST PUSH2 0xBC0 DUP9 DUP8 DUP8 DUP1 DUP1 PUSH1 0x20 MUL PUSH1 0x20 ADD PUSH1 0x40 MLOAD SWAP1 DUP2 ADD PUSH1 0x40 MSTORE DUP1 SWAP4 SWAP3 SWAP2 SWAP1 DUP2 DUP2 MSTORE PUSH1 0x20 ADD DUP4 DUP4 PUSH1 0x20 MUL DUP1 DUP3 DUP5 CALLDATACOPY PUSH1 0x0 DUP2 DUP5 ADD MSTORE PUSH1 0x1F NOT PUSH1 0x1F DUP3 ADD AND SWAP1 POP DUP1 DUP4 ADD SWAP3 POP POP POP POP POP POP POP PUSH2 0x1940 JUMP JUMPDEST SWAP2 POP DUP7 DUP3 PUSH1 0x1 DUP5 MLOAD PUSH2 0xBD2 SWAP2 SWAP1 PUSH2 0x3852 JUMP JUMPDEST DUP2 MLOAD DUP2 LT PUSH2 0xBE3 JUMPI PUSH2 0xBE2 PUSH2 0x3886 JUMP JUMPDEST JUMPDEST PUSH1 0x20 MUL PUSH1 0x20 ADD ADD MLOAD LT ISZERO PUSH2 0xC2C JUMPI PUSH1 0x40 MLOAD PUSH32 0x8C379A000000000000000000000000000000000000000000000000000000000 DUP2 MSTORE PUSH1 0x4 ADD PUSH2 0xC23 SWAP1 PUSH2 0x399A JUMP JUMPDEST PUSH1 0x40 MLOAD DUP1 SWAP2 SUB SWAP1 REVERT JUMPDEST PUSH2 0xCF8 DUP7 DUP7 PUSH1 0x0 DUP2 DUP2 LT PUSH2 0xC43 JUMPI PUSH2 0xC42 PUSH2 0x3886 JUMP JUMPDEST JUMPDEST SWAP1 POP PUSH1 0x20 MUL ADD PUSH1 0x20 DUP2 ADD SWAP1 PUSH2 0xC58 SWAP2 SWAP1 PUSH2 0x38B5 JUMP JUMPDEST CALLER PUSH2 0xCD7 PUSH32 0x0 DUP11 DUP11 PUSH1 0x0 DUP2 DUP2 LT PUSH2 0xC91 JUMPI PUSH2 0xC90 PUSH2 0x3886 JUMP JUMPDEST JUMPDEST SWAP1 POP PUSH1 0x20 MUL ADD PUSH1 0x20 DUP2 ADD SWAP1 PUSH2 0xCA6 SWAP2 SWAP1 PUSH2 0x38B5 JUMP JUMPDEST DUP12 DUP12 PUSH1 0x1 DUP2 DUP2 LT PUSH2 0xCBA JUMPI PUSH2 0xCB9 PUSH2 0x3886 JUMP JUMPDEST JUMPDEST SWAP1 POP PUSH1 0x20 MUL ADD PUSH1 0x20 DUP2 ADD SWAP1 PUSH2 0xCCF SWAP2 SWAP1 PUSH2 0x38B5 JUMP JUMPDEST PUSH1 0x0 SLOAD PUSH2 0x25A5 JUMP JUMPDEST DUP6 PUSH1 0x0 DUP2 MLOAD DUP2 LT PUSH2 0xCEB JUMPI PUSH2 0xCEA PUSH2 0x3886 JUMP JUMPDEST JUMPDEST PUSH1 0x20 MUL PUSH1 0x20 ADD ADD MLOAD PUSH2 0x261A JUMP JUMPDEST PUSH2 0xD44 DUP3 DUP8 DUP8 DUP1 DUP1 PUSH1 0x20 MUL PUSH1 0x20 ADD PUSH1 0x40 MLOAD SWAP1 DUP2 ADD PUSH1 0x40 MSTORE DUP1 SWAP4 SWAP3 SWAP2 SWAP1 DUP2 DUP2 MSTORE PUSH1 0x20 ADD DUP4 DUP4 PUSH1 0x20 MUL DUP1 DUP3 DUP5 CALLDATACOPY PUSH1 0x0 DUP2 DUP5 ADD MSTORE PUSH1 0x1F NOT PUSH1 0x1F DUP3 ADD AND SWAP1 POP DUP1 DUP4 ADD SWAP3 POP POP POP POP POP POP POP DUP7 PUSH2 0x2753 JUMP JUMPDEST POP SWAP7 SWAP6 POP POP POP POP POP POP JUMP JUMPDEST PUSH1 0x60 DUP2 TIMESTAMP DUP2 LT ISZERO PUSH2 0xD95 JUMPI PUSH1 0x40 MLOAD PUSH32 0x8C379A000000000000000000000000000000000000000000000000000000000 DUP2 MSTORE PUSH1 0x4 ADD PUSH2 0xD8C SWAP1 PUSH2 0x37E8 JUMP JUMPDEST PUSH1 0x40 MLOAD DUP1 SWAP2 SUB SWAP1 REVERT JUMPDEST PUSH32 0x0 PUSH20 0xFFFFFFFFFFFFFFFFFFFFFFFFFFFFFFFFFFFFFFFF AND DUP7 DUP7 PUSH1 0x1 DUP10 DUP10 SWAP1 POP PUSH2 0xDDE SWAP2 SWAP1 PUSH2 0x3852 JUMP JUMPDEST DUP2 DUP2 LT PUSH2 0xDEE JUMPI PUSH2 0xDED PUSH2 0x3886 JUMP JUMPDEST JUMPDEST SWAP1 POP PUSH1 0x20 MUL ADD PUSH1 0x20 DUP2 ADD SWAP1 PUSH2 0xE03 SWAP2 SWAP1 PUSH2 0x38B5 JUMP JUMPDEST PUSH20 0xFFFFFFFFFFFFFFFFFFFFFFFFFFFFFFFFFFFFFFFF AND EQ PUSH2 0xE59 JUMPI PUSH1 0x40 MLOAD PUSH32 0x8C379A000000000000000000000000000000000000000000000000000000000 DUP2 MSTORE PUSH1 0x4 ADD PUSH2 0xE50 SWAP1 PUSH2 0x392E JUMP JUMPDEST PUSH1 0x40 MLOAD DUP1 SWAP2 SUB SWAP1 REVERT JUMPDEST PUSH2 0xEA4 DUP9 DUP8 DUP8 DUP1 DUP1 PUSH1 0x20 MUL PUSH1 0x20 ADD PUSH1 0x40 MLOAD SWAP1 DUP2 ADD PUSH1 0x40 MSTORE DUP1 SWAP4 SWAP3 SWAP2 SWAP1 DUP2 DUP2 MSTORE PUSH1 0x20 ADD DUP4 DUP4 PUSH1 0x20 MUL DUP1 DUP3 DUP5 CALLDATACOPY PUSH1 0x0 DUP2 DUP5 ADD MSTORE PUSH1 0x1F NOT PUSH1 0x1F DUP3 ADD AND SWAP1 POP DUP1 DUP4 ADD SWAP3 POP POP POP POP POP POP POP PUSH2 0x995 JUMP JUMPDEST SWAP2 POP DUP7 DUP3 PUSH1 0x0 DUP2 MLOAD DUP2 LT PUSH2 0xEBB JUMPI PUSH2 0xEBA PUSH2 0x3886 JUMP JUMPDEST JUMPDEST PUSH1 0x20 MUL PUSH1 0x20 ADD ADD MLOAD GT ISZERO PUSH2 0xF04 JUMPI PUSH1 0x40 MLOAD PUSH32 0x8C379A000000000000000000000000000000000000000000000000000000000 DUP2 MSTORE PUSH1 0x4 ADD PUSH2 0xEFB SWAP1 PUSH2 0x3A2F JUMP JUMPDEST PUSH1 0x40 MLOAD DUP1 SWAP2 SUB SWAP1 REVERT JUMPDEST PUSH2 0xFD0 DUP7 DUP7 PUSH1 0x0 DUP2 DUP2 LT PUSH2 0xF1B JUMPI PUSH2 0xF1A PUSH2 0x3886 JUMP JUMPDEST JUMPDEST SWAP1 POP PUSH1 0x20 MUL ADD PUSH1 0x20 DUP2 ADD SWAP1 PUSH2 0xF30 SWAP2 SWAP1 PUSH2 0x38B5 JUMP JUMPDEST CALLER PUSH2 0xFAF PUSH32 0x0 DUP11 DUP11 PUSH1 0x0 DUP2 DUP2 LT PUSH2 0xF69 JUMPI PUSH2 0xF68 PUSH2 0x3886 JUMP JUMPDEST JUMPDEST SWAP1 POP PUSH1 0x20 MUL ADD PUSH1 0x20 DUP2 ADD SWAP1 PUSH2 0xF7E SWAP2 SWAP1 PUSH2 0x38B5 JUMP JUMPDEST DUP12 DUP12 PUSH1 0x1 DUP2 DUP2 LT PUSH2 0xF92 JUMPI PUSH2 0xF91 PUSH2 0x3886 JUMP JUMPDEST JUMPDEST SWAP1 POP PUSH1 0x20 MUL ADD PUSH1 0x20 DUP2 ADD SWAP1 PUSH2 0xFA7 SWAP2 SWAP1 PUSH2 0x38B5 JUMP JUMPDEST PUSH1 0x0 SLOAD PUSH2 0x25A5 JUMP JUMPDEST DUP6 PUSH1 0x0 DUP2 MLOAD DUP2 LT PUSH2 0xFC3 JUMPI PUSH2 0xFC2 PUSH2 0x3886 JUMP JUMPDEST JUMPDEST PUSH1 0x20 MUL PUSH1 0x20 ADD ADD MLOAD PUSH2 0x261A JUMP JUMPDEST PUSH2 0x101C DUP3 DUP8 DUP8 DUP1 DUP1 PUSH1 0x20 MUL PUSH1 0x20 ADD PUSH1 0x40 MLOAD SWAP1 DUP2 ADD PUSH1 0x40 MSTORE DUP1 SWAP4 SWAP3 SWAP2 SWAP1 DUP2 DUP2 MSTORE PUSH1 0x20 ADD DUP4 DUP4 PUSH1 0x20 MUL DUP1 DUP3 DUP5 CALLDATACOPY PUSH1 0x0 DUP2 DUP5 ADD MSTORE PUSH1 0x1F NOT PUSH1 0x1F DUP3 ADD AND SWAP1 POP DUP1 DUP4 ADD SWAP3 POP POP POP POP POP POP POP ADDRESS PUSH2 0x2753 JUMP JUMPDEST PUSH32 0x0 PUSH20 0xFFFFFFFFFFFFFFFFFFFFFFFFFFFFFFFFFFFFFFFF AND PUSH4 0x2E1A7D4D DUP4 PUSH1 0x1 DUP6 MLOAD PUSH2 0x1067 SWAP2 SWAP1 PUSH2 0x3852 JUMP JUMPDEST DUP2 MLOAD DUP2 LT PUSH2 0x1078 JUMPI PUSH2 0x1077 PUSH2 0x3886 JUMP JUMPDEST JUMPDEST PUSH1 0x20 MUL PUSH1 0x20 ADD ADD MLOAD PUSH1 0x40 MLOAD DUP3 PUSH4 0xFFFFFFFF AND PUSH1 0xE0 SHL DUP2 MSTORE PUSH1 0x4 ADD PUSH2 0x109C SWAP2 SWAP1 PUSH2 0x3808 JUMP JUMPDEST PUSH1 0x0 PUSH1 0x40 MLOAD DUP1 DUP4 SUB DUP2 PUSH1 0x0 DUP8 DUP1 EXTCODESIZE ISZERO DUP1 ISZERO PUSH2 0x10B6 JUMPI PUSH1 0x0 DUP1 REVERT JUMPDEST POP GAS CALL ISZERO DUP1 ISZERO PUSH2 0x10CA JUMPI RETURNDATASIZE PUSH1 0x0 DUP1 RETURNDATACOPY RETURNDATASIZE PUSH1 0x0 REVERT JUMPDEST POP POP POP POP PUSH2 0x10FF DUP5 DUP4 PUSH1 0x1 DUP6 MLOAD PUSH2 0x10E1 SWAP2 SWAP1 PUSH2 0x3852 JUMP JUMPDEST DUP2 MLOAD DUP2 LT PUSH2 0x10F2 JUMPI PUSH2 0x10F1 PUSH2 0x3886 JUMP JUMPDEST JUMPDEST PUSH1 0x20 MUL PUSH1 0x20 ADD ADD MLOAD PUSH2 0x24A5 JUMP JUMPDEST POP SWAP7 SWAP6 POP POP POP POP POP POP JUMP JUMPDEST PUSH1 0x60 DUP2 TIMESTAMP DUP2 LT ISZERO PUSH2 0x1150 JUMPI PUSH1 0x40 MLOAD PUSH32 0x8C379A000000000000000000000000000000000000000000000000000000000 DUP2 MSTORE PUSH1 0x4 ADD PUSH2 0x1147 SWAP1 PUSH2 0x37E8 JUMP JUMPDEST PUSH1 0x40 MLOAD DUP1 SWAP2 SUB SWAP1 REVERT JUMPDEST PUSH32 0x0 PUSH20 0xFFFFFFFFFFFFFFFFFFFFFFFFFFFFFFFFFFFFFFFF AND DUP7 DUP7 PUSH1 0x0 DUP2 DUP2 LT PUSH2 0x119B JUMPI PUSH2 0x119A PUSH2 0x3886 JUMP JUMPDEST JUMPDEST SWAP1 POP PUSH1 0x20 MUL ADD PUSH1 0x20 DUP2 ADD SWAP1 PUSH2 0x11B0 SWAP2 SWAP1 PUSH2 0x38B5 JUMP JUMPDEST PUSH20 0xFFFFFFFFFFFFFFFFFFFFFFFFFFFFFFFFFFFFFFFF AND EQ PUSH2 0x1206 JUMPI PUSH1 0x40 MLOAD PUSH32 0x8C379A000000000000000000000000000000000000000000000000000000000 DUP2 MSTORE PUSH1 0x4 ADD PUSH2 0x11FD SWAP1 PUSH2 0x392E JUMP JUMPDEST PUSH1 0x40 MLOAD DUP1 SWAP2 SUB SWAP1 REVERT JUMPDEST PUSH2 0x1251 CALLVALUE DUP8 DUP8 DUP1 DUP1 PUSH1 0x20 MUL PUSH1 0x20 ADD PUSH1 0x40 MLOAD SWAP1 DUP2 ADD PUSH1 0x40 MSTORE DUP1 SWAP4 SWAP3 SWAP2 SWAP1 DUP2 DUP2 MSTORE PUSH1 0x20 ADD DUP4 DUP4 PUSH1 0x20 MUL DUP1 DUP3 DUP5 CALLDATACOPY PUSH1 0x0 DUP2 DUP5 ADD MSTORE PUSH1 0x1F NOT PUSH1 0x1F DUP3 ADD AND SWAP1 POP DUP1 DUP4 ADD SWAP3 POP POP POP POP POP POP POP PUSH2 0x1940 JUMP JUMPDEST SWAP2 POP DUP7 DUP3 PUSH1 0x1 DUP5 MLOAD PUSH2 0x1263 SWAP2 SWAP1 PUSH2 0x3852 JUMP JUMPDEST DUP2 MLOAD DUP2 LT PUSH2 0x1274 JUMPI PUSH2 0x1273 PUSH2 0x3886 JUMP JUMPDEST JUMPDEST PUSH1 0x20 MUL PUSH1 0x20 ADD ADD MLOAD LT ISZERO PUSH2 0x12BD JUMPI PUSH1 0x40 MLOAD PUSH32 0x8C379A000000000000000000000000000000000000000000000000000000000 DUP2 MSTORE PUSH1 0x4 ADD PUSH2 0x12B4 SWAP1 PUSH2 0x399A JUMP JUMPDEST PUSH1 0x40 MLOAD DUP1 SWAP2 SUB SWAP1 REVERT JUMPDEST PUSH32 0x0 PUSH20 0xFFFFFFFFFFFFFFFFFFFFFFFFFFFFFFFFFFFFFFFF AND PUSH4 0xD0E30DB0 DUP4 PUSH1 0x0 DUP2 MLOAD DUP2 LT PUSH2 0x130D JUMPI PUSH2 0x130C PUSH2 0x3886 JUMP JUMPDEST JUMPDEST PUSH1 0x20 MUL PUSH1 0x20 ADD ADD MLOAD PUSH1 0x40 MLOAD DUP3 PUSH4 0xFFFFFFFF AND PUSH1 0xE0 SHL DUP2 MSTORE PUSH1 0x4 ADD PUSH1 0x0 PUSH1 0x40 MLOAD DUP1 DUP4 SUB DUP2 DUP6 DUP9 DUP1 EXTCODESIZE ISZERO DUP1 ISZERO PUSH2 0x1340 JUMPI PUSH1 0x0 DUP1 REVERT JUMPDEST POP GAS CALL ISZERO DUP1 ISZERO PUSH2 0x1354 JUMPI RETURNDATASIZE PUSH1 0x0 DUP1 RETURNDATACOPY RETURNDATASIZE PUSH1 0x0 REVERT JUMPDEST POP POP POP POP POP PUSH32 0x0 PUSH20 0xFFFFFFFFFFFFFFFFFFFFFFFFFFFFFFFFFFFFFFFF AND PUSH4 0xA9059CBB PUSH2 0x1413 PUSH32 0x0 DUP10 DUP10 PUSH1 0x0 DUP2 DUP2 LT PUSH2 0x13CD JUMPI PUSH2 0x13CC PUSH2 0x3886 JUMP JUMPDEST JUMPDEST SWAP1 POP PUSH1 0x20 MUL ADD PUSH1 0x20 DUP2 ADD SWAP1 PUSH2 0x13E2 SWAP2 SWAP1 PUSH2 0x38B5 JUMP JUMPDEST DUP11 DUP11 PUSH1 0x1 DUP2 DUP2 LT PUSH2 0x13F6 JUMPI PUSH2 0x13F5 PUSH2 0x3886 JUMP JUMPDEST JUMPDEST SWAP1 POP PUSH1 0x20 MUL ADD PUSH1 0x20 DUP2 ADD SWAP1 PUSH2 0x140B SWAP2 SWAP1 PUSH2 0x38B5 JUMP JUMPDEST PUSH1 0x0 SLOAD PUSH2 0x25A5 JUMP JUMPDEST DUP5 PUSH1 0x0 DUP2 MLOAD DUP2 LT PUSH2 0x1427 JUMPI PUSH2 0x1426 PUSH2 0x3886 JUMP JUMPDEST JUMPDEST PUSH1 0x20 MUL PUSH1 0x20 ADD ADD MLOAD PUSH1 0x40 MLOAD DUP4 PUSH4 0xFFFFFFFF AND PUSH1 0xE0 SHL DUP2 MSTORE PUSH1 0x4 ADD PUSH2 0x144C SWAP3 SWAP2 SWAP1 PUSH2 0x3A4F JUMP JUMPDEST PUSH1 0x20 PUSH1 0x40 MLOAD DUP1 DUP4 SUB DUP2 PUSH1 0x0 DUP8 GAS CALL ISZERO DUP1 ISZERO PUSH2 0x146B JUMPI RETURNDATASIZE PUSH1 0x0 DUP1 RETURNDATACOPY RETURNDATASIZE PUSH1 0x0 REVERT JUMPDEST POP POP POP POP PUSH1 0x40 MLOAD RETURNDATASIZE PUSH1 0x1F NOT PUSH1 0x1F DUP3 ADD AND DUP3 ADD DUP1 PUSH1 0x40 MSTORE POP DUP2 ADD SWAP1 PUSH2 0x148F SWAP2 SWAP1 PUSH2 0x3AB0 JUMP JUMPDEST PUSH2 0x149C JUMPI PUSH2 0x149B PUSH2 0x2FAD JUMP JUMPDEST JUMPDEST PUSH2 0x14E8 DUP3 DUP8 DUP8 DUP1 DUP1 PUSH1 0x20 MUL PUSH1 0x20 ADD PUSH1 0x40 MLOAD SWAP1 DUP2 ADD PUSH1 0x40 MSTORE DUP1 SWAP4 SWAP3 SWAP2 SWAP1 DUP2 DUP2 MSTORE PUSH1 0x20 ADD DUP4 DUP4 PUSH1 0x20 MUL DUP1 DUP3 DUP5 CALLDATACOPY PUSH1 0x0 DUP2 DUP5 ADD MSTORE PUSH1 0x1F NOT PUSH1 0x1F DUP3 ADD AND SWAP1 POP DUP1 DUP4 ADD SWAP3 POP POP POP POP POP POP POP DUP7 PUSH2 0x2753 JUMP JUMPDEST POP SWAP6 SWAP5 POP POP POP POP POP JUMP JUMPDEST PUSH1 0x60 DUP2 TIMESTAMP DUP2 LT ISZERO PUSH2 0x1538 JUMPI PUSH1 0x40 MLOAD PUSH32 0x8C379A000000000000000000000000000000000000000000000000000000000 DUP2 MSTORE PUSH1 0x4 ADD PUSH2 0x152F SWAP1 PUSH2 0x37E8 JUMP JUMPDEST PUSH1 0x40 MLOAD DUP1 SWAP2 SUB SWAP1 REVERT JUMPDEST PUSH2 0x1583 DUP9 DUP8 DUP8 DUP1 DUP1 PUSH1 0x20 MUL PUSH1 0x20 ADD PUSH1 0x40 MLOAD SWAP1 DUP2 ADD PUSH1 0x40 MSTORE DUP1 SWAP4 SWAP3 SWAP2 SWAP1 DUP2 DUP2 MSTORE PUSH1 0x20 ADD DUP4 DUP4 PUSH1 0x20 MUL DUP1 DUP3 DUP5 CALLDATACOPY PUSH1 0x0 DUP2 DUP5 ADD MSTORE PUSH1 0x1F NOT PUSH1 0x1F DUP3 ADD AND SWAP1 POP DUP1 DUP4 ADD SWAP3 POP POP POP POP POP POP POP PUSH2 0x995 JUMP JUMPDEST SWAP2 POP DUP7 DUP3 PUSH1 0x0 DUP2 MLOAD DUP2 LT PUSH2 0x159A JUMPI PUSH2 0x1599 PUSH2 0x3886 JUMP JUMPDEST JUMPDEST PUSH1 0x20 MUL PUSH1 0x20 ADD ADD MLOAD GT ISZERO PUSH2 0x15E3 JUMPI PUSH1 0x40 MLOAD PUSH32 0x8C379A000000000000000000000000000000000000000000000000000000000 DUP2 MSTORE PUSH1 0x4 ADD PUSH2 0x15DA SWAP1 PUSH2 0x3A2F JUMP JUMPDEST PUSH1 0x40 MLOAD DUP1 SWAP2 SUB SWAP1 REVERT JUMPDEST PUSH2 0x16AF DUP7 DUP7 PUSH1 0x0 DUP2 DUP2 LT PUSH2 0x15FA JUMPI PUSH2 0x15F9 PUSH2 0x3886 JUMP JUMPDEST JUMPDEST SWAP1 POP PUSH1 0x20 MUL ADD PUSH1 0x20 DUP2 ADD SWAP1 PUSH2 0x160F SWAP2 SWAP1 PUSH2 0x38B5 JUMP JUMPDEST CALLER PUSH2 0x168E PUSH32 0x0 DUP11 DUP11 PUSH1 0x0 DUP2 DUP2 LT PUSH2 0x1648 JUMPI PUSH2 0x1647 PUSH2 0x3886 JUMP JUMPDEST JUMPDEST SWAP1 POP PUSH1 0x20 MUL ADD PUSH1 0x20 DUP2 ADD SWAP1 PUSH2 0x165D SWAP2 SWAP1 PUSH2 0x38B5 JUMP JUMPDEST DUP12 DUP12 PUSH1 0x1 DUP2 DUP2 LT PUSH2 0x1671 JUMPI PUSH2 0x1670 PUSH2 0x3886 JUMP JUMPDEST JUMPDEST SWAP1 POP PUSH1 0x20 MUL ADD PUSH1 0x20 DUP2 ADD SWAP1 PUSH2 0x1686 SWAP2 SWAP1 PUSH2 0x38B5 JUMP JUMPDEST PUSH1 0x0 SLOAD PUSH2 0x25A5 JUMP JUMPDEST DUP6 PUSH1 0x0 DUP2 MLOAD DUP2 LT PUSH2 0x16A2 JUMPI PUSH2 0x16A1 PUSH2 0x3886 JUMP JUMPDEST JUMPDEST PUSH1 0x20 MUL PUSH1 0x20 ADD ADD MLOAD PUSH2 0x261A JUMP JUMPDEST PUSH2 0x16FB DUP3 DUP8 DUP8 DUP1 DUP1 PUSH1 0x20 MUL PUSH1 0x20 ADD PUSH1 0x40 MLOAD SWAP1 DUP2 ADD PUSH1 0x40 MSTORE DUP1 SWAP4 SWAP3 SWAP2 SWAP1 DUP2 DUP2 MSTORE PUSH1 0x20 ADD DUP4 DUP4 PUSH1 0x20 MUL DUP1 DUP3 DUP5 CALLDATACOPY PUSH1 0x0 DUP2 DUP5 ADD MSTORE PUSH1 0x1F NOT PUSH1 0x1F DUP3 ADD AND SWAP1 POP DUP1 DUP4 ADD SWAP3 POP POP POP POP POP POP POP DUP7 PUSH2 0x2753 JUMP JUMPDEST POP SWAP7 SWAP6 POP POP POP POP POP POP JUMP JUMPDEST PUSH32 0x0 DUP2 JUMP JUMPDEST PUSH1 0x0 DUP1 DUP3 TIMESTAMP DUP2 LT ISZERO PUSH2 0x1771 JUMPI PUSH1 0x40 MLOAD PUSH32 0x8C379A000000000000000000000000000000000000000000000000000000000 DUP2 MSTORE PUSH1 0x4 ADD PUSH2 0x1768 SWAP1 PUSH2 0x37E8 JUMP JUMPDEST PUSH1 0x40 MLOAD DUP1 SWAP2 SUB SWAP1 REVERT JUMPDEST PUSH1 0x0 PUSH2 0x17A1 PUSH32 0x0 DUP13 DUP13 PUSH1 0x0 SLOAD PUSH2 0x25A5 JUMP JUMPDEST SWAP1 POP PUSH2 0x17AF DUP2 CALLER DUP4 DUP13 PUSH2 0x261A JUMP JUMPDEST PUSH1 0x0 DUP1 DUP3 PUSH20 0xFFFFFFFFFFFFFFFFFFFFFFFFFFFFFFFFFFFFFFFF AND PUSH4 0x89AFCB44 DUP10 PUSH1 0x40 MLOAD DUP3 PUSH4 0xFFFFFFFF AND PUSH1 0xE0 SHL DUP2 MSTORE PUSH1 0x4 ADD PUSH2 0x17EB SWAP2 SWAP1 PUSH2 0x356A JUMP JUMPDEST PUSH1 0x40 DUP1 MLOAD DUP1 DUP4 SUB DUP2 PUSH1 0x0 DUP8 GAS CALL ISZERO DUP1 ISZERO PUSH2 0x1809 JUMPI RETURNDATASIZE PUSH1 0x0 DUP1 RETURNDATACOPY RETURNDATASIZE PUSH1 0x0 REVERT JUMPDEST POP POP POP POP PUSH1 0x40 MLOAD RETURNDATASIZE PUSH1 0x1F NOT PUSH1 0x1F DUP3 ADD AND DUP3 ADD DUP1 PUSH1 0x40 MSTORE POP DUP2 ADD SWAP1 PUSH2 0x182D SWAP2 SWAP1 PUSH2 0x3AF2 JUMP JUMPDEST SWAP2 POP SWAP2 POP PUSH1 0x0 PUSH2 0x183D DUP15 DUP15 PUSH2 0x2A4D JUMP JUMPDEST POP SWAP1 POP DUP1 PUSH20 0xFFFFFFFFFFFFFFFFFFFFFFFFFFFFFFFFFFFFFFFF AND DUP15 PUSH20 0xFFFFFFFFFFFFFFFFFFFFFFFFFFFFFFFFFFFFFFFF AND EQ PUSH2 0x187A JUMPI DUP2 DUP4 PUSH2 0x187D JUMP JUMPDEST DUP3 DUP3 JUMPDEST DUP1 SWAP8 POP DUP2 SWAP9 POP POP POP DUP11 DUP8 LT ISZERO PUSH2 0x18C8 JUMPI PUSH1 0x40 MLOAD PUSH32 0x8C379A000000000000000000000000000000000000000000000000000000000 DUP2 MSTORE PUSH1 0x4 ADD PUSH2 0x18BF SWAP1 PUSH2 0x3B7E JUMP JUMPDEST PUSH1 0x40 MLOAD DUP1 SWAP2 SUB SWAP1 REVERT JUMPDEST DUP10 DUP7 LT ISZERO PUSH2 0x190B JUMPI PUSH1 0x40 MLOAD PUSH32 0x8C379A000000000000000000000000000000000000000000000000000000000 DUP2 MSTORE PUSH1 0x4 ADD PUSH2 0x1902 SWAP1 PUSH2 0x3BEA JUMP JUMPDEST PUSH1 0x40 MLOAD DUP1 SWAP2 SUB SWAP1 REVERT JUMPDEST POP POP POP POP POP SWAP8 POP SWAP8 SWAP6 POP POP POP POP POP POP JUMP JUMPDEST PUSH32 0x0 DUP2 JUMP JUMPDEST PUSH1 0x60 PUSH1 0x2 DUP3 MLOAD LT ISZERO PUSH2 0x1987 JUMPI PUSH1 0x40 MLOAD PUSH32 0x8C379A000000000000000000000000000000000000000000000000000000000 DUP2 MSTORE PUSH1 0x4 ADD PUSH2 0x197E SWAP1 PUSH2 0x392E JUMP JUMPDEST PUSH1 0x40 MLOAD DUP1 SWAP2 SUB SWAP1 REVERT JUMPDEST DUP2 MLOAD PUSH8 0xFFFFFFFFFFFFFFFF DUP2 GT ISZERO PUSH2 0x19A2 JUMPI PUSH2 0x19A1 PUSH2 0x3339 JUMP JUMPDEST JUMPDEST PUSH1 0x40 MLOAD SWAP1 DUP1 DUP3 MSTORE DUP1 PUSH1 0x20 MUL PUSH1 0x20 ADD DUP3 ADD PUSH1 0x40 MSTORE DUP1 ISZERO PUSH2 0x19D0 JUMPI DUP2 PUSH1 0x20 ADD PUSH1 0x20 DUP3 MUL DUP1 CALLDATASIZE DUP4 CALLDATACOPY DUP1 DUP3 ADD SWAP2 POP POP SWAP1 POP JUMPDEST POP SWAP1 POP DUP3 DUP2 PUSH1 0x0 DUP2 MLOAD DUP2 LT PUSH2 0x19E8 JUMPI PUSH2 0x19E7 PUSH2 0x3886 JUMP JUMPDEST JUMPDEST PUSH1 0x20 MUL PUSH1 0x20 ADD ADD DUP2 DUP2 MSTORE POP POP PUSH1 0x0 JUMPDEST PUSH1 0x1 DUP4 MLOAD PUSH2 0x1A05 SWAP2 SWAP1 PUSH2 0x3852 JUMP JUMPDEST DUP2 LT ISZERO PUSH2 0x1ABD JUMPI PUSH1 0x0 DUP1 PUSH2 0x1A59 DUP6 DUP5 DUP2 MLOAD DUP2 LT PUSH2 0x1A25 JUMPI PUSH2 0x1A24 PUSH2 0x3886 JUMP JUMPDEST JUMPDEST PUSH1 0x20 MUL PUSH1 0x20 ADD ADD MLOAD DUP7 PUSH1 0x1 DUP7 PUSH2 0x1A3B SWAP2 SWAP1 PUSH2 0x3C0A JUMP JUMPDEST DUP2 MLOAD DUP2 LT PUSH2 0x1A4C JUMPI PUSH2 0x1A4B PUSH2 0x3886 JUMP JUMPDEST JUMPDEST PUSH1 0x20 MUL PUSH1 0x20 ADD ADD MLOAD PUSH2 0x1AC4 JUMP JUMPDEST POP SWAP2 POP SWAP2 POP PUSH2 0x1A83 DUP5 DUP5 DUP2 MLOAD DUP2 LT PUSH2 0x1A74 JUMPI PUSH2 0x1A73 PUSH2 0x3886 JUMP JUMPDEST JUMPDEST PUSH1 0x20 MUL PUSH1 0x20 ADD ADD MLOAD DUP4 DUP4 PUSH2 0x2B79 JUMP JUMPDEST DUP5 PUSH1 0x1 DUP6 PUSH2 0x1A91 SWAP2 SWAP1 PUSH2 0x3C0A JUMP JUMPDEST DUP2 MLOAD DUP2 LT PUSH2 0x1AA2 JUMPI PUSH2 0x1AA1 PUSH2 0x3886 JUMP JUMPDEST JUMPDEST PUSH1 0x20 MUL PUSH1 0x20 ADD ADD DUP2 DUP2 MSTORE POP POP POP POP DUP1 DUP1 PUSH1 0x1 ADD SWAP2 POP POP PUSH2 0x19F7 JUMP JUMPDEST POP SWAP3 SWAP2 POP POP JUMP JUMPDEST PUSH1 0x0 DUP1 PUSH1 0x0 DUP1 PUSH2 0x1AD4 DUP7 DUP7 PUSH2 0x2A4D JUMP JUMPDEST POP SWAP1 POP PUSH2 0x1B05 PUSH32 0x0 DUP8 DUP8 PUSH1 0x0 SLOAD PUSH2 0x25A5 JUMP JUMPDEST SWAP2 POP PUSH1 0x0 DUP1 DUP4 PUSH20 0xFFFFFFFFFFFFFFFFFFFFFFFFFFFFFFFFFFFFFFFF AND PUSH4 0x902F1AC PUSH1 0x40 MLOAD DUP2 PUSH4 0xFFFFFFFF AND PUSH1 0xE0 SHL DUP2 MSTORE PUSH1 0x4 ADD PUSH1 0x60 PUSH1 0x40 MLOAD DUP1 DUP4 SUB DUP2 DUP7 GAS STATICCALL ISZERO DUP1 ISZERO PUSH2 0x1B55 JUMPI RETURNDATASIZE PUSH1 0x0 DUP1 RETURNDATACOPY RETURNDATASIZE PUSH1 0x0 REVERT JUMPDEST POP POP POP POP PUSH1 0x40 MLOAD RETURNDATASIZE PUSH1 0x1F NOT PUSH1 0x1F DUP3 ADD AND DUP3 ADD DUP1 PUSH1 0x40 MSTORE POP DUP2 ADD SWAP1 PUSH2 0x1B79 SWAP2 SWAP1 PUSH2 0x3C3E JUMP JUMPDEST POP SWAP2 POP SWAP2 POP DUP3 PUSH20 0xFFFFFFFFFFFFFFFFFFFFFFFFFFFFFFFFFFFFFFFF AND DUP9 PUSH20 0xFFFFFFFFFFFFFFFFFFFFFFFFFFFFFFFFFFFFFFFF AND EQ PUSH2 0x1BB8 JUMPI DUP1 DUP3 PUSH2 0x1BBB JUMP JUMPDEST DUP2 DUP2 JUMPDEST DUP1 SWAP7 POP DUP2 SWAP8 POP POP POP POP POP POP SWAP3 POP SWAP3 POP SWAP3 JUMP JUMPDEST PUSH1 0x0 DUP1 PUSH1 0x0 DUP4 TIMESTAMP DUP2 LT ISZERO PUSH2 0x1C16 JUMPI PUSH1 0x40 MLOAD PUSH32 0x8C379A000000000000000000000000000000000000000000000000000000000 DUP2 MSTORE PUSH1 0x4 ADD PUSH2 0x1C0D SWAP1 PUSH2 0x37E8 JUMP JUMPDEST PUSH1 0x40 MLOAD DUP1 SWAP2 SUB SWAP1 REVERT JUMPDEST PUSH1 0x0 PUSH2 0x1C26 DUP14 DUP14 DUP14 DUP14 DUP14 DUP14 PUSH2 0x2C63 JUMP JUMPDEST DUP1 SWAP4 POP DUP2 SWAP7 POP DUP3 SWAP8 POP POP POP POP PUSH2 0x1C3E DUP14 CALLER DUP4 DUP9 PUSH2 0x261A JUMP JUMPDEST PUSH2 0x1C4A DUP13 CALLER DUP4 DUP8 PUSH2 0x261A JUMP JUMPDEST DUP1 PUSH20 0xFFFFFFFFFFFFFFFFFFFFFFFFFFFFFFFFFFFFFFFF AND PUSH4 0x6A627842 DUP9 PUSH1 0x40 MLOAD DUP3 PUSH4 0xFFFFFFFF AND PUSH1 0xE0 SHL DUP2 MSTORE PUSH1 0x4 ADD PUSH2 0x1C83 SWAP2 SWAP1 PUSH2 0x356A JUMP JUMPDEST PUSH1 0x20 PUSH1 0x40 MLOAD DUP1 DUP4 SUB DUP2 PUSH1 0x0 DUP8 GAS CALL ISZERO DUP1 ISZERO PUSH2 0x1CA2 JUMPI RETURNDATASIZE PUSH1 0x0 DUP1 RETURNDATACOPY RETURNDATASIZE PUSH1 0x0 REVERT JUMPDEST POP POP POP POP PUSH1 0x40 MLOAD RETURNDATASIZE PUSH1 0x1F NOT PUSH1 0x1F DUP3 ADD AND DUP3 ADD DUP1 PUSH1 0x40 MSTORE POP DUP2 ADD SWAP1 PUSH2 0x1CC6 SWAP2 SWAP1 PUSH2 0x3C91 JUMP JUMPDEST SWAP3 POP POP POP SWAP9 POP SWAP9 POP SWAP9 SWAP6 POP POP POP POP POP POP JUMP JUMPDEST PUSH1 0x0 DUP1 PUSH1 0x0 DUP4 TIMESTAMP DUP2 LT ISZERO PUSH2 0x1D21 JUMPI PUSH1 0x40 MLOAD PUSH32 0x8C379A000000000000000000000000000000000000000000000000000000000 DUP2 MSTORE PUSH1 0x4 ADD PUSH2 0x1D18 SWAP1 PUSH2 0x37E8 JUMP JUMPDEST PUSH1 0x40 MLOAD DUP1 SWAP2 SUB SWAP1 REVERT JUMPDEST PUSH1 0x0 PUSH2 0x1D51 DUP12 PUSH32 0x0 DUP13 CALLVALUE DUP14 DUP14 PUSH2 0x2C63 JUMP JUMPDEST DUP1 SWAP4 POP DUP2 SWAP7 POP DUP3 SWAP8 POP POP POP POP PUSH2 0x1D69 DUP12 CALLER DUP4 DUP9 PUSH2 0x261A JUMP JUMPDEST PUSH32 0x0 PUSH20 0xFFFFFFFFFFFFFFFFFFFFFFFFFFFFFFFFFFFFFFFF AND PUSH4 0xD0E30DB0 DUP6 PUSH1 0x40 MLOAD DUP3 PUSH4 0xFFFFFFFF AND PUSH1 0xE0 SHL DUP2 MSTORE PUSH1 0x4 ADD PUSH1 0x0 PUSH1 0x40 MLOAD DUP1 DUP4 SUB DUP2 DUP6 DUP9 DUP1 EXTCODESIZE ISZERO DUP1 ISZERO PUSH2 0x1DD1 JUMPI PUSH1 0x0 DUP1 REVERT JUMPDEST POP GAS CALL ISZERO DUP1 ISZERO PUSH2 0x1DE5 JUMPI RETURNDATASIZE PUSH1 0x0 DUP1 RETURNDATACOPY RETURNDATASIZE PUSH1 0x0 REVERT JUMPDEST POP POP POP POP POP PUSH32 0x0 PUSH20 0xFFFFFFFFFFFFFFFFFFFFFFFFFFFFFFFFFFFFFFFF AND PUSH4 0xA9059CBB DUP3 DUP7 PUSH1 0x40 MLOAD DUP4 PUSH4 0xFFFFFFFF AND PUSH1 0xE0 SHL DUP2 MSTORE PUSH1 0x4 ADD PUSH2 0x1E45 SWAP3 SWAP2 SWAP1 PUSH2 0x3A4F JUMP JUMPDEST PUSH1 0x20 PUSH1 0x40 MLOAD DUP1 DUP4 SUB DUP2 PUSH1 0x0 DUP8 GAS CALL ISZERO DUP1 ISZERO PUSH2 0x1E64 JUMPI RETURNDATASIZE PUSH1 0x0 DUP1 RETURNDATACOPY RETURNDATASIZE PUSH1 0x0 REVERT JUMPDEST POP POP POP POP PUSH1 0x40 MLOAD RETURNDATASIZE PUSH1 0x1F NOT PUSH1 0x1F DUP3 ADD AND DUP3 ADD DUP1 PUSH1 0x40 MSTORE POP DUP2 ADD SWAP1 PUSH2 0x1E88 SWAP2 SWAP1 PUSH2 0x3AB0 JUMP JUMPDEST PUSH2 0x1E95 JUMPI PUSH2 0x1E94 PUSH2 0x2FAD JUMP JUMPDEST JUMPDEST DUP1 PUSH20 0xFFFFFFFFFFFFFFFFFFFFFFFFFFFFFFFFFFFFFFFF AND PUSH4 0x6A627842 DUP9 PUSH1 0x40 MLOAD DUP3 PUSH4 0xFFFFFFFF AND PUSH1 0xE0 SHL DUP2 MSTORE PUSH1 0x4 ADD PUSH2 0x1ECE SWAP2 SWAP1 PUSH2 0x356A JUMP JUMPDEST PUSH1 0x20 PUSH1 0x40 MLOAD DUP1 DUP4 SUB DUP2 PUSH1 0x0 DUP8 GAS CALL ISZERO DUP1 ISZERO PUSH2 0x1EED JUMPI RETURNDATASIZE PUSH1 0x0 DUP1 RETURNDATACOPY RETURNDATASIZE PUSH1 0x0 REVERT JUMPDEST POP POP POP POP PUSH1 0x40 MLOAD RETURNDATASIZE PUSH1 0x1F NOT PUSH1 0x1F DUP3 ADD AND DUP3 ADD DUP1 PUSH1 0x40 MSTORE POP DUP2 ADD SWAP1 PUSH2 0x1F11 SWAP2 SWAP1 PUSH2 0x3C91 JUMP JUMPDEST SWAP3 POP DUP4 CALLVALUE GT ISZERO PUSH2 0x1F31 JUMPI PUSH2 0x1F30 CALLER DUP6 CALLVALUE PUSH2 0x1F2B SWAP2 SWAP1 PUSH2 0x3852 JUMP JUMPDEST PUSH2 0x24A5 JUMP JUMPDEST JUMPDEST POP POP SWAP7 POP SWAP7 POP SWAP7 SWAP4 POP POP POP POP JUMP JUMPDEST PUSH1 0x60 DUP2 TIMESTAMP DUP2 LT ISZERO PUSH2 0x1F85 JUMPI PUSH1 0x40 MLOAD PUSH32 0x8C379A000000000000000000000000000000000000000000000000000000000 DUP2 MSTORE PUSH1 0x4 ADD PUSH2 0x1F7C SWAP1 PUSH2 0x37E8 JUMP JUMPDEST PUSH1 0x40 MLOAD DUP1 SWAP2 SUB SWAP1 REVERT JUMPDEST PUSH32 0x0 PUSH20 0xFFFFFFFFFFFFFFFFFFFFFFFFFFFFFFFFFFFFFFFF AND DUP7 DUP7 PUSH1 0x0 DUP2 DUP2 LT PUSH2 0x1FD0 JUMPI PUSH2 0x1FCF PUSH2 0x3886 JUMP JUMPDEST JUMPDEST SWAP1 POP PUSH1 0x20 MUL ADD PUSH1 0x20 DUP2 ADD SWAP1 PUSH2 0x1FE5 SWAP2 SWAP1 PUSH2 0x38B5 JUMP JUMPDEST PUSH20 0xFFFFFFFFFFFFFFFFFFFFFFFFFFFFFFFFFFFFFFFF AND EQ PUSH2 0x203B JUMPI PUSH1 0x40 MLOAD PUSH32 0x8C379A000000000000000000000000000000000000000000000000000000000 DUP2 MSTORE PUSH1 0x4 ADD PUSH2 0x2032 SWAP1 PUSH2 0x392E JUMP JUMPDEST PUSH1 0x40 MLOAD DUP1 SWAP2 SUB SWAP1 REVERT JUMPDEST PUSH2 0x2086 DUP8 DUP8 DUP8 DUP1 DUP1 PUSH1 0x20 MUL PUSH1 0x20 ADD PUSH1 0x40 MLOAD SWAP1 DUP2 ADD PUSH1 0x40 MSTORE DUP1 SWAP4 SWAP3 SWAP2 SWAP1 DUP2 DUP2 MSTORE PUSH1 0x20 ADD DUP4 DUP4 PUSH1 0x20 MUL DUP1 DUP3 DUP5 CALLDATACOPY PUSH1 0x0 DUP2 DUP5 ADD MSTORE PUSH1 0x1F NOT PUSH1 0x1F DUP3 ADD AND SWAP1 POP DUP1 DUP4 ADD SWAP3 POP POP POP POP POP POP POP PUSH2 0x995 JUMP JUMPDEST SWAP2 POP CALLVALUE DUP3 PUSH1 0x0 DUP2 MLOAD DUP2 LT PUSH2 0x209D JUMPI PUSH2 0x209C PUSH2 0x3886 JUMP JUMPDEST JUMPDEST PUSH1 0x20 MUL PUSH1 0x20 ADD ADD MLOAD GT ISZERO PUSH2 0x20E6 JUMPI PUSH1 0x40 MLOAD PUSH32 0x8C379A000000000000000000000000000000000000000000000000000000000 DUP2 MSTORE PUSH1 0x4 ADD PUSH2 0x20DD SWAP1 PUSH2 0x3A2F JUMP JUMPDEST PUSH1 0x40 MLOAD DUP1 SWAP2 SUB SWAP1 REVERT JUMPDEST PUSH32 0x0 PUSH20 0xFFFFFFFFFFFFFFFFFFFFFFFFFFFFFFFFFFFFFFFF AND PUSH4 0xD0E30DB0 DUP4 PUSH1 0x0 DUP2 MLOAD DUP2 LT PUSH2 0x2136 JUMPI PUSH2 0x2135 PUSH2 0x3886 JUMP JUMPDEST JUMPDEST PUSH1 0x20 MUL PUSH1 0x20 ADD ADD MLOAD PUSH1 0x40 MLOAD DUP3 PUSH4 0xFFFFFFFF AND PUSH1 0xE0 SHL DUP2 MSTORE PUSH1 0x4 ADD PUSH1 0x0 PUSH1 0x40 MLOAD DUP1 DUP4 SUB DUP2 DUP6 DUP9 DUP1 EXTCODESIZE ISZERO DUP1 ISZERO PUSH2 0x2169 JUMPI PUSH1 0x0 DUP1 REVERT JUMPDEST POP GAS CALL ISZERO DUP1 ISZERO PUSH2 0x217D JUMPI RETURNDATASIZE PUSH1 0x0 DUP1 RETURNDATACOPY RETURNDATASIZE PUSH1 0x0 REVERT JUMPDEST POP POP POP POP POP PUSH32 0x0 PUSH20 0xFFFFFFFFFFFFFFFFFFFFFFFFFFFFFFFFFFFFFFFF AND PUSH4 0xA9059CBB PUSH2 0x223C PUSH32 0x0 DUP10 DUP10 PUSH1 0x0 DUP2 DUP2 LT PUSH2 0x21F6 JUMPI PUSH2 0x21F5 PUSH2 0x3886 JUMP JUMPDEST JUMPDEST SWAP1 POP PUSH1 0x20 MUL ADD PUSH1 0x20 DUP2 ADD SWAP1 PUSH2 0x220B SWAP2 SWAP1 PUSH2 0x38B5 JUMP JUMPDEST DUP11 DUP11 PUSH1 0x1 DUP2 DUP2 LT PUSH2 0x221F JUMPI PUSH2 0x221E PUSH2 0x3886 JUMP JUMPDEST JUMPDEST SWAP1 POP PUSH1 0x20 MUL ADD PUSH1 0x20 DUP2 ADD SWAP1 PUSH2 0x2234 SWAP2 SWAP1 PUSH2 0x38B5 JUMP JUMPDEST PUSH1 0x0 SLOAD PUSH2 0x25A5 JUMP JUMPDEST DUP5 PUSH1 0x0 DUP2 MLOAD DUP2 LT PUSH2 0x2250 JUMPI PUSH2 0x224F PUSH2 0x3886 JUMP JUMPDEST JUMPDEST PUSH1 0x20 MUL PUSH1 0x20 ADD ADD MLOAD PUSH1 0x40 MLOAD DUP4 PUSH4 0xFFFFFFFF AND PUSH1 0xE0 SHL DUP2 MSTORE PUSH1 0x4 ADD PUSH2 0x2275 SWAP3 SWAP2 SWAP1 PUSH2 0x3A4F JUMP JUMPDEST PUSH1 0x20 PUSH1 0x40 MLOAD DUP1 DUP4 SUB DUP2 PUSH1 0x0 DUP8 GAS CALL ISZERO DUP1 ISZERO PUSH2 0x2294 JUMPI RETURNDATASIZE PUSH1 0x0 DUP1 RETURNDATACOPY RETURNDATASIZE PUSH1 0x0 REVERT JUMPDEST POP POP POP POP PUSH1 0x40 MLOAD RETURNDATASIZE PUSH1 0x1F NOT PUSH1 0x1F DUP3 ADD AND DUP3 ADD DUP1 PUSH1 0x40 MSTORE POP DUP2 ADD SWAP1 PUSH2 0x22B8 SWAP2 SWAP1 PUSH2 0x3AB0 JUMP JUMPDEST PUSH2 0x22C5 JUMPI PUSH2 0x22C4 PUSH2 0x2FAD JUMP JUMPDEST JUMPDEST PUSH2 0x2311 DUP3 DUP8 DUP8 DUP1 DUP1 PUSH1 0x20 MUL PUSH1 0x20 ADD PUSH1 0x40 MLOAD SWAP1 DUP2 ADD PUSH1 0x40 MSTORE DUP1 SWAP4 SWAP3 SWAP2 SWAP1 DUP2 DUP2 MSTORE PUSH1 0x20 ADD DUP4 DUP4 PUSH1 0x20 MUL DUP1 DUP3 DUP5 CALLDATACOPY PUSH1 0x0 DUP2 DUP5 ADD MSTORE PUSH1 0x1F NOT PUSH1 0x1F DUP3 ADD AND SWAP1 POP DUP1 DUP4 ADD SWAP3 POP POP POP POP POP POP POP DUP7 PUSH2 0x2753 JUMP JUMPDEST DUP2 PUSH1 0x0 DUP2 MLOAD DUP2 LT PUSH2 0x2325 JUMPI PUSH2 0x2324 PUSH2 0x3886 JUMP JUMPDEST JUMPDEST PUSH1 0x20 MUL PUSH1 0x20 ADD ADD MLOAD CALLVALUE GT ISZERO PUSH2 0x2365 JUMPI PUSH2 0x2364 CALLER DUP4 PUSH1 0x0 DUP2 MLOAD DUP2 LT PUSH2 0x234C JUMPI PUSH2 0x234B PUSH2 0x3886 JUMP JUMPDEST JUMPDEST PUSH1 0x20 MUL PUSH1 0x20 ADD ADD MLOAD CALLVALUE PUSH2 0x235F SWAP2 SWAP1 PUSH2 0x3852 JUMP JUMPDEST PUSH2 0x24A5 JUMP JUMPDEST JUMPDEST POP SWAP6 SWAP5 POP POP POP POP POP JUMP JUMPDEST PUSH1 0x0 DUP1 DUP5 PUSH20 0xFFFFFFFFFFFFFFFFFFFFFFFFFFFFFFFFFFFFFFFF AND PUSH4 0xA9059CBB DUP6 DUP6 PUSH1 0x40 MLOAD PUSH1 0x24 ADD PUSH2 0x23A1 SWAP3 SWAP2 SWAP1 PUSH2 0x3A4F JUMP JUMPDEST PUSH1 0x40 MLOAD PUSH1 0x20 DUP2 DUP4 SUB SUB DUP2 MSTORE SWAP1 PUSH1 0x40 MSTORE SWAP1 PUSH1 0xE0 SHL PUSH1 0x20 DUP3 ADD DUP1 MLOAD PUSH28 0xFFFFFFFFFFFFFFFFFFFFFFFFFFFFFFFFFFFFFFFFFFFFFFFFFFFFFFFF DUP4 DUP2 DUP4 AND OR DUP4 MSTORE POP POP POP POP PUSH1 0x40 MLOAD PUSH2 0x23EF SWAP2 SWAP1 PUSH2 0x3D2F JUMP JUMPDEST PUSH1 0x0 PUSH1 0x40 MLOAD DUP1 DUP4 SUB DUP2 PUSH1 0x0 DUP7 GAS CALL SWAP2 POP POP RETURNDATASIZE DUP1 PUSH1 0x0 DUP2 EQ PUSH2 0x242C JUMPI PUSH1 0x40 MLOAD SWAP2 POP PUSH1 0x1F NOT PUSH1 0x3F RETURNDATASIZE ADD AND DUP3 ADD PUSH1 0x40 MSTORE RETURNDATASIZE DUP3 MSTORE RETURNDATASIZE PUSH1 0x0 PUSH1 0x20 DUP5 ADD RETURNDATACOPY PUSH2 0x2431 JUMP JUMPDEST PUSH1 0x60 SWAP2 POP JUMPDEST POP SWAP2 POP SWAP2 POP DUP2 DUP1 ISZERO PUSH2 0x245F JUMPI POP PUSH1 0x0 DUP2 MLOAD EQ DUP1 PUSH2 0x245E JUMPI POP DUP1 DUP1 PUSH1 0x20 ADD SWAP1 MLOAD DUP2 ADD SWAP1 PUSH2 0x245D SWAP2 SWAP1 PUSH2 0x3AB0 JUMP JUMPDEST JUMPDEST JUMPDEST PUSH2 0x249E JUMPI PUSH1 0x40 MLOAD PUSH32 0x8C379A000000000000000000000000000000000000000000000000000000000 DUP2 MSTORE PUSH1 0x4 ADD PUSH2 0x2495 SWAP1 PUSH2 0x3D92 JUMP JUMPDEST PUSH1 0x40 MLOAD DUP1 SWAP2 SUB SWAP1 REVERT JUMPDEST POP POP POP POP POP JUMP JUMPDEST PUSH1 0x0 DUP3 PUSH20 0xFFFFFFFFFFFFFFFFFFFFFFFFFFFFFFFFFFFFFFFF AND DUP3 PUSH1 0x0 PUSH8 0xFFFFFFFFFFFFFFFF DUP2 GT ISZERO PUSH2 0x24DA JUMPI PUSH2 0x24D9 PUSH2 0x3339 JUMP JUMPDEST JUMPDEST PUSH1 0x40 MLOAD SWAP1 DUP1 DUP3 MSTORE DUP1 PUSH1 0x1F ADD PUSH1 0x1F NOT AND PUSH1 0x20 ADD DUP3 ADD PUSH1 0x40 MSTORE DUP1 ISZERO PUSH2 0x250C JUMPI DUP2 PUSH1 0x20 ADD PUSH1 0x1 DUP3 MUL DUP1 CALLDATASIZE DUP4 CALLDATACOPY DUP1 DUP3 ADD SWAP2 POP POP SWAP1 POP JUMPDEST POP PUSH1 0x40 MLOAD PUSH2 0x251A SWAP2 SWAP1 PUSH2 0x3D2F JUMP JUMPDEST PUSH1 0x0 PUSH1 0x40 MLOAD DUP1 DUP4 SUB DUP2 DUP6 DUP8 GAS CALL SWAP3 POP POP POP RETURNDATASIZE DUP1 PUSH1 0x0 DUP2 EQ PUSH2 0x2557 JUMPI PUSH1 0x40 MLOAD SWAP2 POP PUSH1 0x1F NOT PUSH1 0x3F RETURNDATASIZE ADD AND DUP3 ADD PUSH1 0x40 MSTORE RETURNDATASIZE DUP3 MSTORE RETURNDATASIZE PUSH1 0x0 PUSH1 0x20 DUP5 ADD RETURNDATACOPY PUSH2 0x255C JUMP JUMPDEST PUSH1 0x60 SWAP2 POP JUMPDEST POP POP SWAP1 POP DUP1 PUSH2 0x25A0 JUMPI PUSH1 0x40 MLOAD PUSH32 0x8C379A000000000000000000000000000000000000000000000000000000000 DUP2 MSTORE PUSH1 0x4 ADD PUSH2 0x2597 SWAP1 PUSH2 0x3DFE JUMP JUMPDEST PUSH1 0x40 MLOAD DUP1 SWAP2 SUB SWAP1 REVERT JUMPDEST POP POP POP JUMP JUMPDEST PUSH1 0x0 DUP1 PUSH1 0x0 PUSH2 0x25B4 DUP7 DUP7 PUSH2 0x2A4D JUMP JUMPDEST SWAP2 POP SWAP2 POP DUP7 DUP3 DUP3 PUSH1 0x40 MLOAD PUSH1 0x20 ADD PUSH2 0x25CC SWAP3 SWAP2 SWAP1 PUSH2 0x3E66 JUMP JUMPDEST PUSH1 0x40 MLOAD PUSH1 0x20 DUP2 DUP4 SUB SUB DUP2 MSTORE SWAP1 PUSH1 0x40 MSTORE DUP1 MLOAD SWAP1 PUSH1 0x20 ADD KECCAK256 DUP6 PUSH1 0x40 MLOAD PUSH1 0x20 ADD PUSH2 0x25F5 SWAP4 SWAP3 SWAP2 SWAP1 PUSH2 0x3F14 JUMP JUMPDEST PUSH1 0x40 MLOAD PUSH1 0x20 DUP2 DUP4 SUB SUB DUP2 MSTORE SWAP1 PUSH1 0x40 MSTORE DUP1 MLOAD SWAP1 PUSH1 0x20 ADD KECCAK256 PUSH1 0x0 SHR SWAP3 POP POP POP SWAP5 SWAP4 POP POP POP POP JUMP JUMPDEST PUSH1 0x0 DUP1 DUP6 PUSH20 0xFFFFFFFFFFFFFFFFFFFFFFFFFFFFFFFFFFFFFFFF AND PUSH4 0x23B872DD DUP7 DUP7 DUP7 PUSH1 0x40 MLOAD PUSH1 0x24 ADD PUSH2 0x264E SWAP4 SWAP3 SWAP2 SWAP1 PUSH2 0x3F5C JUMP JUMPDEST PUSH1 0x40 MLOAD PUSH1 0x20 DUP2 DUP4 SUB SUB DUP2 MSTORE SWAP1 PUSH1 0x40 MSTORE SWAP1 PUSH1 0xE0 SHL PUSH1 0x20 DUP3 ADD DUP1 MLOAD PUSH28 0xFFFFFFFFFFFFFFFFFFFFFFFFFFFFFFFFFFFFFFFFFFFFFFFFFFFFFFFF DUP4 DUP2 DUP4 AND OR DUP4 MSTORE POP POP POP POP PUSH1 0x40 MLOAD PUSH2 0x269C SWAP2 SWAP1 PUSH2 0x3D2F JUMP JUMPDEST PUSH1 0x0 PUSH1 0x40 MLOAD DUP1 DUP4 SUB DUP2 PUSH1 0x0 DUP7 GAS CALL SWAP2 POP POP RETURNDATASIZE DUP1 PUSH1 0x0 DUP2 EQ PUSH2 0x26D9 JUMPI PUSH1 0x40 MLOAD SWAP2 POP PUSH1 0x1F NOT PUSH1 0x3F RETURNDATASIZE ADD AND DUP3 ADD PUSH1 0x40 MSTORE RETURNDATASIZE DUP3 MSTORE RETURNDATASIZE PUSH1 0x0 PUSH1 0x20 DUP5 ADD RETURNDATACOPY PUSH2 0x26DE JUMP JUMPDEST PUSH1 0x60 SWAP2 POP JUMPDEST POP SWAP2 POP SWAP2 POP DUP2 DUP1 ISZERO PUSH2 0x270C JUMPI POP PUSH1 0x0 DUP2 MLOAD EQ DUP1 PUSH2 0x270B JUMPI POP DUP1 DUP1 PUSH1 0x20 ADD SWAP1 MLOAD DUP2 ADD SWAP1 PUSH2 0x270A SWAP2 SWAP1 PUSH2 0x3AB0 JUMP JUMPDEST JUMPDEST JUMPDEST PUSH2 0x274B JUMPI PUSH1 0x40 MLOAD PUSH32 0x8C379A000000000000000000000000000000000000000000000000000000000 DUP2 MSTORE PUSH1 0x4 ADD PUSH2 0x2742 SWAP1 PUSH2 0x3FDF JUMP JUMPDEST PUSH1 0x40 MLOAD DUP1 SWAP2 SUB SWAP1 REVERT JUMPDEST POP POP POP POP POP POP JUMP JUMPDEST PUSH1 0x0 JUMPDEST PUSH1 0x1 DUP4 MLOAD PUSH2 0x2764 SWAP2 SWAP1 PUSH2 0x3852 JUMP JUMPDEST DUP2 LT ISZERO PUSH2 0x2957 JUMPI PUSH1 0x0 DUP1 DUP5 DUP4 DUP2 MLOAD DUP2 LT PUSH2 0x2781 JUMPI PUSH2 0x2780 PUSH2 0x3886 JUMP JUMPDEST JUMPDEST PUSH1 0x20 MUL PUSH1 0x20 ADD ADD MLOAD DUP6 PUSH1 0x1 DUP6 PUSH2 0x2797 SWAP2 SWAP1 PUSH2 0x3C0A JUMP JUMPDEST DUP2 MLOAD DUP2 LT PUSH2 0x27A8 JUMPI PUSH2 0x27A7 PUSH2 0x3886 JUMP JUMPDEST JUMPDEST PUSH1 0x20 MUL PUSH1 0x20 ADD ADD MLOAD SWAP2 POP SWAP2 POP PUSH1 0x0 PUSH2 0x27C0 DUP4 DUP4 PUSH2 0x2A4D JUMP JUMPDEST POP SWAP1 POP PUSH1 0x0 DUP8 PUSH1 0x1 DUP7 PUSH2 0x27D3 SWAP2 SWAP1 PUSH2 0x3C0A JUMP JUMPDEST DUP2 MLOAD DUP2 LT PUSH2 0x27E4 JUMPI PUSH2 0x27E3 PUSH2 0x3886 JUMP JUMPDEST JUMPDEST PUSH1 0x20 MUL PUSH1 0x20 ADD ADD MLOAD SWAP1 POP PUSH1 0x0 DUP1 DUP4 PUSH20 0xFFFFFFFFFFFFFFFFFFFFFFFFFFFFFFFFFFFFFFFF AND DUP7 PUSH20 0xFFFFFFFFFFFFFFFFFFFFFFFFFFFFFFFFFFFFFFFF AND EQ PUSH2 0x282C JUMPI DUP3 PUSH1 0x0 PUSH2 0x2830 JUMP JUMPDEST PUSH1 0x0 DUP4 JUMPDEST SWAP2 POP SWAP2 POP PUSH1 0x0 PUSH1 0x2 DUP11 MLOAD PUSH2 0x2844 SWAP2 SWAP1 PUSH2 0x3852 JUMP JUMPDEST DUP9 LT PUSH2 0x2850 JUMPI DUP9 PUSH2 0x28A5 JUMP JUMPDEST PUSH2 0x28A4 PUSH32 0x0 DUP8 DUP13 PUSH1 0x2 DUP13 PUSH2 0x2883 SWAP2 SWAP1 PUSH2 0x3C0A JUMP JUMPDEST DUP2 MLOAD DUP2 LT PUSH2 0x2894 JUMPI PUSH2 0x2893 PUSH2 0x3886 JUMP JUMPDEST JUMPDEST PUSH1 0x20 MUL PUSH1 0x20 ADD ADD MLOAD PUSH1 0x0 SLOAD PUSH2 0x25A5 JUMP JUMPDEST JUMPDEST SWAP1 POP PUSH2 0x28D5 PUSH32 0x0 DUP9 DUP9 PUSH1 0x0 SLOAD PUSH2 0x25A5 JUMP JUMPDEST PUSH20 0xFFFFFFFFFFFFFFFFFFFFFFFFFFFFFFFFFFFFFFFF AND PUSH4 0x6D9A640A DUP5 DUP5 DUP5 PUSH1 0x40 MLOAD DUP5 PUSH4 0xFFFFFFFF AND PUSH1 0xE0 SHL DUP2 MSTORE PUSH1 0x4 ADD PUSH2 0x2911 SWAP4 SWAP3 SWAP2 SWAP1 PUSH2 0x3667 JUMP JUMPDEST PUSH1 0x0 PUSH1 0x40 MLOAD DUP1 DUP4 SUB DUP2 PUSH1 0x0 DUP8 DUP1 EXTCODESIZE ISZERO DUP1 ISZERO PUSH2 0x292B JUMPI PUSH1 0x0 DUP1 REVERT JUMPDEST POP GAS CALL ISZERO DUP1 ISZERO PUSH2 0x293F JUMPI RETURNDATASIZE PUSH1 0x0 DUP1 RETURNDATACOPY RETURNDATASIZE PUSH1 0x0 REVERT JUMPDEST POP POP POP POP POP POP POP POP POP POP POP DUP1 DUP1 PUSH1 0x1 ADD SWAP2 POP POP PUSH2 0x2756 JUMP JUMPDEST POP POP POP POP JUMP JUMPDEST PUSH1 0x0 DUP1 DUP5 GT PUSH2 0x29A1 JUMPI PUSH1 0x40 MLOAD PUSH32 0x8C379A000000000000000000000000000000000000000000000000000000000 DUP2 MSTORE PUSH1 0x4 ADD PUSH2 0x2998 SWAP1 PUSH2 0x399A JUMP JUMPDEST PUSH1 0x40 MLOAD DUP1 SWAP2 SUB SWAP1 REVERT JUMPDEST PUSH1 0x0 DUP4 GT DUP1 ISZERO PUSH2 0x29B1 JUMPI POP PUSH1 0x0 DUP3 GT JUMPDEST PUSH2 0x29F0 JUMPI PUSH1 0x40 MLOAD PUSH32 0x8C379A000000000000000000000000000000000000000000000000000000000 DUP2 MSTORE PUSH1 0x4 ADD PUSH2 0x29E7 SWAP1 PUSH2 0x404B JUMP JUMPDEST PUSH1 0x40 MLOAD DUP1 SWAP2 SUB SWAP1 REVERT JUMPDEST PUSH1 0x0 PUSH2 0x3E8 DUP6 DUP6 PUSH2 0x2A01 SWAP2 SWAP1 PUSH2 0x406B JUMP JUMPDEST PUSH2 0x2A0B SWAP2 SWAP1 PUSH2 0x406B JUMP JUMPDEST SWAP1 POP PUSH1 0x0 PUSH2 0x3E6 DUP7 DUP6 PUSH2 0x2A1E SWAP2 SWAP1 PUSH2 0x3852 JUMP JUMPDEST PUSH2 0x2A28 SWAP2 SWAP1 PUSH2 0x406B JUMP JUMPDEST SWAP1 POP PUSH1 0x1 DUP2 DUP4 PUSH2 0x2A38 SWAP2 SWAP1 PUSH2 0x40DC JUMP JUMPDEST PUSH2 0x2A42 SWAP2 SWAP1 PUSH2 0x3C0A JUMP JUMPDEST SWAP3 POP POP POP SWAP4 SWAP3 POP POP POP JUMP JUMPDEST PUSH1 0x0 DUP1 DUP3 PUSH20 0xFFFFFFFFFFFFFFFFFFFFFFFFFFFFFFFFFFFFFFFF AND DUP5 PUSH20 0xFFFFFFFFFFFFFFFFFFFFFFFFFFFFFFFFFFFFFFFF AND SUB PUSH2 0x2ABE JUMPI PUSH1 0x40 MLOAD PUSH32 0x8C379A000000000000000000000000000000000000000000000000000000000 DUP2 MSTORE PUSH1 0x4 ADD PUSH2 0x2AB5 SWAP1 PUSH2 0x4159 JUMP JUMPDEST PUSH1 0x40 MLOAD DUP1 SWAP2 SUB SWAP1 REVERT JUMPDEST DUP3 PUSH20 0xFFFFFFFFFFFFFFFFFFFFFFFFFFFFFFFFFFFFFFFF AND DUP5 PUSH20 0xFFFFFFFFFFFFFFFFFFFFFFFFFFFFFFFFFFFFFFFF AND LT PUSH2 0x2AF8 JUMPI DUP3 DUP5 PUSH2 0x2AFB JUMP JUMPDEST DUP4 DUP4 JUMPDEST DUP1 SWAP3 POP DUP2 SWAP4 POP POP POP PUSH1 0x0 PUSH20 0xFFFFFFFFFFFFFFFFFFFFFFFFFFFFFFFFFFFFFFFF AND DUP3 PUSH20 0xFFFFFFFFFFFFFFFFFFFFFFFFFFFFFFFFFFFFFFFF AND SUB PUSH2 0x2B72 JUMPI PUSH1 0x40 MLOAD PUSH32 0x8C379A000000000000000000000000000000000000000000000000000000000 DUP2 MSTORE PUSH1 0x4 ADD PUSH2 0x2B69 SWAP1 PUSH2 0x41C5 JUMP JUMPDEST PUSH1 0x40 MLOAD DUP1 SWAP2 SUB SWAP1 REVERT JUMPDEST SWAP3 POP SWAP3 SWAP1 POP JUMP JUMPDEST PUSH1 0x0 DUP1 DUP5 GT PUSH2 0x2BBD JUMPI PUSH1 0x40 MLOAD PUSH32 0x8C379A000000000000000000000000000000000000000000000000000000000 DUP2 MSTORE PUSH1 0x4 ADD PUSH2 0x2BB4 SWAP1 PUSH2 0x4231 JUMP JUMPDEST PUSH1 0x40 MLOAD DUP1 SWAP2 SUB SWAP1 REVERT JUMPDEST PUSH1 0x0 DUP4 GT DUP1 ISZERO PUSH2 0x2BCD JUMPI POP PUSH1 0x0 DUP3 GT JUMPDEST PUSH2 0x2C0C JUMPI PUSH1 0x40 MLOAD PUSH32 0x8C379A000000000000000000000000000000000000000000000000000000000 DUP2 MSTORE PUSH1 0x4 ADD PUSH2 0x2C03 SWAP1 PUSH2 0x404B JUMP JUMPDEST PUSH1 0x40 MLOAD DUP1 SWAP2 SUB SWAP1 REVERT JUMPDEST PUSH1 0x0 PUSH2 0x3E6 DUP6 PUSH2 0x2C1C SWAP2 SWAP1 PUSH2 0x406B JUMP JUMPDEST SWAP1 POP PUSH1 0x0 DUP4 DUP3 PUSH2 0x2C2C SWAP2 SWAP1 PUSH2 0x406B JUMP JUMPDEST SWAP1 POP PUSH1 0x0 DUP3 PUSH2 0x3E8 DUP8 PUSH2 0x2C3F SWAP2 SWAP1 PUSH2 0x406B JUMP JUMPDEST PUSH2 0x2C49 SWAP2 SWAP1 PUSH2 0x3C0A JUMP JUMPDEST SWAP1 POP DUP1 DUP3 PUSH2 0x2C57 SWAP2 SWAP1 PUSH2 0x40DC JUMP JUMPDEST SWAP4 POP POP POP POP SWAP4 SWAP3 POP POP POP JUMP JUMPDEST PUSH1 0x0 DUP1 PUSH1 0x0 DUP1 PUSH20 0xFFFFFFFFFFFFFFFFFFFFFFFFFFFFFFFFFFFFFFFF AND PUSH32 0x0 PUSH20 0xFFFFFFFFFFFFFFFFFFFFFFFFFFFFFFFFFFFFFFFF AND PUSH4 0xE6A43905 DUP12 DUP12 PUSH1 0x40 MLOAD DUP4 PUSH4 0xFFFFFFFF AND PUSH1 0xE0 SHL DUP2 MSTORE PUSH1 0x4 ADD PUSH2 0x2CDA SWAP3 SWAP2 SWAP1 PUSH2 0x4251 JUMP JUMPDEST PUSH1 0x20 PUSH1 0x40 MLOAD DUP1 DUP4 SUB DUP2 DUP7 GAS STATICCALL ISZERO DUP1 ISZERO PUSH2 0x2CF7 JUMPI RETURNDATASIZE PUSH1 0x0 DUP1 RETURNDATACOPY RETURNDATASIZE PUSH1 0x0 REVERT JUMPDEST POP POP POP POP PUSH1 0x40 MLOAD RETURNDATASIZE PUSH1 0x1F NOT PUSH1 0x1F DUP3 ADD AND DUP3 ADD DUP1 PUSH1 0x40 MSTORE POP DUP2 ADD SWAP1 PUSH2 0x2D1B SWAP2 SWAP1 PUSH2 0x428F JUMP JUMPDEST PUSH20 0xFFFFFFFFFFFFFFFFFFFFFFFFFFFFFFFFFFFFFFFF AND SUB PUSH2 0x2DD6 JUMPI PUSH32 0x0 PUSH20 0xFFFFFFFFFFFFFFFFFFFFFFFFFFFFFFFFFFFFFFFF AND PUSH4 0xC9C65396 DUP11 DUP11 PUSH1 0x40 MLOAD DUP4 PUSH4 0xFFFFFFFF AND PUSH1 0xE0 SHL DUP2 MSTORE PUSH1 0x4 ADD PUSH2 0x2D91 SWAP3 SWAP2 SWAP1 PUSH2 0x4251 JUMP JUMPDEST PUSH1 0x20 PUSH1 0x40 MLOAD DUP1 DUP4 SUB DUP2 PUSH1 0x0 DUP8 GAS CALL ISZERO DUP1 ISZERO PUSH2 0x2DB0 JUMPI RETURNDATASIZE PUSH1 0x0 DUP1 RETURNDATACOPY RETURNDATASIZE PUSH1 0x0 REVERT JUMPDEST POP POP POP POP PUSH1 0x40 MLOAD RETURNDATASIZE PUSH1 0x1F NOT PUSH1 0x1F DUP3 ADD AND DUP3 ADD DUP1 PUSH1 0x40 MSTORE POP DUP2 ADD SWAP1 PUSH2 0x2DD4 SWAP2 SWAP1 PUSH2 0x428F JUMP JUMPDEST POP JUMPDEST PUSH1 0x0 DUP1 PUSH2 0x2DE3 DUP12 DUP12 PUSH2 0x1AC4 JUMP JUMPDEST DUP1 SWAP6 POP DUP2 SWAP4 POP DUP3 SWAP5 POP POP POP POP PUSH1 0x0 DUP3 EQ DUP1 ISZERO PUSH2 0x2DFF JUMPI POP PUSH1 0x0 DUP2 EQ JUMPDEST ISZERO PUSH2 0x2E13 JUMPI DUP9 DUP9 DUP1 SWAP6 POP DUP2 SWAP7 POP POP POP PUSH2 0x2EEC JUMP JUMPDEST PUSH1 0x0 PUSH2 0x2E20 DUP11 DUP5 DUP5 PUSH2 0x2EFA JUMP JUMPDEST SWAP1 POP DUP9 DUP2 GT PUSH2 0x2E7B JUMPI DUP7 DUP2 LT ISZERO PUSH2 0x2E6C JUMPI PUSH1 0x40 MLOAD PUSH32 0x8C379A000000000000000000000000000000000000000000000000000000000 DUP2 MSTORE PUSH1 0x4 ADD PUSH2 0x2E63 SWAP1 PUSH2 0x4308 JUMP JUMPDEST PUSH1 0x40 MLOAD DUP1 SWAP2 SUB SWAP1 REVERT JUMPDEST DUP10 DUP2 DUP1 SWAP7 POP DUP2 SWAP8 POP POP POP PUSH2 0x2EEA JUMP JUMPDEST PUSH1 0x0 PUSH2 0x2E88 DUP11 DUP5 DUP7 PUSH2 0x2EFA JUMP JUMPDEST SWAP1 POP DUP11 DUP2 GT ISZERO PUSH2 0x2E9B JUMPI PUSH2 0x2E9A PUSH2 0x2FAD JUMP JUMPDEST JUMPDEST DUP9 DUP2 LT ISZERO PUSH2 0x2EDE JUMPI PUSH1 0x40 MLOAD PUSH32 0x8C379A000000000000000000000000000000000000000000000000000000000 DUP2 MSTORE PUSH1 0x4 ADD PUSH2 0x2ED5 SWAP1 PUSH2 0x4374 JUMP JUMPDEST PUSH1 0x40 MLOAD DUP1 SWAP2 SUB SWAP1 REVERT JUMPDEST DUP1 DUP11 DUP1 SWAP8 POP DUP2 SWAP9 POP POP POP POP JUMPDEST POP JUMPDEST POP POP SWAP7 POP SWAP7 POP SWAP7 SWAP4 POP POP POP POP JUMP JUMPDEST PUSH1 0x0 DUP1 DUP5 GT PUSH2 0x2F3E JUMPI PUSH1 0x40 MLOAD PUSH32 0x8C379A000000000000000000000000000000000000000000000000000000000 DUP2 MSTORE PUSH1 0x4 ADD PUSH2 0x2F35 SWAP1 PUSH2 0x43E0 JUMP JUMPDEST PUSH1 0x40 MLOAD DUP1 SWAP2 SUB SWAP1 REVERT JUMPDEST PUSH1 0x0 DUP4 GT DUP1 ISZERO PUSH2 0x2F4E JUMPI POP PUSH1 0x0 DUP3 GT JUMPDEST PUSH2 0x2F8D JUMPI PUSH1 0x40 MLOAD PUSH32 0x8C379A000000000000000000000000000000000000000000000000000000000 DUP2 MSTORE PUSH1 0x4 ADD PUSH2 0x2F84 SWAP1 PUSH2 0x404B JUMP JUMPDEST PUSH1 0x40 MLOAD DUP1 SWAP2 SUB SWAP1 REVERT JUMPDEST DUP3 DUP3 DUP6 PUSH2 0x2F9A SWAP2 SWAP1 PUSH2 0x406B JUMP JUMPDEST PUSH2 0x2FA4 SWAP2 SWAP1 PUSH2 0x40DC JUMP JUMPDEST SWAP1 POP SWAP4 SWAP3 POP POP POP JUMP JUMPDEST PUSH32 0x4E487B7100000000000000000000000000000000000000000000000000000000 PUSH1 0x0 MSTORE PUSH1 0x1 PUSH1 0x4 MSTORE PUSH1 0x24 PUSH1 0x0 REVERT JUMPDEST PUSH1 0x0 PUSH1 0x40 MLOAD SWAP1 POP SWAP1 JUMP JUMPDEST PUSH1 0x0 DUP1 REVERT JUMPDEST PUSH1 0x0 DUP1 REVERT JUMPDEST PUSH1 0x0 PUSH20 0xFFFFFFFFFFFFFFFFFFFFFFFFFFFFFFFFFFFFFFFF DUP3 AND SWAP1 POP SWAP2 SWAP1 POP JUMP JUMPDEST PUSH1 0x0 PUSH2 0x301B DUP3 PUSH2 0x2FF0 JUMP JUMPDEST SWAP1 POP SWAP2 SWAP1 POP JUMP JUMPDEST PUSH2 0x302B DUP2 PUSH2 0x3010 JUMP JUMPDEST DUP2 EQ PUSH2 0x3036 JUMPI PUSH1 0x0 DUP1 REVERT JUMPDEST POP JUMP JUMPDEST PUSH1 0x0 DUP2 CALLDATALOAD SWAP1 POP PUSH2 0x3048 DUP2 PUSH2 0x3022 JUMP JUMPDEST SWAP3 SWAP2 POP POP JUMP JUMPDEST PUSH1 0x0 DUP2 SWAP1 POP SWAP2 SWAP1 POP JUMP JUMPDEST PUSH2 0x3061 DUP2 PUSH2 0x304E JUMP JUMPDEST DUP2 EQ PUSH2 0x306C JUMPI PUSH1 0x0 DUP1 REVERT JUMPDEST POP JUMP JUMPDEST PUSH1 0x0 DUP2 CALLDATALOAD SWAP1 POP PUSH2 0x307E DUP2 PUSH2 0x3058 JUMP JUMPDEST SWAP3 SWAP2 POP POP JUMP JUMPDEST PUSH1 0x0 DUP1 PUSH1 0x0 DUP1 PUSH1 0x0 DUP1 PUSH1 0xC0 DUP8 DUP10 SUB SLT ISZERO PUSH2 0x30A1 JUMPI PUSH2 0x30A0 PUSH2 0x2FE6 JUMP JUMPDEST JUMPDEST PUSH1 0x0 PUSH2 0x30AF DUP10 DUP3 DUP11 ADD PUSH2 0x3039 JUMP JUMPDEST SWAP7 POP POP PUSH1 0x20 PUSH2 0x30C0 DUP10 DUP3 DUP11 ADD PUSH2 0x306F JUMP JUMPDEST SWAP6 POP POP PUSH1 0x40 PUSH2 0x30D1 DUP10 DUP3 DUP11 ADD PUSH2 0x306F JUMP JUMPDEST SWAP5 POP POP PUSH1 0x60 PUSH2 0x30E2 DUP10 DUP3 DUP11 ADD PUSH2 0x306F JUMP JUMPDEST SWAP4 POP POP PUSH1 0x80 PUSH2 0x30F3 DUP10 DUP3 DUP11 ADD PUSH2 0x3039 JUMP JUMPDEST SWAP3 POP POP PUSH1 0xA0 PUSH2 0x3104 DUP10 DUP3 DUP11 ADD PUSH2 0x306F JUMP JUMPDEST SWAP2 POP POP SWAP3 SWAP6 POP SWAP3 SWAP6 POP SWAP3 SWAP6 JUMP JUMPDEST PUSH2 0x311A DUP2 PUSH2 0x304E JUMP JUMPDEST DUP3 MSTORE POP POP JUMP JUMPDEST PUSH1 0x0 PUSH1 0x40 DUP3 ADD SWAP1 POP PUSH2 0x3135 PUSH1 0x0 DUP4 ADD DUP6 PUSH2 0x3111 JUMP JUMPDEST PUSH2 0x3142 PUSH1 0x20 DUP4 ADD DUP5 PUSH2 0x3111 JUMP JUMPDEST SWAP4 SWAP3 POP POP POP JUMP JUMPDEST PUSH1 0x0 DUP1 REVERT JUMPDEST PUSH1 0x0 DUP1 REVERT JUMPDEST PUSH1 0x0 DUP1 REVERT JUMPDEST PUSH1 0x0 DUP1 DUP4 PUSH1 0x1F DUP5 ADD SLT PUSH2 0x316E JUMPI PUSH2 0x316D PUSH2 0x3149 JUMP JUMPDEST JUMPDEST DUP3 CALLDATALOAD SWAP1 POP PUSH8 0xFFFFFFFFFFFFFFFF DUP2 GT ISZERO PUSH2 0x318B JUMPI PUSH2 0x318A PUSH2 0x314E JUMP JUMPDEST JUMPDEST PUSH1 0x20 DUP4 ADD SWAP2 POP DUP4 PUSH1 0x20 DUP3 MUL DUP4 ADD GT ISZERO PUSH2 0x31A7 JUMPI PUSH2 0x31A6 PUSH2 0x3153 JUMP JUMPDEST JUMPDEST SWAP3 POP SWAP3 SWAP1 POP JUMP JUMPDEST PUSH1 0x0 DUP1 PUSH1 0x0 DUP1 PUSH1 0x0 DUP1 PUSH1 0xA0 DUP8 DUP10 SUB SLT ISZERO PUSH2 0x31CB JUMPI PUSH2 0x31CA PUSH2 0x2FE6 JUMP JUMPDEST JUMPDEST PUSH1 0x0 PUSH2 0x31D9 DUP10 DUP3 DUP11 ADD PUSH2 0x306F JUMP JUMPDEST SWAP7 POP POP PUSH1 0x20 PUSH2 0x31EA DUP10 DUP3 DUP11 ADD PUSH2 0x306F JUMP JUMPDEST SWAP6 POP POP PUSH1 0x40 DUP8 ADD CALLDATALOAD PUSH8 0xFFFFFFFFFFFFFFFF DUP2 GT ISZERO PUSH2 0x320B JUMPI PUSH2 0x320A PUSH2 0x2FEB JUMP JUMPDEST JUMPDEST PUSH2 0x3217 DUP10 DUP3 DUP11 ADD PUSH2 0x3158 JUMP JUMPDEST SWAP5 POP SWAP5 POP POP PUSH1 0x60 PUSH2 0x322A DUP10 DUP3 DUP11 ADD PUSH2 0x3039 JUMP JUMPDEST SWAP3 POP POP PUSH1 0x80 PUSH2 0x323B DUP10 DUP3 DUP11 ADD PUSH2 0x306F JUMP JUMPDEST SWAP2 POP POP SWAP3 SWAP6 POP SWAP3 SWAP6 POP SWAP3 SWAP6 JUMP JUMPDEST PUSH1 0x0 DUP2 MLOAD SWAP1 POP SWAP2 SWAP1 POP JUMP JUMPDEST PUSH1 0x0 DUP3 DUP3 MSTORE PUSH1 0x20 DUP3 ADD SWAP1 POP SWAP3 SWAP2 POP POP JUMP JUMPDEST PUSH1 0x0 DUP2 SWAP1 POP PUSH1 0x20 DUP3 ADD SWAP1 POP SWAP2 SWAP1 POP JUMP JUMPDEST PUSH2 0x327D DUP2 PUSH2 0x304E JUMP JUMPDEST DUP3 MSTORE POP POP JUMP JUMPDEST PUSH1 0x0 PUSH2 0x328F DUP4 DUP4 PUSH2 0x3274 JUMP JUMPDEST PUSH1 0x20 DUP4 ADD SWAP1 POP SWAP3 SWAP2 POP POP JUMP JUMPDEST PUSH1 0x0 PUSH1 0x20 DUP3 ADD SWAP1 POP SWAP2 SWAP1 POP JUMP JUMPDEST PUSH1 0x0 PUSH2 0x32B3 DUP3 PUSH2 0x3248 JUMP JUMPDEST PUSH2 0x32BD DUP2 DUP6 PUSH2 0x3253 JUMP JUMPDEST SWAP4 POP PUSH2 0x32C8 DUP4 PUSH2 0x3264 JUMP JUMPDEST DUP1 PUSH1 0x0 JUMPDEST DUP4 DUP2 LT ISZERO PUSH2 0x32F9 JUMPI DUP2 MLOAD PUSH2 0x32E0 DUP9 DUP3 PUSH2 0x3283 JUMP JUMPDEST SWAP8 POP PUSH2 0x32EB DUP4 PUSH2 0x329B JUMP JUMPDEST SWAP3 POP POP PUSH1 0x1 DUP2 ADD SWAP1 POP PUSH2 0x32CC JUMP JUMPDEST POP DUP6 SWAP4 POP POP POP POP SWAP3 SWAP2 POP POP JUMP JUMPDEST PUSH1 0x0 PUSH1 0x20 DUP3 ADD SWAP1 POP DUP2 DUP2 SUB PUSH1 0x0 DUP4 ADD MSTORE PUSH2 0x3320 DUP2 DUP5 PUSH2 0x32A8 JUMP JUMPDEST SWAP1 POP SWAP3 SWAP2 POP POP JUMP JUMPDEST PUSH1 0x0 PUSH1 0x1F NOT PUSH1 0x1F DUP4 ADD AND SWAP1 POP SWAP2 SWAP1 POP JUMP JUMPDEST PUSH32 0x4E487B7100000000000000000000000000000000000000000000000000000000 PUSH1 0x0 MSTORE PUSH1 0x41 PUSH1 0x4 MSTORE PUSH1 0x24 PUSH1 0x0 REVERT JUMPDEST PUSH2 0x3371 DUP3 PUSH2 0x3328 JUMP JUMPDEST DUP2 ADD DUP2 DUP2 LT PUSH8 0xFFFFFFFFFFFFFFFF DUP3 GT OR ISZERO PUSH2 0x3390 JUMPI PUSH2 0x338F PUSH2 0x3339 JUMP JUMPDEST JUMPDEST DUP1 PUSH1 0x40 MSTORE POP POP POP JUMP JUMPDEST PUSH1 0x0 PUSH2 0x33A3 PUSH2 0x2FDC JUMP JUMPDEST SWAP1 POP PUSH2 0x33AF DUP3 DUP3 PUSH2 0x3368 JUMP JUMPDEST SWAP2 SWAP1 POP JUMP JUMPDEST PUSH1 0x0 PUSH8 0xFFFFFFFFFFFFFFFF DUP3 GT ISZERO PUSH2 0x33CF JUMPI PUSH2 0x33CE PUSH2 0x3339 JUMP JUMPDEST JUMPDEST PUSH1 0x20 DUP3 MUL SWAP1 POP PUSH1 0x20 DUP2 ADD SWAP1 POP SWAP2 SWAP1 POP JUMP JUMPDEST PUSH1 0x0 PUSH2 0x33F3 PUSH2 0x33EE DUP5 PUSH2 0x33B4 JUMP JUMPDEST PUSH2 0x3399 JUMP JUMPDEST SWAP1 POP DUP1 DUP4 DUP3 MSTORE PUSH1 0x20 DUP3 ADD SWAP1 POP PUSH1 0x20 DUP5 MUL DUP4 ADD DUP6 DUP2 GT ISZERO PUSH2 0x3416 JUMPI PUSH2 0x3415 PUSH2 0x3153 JUMP JUMPDEST JUMPDEST DUP4 JUMPDEST DUP2 DUP2 LT ISZERO PUSH2 0x343F JUMPI DUP1 PUSH2 0x342B DUP9 DUP3 PUSH2 0x3039 JUMP JUMPDEST DUP5 MSTORE PUSH1 0x20 DUP5 ADD SWAP4 POP POP PUSH1 0x20 DUP2 ADD SWAP1 POP PUSH2 0x3418 JUMP JUMPDEST POP POP POP SWAP4 SWAP3 POP POP POP JUMP JUMPDEST PUSH1 0x0 DUP3 PUSH1 0x1F DUP4 ADD SLT PUSH2 0x345E JUMPI PUSH2 0x345D PUSH2 0x3149 JUMP JUMPDEST JUMPDEST DUP2 CALLDATALOAD PUSH2 0x346E DUP5 DUP3 PUSH1 0x20 DUP7 ADD PUSH2 0x33E0 JUMP JUMPDEST SWAP2 POP POP SWAP3 SWAP2 POP POP JUMP JUMPDEST PUSH1 0x0 DUP1 PUSH1 0x40 DUP4 DUP6 SUB SLT ISZERO PUSH2 0x348E JUMPI PUSH2 0x348D PUSH2 0x2FE6 JUMP JUMPDEST JUMPDEST PUSH1 0x0 PUSH2 0x349C DUP6 DUP3 DUP7 ADD PUSH2 0x306F JUMP JUMPDEST SWAP3 POP POP PUSH1 0x20 DUP4 ADD CALLDATALOAD PUSH8 0xFFFFFFFFFFFFFFFF DUP2 GT ISZERO PUSH2 0x34BD JUMPI PUSH2 0x34BC PUSH2 0x2FEB JUMP JUMPDEST JUMPDEST PUSH2 0x34C9 DUP6 DUP3 DUP7 ADD PUSH2 0x3449 JUMP JUMPDEST SWAP2 POP POP SWAP3 POP SWAP3 SWAP1 POP JUMP JUMPDEST PUSH1 0x0 DUP1 PUSH1 0x0 DUP1 PUSH1 0x0 PUSH1 0x80 DUP7 DUP9 SUB SLT ISZERO PUSH2 0x34EF JUMPI PUSH2 0x34EE PUSH2 0x2FE6 JUMP JUMPDEST JUMPDEST PUSH1 0x0 PUSH2 0x34FD DUP9 DUP3 DUP10 ADD PUSH2 0x306F JUMP JUMPDEST SWAP6 POP POP PUSH1 0x20 DUP7 ADD CALLDATALOAD PUSH8 0xFFFFFFFFFFFFFFFF DUP2 GT ISZERO PUSH2 0x351E JUMPI PUSH2 0x351D PUSH2 0x2FEB JUMP JUMPDEST JUMPDEST PUSH2 0x352A DUP9 DUP3 DUP10 ADD PUSH2 0x3158 JUMP JUMPDEST SWAP5 POP SWAP5 POP POP PUSH1 0x40 PUSH2 0x353D DUP9 DUP3 DUP10 ADD PUSH2 0x3039 JUMP JUMPDEST SWAP3 POP POP PUSH1 0x60 PUSH2 0x354E DUP9 DUP3 DUP10 ADD PUSH2 0x306F JUMP JUMPDEST SWAP2 POP POP SWAP3 SWAP6 POP SWAP3 SWAP6 SWAP1 SWAP4 POP JUMP JUMPDEST PUSH2 0x3564 DUP2 PUSH2 0x3010 JUMP JUMPDEST DUP3 MSTORE POP POP JUMP JUMPDEST PUSH1 0x0 PUSH1 0x20 DUP3 ADD SWAP1 POP PUSH2 0x357F PUSH1 0x0 DUP4 ADD DUP5 PUSH2 0x355B JUMP JUMPDEST SWAP3 SWAP2 POP POP JUMP JUMPDEST PUSH1 0x0 DUP1 PUSH1 0x0 DUP1 PUSH1 0x0 DUP1 PUSH1 0x0 PUSH1 0xE0 DUP9 DUP11 SUB SLT ISZERO PUSH2 0x35A4 JUMPI PUSH2 0x35A3 PUSH2 0x2FE6 JUMP JUMPDEST JUMPDEST PUSH1 0x0 PUSH2 0x35B2 DUP11 DUP3 DUP12 ADD PUSH2 0x3039 JUMP JUMPDEST SWAP8 POP POP PUSH1 0x20 PUSH2 0x35C3 DUP11 DUP3 DUP12 ADD PUSH2 0x3039 JUMP JUMPDEST SWAP7 POP POP PUSH1 0x40 PUSH2 0x35D4 DUP11 DUP3 DUP12 ADD PUSH2 0x306F JUMP JUMPDEST SWAP6 POP POP PUSH1 0x60 PUSH2 0x35E5 DUP11 DUP3 DUP12 ADD PUSH2 0x306F JUMP JUMPDEST SWAP5 POP POP PUSH1 0x80 PUSH2 0x35F6 DUP11 DUP3 DUP12 ADD PUSH2 0x306F JUMP JUMPDEST SWAP4 POP POP PUSH1 0xA0 PUSH2 0x3607 DUP11 DUP3 DUP12 ADD PUSH2 0x3039 JUMP JUMPDEST SWAP3 POP POP PUSH1 0xC0 PUSH2 0x3618 DUP11 DUP3 DUP12 ADD PUSH2 0x306F JUMP JUMPDEST SWAP2 POP POP SWAP3 SWAP6 SWAP9 SWAP2 SWAP5 SWAP8 POP SWAP3 SWAP6 POP JUMP JUMPDEST PUSH1 0x0 DUP1 PUSH1 0x40 DUP4 DUP6 SUB SLT ISZERO PUSH2 0x363E JUMPI PUSH2 0x363D PUSH2 0x2FE6 JUMP JUMPDEST JUMPDEST PUSH1 0x0 PUSH2 0x364C DUP6 DUP3 DUP7 ADD PUSH2 0x3039 JUMP JUMPDEST SWAP3 POP POP PUSH1 0x20 PUSH2 0x365D DUP6 DUP3 DUP7 ADD PUSH2 0x3039 JUMP JUMPDEST SWAP2 POP POP SWAP3 POP SWAP3 SWAP1 POP JUMP JUMPDEST PUSH1 0x0 PUSH1 0x60 DUP3 ADD SWAP1 POP PUSH2 0x367C PUSH1 0x0 DUP4 ADD DUP7 PUSH2 0x3111 JUMP JUMPDEST PUSH2 0x3689 PUSH1 0x20 DUP4 ADD DUP6 PUSH2 0x3111 JUMP JUMPDEST PUSH2 0x3696 PUSH1 0x40 DUP4 ADD DUP5 PUSH2 0x355B JUMP JUMPDEST SWAP5 SWAP4 POP POP POP POP JUMP JUMPDEST PUSH1 0x0 DUP1 PUSH1 0x0 DUP1 PUSH1 0x0 DUP1 PUSH1 0x0 DUP1 PUSH2 0x100 DUP10 DUP12 SUB SLT ISZERO PUSH2 0x36BF JUMPI PUSH2 0x36BE PUSH2 0x2FE6 JUMP JUMPDEST JUMPDEST PUSH1 0x0 PUSH2 0x36CD DUP12 DUP3 DUP13 ADD PUSH2 0x3039 JUMP JUMPDEST SWAP9 POP POP PUSH1 0x20 PUSH2 0x36DE DUP12 DUP3 DUP13 ADD PUSH2 0x3039 JUMP JUMPDEST SWAP8 POP POP PUSH1 0x40 PUSH2 0x36EF DUP12 DUP3 DUP13 ADD PUSH2 0x306F JUMP JUMPDEST SWAP7 POP POP PUSH1 0x60 PUSH2 0x3700 DUP12 DUP3 DUP13 ADD PUSH2 0x306F JUMP JUMPDEST SWAP6 POP POP PUSH1 0x80 PUSH2 0x3711 DUP12 DUP3 DUP13 ADD PUSH2 0x306F JUMP JUMPDEST SWAP5 POP POP PUSH1 0xA0 PUSH2 0x3722 DUP12 DUP3 DUP13 ADD PUSH2 0x306F JUMP JUMPDEST SWAP4 POP POP PUSH1 0xC0 PUSH2 0x3733 DUP12 DUP3 DUP13 ADD PUSH2 0x3039 JUMP JUMPDEST SWAP3 POP POP PUSH1 0xE0 PUSH2 0x3744 DUP12 DUP3 DUP13 ADD PUSH2 0x306F JUMP JUMPDEST SWAP2 POP POP SWAP3 SWAP6 SWAP9 POP SWAP3 SWAP6 SWAP9 SWAP1 SWAP4 SWAP7 POP JUMP JUMPDEST PUSH1 0x0 PUSH1 0x60 DUP3 ADD SWAP1 POP PUSH2 0x3769 PUSH1 0x0 DUP4 ADD DUP7 PUSH2 0x3111 JUMP JUMPDEST PUSH2 0x3776 PUSH1 0x20 DUP4 ADD DUP6 PUSH2 0x3111 JUMP JUMPDEST PUSH2 0x3783 PUSH1 0x40 DUP4 ADD DUP5 PUSH2 0x3111 JUMP JUMPDEST SWAP5 SWAP4 POP POP POP POP JUMP JUMPDEST PUSH1 0x0 DUP3 DUP3 MSTORE PUSH1 0x20 DUP3 ADD SWAP1 POP SWAP3 SWAP2 POP POP JUMP JUMPDEST PUSH32 0x4558504952454400000000000000000000000000000000000000000000000000 PUSH1 0x0 DUP3 ADD MSTORE POP JUMP JUMPDEST PUSH1 0x0 PUSH2 0x37D2 PUSH1 0x7 DUP4 PUSH2 0x378B JUMP JUMPDEST SWAP2 POP PUSH2 0x37DD DUP3 PUSH2 0x379C JUMP JUMPDEST PUSH1 0x20 DUP3 ADD SWAP1 POP SWAP2 SWAP1 POP JUMP JUMPDEST PUSH1 0x0 PUSH1 0x20 DUP3 ADD SWAP1 POP DUP2 DUP2 SUB PUSH1 0x0 DUP4 ADD MSTORE PUSH2 0x3801 DUP2 PUSH2 0x37C5 JUMP JUMPDEST SWAP1 POP SWAP2 SWAP1 POP JUMP JUMPDEST PUSH1 0x0 PUSH1 0x20 DUP3 ADD SWAP1 POP PUSH2 0x381D PUSH1 0x0 DUP4 ADD DUP5 PUSH2 0x3111 JUMP JUMPDEST SWAP3 SWAP2 POP POP JUMP JUMPDEST PUSH32 0x4E487B7100000000000000000000000000000000000000000000000000000000 PUSH1 0x0 MSTORE PUSH1 0x11 PUSH1 0x4 MSTORE PUSH1 0x24 PUSH1 0x0 REVERT JUMPDEST PUSH1 0x0 PUSH2 0x385D DUP3 PUSH2 0x304E JUMP JUMPDEST SWAP2 POP PUSH2 0x3868 DUP4 PUSH2 0x304E JUMP JUMPDEST SWAP3 POP DUP3 DUP3 SUB SWAP1 POP DUP2 DUP2 GT ISZERO PUSH2 0x3880 JUMPI PUSH2 0x387F PUSH2 0x3823 JUMP JUMPDEST JUMPDEST SWAP3 SWAP2 POP POP JUMP JUMPDEST PUSH32 0x4E487B7100000000000000000000000000000000000000000000000000000000 PUSH1 0x0 MSTORE PUSH1 0x32 PUSH1 0x4 MSTORE PUSH1 0x24 PUSH1 0x0 REVERT JUMPDEST PUSH1 0x0 PUSH1 0x20 DUP3 DUP5 SUB SLT ISZERO PUSH2 0x38CB JUMPI PUSH2 0x38CA PUSH2 0x2FE6 JUMP JUMPDEST JUMPDEST PUSH1 0x0 PUSH2 0x38D9 DUP5 DUP3 DUP6 ADD PUSH2 0x3039 JUMP JUMPDEST SWAP2 POP POP SWAP3 SWAP2 POP POP JUMP JUMPDEST PUSH32 0x494E56414C49445F504154480000000000000000000000000000000000000000 PUSH1 0x0 DUP3 ADD MSTORE POP JUMP JUMPDEST PUSH1 0x0 PUSH2 0x3918 PUSH1 0xC DUP4 PUSH2 0x378B JUMP JUMPDEST SWAP2 POP PUSH2 0x3923 DUP3 PUSH2 0x38E2 JUMP JUMPDEST PUSH1 0x20 DUP3 ADD SWAP1 POP SWAP2 SWAP1 POP JUMP JUMPDEST PUSH1 0x0 PUSH1 0x20 DUP3 ADD SWAP1 POP DUP2 DUP2 SUB PUSH1 0x0 DUP4 ADD MSTORE PUSH2 0x3947 DUP2 PUSH2 0x390B JUMP JUMPDEST SWAP1 POP SWAP2 SWAP1 POP JUMP JUMPDEST PUSH32 0x494E53554646494349454E545F4F55545055545F414D4F554E54000000000000 PUSH1 0x0 DUP3 ADD MSTORE POP JUMP JUMPDEST PUSH1 0x0 PUSH2 0x3984 PUSH1 0x1A DUP4 PUSH2 0x378B JUMP JUMPDEST SWAP2 POP PUSH2 0x398F DUP3 PUSH2 0x394E JUMP JUMPDEST PUSH1 0x20 DUP3 ADD SWAP1 POP SWAP2 SWAP1 POP JUMP JUMPDEST PUSH1 0x0 PUSH1 0x20 DUP3 ADD SWAP1 POP DUP2 DUP2 SUB PUSH1 0x0 DUP4 ADD MSTORE PUSH2 0x39B3 DUP2 PUSH2 0x3977 JUMP JUMPDEST SWAP1 POP SWAP2 SWAP1 POP JUMP JUMPDEST PUSH1 0x0 PUSH2 0x39C5 DUP3 PUSH2 0x304E JUMP JUMPDEST SWAP2 POP PUSH1 0x0 DUP3 SUB PUSH2 0x39D8 JUMPI PUSH2 0x39D7 PUSH2 0x3823 JUMP JUMPDEST JUMPDEST PUSH1 0x1 DUP3 SUB SWAP1 POP SWAP2 SWAP1 POP JUMP JUMPDEST PUSH32 0x4558434553534956455F494E5055545F414D4F554E5400000000000000000000 PUSH1 0x0 DUP3 ADD MSTORE POP JUMP JUMPDEST PUSH1 0x0 PUSH2 0x3A19 PUSH1 0x16 DUP4 PUSH2 0x378B JUMP JUMPDEST SWAP2 POP PUSH2 0x3A24 DUP3 PUSH2 0x39E3 JUMP JUMPDEST PUSH1 0x20 DUP3 ADD SWAP1 POP SWAP2 SWAP1 POP JUMP JUMPDEST PUSH1 0x0 PUSH1 0x20 DUP3 ADD SWAP1 POP DUP2 DUP2 SUB PUSH1 0x0 DUP4 ADD MSTORE PUSH2 0x3A48 DUP2 PUSH2 0x3A0C JUMP JUMPDEST SWAP1 POP SWAP2 SWAP1 POP JUMP JUMPDEST PUSH1 0x0 PUSH1 0x40 DUP3 ADD SWAP1 POP PUSH2 0x3A64 PUSH1 0x0 DUP4 ADD DUP6 PUSH2 0x355B JUMP JUMPDEST PUSH2 0x3A71 PUSH1 0x20 DUP4 ADD DUP5 PUSH2 0x3111 JUMP JUMPDEST SWAP4 SWAP3 POP POP POP JUMP JUMPDEST PUSH1 0x0 DUP2 ISZERO ISZERO SWAP1 POP SWAP2 SWAP1 POP JUMP JUMPDEST PUSH2 0x3A8D DUP2 PUSH2 0x3A78 JUMP JUMPDEST DUP2 EQ PUSH2 0x3A98 JUMPI PUSH1 0x0 DUP1 REVERT JUMPDEST POP JUMP JUMPDEST PUSH1 0x0 DUP2 MLOAD SWAP1 POP PUSH2 0x3AAA DUP2 PUSH2 0x3A84 JUMP JUMPDEST SWAP3 SWAP2 POP POP JUMP JUMPDEST PUSH1 0x0 PUSH1 0x20 DUP3 DUP5 SUB SLT ISZERO PUSH2 0x3AC6 JUMPI PUSH2 0x3AC5 PUSH2 0x2FE6 JUMP JUMPDEST JUMPDEST PUSH1 0x0 PUSH2 0x3AD4 DUP5 DUP3 DUP6 ADD PUSH2 0x3A9B JUMP JUMPDEST SWAP2 POP POP SWAP3 SWAP2 POP POP JUMP JUMPDEST PUSH1 0x0 DUP2 MLOAD SWAP1 POP PUSH2 0x3AEC DUP2 PUSH2 0x3058 JUMP JUMPDEST SWAP3 SWAP2 POP POP JUMP JUMPDEST PUSH1 0x0 DUP1 PUSH1 0x40 DUP4 DUP6 SUB SLT ISZERO PUSH2 0x3B09 JUMPI PUSH2 0x3B08 PUSH2 0x2FE6 JUMP JUMPDEST JUMPDEST PUSH1 0x0 PUSH2 0x3B17 DUP6 DUP3 DUP7 ADD PUSH2 0x3ADD JUMP JUMPDEST SWAP3 POP POP PUSH1 0x20 PUSH2 0x3B28 DUP6 DUP3 DUP7 ADD PUSH2 0x3ADD JUMP JUMPDEST SWAP2 POP POP SWAP3 POP SWAP3 SWAP1 POP JUMP JUMPDEST PUSH32 0x494E53554646494349454E545F415F414D4F554E540000000000000000000000 PUSH1 0x0 DUP3 ADD MSTORE POP JUMP JUMPDEST PUSH1 0x0 PUSH2 0x3B68 PUSH1 0x15 DUP4 PUSH2 0x378B JUMP JUMPDEST SWAP2 POP PUSH2 0x3B73 DUP3 PUSH2 0x3B32 JUMP JUMPDEST PUSH1 0x20 DUP3 ADD SWAP1 POP SWAP2 SWAP1 POP JUMP JUMPDEST PUSH1 0x0 PUSH1 0x20 DUP3 ADD SWAP1 POP DUP2 DUP2 SUB PUSH1 0x0 DUP4 ADD MSTORE PUSH2 0x3B97 DUP2 PUSH2 0x3B5B JUMP JUMPDEST SWAP1 POP SWAP2 SWAP1 POP JUMP JUMPDEST PUSH32 0x494E53554646494349454E545F425F414D4F554E540000000000000000000000 PUSH1 0x0 DUP3 ADD MSTORE POP JUMP JUMPDEST PUSH1 0x0 PUSH2 0x3BD4 PUSH1 0x15 DUP4 PUSH2 0x378B JUMP JUMPDEST SWAP2 POP PUSH2 0x3BDF DUP3 PUSH2 0x3B9E JUMP JUMPDEST PUSH1 0x20 DUP3 ADD SWAP1 POP SWAP2 SWAP1 POP JUMP JUMPDEST PUSH1 0x0 PUSH1 0x20 DUP3 ADD SWAP1 POP DUP2 DUP2 SUB PUSH1 0x0 DUP4 ADD MSTORE PUSH2 0x3C03 DUP2 PUSH2 0x3BC7 JUMP JUMPDEST SWAP1 POP SWAP2 SWAP1 POP JUMP JUMPDEST PUSH1 0x0 PUSH2 0x3C15 DUP3 PUSH2 0x304E JUMP JUMPDEST SWAP2 POP PUSH2 0x3C20 DUP4 PUSH2 0x304E JUMP JUMPDEST SWAP3 POP DUP3 DUP3 ADD SWAP1 POP DUP1 DUP3 GT ISZERO PUSH2 0x3C38 JUMPI PUSH2 0x3C37 PUSH2 0x3823 JUMP JUMPDEST JUMPDEST SWAP3 SWAP2 POP POP JUMP JUMPDEST PUSH1 0x0 DUP1 PUSH1 0x0 PUSH1 0x60 DUP5 DUP7 SUB SLT ISZERO PUSH2 0x3C57 JUMPI PUSH2 0x3C56 PUSH2 0x2FE6 JUMP JUMPDEST JUMPDEST PUSH1 0x0 PUSH2 0x3C65 DUP7 DUP3 DUP8 ADD PUSH2 0x3ADD JUMP JUMPDEST SWAP4 POP POP PUSH1 0x20 PUSH2 0x3C76 DUP7 DUP3 DUP8 ADD PUSH2 0x3ADD JUMP JUMPDEST SWAP3 POP POP PUSH1 0x40 PUSH2 0x3C87 DUP7 DUP3 DUP8 ADD PUSH2 0x3ADD JUMP JUMPDEST SWAP2 POP POP SWAP3 POP SWAP3 POP SWAP3 JUMP JUMPDEST PUSH1 0x0 PUSH1 0x20 DUP3 DUP5 SUB SLT ISZERO PUSH2 0x3CA7 JUMPI PUSH2 0x3CA6 PUSH2 0x2FE6 JUMP JUMPDEST JUMPDEST PUSH1 0x0 PUSH2 0x3CB5 DUP5 DUP3 DUP6 ADD PUSH2 0x3ADD JUMP JUMPDEST SWAP2 POP POP SWAP3 SWAP2 POP POP JUMP JUMPDEST PUSH1 0x0 DUP2 MLOAD SWAP1 POP SWAP2 SWAP1 POP JUMP JUMPDEST PUSH1 0x0 DUP2 SWAP1 POP SWAP3 SWAP2 POP POP JUMP JUMPDEST PUSH1 0x0 JUMPDEST DUP4 DUP2 LT ISZERO PUSH2 0x3CF2 JUMPI DUP1 DUP3 ADD MLOAD DUP2 DUP5 ADD MSTORE PUSH1 0x20 DUP2 ADD SWAP1 POP PUSH2 0x3CD7 JUMP JUMPDEST PUSH1 0x0 DUP5 DUP5 ADD MSTORE POP POP POP POP JUMP JUMPDEST PUSH1 0x0 PUSH2 0x3D09 DUP3 PUSH2 0x3CBE JUMP JUMPDEST PUSH2 0x3D13 DUP2 DUP6 PUSH2 0x3CC9 JUMP JUMPDEST SWAP4 POP PUSH2 0x3D23 DUP2 DUP6 PUSH1 0x20 DUP7 ADD PUSH2 0x3CD4 JUMP JUMPDEST DUP1 DUP5 ADD SWAP2 POP POP SWAP3 SWAP2 POP POP JUMP JUMPDEST PUSH1 0x0 PUSH2 0x3D3B DUP3 DUP5 PUSH2 0x3CFE JUMP JUMPDEST SWAP2 POP DUP2 SWAP1 POP SWAP3 SWAP2 POP POP JUMP JUMPDEST PUSH32 0x5472616E7366657248656C7065723A205452414E534645525F4641494C454400 PUSH1 0x0 DUP3 ADD MSTORE POP JUMP JUMPDEST PUSH1 0x0 PUSH2 0x3D7C PUSH1 0x1F DUP4 PUSH2 0x378B JUMP JUMPDEST SWAP2 POP PUSH2 0x3D87 DUP3 PUSH2 0x3D46 JUMP JUMPDEST PUSH1 0x20 DUP3 ADD SWAP1 POP SWAP2 SWAP1 POP JUMP JUMPDEST PUSH1 0x0 PUSH1 0x20 DUP3 ADD SWAP1 POP DUP2 DUP2 SUB PUSH1 0x0 DUP4 ADD MSTORE PUSH2 0x3DAB DUP2 PUSH2 0x3D6F JUMP JUMPDEST SWAP1 POP SWAP2 SWAP1 POP JUMP JUMPDEST PUSH32 0x4554485F5452414E534645525F4641494C454400000000000000000000000000 PUSH1 0x0 DUP3 ADD MSTORE POP JUMP JUMPDEST PUSH1 0x0 PUSH2 0x3DE8 PUSH1 0x13 DUP4 PUSH2 0x378B JUMP JUMPDEST SWAP2 POP PUSH2 0x3DF3 DUP3 PUSH2 0x3DB2 JUMP JUMPDEST PUSH1 0x20 DUP3 ADD SWAP1 POP SWAP2 SWAP1 POP JUMP JUMPDEST PUSH1 0x0 PUSH1 0x20 DUP3 ADD SWAP1 POP DUP2 DUP2 SUB PUSH1 0x0 DUP4 ADD MSTORE PUSH2 0x3E17 DUP2 PUSH2 0x3DDB JUMP JUMPDEST SWAP1 POP SWAP2 SWAP1 POP JUMP JUMPDEST PUSH1 0x0 DUP2 PUSH1 0x60 SHL SWAP1 POP SWAP2 SWAP1 POP JUMP JUMPDEST PUSH1 0x0 PUSH2 0x3E36 DUP3 PUSH2 0x3E1E JUMP JUMPDEST SWAP1 POP SWAP2 SWAP1 POP JUMP JUMPDEST PUSH1 0x0 PUSH2 0x3E48 DUP3 PUSH2 0x3E2B JUMP JUMPDEST SWAP1 POP SWAP2 SWAP1 POP JUMP JUMPDEST PUSH2 0x3E60 PUSH2 0x3E5B DUP3 PUSH2 0x3010 JUMP JUMPDEST PUSH2 0x3E3D JUMP JUMPDEST DUP3 MSTORE POP POP JUMP JUMPDEST PUSH1 0x0 PUSH2 0x3E72 DUP3 DUP6 PUSH2 0x3E4F JUMP JUMPDEST PUSH1 0x14 DUP3 ADD SWAP2 POP PUSH2 0x3E82 DUP3 DUP5 PUSH2 0x3E4F JUMP JUMPDEST PUSH1 0x14 DUP3 ADD SWAP2 POP DUP2 SWAP1 POP SWAP4 SWAP3 POP POP POP JUMP JUMPDEST PUSH1 0x0 DUP2 SWAP1 POP SWAP3 SWAP2 POP POP JUMP JUMPDEST PUSH32 0xFF00000000000000000000000000000000000000000000000000000000000000 PUSH1 0x0 DUP3 ADD MSTORE POP JUMP JUMPDEST PUSH1 0x0 PUSH2 0x3ED3 PUSH1 0x1 DUP4 PUSH2 0x3E92 JUMP JUMPDEST SWAP2 POP PUSH2 0x3EDE DUP3 PUSH2 0x3E9D JUMP JUMPDEST PUSH1 0x1 DUP3 ADD SWAP1 POP SWAP2 SWAP1 POP JUMP JUMPDEST PUSH1 0x0 DUP2 SWAP1 POP SWAP2 SWAP1 POP JUMP JUMPDEST PUSH1 0x0 DUP2 SWAP1 POP SWAP2 SWAP1 POP JUMP JUMPDEST PUSH2 0x3F0E PUSH2 0x3F09 DUP3 PUSH2 0x3EE9 JUMP JUMPDEST PUSH2 0x3EF3 JUMP JUMPDEST DUP3 MSTORE POP POP JUMP JUMPDEST PUSH1 0x0 PUSH2 0x3F1F DUP3 PUSH2 0x3EC6 JUMP JUMPDEST SWAP2 POP PUSH2 0x3F2B DUP3 DUP7 PUSH2 0x3E4F JUMP JUMPDEST PUSH1 0x14 DUP3 ADD SWAP2 POP PUSH2 0x3F3B DUP3 DUP6 PUSH2 0x3EFD JUMP JUMPDEST PUSH1 0x20 DUP3 ADD SWAP2 POP PUSH2 0x3F4B DUP3 DUP5 PUSH2 0x3EFD JUMP JUMPDEST PUSH1 0x20 DUP3 ADD SWAP2 POP DUP2 SWAP1 POP SWAP5 SWAP4 POP POP POP POP JUMP JUMPDEST PUSH1 0x0 PUSH1 0x60 DUP3 ADD SWAP1 POP PUSH2 0x3F71 PUSH1 0x0 DUP4 ADD DUP7 PUSH2 0x355B JUMP JUMPDEST PUSH2 0x3F7E PUSH1 0x20 DUP4 ADD DUP6 PUSH2 0x355B JUMP JUMPDEST PUSH2 0x3F8B PUSH1 0x40 DUP4 ADD DUP5 PUSH2 0x3111 JUMP JUMPDEST SWAP5 SWAP4 POP POP POP POP JUMP JUMPDEST PUSH32 0x5452414E534645525F46524F4D5F4641494C4544000000000000000000000000 PUSH1 0x0 DUP3 ADD MSTORE POP JUMP JUMPDEST PUSH1 0x0 PUSH2 0x3FC9 PUSH1 0x14 DUP4 PUSH2 0x378B JUMP JUMPDEST SWAP2 POP PUSH2 0x3FD4 DUP3 PUSH2 0x3F93 JUMP JUMPDEST PUSH1 0x20 DUP3 ADD SWAP1 POP SWAP2 SWAP1 POP JUMP JUMPDEST PUSH1 0x0 PUSH1 0x20 DUP3 ADD SWAP1 POP DUP2 DUP2 SUB PUSH1 0x0 DUP4 ADD MSTORE PUSH2 0x3FF8 DUP2 PUSH2 0x3FBC JUMP JUMPDEST SWAP1 POP SWAP2 SWAP1 POP JUMP JUMPDEST PUSH32 0x494E53554646494349454E545F4C495155494449545900000000000000000000 PUSH1 0x0 DUP3 ADD MSTORE POP JUMP JUMPDEST PUSH1 0x0 PUSH2 0x4035 PUSH1 0x16 DUP4 PUSH2 0x378B JUMP JUMPDEST SWAP2 POP PUSH2 0x4040 DUP3 PUSH2 0x3FFF JUMP JUMPDEST PUSH1 0x20 DUP3 ADD SWAP1 POP SWAP2 SWAP1 POP JUMP JUMPDEST PUSH1 0x0 PUSH1 0x20 DUP3 ADD SWAP1 POP DUP2 DUP2 SUB PUSH1 0x0 DUP4 ADD MSTORE PUSH2 0x4064 DUP2 PUSH2 0x4028 JUMP JUMPDEST SWAP1 POP SWAP2 SWAP1 POP JUMP JUMPDEST PUSH1 0x0 PUSH2 0x4076 DUP3 PUSH2 0x304E JUMP JUMPDEST SWAP2 POP PUSH2 0x4081 DUP4 PUSH2 0x304E JUMP JUMPDEST SWAP3 POP DUP3 DUP3 MUL PUSH2 0x408F DUP2 PUSH2 0x304E JUMP JUMPDEST SWAP2 POP DUP3 DUP3 DIV DUP5 EQ DUP4 ISZERO OR PUSH2 0x40A6 JUMPI PUSH2 0x40A5 PUSH2 0x3823 JUMP JUMPDEST JUMPDEST POP SWAP3 SWAP2 POP POP JUMP JUMPDEST PUSH32 0x4E487B7100000000000000000000000000000000000000000000000000000000 PUSH1 0x0 MSTORE PUSH1 0x12 PUSH1 0x4 MSTORE PUSH1 0x24 PUSH1 0x0 REVERT JUMPDEST PUSH1 0x0 PUSH2 0x40E7 DUP3 PUSH2 0x304E JUMP JUMPDEST SWAP2 POP PUSH2 0x40F2 DUP4 PUSH2 0x304E JUMP JUMPDEST SWAP3 POP DUP3 PUSH2 0x4102 JUMPI PUSH2 0x4101 PUSH2 0x40AD JUMP JUMPDEST JUMPDEST DUP3 DUP3 DIV SWAP1 POP SWAP3 SWAP2 POP POP JUMP JUMPDEST PUSH32 0x4944454E544943414C5F4144445245535345535F4E4F545F414C4C4F57454400 PUSH1 0x0 DUP3 ADD MSTORE POP JUMP JUMPDEST PUSH1 0x0 PUSH2 0x4143 PUSH1 0x1F DUP4 PUSH2 0x378B JUMP JUMPDEST SWAP2 POP PUSH2 0x414E DUP3 PUSH2 0x410D JUMP JUMPDEST PUSH1 0x20 DUP3 ADD SWAP1 POP SWAP2 SWAP1 POP JUMP JUMPDEST PUSH1 0x0 PUSH1 0x20 DUP3 ADD SWAP1 POP DUP2 DUP2 SUB PUSH1 0x0 DUP4 ADD MSTORE PUSH2 0x4172 DUP2 PUSH2 0x4136 JUMP JUMPDEST SWAP1 POP SWAP2 SWAP1 POP JUMP JUMPDEST PUSH32 0x5A45524F5F414444524553535F4E4F545F414C4C4F5745440000000000000000 PUSH1 0x0 DUP3 ADD MSTORE POP JUMP JUMPDEST PUSH1 0x0 PUSH2 0x41AF PUSH1 0x18 DUP4 PUSH2 0x378B JUMP JUMPDEST SWAP2 POP PUSH2 0x41BA DUP3 PUSH2 0x4179 JUMP JUMPDEST PUSH1 0x20 DUP3 ADD SWAP1 POP SWAP2 SWAP1 POP JUMP JUMPDEST PUSH1 0x0 PUSH1 0x20 DUP3 ADD SWAP1 POP DUP2 DUP2 SUB PUSH1 0x0 DUP4 ADD MSTORE PUSH2 0x41DE DUP2 PUSH2 0x41A2 JUMP JUMPDEST SWAP1 POP SWAP2 SWAP1 POP JUMP JUMPDEST PUSH32 0x494E53554646494349454E545F494E5055545F414D4F554E5400000000000000 PUSH1 0x0 DUP3 ADD MSTORE POP JUMP JUMPDEST PUSH1 0x0 PUSH2 0x421B PUSH1 0x19 DUP4 PUSH2 0x378B JUMP JUMPDEST SWAP2 POP PUSH2 0x4226 DUP3 PUSH2 0x41E5 JUMP JUMPDEST PUSH1 0x20 DUP3 ADD SWAP1 POP SWAP2 SWAP1 POP JUMP JUMPDEST PUSH1 0x0 PUSH1 0x20 DUP3 ADD SWAP1 POP DUP2 DUP2 SUB PUSH1 0x0 DUP4 ADD MSTORE PUSH2 0x424A DUP2 PUSH2 0x420E JUMP JUMPDEST SWAP1 POP SWAP2 SWAP1 POP JUMP JUMPDEST PUSH1 0x0 PUSH1 0x40 DUP3 ADD SWAP1 POP PUSH2 0x4266 PUSH1 0x0 DUP4 ADD DUP6 PUSH2 0x355B JUMP JUMPDEST PUSH2 0x4273 PUSH1 0x20 DUP4 ADD DUP5 PUSH2 0x355B JUMP JUMPDEST SWAP4 SWAP3 POP POP POP JUMP JUMPDEST PUSH1 0x0 DUP2 MLOAD SWAP1 POP PUSH2 0x4289 DUP2 PUSH2 0x3022 JUMP JUMPDEST SWAP3 SWAP2 POP POP JUMP JUMPDEST PUSH1 0x0 PUSH1 0x20 DUP3 DUP5 SUB SLT ISZERO PUSH2 0x42A5 JUMPI PUSH2 0x42A4 PUSH2 0x2FE6 JUMP JUMPDEST JUMPDEST PUSH1 0x0 PUSH2 0x42B3 DUP5 DUP3 DUP6 ADD PUSH2 0x427A JUMP JUMPDEST SWAP2 POP POP SWAP3 SWAP2 POP POP JUMP JUMPDEST PUSH32 0x494E53554646494349454E545F746F6B656E425F414D4F554E54000000000000 PUSH1 0x0 DUP3 ADD MSTORE POP JUMP JUMPDEST PUSH1 0x0 PUSH2 0x42F2 PUSH1 0x1A DUP4 PUSH2 0x378B JUMP JUMPDEST SWAP2 POP PUSH2 0x42FD DUP3 PUSH2 0x42BC JUMP JUMPDEST PUSH1 0x20 DUP3 ADD SWAP1 POP SWAP2 SWAP1 POP JUMP JUMPDEST PUSH1 0x0 PUSH1 0x20 DUP3 ADD SWAP1 POP DUP2 DUP2 SUB PUSH1 0x0 DUP4 ADD MSTORE PUSH2 0x4321 DUP2 PUSH2 0x42E5 JUMP JUMPDEST SWAP1 POP SWAP2 SWAP1 POP JUMP JUMPDEST PUSH32 0x494E53554646494349454E545F746F6B656E415F414D4F554E54000000000000 PUSH1 0x0 DUP3 ADD MSTORE POP JUMP JUMPDEST PUSH1 0x0 PUSH2 0x435E PUSH1 0x1A DUP4 PUSH2 0x378B JUMP JUMPDEST SWAP2 POP PUSH2 0x4369 DUP3 PUSH2 0x4328 JUMP JUMPDEST PUSH1 0x20 DUP3 ADD SWAP1 POP SWAP2 SWAP1 POP JUMP JUMPDEST PUSH1 0x0 PUSH1 0x20 DUP3 ADD SWAP1 POP DUP2 DUP2 SUB PUSH1 0x0 DUP4 ADD MSTORE PUSH2 0x438D DUP2 PUSH2 0x4351 JUMP JUMPDEST SWAP1 POP SWAP2 SWAP1 POP JUMP JUMPDEST PUSH32 0x494E53554646494349454E545F414D4F554E5400000000000000000000000000 PUSH1 0x0 DUP3 ADD MSTORE POP JUMP JUMPDEST PUSH1 0x0 PUSH2 0x43CA PUSH1 0x13 DUP4 PUSH2 0x378B JUMP JUMPDEST SWAP2 POP PUSH2 0x43D5 DUP3 PUSH2 0x4394 JUMP JUMPDEST PUSH1 0x20 DUP3 ADD SWAP1 POP SWAP2 SWAP1 POP JUMP JUMPDEST PUSH1 0x0 PUSH1 0x20 DUP3 ADD SWAP1 POP DUP2 DUP2 SUB PUSH1 0x0 DUP4 ADD MSTORE PUSH2 0x43F9 DUP2 PUSH2 0x43BD JUMP JUMPDEST SWAP1 POP SWAP2 SWAP1 POP JUMP INVALID LOG2 PUSH5 0x6970667358 0x22 SLT KECCAK256 PUSH27 0x11E16E5B7EEAF5C58C03C8A4DE4F74CE36DB30CC8653143E1F5A2E LOG1 0xBA MOD GASPRICE PUSH5 0x736F6C6343 STOP ADDMOD SHR STOP CALLER "},"methodIdentifiers":{"WETH()":"ad5c4648","addLiquidity(address,address,uint256,uint256,uint256,uint256,address,uint256)":"e8e33700","addLiquidityETH(address,uint256,uint256,uint256,address,uint256)":"f305d719","factory()":"c45a0155","getAmountsIn(uint256,address[])":"1f00ca74","getAmountsOut(uint256,address[])":"d06ca61f","getReserves(address,address)":"d52bb6f4","removeLiquidity(address,address,uint256,uint256,uint256,address,uint256)":"baa2abde","removeLiquidityETH(address,uint256,uint256,uint256,address,uint256)":"02751cec","swapETHForExactTokens(uint256,address[],address,uint256)":"fb3bdb41","swapExactETHForTokens(uint256,address[],address,uint256)":"7ff36ab5","swapExactTokensForETH(uint256,uint256,address[],address,uint256)":"18cbafe5","swapExactTokensForTokens(uint256,uint256,address[],address,uint256)":"38ed1739","swapTokensForExactETH(uint256,uint256,address[],address,uint256)":"4a25d94a","swapTokensForExactTokens(uint256,uint256,address[],address,uint256)":"8803dbee"}}}}}