{"src/backend/contracts/PoolConfiguration.sol":{"PoolConfiguration":{"abi":[{"inputs":[{"internalType":"uint256","name":"_baseBorrowRate","type":"uint256"},{"internalType":"uint256","name":"_optimalSpan","type":"uint256"},{"internalType":"uint256","name":"_exceessSpan","type":"uint256"},{"internalType":"uint256","name":"_optimalUtilizationRate","type":"uint256"},{"internalType":"uint256","name":"_collateralRate","type":"uint256"},{"internalType":"uint256","name":"_liquiditionBonusRate","type":"uint256"}],"stateMutability":"nonpayable","type":"constructor"},{"inputs":[],"name":"baseBorrowRate","outputs":[{"internalType":"uint256","name":"","type":"uint256"}],"stateMutability":"view","type":"function"},{"inputs":[{"internalType":"uint256","name":"_totalBorrows","type":"uint256"},{"internalType":"uint256","name":"_totalLiquidity","type":"uint256"}],"name":"calculateBorrowInterestRate","outputs":[{"internalType":"uint256","name":"","type":"uint256"}],"stateMutability":"view","type":"function"},{"inputs":[],"name":"collateralRate","outputs":[{"internalType":"uint256","name":"","type":"uint256"}],"stateMutability":"view","type":"function"},{"inputs":[],"name":"excessSpan","outputs":[{"internalType":"uint256","name":"","type":"uint256"}],"stateMutability":"view","type":"function"},{"inputs":[{"internalType":"uint256","name":"_totalBorrows","type":"uint256"},{"internalType":"uint256","name":"_totalLiquidity","type":"uint256"}],"name":"getUtilizationRate","outputs":[{"internalType":"uint256","name":"","type":"uint256"}],"stateMutability":"pure","type":"function"},{"inputs":[],"name":"liquidationBonusRate","outputs":[{"internalType":"uint256","name":"","type":"uint256"}],"stateMutability":"view","type":"function"},{"inputs":[],"name":"optimalSpan","outputs":[{"internalType":"uint256","name":"","type":"uint256"}],"stateMutability":"view","type":"function"},{"inputs":[],"name":"optimalUtilizationRate","outputs":[{"internalType":"uint256","name":"","type":"uint256"}],"stateMutability":"view","type":"function"}],"evm":{"bytecode":{"linkReferences":{},"object":"608060405234801561001057600080fd5b506040516106e43803806106e4833981810160405281019061003291906100ec565b670de0b6b3a7640000831061007c576040517f08c379a0000000000000000000000000000000000000000000000000000000008152600401610073906101fc565b60405180910390fd5b85600081905550846001819055508360028190555082600381905550816004819055508060058190555050505050505061021c565b600080fd5b6000819050919050565b6100c9816100b6565b81146100d457600080fd5b50565b6000815190506100e6816100c0565b92915050565b60008060008060008060c08789031215610109576101086100b1565b5b600061011789828a016100d7565b965050602061012889828a016100d7565b955050604061013989828a016100d7565b945050606061014a89828a016100d7565b935050608061015b89828a016100d7565b92505060a061016c89828a016100d7565b9150509295509295509295565b600082825260208201905092915050565b7f494e56414c49445f4f5054494d414c5f5554494c495a494154494f4e5f52415460008201527f4500000000000000000000000000000000000000000000000000000000000000602082015250565b60006101e6602183610179565b91506101f18261018a565b604082019050919050565b60006020820190508181036000830152610215816101d9565b9050919050565b6104b98061022b6000396000f3fe608060405234801561001057600080fd5b50600436106100885760003560e01c8063687969801161005b5780636879698014610129578063bf38668214610147578063dffd2b3814610165578063e98376da1461018357610088565b806310b2b3b71461008d5780631a792944146100ab57806345ade051146100db57806358a6be1c1461010b575b600080fd5b6100956101a1565b6040516100a291906102be565b60405180910390f35b6100c560048036038101906100c0919061030a565b6101a7565b6040516100d291906102be565b60405180910390f35b6100f560048036038101906100f0919061030a565b61024f565b60405161010291906102be565b60405180910390f35b610113610287565b60405161012091906102be565b60405180910390f35b61013161028d565b60405161013e91906102be565b60405180910390f35b61014f610293565b60405161015c91906102be565b60405180910390f35b61016d610299565b60405161017a91906102be565b60405180910390f35b61018b61029f565b60405161019891906102be565b60405180910390f35b60025481565b6000806101b4848461024f565b905060035481111561021d57600354670de0b6b3a76400006101d69190610379565b600354826101e49190610379565b6002546101f191906103ad565b6101fb919061041e565b60015460005461020b919061044f565b610215919061044f565b915050610249565b6003546001548261022e91906103ad565b610238919061041e565b600054610245919061044f565b9150505b92915050565b600080821461027c5781670de0b6b3a76400008461026d91906103ad565b610277919061041e565b61027f565b60005b905092915050565b60045481565b60015481565b60005481565b60035481565b60055481565b6000819050919050565b6102b8816102a5565b82525050565b60006020820190506102d360008301846102af565b92915050565b600080fd5b6102e7816102a5565b81146102f257600080fd5b50565b600081359050610304816102de565b92915050565b60008060408385031215610321576103206102d9565b5b600061032f858286016102f5565b9250506020610340858286016102f5565b9150509250929050565b7f4e487b7100000000000000000000000000000000000000000000000000000000600052601160045260246000fd5b6000610384826102a5565b915061038f836102a5565b92508282039050818111156103a7576103a661034a565b5b92915050565b60006103b8826102a5565b91506103c3836102a5565b92508282026103d1816102a5565b915082820484148315176103e8576103e761034a565b5b5092915050565b7f4e487b7100000000000000000000000000000000000000000000000000000000600052601260045260246000fd5b6000610429826102a5565b9150610434836102a5565b925082610444576104436103ef565b5b828204905092915050565b600061045a826102a5565b9150610465836102a5565b925082820190508082111561047d5761047c61034a565b5b9291505056fea264697066735822122068c18e733b91e858bccfed6519ae53c6bae39f73e89df3fdcbd2f1aad1bfeafe64736f6c634300081c0033","opcodes":"PUSH1 0x80 PUSH1 0x40 MSTORE CALLVALUE DUP1 ISZERO PUSH2 0x10 JUMPI PUSH1 0x0 DUP1 REVERT JUMPDEST POP PUSH1 0x40 MLOAD PUSH2 0x6E4 CODESIZE SUB DUP1 PUSH2 0x6E4 DUP4 CODECOPY DUP2 DUP2 ADD PUSH1 0x40 MSTORE DUP2 ADD SWAP1 PUSH2 0x32 SWAP2 SWAP1 PUSH2 0xEC JUMP JUMPDEST PUSH8 0xDE0B6B3A7640000 DUP4 LT PUSH2 0x7C JUMPI PUSH1 0x40 MLOAD PUSH32 0x8C379A000000000000000000000000000000000000000000000000000000000 DUP2 MSTORE PUSH1 0x4 ADD PUSH2 0x73 SWAP1 PUSH2 0x1FC JUMP JUMPDEST PUSH1 0x40 MLOAD DUP1 SWAP2 SUB SWAP1 REVERT JUMPDEST DUP6 PUSH1 0x0 DUP2 SWAP1 SSTORE POP DUP5 PUSH1 0x1 DUP2 SWAP1 SSTORE POP DUP4 PUSH1 0x2 DUP2 SWAP1 SSTORE POP DUP3 PUSH1 0x3 DUP2 SWAP1 SSTORE POP DUP2 PUSH1 0x4 DUP2 SWAP1 SSTORE POP DUP1 PUSH1 0x5 DUP2 SWAP1 SSTORE POP POP POP POP POP POP POP PUSH2 0x21C JUMP JUMPDEST PUSH1 0x0 DUP1 REVERT JUMPDEST PUSH1 0x0 DUP2 SWAP1 POP SWAP2 SWAP1 POP JUMP JUMPDEST PUSH2 0xC9 DUP2 PUSH2 0xB6 JUMP JUMPDEST DUP2 EQ PUSH2 0xD4 JUMPI PUSH1 0x0 DUP1 REVERT JUMPDEST POP JUMP JUMPDEST PUSH1 0x0 DUP2 MLOAD SWAP1 POP PUSH2 0xE6 DUP2 PUSH2 0xC0 JUMP JUMPDEST SWAP3 SWAP2 POP POP JUMP JUMPDEST PUSH1 0x0 DUP1 PUSH1 0x0 DUP1 PUSH1 0x0 DUP1 PUSH1 0xC0 DUP8 DUP10 SUB SLT ISZERO PUSH2 0x109 JUMPI PUSH2 0x108 PUSH2 0xB1 JUMP JUMPDEST JUMPDEST PUSH1 0x0 PUSH2 0x117 DUP10 DUP3 DUP11 ADD PUSH2 0xD7 JUMP JUMPDEST SWAP7 POP POP PUSH1 0x20 PUSH2 0x128 DUP10 DUP3 DUP11 ADD PUSH2 0xD7 JUMP JUMPDEST SWAP6 POP POP PUSH1 0x40 PUSH2 0x139 DUP10 DUP3 DUP11 ADD PUSH2 0xD7 JUMP JUMPDEST SWAP5 POP POP PUSH1 0x60 PUSH2 0x14A DUP10 DUP3 DUP11 ADD PUSH2 0xD7 JUMP JUMPDEST SWAP4 POP POP PUSH1 0x80 PUSH2 0x15B DUP10 DUP3 DUP11 ADD PUSH2 0xD7 JUMP JUMPDEST SWAP3 POP POP PUSH1 0xA0 PUSH2 0x16C DUP10 DUP3 DUP11 ADD PUSH2 0xD7 JUMP JUMPDEST SWAP2 POP POP SWAP3 SWAP6 POP SWAP3 SWAP6 POP SWAP3 SWAP6 JUMP JUMPDEST PUSH1 0x0 DUP3 DUP3 MSTORE PUSH1 0x20 DUP3 ADD SWAP1 POP SWAP3 SWAP2 POP POP JUMP JUMPDEST PUSH32 0x494E56414C49445F4F5054494D414C5F5554494C495A494154494F4E5F524154 PUSH1 0x0 DUP3 ADD MSTORE PUSH32 0x4500000000000000000000000000000000000000000000000000000000000000 PUSH1 0x20 DUP3 ADD MSTORE POP JUMP JUMPDEST PUSH1 0x0 PUSH2 0x1E6 PUSH1 0x21 DUP4 PUSH2 0x179 JUMP JUMPDEST SWAP2 POP PUSH2 0x1F1 DUP3 PUSH2 0x18A JUMP JUMPDEST PUSH1 0x40 DUP3 ADD SWAP1 POP SWAP2 SWAP1 POP JUMP JUMPDEST PUSH1 0x0 PUSH1 0x20 DUP3 ADD SWAP1 POP DUP2 DUP2 SUB PUSH1 0x0 DUP4 ADD MSTORE PUSH2 0x215 DUP2 PUSH2 0x1D9 JUMP JUMPDEST SWAP1 POP SWAP2 SWAP1 POP JUMP JUMPDEST PUSH2 0x4B9 DUP1 PUSH2 0x22B PUSH1 0x0 CODECOPY PUSH1 0x0 RETURN INVALID PUSH1 0x80 PUSH1 0x40 MSTORE CALLVALUE DUP1 ISZERO PUSH2 0x10 JUMPI PUSH1 0x0 DUP1 REVERT JUMPDEST POP PUSH1 0x4 CALLDATASIZE LT PUSH2 0x88 JUMPI PUSH1 0x0 CALLDATALOAD PUSH1 0xE0 SHR DUP1 PUSH4 0x68796980 GT PUSH2 0x5B JUMPI DUP1 PUSH4 0x68796980 EQ PUSH2 0x129 JUMPI DUP1 PUSH4 0xBF386682 EQ PUSH2 0x147 JUMPI DUP1 PUSH4 0xDFFD2B38 EQ PUSH2 0x165 JUMPI DUP1 PUSH4 0xE98376DA EQ PUSH2 0x183 JUMPI PUSH2 0x88 JUMP JUMPDEST DUP1 PUSH4 0x10B2B3B7 EQ PUSH2 0x8D JUMPI DUP1 PUSH4 0x1A792944 EQ PUSH2 0xAB JUMPI DUP1 PUSH4 0x45ADE051 EQ PUSH2 0xDB JUMPI DUP1 PUSH4 0x58A6BE1C EQ PUSH2 0x10B JUMPI JUMPDEST PUSH1 0x0 DUP1 REVERT JUMPDEST PUSH2 0x95 PUSH2 0x1A1 JUMP JUMPDEST PUSH1 0x40 MLOAD PUSH2 0xA2 SWAP2 SWAP1 PUSH2 0x2BE JUMP JUMPDEST PUSH1 0x40 MLOAD DUP1 SWAP2 SUB SWAP1 RETURN JUMPDEST PUSH2 0xC5 PUSH1 0x4 DUP1 CALLDATASIZE SUB DUP2 ADD SWAP1 PUSH2 0xC0 SWAP2 SWAP1 PUSH2 0x30A JUMP JUMPDEST PUSH2 0x1A7 JUMP JUMPDEST PUSH1 0x40 MLOAD PUSH2 0xD2 SWAP2 SWAP1 PUSH2 0x2BE JUMP JUMPDEST PUSH1 0x40 MLOAD DUP1 SWAP2 SUB SWAP1 RETURN JUMPDEST PUSH2 0xF5 PUSH1 0x4 DUP1 CALLDATASIZE SUB DUP2 ADD SWAP1 PUSH2 0xF0 SWAP2 SWAP1 PUSH2 0x30A JUMP JUMPDEST PUSH2 0x24F JUMP JUMPDEST PUSH1 0x40 MLOAD PUSH2 0x102 SWAP2 SWAP1 PUSH2 0x2BE JUMP JUMPDEST PUSH1 0x40 MLOAD DUP1 SWAP2 SUB SWAP1 RETURN JUMPDEST PUSH2 0x113 PUSH2 0x287 JUMP JUMPDEST PUSH1 0x40 MLOAD PUSH2 0x120 SWAP2 SWAP1 PUSH2 0x2BE JUMP JUMPDEST PUSH1 0x40 MLOAD DUP1 SWAP2 SUB SWAP1 RETURN JUMPDEST PUSH2 0x131 PUSH2 0x28D JUMP JUMPDEST PUSH1 0x40 MLOAD PUSH2 0x13E SWAP2 SWAP1 PUSH2 0x2BE JUMP JUMPDEST PUSH1 0x40 MLOAD DUP1 SWAP2 SUB SWAP1 RETURN JUMPDEST PUSH2 0x14F PUSH2 0x293 JUMP JUMPDEST PUSH1 0x40 MLOAD PUSH2 0x15C SWAP2 SWAP1 PUSH2 0x2BE JUMP JUMPDEST PUSH1 0x40 MLOAD DUP1 SWAP2 SUB SWAP1 RETURN JUMPDEST PUSH2 0x16D PUSH2 0x299 JUMP JUMPDEST PUSH1 0x40 MLOAD PUSH2 0x17A SWAP2 SWAP1 PUSH2 0x2BE JUMP JUMPDEST PUSH1 0x40 MLOAD DUP1 SWAP2 SUB SWAP1 RETURN JUMPDEST PUSH2 0x18B PUSH2 0x29F JUMP JUMPDEST PUSH1 0x40 MLOAD PUSH2 0x198 SWAP2 SWAP1 PUSH2 0x2BE JUMP JUMPDEST PUSH1 0x40 MLOAD DUP1 SWAP2 SUB SWAP1 RETURN JUMPDEST PUSH1 0x2 SLOAD DUP2 JUMP JUMPDEST PUSH1 0x0 DUP1 PUSH2 0x1B4 DUP5 DUP5 PUSH2 0x24F JUMP JUMPDEST SWAP1 POP PUSH1 0x3 SLOAD DUP2 GT ISZERO PUSH2 0x21D JUMPI PUSH1 0x3 SLOAD PUSH8 0xDE0B6B3A7640000 PUSH2 0x1D6 SWAP2 SWAP1 PUSH2 0x379 JUMP JUMPDEST PUSH1 0x3 SLOAD DUP3 PUSH2 0x1E4 SWAP2 SWAP1 PUSH2 0x379 JUMP JUMPDEST PUSH1 0x2 SLOAD PUSH2 0x1F1 SWAP2 SWAP1 PUSH2 0x3AD JUMP JUMPDEST PUSH2 0x1FB SWAP2 SWAP1 PUSH2 0x41E JUMP JUMPDEST PUSH1 0x1 SLOAD PUSH1 0x0 SLOAD PUSH2 0x20B SWAP2 SWAP1 PUSH2 0x44F JUMP JUMPDEST PUSH2 0x215 SWAP2 SWAP1 PUSH2 0x44F JUMP JUMPDEST SWAP2 POP POP PUSH2 0x249 JUMP JUMPDEST PUSH1 0x3 SLOAD PUSH1 0x1 SLOAD DUP3 PUSH2 0x22E SWAP2 SWAP1 PUSH2 0x3AD JUMP JUMPDEST PUSH2 0x238 SWAP2 SWAP1 PUSH2 0x41E JUMP JUMPDEST PUSH1 0x0 SLOAD PUSH2 0x245 SWAP2 SWAP1 PUSH2 0x44F JUMP JUMPDEST SWAP2 POP POP JUMPDEST SWAP3 SWAP2 POP POP JUMP JUMPDEST PUSH1 0x0 DUP1 DUP3 EQ PUSH2 0x27C JUMPI DUP2 PUSH8 0xDE0B6B3A7640000 DUP5 PUSH2 0x26D SWAP2 SWAP1 PUSH2 0x3AD JUMP JUMPDEST PUSH2 0x277 SWAP2 SWAP1 PUSH2 0x41E JUMP JUMPDEST PUSH2 0x27F JUMP JUMPDEST PUSH1 0x0 JUMPDEST SWAP1 POP SWAP3 SWAP2 POP POP JUMP JUMPDEST PUSH1 0x4 SLOAD DUP2 JUMP JUMPDEST PUSH1 0x1 SLOAD DUP2 JUMP JUMPDEST PUSH1 0x0 SLOAD DUP2 JUMP JUMPDEST PUSH1 0x3 SLOAD DUP2 JUMP JUMPDEST PUSH1 0x5 SLOAD DUP2 JUMP JUMPDEST PUSH1 0x0 DUP2 SWAP1 POP SWAP2 SWAP1 POP JUMP JUMPDEST PUSH2 0x2B8 DUP2 PUSH2 0x2A5 JUMP JUMPDEST DUP3 MSTORE POP POP JUMP JUMPDEST PUSH1 0x0 PUSH1 0x20 DUP3 ADD SWAP1 POP PUSH2 0x2D3 PUSH1 0x0 DUP4 ADD DUP5 PUSH2 0x2AF JUMP JUMPDEST SWAP3 SWAP2 POP POP JUMP JUMPDEST PUSH1 0x0 DUP1 REVERT JUMPDEST PUSH2 0x2E7 DUP2 PUSH2 0x2A5 JUMP JUMPDEST DUP2 EQ PUSH2 0x2F2 JUMPI PUSH1 0x0 DUP1 REVERT JUMPDEST POP JUMP JUMPDEST PUSH1 0x0 DUP2 CALLDATALOAD SWAP1 POP PUSH2 0x304 DUP2 PUSH2 0x2DE JUMP JUMPDEST SWAP3 SWAP2 POP POP JUMP JUMPDEST PUSH1 0x0 DUP1 PUSH1 0x40 DUP4 DUP6 SUB SLT ISZERO PUSH2 0x321 JUMPI PUSH2 0x320 PUSH2 0x2D9 JUMP JUMPDEST JUMPDEST PUSH1 0x0 PUSH2 0x32F DUP6 DUP3 DUP7 ADD PUSH2 0x2F5 JUMP JUMPDEST SWAP3 POP POP PUSH1 0x20 PUSH2 0x340 DUP6 DUP3 DUP7 ADD PUSH2 0x2F5 JUMP JUMPDEST SWAP2 POP POP SWAP3 POP SWAP3 SWAP1 POP JUMP JUMPDEST PUSH32 0x4E487B7100000000000000000000000000000000000000000000000000000000 PUSH1 0x0 MSTORE PUSH1 0x11 PUSH1 0x4 MSTORE PUSH1 0x24 PUSH1 0x0 REVERT JUMPDEST PUSH1 0x0 PUSH2 0x384 DUP3 PUSH2 0x2A5 JUMP JUMPDEST SWAP2 POP PUSH2 0x38F DUP4 PUSH2 0x2A5 JUMP JUMPDEST SWAP3 POP DUP3 DUP3 SUB SWAP1 POP DUP2 DUP2 GT ISZERO PUSH2 0x3A7 JUMPI PUSH2 0x3A6 PUSH2 0x34A JUMP JUMPDEST JUMPDEST SWAP3 SWAP2 POP POP JUMP JUMPDEST PUSH1 0x0 PUSH2 0x3B8 DUP3 PUSH2 0x2A5 JUMP JUMPDEST SWAP2 POP PUSH2 0x3C3 DUP4 PUSH2 0x2A5 JUMP JUMPDEST SWAP3 POP DUP3 DUP3 MUL PUSH2 0x3D1 DUP2 PUSH2 0x2A5 JUMP JUMPDEST SWAP2 POP DUP3 DUP3 DIV DUP5 EQ DUP4 ISZERO OR PUSH2 0x3E8 JUMPI PUSH2 0x3E7 PUSH2 0x34A JUMP JUMPDEST JUMPDEST POP SWAP3 SWAP2 POP POP JUMP JUMPDEST PUSH32 0x4E487B7100000000000000000000000000000000000000000000000000000000 PUSH1 0x0 MSTORE PUSH1 0x12 PUSH1 0x4 MSTORE PUSH1 0x24 PUSH1 0x0 REVERT JUMPDEST PUSH1 0x0 PUSH2 0x429 DUP3 PUSH2 0x2A5 JUMP JUMPDEST SWAP2 POP PUSH2 0x434 DUP4 PUSH2 0x2A5 JUMP JUMPDEST SWAP3 POP DUP3 PUSH2 0x444 JUMPI PUSH2 0x443 PUSH2 0x3EF JUMP JUMPDEST JUMPDEST DUP3 DUP3 DIV SWAP1 POP SWAP3 SWAP2 POP POP JUMP JUMPDEST PUSH1 0x0 PUSH2 0x45A DUP3 PUSH2 0x2A5 JUMP JUMPDEST SWAP2 POP PUSH2 0x465 DUP4 PUSH2 0x2A5 JUMP JUMPDEST SWAP3 POP DUP3 DUP3 ADD SWAP1 POP DUP1 DUP3 GT ISZERO PUSH2 0x47D JUMPI PUSH2 0x47C PUSH2 0x34A JUMP JUMPDEST JUMPDEST SWAP3 SWAP2 POP POP JUMP INVALID LOG2 PUSH5 0x6970667358 0x22 SLT KECCAK256 PUSH9 0xC18E733B91E858BCCF 0xED PUSH6 0x19AE53C6BAE3 SWAP16 PUSH20 0xE89DF3FDCBD2F1AAD1BFEAFE64736F6C63430008 SHR STOP CALLER "},"methodIdentifiers":{"baseBorrowRate()":"bf386682","calculateBorrowInterestRate(uint256,uint256)":"1a792944","collateralRate()":"58a6be1c","excessSpan()":"10b2b3b7","getUtilizationRate(uint256,uint256)":"45ade051","liquidationBonusRate()":"e98376da","optimalSpan()":"68796980","optimalUtilizationRate()":"dffd2b38"}}}}}